{
	"contracts/DisasterRecoveryTraining.sol": {
		"DisasterRecoveryTraining": {
			"abi": [
				{
					"inputs": [],
					"stateMutability": "nonpayable",
					"type": "constructor"
				},
				{
					"inputs": [
						{
							"internalType": "uint256",
							"name": "trainerId",
							"type": "uint256"
						},
						{
							"internalType": "uint256",
							"name": "participantId",
							"type": "uint256"
						},
						{
							"internalType": "uint256",
							"name": "slotId",
							"type": "uint256"
						}
					],
					"name": "bookTrainingSlot",
					"outputs": [
						{
							"internalType": "bool",
							"name": "",
							"type": "bool"
						}
					],
					"stateMutability": "nonpayable",
					"type": "function"
				},
				{
					"inputs": [
						{
							"internalType": "uint256",
							"name": "id",
							"type": "uint256"
						},
						{
							"internalType": "string",
							"name": "name",
							"type": "string"
						},
						{
							"internalType": "uint256",
							"name": "age",
							"type": "uint256"
						}
					],
					"name": "registerAdmin",
					"outputs": [
						{
							"internalType": "uint256",
							"name": "",
							"type": "uint256"
						}
					],
					"stateMutability": "nonpayable",
					"type": "function"
				},
				{
					"inputs": [
						{
							"internalType": "uint256",
							"name": "id",
							"type": "uint256"
						},
						{
							"internalType": "string",
							"name": "name",
							"type": "string"
						},
						{
							"internalType": "uint256",
							"name": "age",
							"type": "uint256"
						},
						{
							"internalType": "string",
							"name": "gender",
							"type": "string"
						},
						{
							"internalType": "string",
							"name": "district",
							"type": "string"
						},
						{
							"internalType": "uint256",
							"name": "training_interest",
							"type": "uint256"
						},
						{
							"internalType": "bool",
							"name": "has_completed_training",
							"type": "bool"
						}
					],
					"name": "registerParticipant",
					"outputs": [
						{
							"internalType": "uint256",
							"name": "",
							"type": "uint256"
						}
					],
					"stateMutability": "nonpayable",
					"type": "function"
				},
				{
					"inputs": [
						{
							"internalType": "uint256",
							"name": "id",
							"type": "uint256"
						},
						{
							"internalType": "string",
							"name": "name",
							"type": "string"
						},
						{
							"internalType": "uint256",
							"name": "age",
							"type": "uint256"
						},
						{
							"internalType": "string",
							"name": "gender",
							"type": "string"
						}
					],
					"name": "registerTrainer",
					"outputs": [
						{
							"internalType": "uint256",
							"name": "",
							"type": "uint256"
						}
					],
					"stateMutability": "nonpayable",
					"type": "function"
				},
				{
					"inputs": [
						{
							"internalType": "uint256",
							"name": "participantId",
							"type": "uint256"
						},
						{
							"internalType": "uint256",
							"name": "newTrainingInterest",
							"type": "uint256"
						},
						{
							"internalType": "bool",
							"name": "has_completed_training",
							"type": "bool"
						}
					],
					"name": "updateParticipantData",
					"outputs": [],
					"stateMutability": "nonpayable",
					"type": "function"
				},
				{
					"inputs": [],
					"name": "viewAdminBalance",
					"outputs": [
						{
							"internalType": "uint256[]",
							"name": "adminIdList",
							"type": "uint256[]"
						},
						{
							"internalType": "uint256[]",
							"name": "balanceList",
							"type": "uint256[]"
						}
					],
					"stateMutability": "view",
					"type": "function"
				},
				{
					"inputs": [
						{
							"internalType": "uint256",
							"name": "participantId",
							"type": "uint256"
						}
					],
					"name": "viewParticipantData",
					"outputs": [
						{
							"internalType": "uint256",
							"name": "id",
							"type": "uint256"
						},
						{
							"internalType": "string",
							"name": "name",
							"type": "string"
						},
						{
							"internalType": "uint256",
							"name": "age",
							"type": "uint256"
						},
						{
							"internalType": "string",
							"name": "gender",
							"type": "string"
						},
						{
							"internalType": "string",
							"name": "district",
							"type": "string"
						},
						{
							"internalType": "uint256",
							"name": "training_interest",
							"type": "uint256"
						},
						{
							"internalType": "bool",
							"name": "has_completed_training",
							"type": "bool"
						},
						{
							"internalType": "uint256",
							"name": "balance",
							"type": "uint256"
						}
					],
					"stateMutability": "view",
					"type": "function"
				},
				{
					"inputs": [
						{
							"internalType": "uint256",
							"name": "trainerId",
							"type": "uint256"
						}
					],
					"name": "viewTrainerSchedule",
					"outputs": [
						{
							"internalType": "uint256[]",
							"name": "availableSlots",
							"type": "uint256[]"
						},
						{
							"internalType": "string[]",
							"name": "timeRanges",
							"type": "string[]"
						}
					],
					"stateMutability": "view",
					"type": "function"
				}
			],
			"devdoc": {
				"kind": "dev",
				"methods": {},
				"version": 1
			},
			"evm": {
				"assembly": "    /* \"contracts/DisasterRecoveryTraining.sol\":57:9548  contract DisasterRecoveryTraining {... */\n  mstore(0x40, 0x80)\n    /* \"contracts/DisasterRecoveryTraining.sol\":1696:1943  constructor() {... */\n  callvalue\n  dup1\n  iszero\n  tag_1\n  jumpi\n  revert(0x00, 0x00)\ntag_1:\n  pop\n    /* \"contracts/DisasterRecoveryTraining.sol\":1764:1765  0 */\n  0x00\n    /* \"contracts/DisasterRecoveryTraining.sol\":1751:1761  adminCount */\n  0x00\n    /* \"contracts/DisasterRecoveryTraining.sol\":1751:1765  adminCount = 0 */\n  dup2\n  swap1\n  sstore\n  pop\n    /* \"contracts/DisasterRecoveryTraining.sol\":1790:1791  0 */\n  0x00\n    /* \"contracts/DisasterRecoveryTraining.sol\":1775:1787  trainerCount */\n  0x01\n    /* \"contracts/DisasterRecoveryTraining.sol\":1775:1791  trainerCount = 0 */\n  dup2\n  swap1\n  sstore\n  pop\n    /* \"contracts/DisasterRecoveryTraining.sol\":1820:1821  0 */\n  0x00\n    /* \"contracts/DisasterRecoveryTraining.sol\":1801:1817  participantCount */\n  0x02\n    /* \"contracts/DisasterRecoveryTraining.sol\":1801:1821  participantCount = 0 */\n  dup2\n  swap1\n  sstore\n  pop\n    /* \"contracts/DisasterRecoveryTraining.sol\":57:9548  contract DisasterRecoveryTraining {... */\n  dataSize(sub_0)\n  dup1\n  dataOffset(sub_0)\n  0x00\n  codecopy\n  0x00\n  return\nstop\n\nsub_0: assembly {\n        /* \"contracts/DisasterRecoveryTraining.sol\":57:9548  contract DisasterRecoveryTraining {... */\n      mstore(0x40, 0x80)\n      callvalue\n      dup1\n      iszero\n      tag_1\n      jumpi\n      revert(0x00, 0x00)\n    tag_1:\n      pop\n      jumpi(tag_2, lt(calldatasize, 0x04))\n      shr(0xe0, calldataload(0x00))\n      dup1\n      0x6620f95f\n      gt\n      tag_11\n      jumpi\n      dup1\n      0x6620f95f\n      eq\n      tag_7\n      jumpi\n      dup1\n      0x6c80cd33\n      eq\n      tag_8\n      jumpi\n      dup1\n      0x710e2aba\n      eq\n      tag_9\n      jumpi\n      dup1\n      0xa30b027b\n      eq\n      tag_10\n      jumpi\n      jump(tag_2)\n    tag_11:\n      dup1\n      0x3a7002e1\n      eq\n      tag_3\n      jumpi\n      dup1\n      0x51eca4dd\n      eq\n      tag_4\n      jumpi\n      dup1\n      0x5a29dc29\n      eq\n      tag_5\n      jumpi\n      dup1\n      0x5ffc80f2\n      eq\n      tag_6\n      jumpi\n    tag_2:\n      revert(0x00, 0x00)\n        /* \"contracts/DisasterRecoveryTraining.sol\":3696:4294  function updateParticipantData(uint256 participantId, uint256 newTrainingInterest, bool has_completed_training) external {... */\n    tag_3:\n      tag_12\n      0x04\n      dup1\n      calldatasize\n      sub\n      dup2\n      add\n      swap1\n      tag_13\n      swap2\n      swap1\n      tag_14\n      jump\t// in\n    tag_13:\n      tag_15\n      jump\t// in\n    tag_12:\n      stop\n        /* \"contracts/DisasterRecoveryTraining.sol\":7802:9546  function viewTrainerSchedule(uint256 trainerId) external view returns (... */\n    tag_4:\n      tag_16\n      0x04\n      dup1\n      calldatasize\n      sub\n      dup2\n      add\n      swap1\n      tag_17\n      swap2\n      swap1\n      tag_18\n      jump\t// in\n    tag_17:\n      tag_19\n      jump\t// in\n    tag_16:\n      mload(0x40)\n      tag_20\n      swap3\n      swap2\n      swap1\n      tag_21\n      jump\t// in\n    tag_20:\n      mload(0x40)\n      dup1\n      swap2\n      sub\n      swap1\n      return\n        /* \"contracts/DisasterRecoveryTraining.sol\":5824:6390  function viewAdminBalance() external view returns (uint256[] memory adminIdList, uint256[] memory balanceList) {... */\n    tag_5:\n      tag_22\n      tag_23\n      jump\t// in\n    tag_22:\n      mload(0x40)\n      tag_24\n      swap3\n      swap2\n      swap1\n      tag_25\n      jump\t// in\n    tag_24:\n      mload(0x40)\n      dup1\n      swap2\n      sub\n      swap1\n      return\n        /* \"contracts/DisasterRecoveryTraining.sol\":6455:7152  function viewParticipantData(uint256 participantId) external view returns (... */\n    tag_6:\n      tag_26\n      0x04\n      dup1\n      calldatasize\n      sub\n      dup2\n      add\n      swap1\n      tag_27\n      swap2\n      swap1\n      tag_18\n      jump\t// in\n    tag_27:\n      tag_28\n      jump\t// in\n    tag_26:\n      mload(0x40)\n      tag_29\n      swap9\n      swap8\n      swap7\n      swap6\n      swap5\n      swap4\n      swap3\n      swap2\n      swap1\n      tag_30\n      jump\t// in\n    tag_29:\n      mload(0x40)\n      dup1\n      swap2\n      sub\n      swap1\n      return\n        /* \"contracts/DisasterRecoveryTraining.sol\":4382:5681  function bookTrainingSlot(uint256 trainerId, uint256 participantId, uint256 slotId) external returns (bool) {... */\n    tag_7:\n      tag_31\n      0x04\n      dup1\n      calldatasize\n      sub\n      dup2\n      add\n      swap1\n      tag_32\n      swap2\n      swap1\n      tag_33\n      jump\t// in\n    tag_32:\n      tag_34\n      jump\t// in\n    tag_31:\n      mload(0x40)\n      tag_35\n      swap2\n      swap1\n      tag_36\n      jump\t// in\n    tag_35:\n      mload(0x40)\n      dup1\n      swap2\n      sub\n      swap1\n      return\n        /* \"contracts/DisasterRecoveryTraining.sol\":2401:2782  function registerTrainer(uint256 id, string memory name, uint256 age, string memory gender) external returns (uint256) {... */\n    tag_8:\n      tag_37\n      0x04\n      dup1\n      calldatasize\n      sub\n      dup2\n      add\n      swap1\n      tag_38\n      swap2\n      swap1\n      tag_39\n      jump\t// in\n    tag_38:\n      tag_40\n      jump\t// in\n    tag_37:\n      mload(0x40)\n      tag_41\n      swap2\n      swap1\n      tag_42\n      jump\t// in\n    tag_41:\n      mload(0x40)\n      dup1\n      swap2\n      sub\n      swap1\n      return\n        /* \"contracts/DisasterRecoveryTraining.sol\":2022:2391  function registerAdmin(uint256 id, string memory name, uint256 age) external returns (uint256) {... */\n    tag_9:\n      tag_43\n      0x04\n      dup1\n      calldatasize\n      sub\n      dup2\n      add\n      swap1\n      tag_44\n      swap2\n      swap1\n      tag_45\n      jump\t// in\n    tag_44:\n      tag_46\n      jump\t// in\n    tag_43:\n      mload(0x40)\n      tag_47\n      swap2\n      swap1\n      tag_42\n      jump\t// in\n    tag_47:\n      mload(0x40)\n      dup1\n      swap2\n      sub\n      swap1\n      return\n        /* \"contracts/DisasterRecoveryTraining.sol\":2792:3611  function registerParticipant(... */\n    tag_10:\n      tag_48\n      0x04\n      dup1\n      calldatasize\n      sub\n      dup2\n      add\n      swap1\n      tag_49\n      swap2\n      swap1\n      tag_50\n      jump\t// in\n    tag_49:\n      tag_51\n      jump\t// in\n    tag_48:\n      mload(0x40)\n      tag_52\n      swap2\n      swap1\n      tag_42\n      jump\t// in\n    tag_52:\n      mload(0x40)\n      dup1\n      swap2\n      sub\n      swap1\n      return\n        /* \"contracts/DisasterRecoveryTraining.sol\":3696:4294  function updateParticipantData(uint256 participantId, uint256 newTrainingInterest, bool has_completed_training) external {... */\n    tag_15:\n        /* \"contracts/DisasterRecoveryTraining.sol\":3869:3870  0 */\n      0x00\n        /* \"contracts/DisasterRecoveryTraining.sol\":3835:3847  participants */\n      0x05\n        /* \"contracts/DisasterRecoveryTraining.sol\":3835:3862  participants[participantId] */\n      0x00\n        /* \"contracts/DisasterRecoveryTraining.sol\":3848:3861  participantId */\n      dup6\n        /* \"contracts/DisasterRecoveryTraining.sol\":3835:3862  participants[participantId] */\n      dup2\n      mstore\n      0x20\n      add\n      swap1\n      dup2\n      mstore\n      0x20\n      add\n      0x00\n      keccak256\n        /* \"contracts/DisasterRecoveryTraining.sol\":3835:3865  participants[participantId].id */\n      0x00\n      add\n      sload\n        /* \"contracts/DisasterRecoveryTraining.sol\":3835:3870  participants[participantId].id != 0 */\n      sub\n        /* \"contracts/DisasterRecoveryTraining.sol\":3827:3896  require(participants[participantId].id != 0, \"Participant not found\") */\n      tag_54\n      jumpi\n      mload(0x40)\n      0x08c379a000000000000000000000000000000000000000000000000000000000\n      dup2\n      mstore\n      0x04\n      add\n      tag_55\n      swap1\n      tag_56\n      jump\t// in\n    tag_55:\n      mload(0x40)\n      dup1\n      swap2\n      sub\n      swap1\n      revert\n    tag_54:\n        /* \"contracts/DisasterRecoveryTraining.sol\":3937:3938  2 */\n      0x02\n        /* \"contracts/DisasterRecoveryTraining.sol\":3914:3933  newTrainingInterest */\n      dup3\n        /* \"contracts/DisasterRecoveryTraining.sol\":3914:3938  newTrainingInterest <= 2 */\n      gt\n      iszero\n        /* \"contracts/DisasterRecoveryTraining.sol\":3906:3968  require(newTrainingInterest <= 2, \"Invalid training interest\") */\n      tag_57\n      jumpi\n      mload(0x40)\n      0x08c379a000000000000000000000000000000000000000000000000000000000\n      dup2\n      mstore\n      0x04\n      add\n      tag_58\n      swap1\n      tag_59\n      jump\t// in\n    tag_58:\n      mload(0x40)\n      dup1\n      swap2\n      sub\n      swap1\n      revert\n    tag_57:\n        /* \"contracts/DisasterRecoveryTraining.sol\":3987:4008  Participant storage p */\n      0x00\n        /* \"contracts/DisasterRecoveryTraining.sol\":4011:4023  participants */\n      0x05\n        /* \"contracts/DisasterRecoveryTraining.sol\":4011:4038  participants[participantId] */\n      0x00\n        /* \"contracts/DisasterRecoveryTraining.sol\":4024:4037  participantId */\n      dup6\n        /* \"contracts/DisasterRecoveryTraining.sol\":4011:4038  participants[participantId] */\n      dup2\n      mstore\n      0x20\n      add\n      swap1\n      dup2\n      mstore\n      0x20\n      add\n      0x00\n      keccak256\n        /* \"contracts/DisasterRecoveryTraining.sol\":3987:4038  Participant storage p = participants[participantId] */\n      swap1\n      pop\n        /* \"contracts/DisasterRecoveryTraining.sol\":4057:4058  p */\n      dup1\n        /* \"contracts/DisasterRecoveryTraining.sol\":4057:4081  p.has_completed_training */\n      0x05\n      add\n      0x01\n      swap1\n      sload\n      swap1\n      0x0100\n      exp\n      swap1\n      div\n      0xff\n      and\n        /* \"contracts/DisasterRecoveryTraining.sol\":4056:4081  !p.has_completed_training */\n      iszero\n        /* \"contracts/DisasterRecoveryTraining.sol\":4056:4107  !p.has_completed_training || has_completed_training */\n      dup1\n      tag_60\n      jumpi\n      pop\n        /* \"contracts/DisasterRecoveryTraining.sol\":4085:4107  has_completed_training */\n      dup2\n        /* \"contracts/DisasterRecoveryTraining.sol\":4056:4107  !p.has_completed_training || has_completed_training */\n    tag_60:\n        /* \"contracts/DisasterRecoveryTraining.sol\":4048:4154  require(!p.has_completed_training || has_completed_training, \"Cannot change completed from true to false\") */\n      tag_61\n      jumpi\n      mload(0x40)\n      0x08c379a000000000000000000000000000000000000000000000000000000000\n      dup2\n      mstore\n      0x04\n      add\n      tag_62\n      swap1\n      tag_63\n      jump\t// in\n    tag_62:\n      mload(0x40)\n      dup1\n      swap2\n      sub\n      swap1\n      revert\n    tag_61:\n        /* \"contracts/DisasterRecoveryTraining.sol\":4208:4227  newTrainingInterest */\n      dup3\n        /* \"contracts/DisasterRecoveryTraining.sol\":4195:4228  TrainingType(newTrainingInterest) */\n      0x02\n      dup2\n      gt\n      iszero\n      tag_64\n      jumpi\n      tag_65\n      tag_66\n      jump\t// in\n    tag_65:\n    tag_64:\n        /* \"contracts/DisasterRecoveryTraining.sol\":4173:4174  p */\n      dup2\n        /* \"contracts/DisasterRecoveryTraining.sol\":4173:4192  p.training_interest */\n      0x05\n      add\n      0x00\n        /* \"contracts/DisasterRecoveryTraining.sol\":4173:4228  p.training_interest = TrainingType(newTrainingInterest) */\n      0x0100\n      exp\n      dup2\n      sload\n      dup2\n      0xff\n      mul\n      not\n      and\n      swap1\n      dup4\n      0x02\n      dup2\n      gt\n      iszero\n      tag_67\n      jumpi\n      tag_68\n      tag_66\n      jump\t// in\n    tag_68:\n    tag_67:\n      mul\n      or\n      swap1\n      sstore\n      pop\n        /* \"contracts/DisasterRecoveryTraining.sol\":4265:4287  has_completed_training */\n      dup2\n        /* \"contracts/DisasterRecoveryTraining.sol\":4238:4239  p */\n      dup2\n        /* \"contracts/DisasterRecoveryTraining.sol\":4238:4262  p.has_completed_training */\n      0x05\n      add\n      0x01\n        /* \"contracts/DisasterRecoveryTraining.sol\":4238:4287  p.has_completed_training = has_completed_training */\n      0x0100\n      exp\n      dup2\n      sload\n      dup2\n      0xff\n      mul\n      not\n      and\n      swap1\n      dup4\n      iszero\n      iszero\n      mul\n      or\n      swap1\n      sstore\n      pop\n        /* \"contracts/DisasterRecoveryTraining.sol\":3817:4294  {... */\n      pop\n        /* \"contracts/DisasterRecoveryTraining.sol\":3696:4294  function updateParticipantData(uint256 participantId, uint256 newTrainingInterest, bool has_completed_training) external {... */\n      pop\n      pop\n      pop\n      jump\t// out\n        /* \"contracts/DisasterRecoveryTraining.sol\":7802:9546  function viewTrainerSchedule(uint256 trainerId) external view returns (... */\n    tag_19:\n        /* \"contracts/DisasterRecoveryTraining.sol\":7882:7913  uint256[] memory availableSlots */\n      0x60\n        /* \"contracts/DisasterRecoveryTraining.sol\":7923:7949  string[] memory timeRanges */\n      dup1\n        /* \"contracts/DisasterRecoveryTraining.sol\":8000:8001  0 */\n      0x00\n        /* \"contracts/DisasterRecoveryTraining.sol\":7974:7982  trainers */\n      0x04\n        /* \"contracts/DisasterRecoveryTraining.sol\":7974:7993  trainers[trainerId] */\n      0x00\n        /* \"contracts/DisasterRecoveryTraining.sol\":7983:7992  trainerId */\n      dup6\n        /* \"contracts/DisasterRecoveryTraining.sol\":7974:7993  trainers[trainerId] */\n      dup2\n      mstore\n      0x20\n      add\n      swap1\n      dup2\n      mstore\n      0x20\n      add\n      0x00\n      keccak256\n        /* \"contracts/DisasterRecoveryTraining.sol\":7974:7996  trainers[trainerId].id */\n      0x00\n      add\n      sload\n        /* \"contracts/DisasterRecoveryTraining.sol\":7974:8001  trainers[trainerId].id != 0 */\n      sub\n        /* \"contracts/DisasterRecoveryTraining.sol\":7966:8023  require(trainers[trainerId].id != 0, \"Trainer not found\") */\n      tag_70\n      jumpi\n      mload(0x40)\n      0x08c379a000000000000000000000000000000000000000000000000000000000\n      dup2\n      mstore\n      0x04\n      add\n      tag_71\n      swap1\n      tag_72\n      jump\t// in\n    tag_71:\n      mload(0x40)\n      dup1\n      swap2\n      sub\n      swap1\n      revert\n    tag_70:\n        /* \"contracts/DisasterRecoveryTraining.sol\":8075:8097  uint256 availableCount */\n      0x00\n        /* \"contracts/DisasterRecoveryTraining.sol\":8100:8101  0 */\n      0x00\n        /* \"contracts/DisasterRecoveryTraining.sol\":8075:8101  uint256 availableCount = 0 */\n      swap1\n      pop\n        /* \"contracts/DisasterRecoveryTraining.sol\":8116:8125  uint256 i */\n      0x00\n        /* \"contracts/DisasterRecoveryTraining.sol\":8128:8129  0 */\n      0x00\n        /* \"contracts/DisasterRecoveryTraining.sol\":8116:8129  uint256 i = 0 */\n      swap1\n      pop\n        /* \"contracts/DisasterRecoveryTraining.sol\":8111:8276  for (uint256 i = 0; i < TOTAL_SLOTS_PER_DAY; i++) {... */\n    tag_73:\n        /* \"contracts/DisasterRecoveryTraining.sol\":1052:1054  48 */\n      0x30\n        /* \"contracts/DisasterRecoveryTraining.sol\":8131:8132  i */\n      dup2\n        /* \"contracts/DisasterRecoveryTraining.sol\":8131:8154  i < TOTAL_SLOTS_PER_DAY */\n      lt\n        /* \"contracts/DisasterRecoveryTraining.sol\":8111:8276  for (uint256 i = 0; i < TOTAL_SLOTS_PER_DAY; i++) {... */\n      iszero\n      tag_74\n      jumpi\n        /* \"contracts/DisasterRecoveryTraining.sol\":8180:8192  trainerSlots */\n      0x06\n        /* \"contracts/DisasterRecoveryTraining.sol\":8180:8203  trainerSlots[trainerId] */\n      0x00\n        /* \"contracts/DisasterRecoveryTraining.sol\":8193:8202  trainerId */\n      dup7\n        /* \"contracts/DisasterRecoveryTraining.sol\":8180:8203  trainerSlots[trainerId] */\n      dup2\n      mstore\n      0x20\n      add\n      swap1\n      dup2\n      mstore\n      0x20\n      add\n      0x00\n      keccak256\n        /* \"contracts/DisasterRecoveryTraining.sol\":8180:8206  trainerSlots[trainerId][i] */\n      0x00\n        /* \"contracts/DisasterRecoveryTraining.sol\":8204:8205  i */\n      dup3\n        /* \"contracts/DisasterRecoveryTraining.sol\":8180:8206  trainerSlots[trainerId][i] */\n      dup2\n      mstore\n      0x20\n      add\n      swap1\n      dup2\n      mstore\n      0x20\n      add\n      0x00\n      keccak256\n        /* \"contracts/DisasterRecoveryTraining.sol\":8180:8215  trainerSlots[trainerId][i].isBooked */\n      0x03\n      add\n      0x00\n      swap1\n      sload\n      swap1\n      0x0100\n      exp\n      swap1\n      div\n      0xff\n      and\n        /* \"contracts/DisasterRecoveryTraining.sol\":8175:8266  if (!trainerSlots[trainerId][i].isBooked) {... */\n      tag_76\n      jumpi\n        /* \"contracts/DisasterRecoveryTraining.sol\":8235:8251  availableCount++ */\n      dup2\n      dup1\n      tag_77\n      swap1\n      tag_78\n      jump\t// in\n    tag_77:\n      swap3\n      pop\n      pop\n        /* \"contracts/DisasterRecoveryTraining.sol\":8175:8266  if (!trainerSlots[trainerId][i].isBooked) {... */\n    tag_76:\n        /* \"contracts/DisasterRecoveryTraining.sol\":8156:8159  i++ */\n      dup1\n      dup1\n      0x01\n      add\n      swap2\n      pop\n      pop\n        /* \"contracts/DisasterRecoveryTraining.sol\":8111:8276  for (uint256 i = 0; i < TOTAL_SLOTS_PER_DAY; i++) {... */\n      jump(tag_73)\n    tag_74:\n      pop\n        /* \"contracts/DisasterRecoveryTraining.sol\":8391:8405  availableCount */\n      dup1\n        /* \"contracts/DisasterRecoveryTraining.sol\":8377:8406  new uint256[](availableCount) */\n      0xffffffffffffffff\n      dup2\n      gt\n      iszero\n      tag_79\n      jumpi\n      tag_80\n      tag_81\n      jump\t// in\n    tag_80:\n    tag_79:\n      mload(0x40)\n      swap1\n      dup1\n      dup3\n      mstore\n      dup1\n      0x20\n      mul\n      0x20\n      add\n      dup3\n      add\n      0x40\n      mstore\n      dup1\n      iszero\n      tag_82\n      jumpi\n      dup2\n      0x20\n      add\n      0x20\n      dup3\n      mul\n      dup1\n      calldatasize\n      dup4\n      calldatacopy\n      dup1\n      dup3\n      add\n      swap2\n      pop\n      pop\n      swap1\n      pop\n    tag_82:\n      pop\n        /* \"contracts/DisasterRecoveryTraining.sol\":8360:8406  availableSlots = new uint256[](availableCount) */\n      swap3\n      pop\n        /* \"contracts/DisasterRecoveryTraining.sol\":8442:8456  availableCount */\n      dup1\n        /* \"contracts/DisasterRecoveryTraining.sol\":8429:8457  new string[](availableCount) */\n      0xffffffffffffffff\n      dup2\n      gt\n      iszero\n      tag_83\n      jumpi\n      tag_84\n      tag_81\n      jump\t// in\n    tag_84:\n    tag_83:\n      mload(0x40)\n      swap1\n      dup1\n      dup3\n      mstore\n      dup1\n      0x20\n      mul\n      0x20\n      add\n      dup3\n      add\n      0x40\n      mstore\n      dup1\n      iszero\n      tag_85\n      jumpi\n      dup2\n      0x20\n      add\n    tag_86:\n      0x60\n      dup2\n      mstore\n      0x20\n      add\n      swap1\n      0x01\n      swap1\n      sub\n      swap1\n      dup2\n      tag_86\n      jumpi\n      swap1\n      pop\n    tag_85:\n      pop\n        /* \"contracts/DisasterRecoveryTraining.sol\":8416:8457  timeRanges = new string[](availableCount) */\n      swap2\n      pop\n        /* \"contracts/DisasterRecoveryTraining.sol\":8467:8480  uint256 index */\n      0x00\n        /* \"contracts/DisasterRecoveryTraining.sol\":8483:8484  0 */\n      0x00\n        /* \"contracts/DisasterRecoveryTraining.sol\":8467:8484  uint256 index = 0 */\n      swap1\n      pop\n        /* \"contracts/DisasterRecoveryTraining.sol\":8508:8517  uint256 i */\n      0x00\n        /* \"contracts/DisasterRecoveryTraining.sol\":8520:8521  0 */\n      0x00\n        /* \"contracts/DisasterRecoveryTraining.sol\":8508:8521  uint256 i = 0 */\n      swap1\n      pop\n        /* \"contracts/DisasterRecoveryTraining.sol\":8503:9486  for (uint256 i = 0; i < TOTAL_SLOTS_PER_DAY; i++) {... */\n    tag_87:\n        /* \"contracts/DisasterRecoveryTraining.sol\":1052:1054  48 */\n      0x30\n        /* \"contracts/DisasterRecoveryTraining.sol\":8523:8524  i */\n      dup2\n        /* \"contracts/DisasterRecoveryTraining.sol\":8523:8546  i < TOTAL_SLOTS_PER_DAY */\n      lt\n        /* \"contracts/DisasterRecoveryTraining.sol\":8503:9486  for (uint256 i = 0; i < TOTAL_SLOTS_PER_DAY; i++) {... */\n      iszero\n      tag_88\n      jumpi\n        /* \"contracts/DisasterRecoveryTraining.sol\":8572:8584  trainerSlots */\n      0x06\n        /* \"contracts/DisasterRecoveryTraining.sol\":8572:8595  trainerSlots[trainerId] */\n      0x00\n        /* \"contracts/DisasterRecoveryTraining.sol\":8585:8594  trainerId */\n      dup8\n        /* \"contracts/DisasterRecoveryTraining.sol\":8572:8595  trainerSlots[trainerId] */\n      dup2\n      mstore\n      0x20\n      add\n      swap1\n      dup2\n      mstore\n      0x20\n      add\n      0x00\n      keccak256\n        /* \"contracts/DisasterRecoveryTraining.sol\":8572:8598  trainerSlots[trainerId][i] */\n      0x00\n        /* \"contracts/DisasterRecoveryTraining.sol\":8596:8597  i */\n      dup3\n        /* \"contracts/DisasterRecoveryTraining.sol\":8572:8598  trainerSlots[trainerId][i] */\n      dup2\n      mstore\n      0x20\n      add\n      swap1\n      dup2\n      mstore\n      0x20\n      add\n      0x00\n      keccak256\n        /* \"contracts/DisasterRecoveryTraining.sol\":8572:8607  trainerSlots[trainerId][i].isBooked */\n      0x03\n      add\n      0x00\n      swap1\n      sload\n      swap1\n      0x0100\n      exp\n      swap1\n      div\n      0xff\n      and\n        /* \"contracts/DisasterRecoveryTraining.sol\":8567:9476  if (!trainerSlots[trainerId][i].isBooked) {... */\n      tag_90\n      jumpi\n        /* \"contracts/DisasterRecoveryTraining.sol\":8651:8652  i */\n      dup1\n        /* \"contracts/DisasterRecoveryTraining.sol\":8627:8641  availableSlots */\n      dup6\n        /* \"contracts/DisasterRecoveryTraining.sol\":8642:8647  index */\n      dup4\n        /* \"contracts/DisasterRecoveryTraining.sol\":8627:8648  availableSlots[index] */\n      dup2\n      mload\n      dup2\n      lt\n      tag_91\n      jumpi\n      tag_92\n      tag_93\n      jump\t// in\n    tag_92:\n    tag_91:\n      0x20\n      mul\n      0x20\n      add\n      add\n        /* \"contracts/DisasterRecoveryTraining.sol\":8627:8652  availableSlots[index] = i */\n      dup2\n      dup2\n      mstore\n      pop\n      pop\n        /* \"contracts/DisasterRecoveryTraining.sol\":8734:8751  uint256 startHour */\n      0x00\n        /* \"contracts/DisasterRecoveryTraining.sol\":8758:8759  2 */\n      0x02\n        /* \"contracts/DisasterRecoveryTraining.sol\":8754:8755  i */\n      dup3\n        /* \"contracts/DisasterRecoveryTraining.sol\":8754:8759  i / 2 */\n      tag_94\n      swap2\n      swap1\n      tag_95\n      jump\t// in\n    tag_94:\n        /* \"contracts/DisasterRecoveryTraining.sol\":8734:8759  uint256 startHour = i / 2 */\n      swap1\n      pop\n        /* \"contracts/DisasterRecoveryTraining.sol\":8777:8796  uint256 startMinute */\n      0x00\n        /* \"contracts/DisasterRecoveryTraining.sol\":8809:8811  30 */\n      0x1e\n        /* \"contracts/DisasterRecoveryTraining.sol\":8804:8805  2 */\n      0x02\n        /* \"contracts/DisasterRecoveryTraining.sol\":8800:8801  i */\n      dup5\n        /* \"contracts/DisasterRecoveryTraining.sol\":8800:8805  i % 2 */\n      tag_96\n      swap2\n      swap1\n      tag_97\n      jump\t// in\n    tag_96:\n        /* \"contracts/DisasterRecoveryTraining.sol\":8799:8811  (i % 2) * 30 */\n      tag_98\n      swap2\n      swap1\n      tag_99\n      jump\t// in\n    tag_98:\n        /* \"contracts/DisasterRecoveryTraining.sol\":8777:8811  uint256 startMinute = (i % 2) * 30 */\n      swap1\n      pop\n        /* \"contracts/DisasterRecoveryTraining.sol\":8829:8844  uint256 endHour */\n      0x00\n        /* \"contracts/DisasterRecoveryTraining.sol\":8847:8856  startHour */\n      dup3\n        /* \"contracts/DisasterRecoveryTraining.sol\":8829:8856  uint256 endHour = startHour */\n      swap1\n      pop\n        /* \"contracts/DisasterRecoveryTraining.sol\":8874:8891  uint256 endMinute */\n      0x00\n        /* \"contracts/DisasterRecoveryTraining.sol\":8908:8910  30 */\n      0x1e\n        /* \"contracts/DisasterRecoveryTraining.sol\":8894:8905  startMinute */\n      dup4\n        /* \"contracts/DisasterRecoveryTraining.sol\":8894:8910  startMinute + 30 */\n      tag_100\n      swap2\n      swap1\n      tag_101\n      jump\t// in\n    tag_100:\n        /* \"contracts/DisasterRecoveryTraining.sol\":8874:8910  uint256 endMinute = startMinute + 30 */\n      swap1\n      pop\n        /* \"contracts/DisasterRecoveryTraining.sol\":8962:8964  60 */\n      0x3c\n        /* \"contracts/DisasterRecoveryTraining.sol\":8949:8958  endMinute */\n      dup2\n        /* \"contracts/DisasterRecoveryTraining.sol\":8949:8964  endMinute == 60 */\n      sub\n        /* \"contracts/DisasterRecoveryTraining.sol\":8945:9051  if (endMinute == 60) {... */\n      tag_102\n      jumpi\n        /* \"contracts/DisasterRecoveryTraining.sol\":8988:8997  endHour++ */\n      dup2\n      dup1\n      tag_103\n      swap1\n      tag_78\n      jump\t// in\n    tag_103:\n      swap3\n      pop\n      pop\n        /* \"contracts/DisasterRecoveryTraining.sol\":9031:9032  0 */\n      0x00\n        /* \"contracts/DisasterRecoveryTraining.sol\":9019:9032  endMinute = 0 */\n      swap1\n      pop\n        /* \"contracts/DisasterRecoveryTraining.sol\":8945:9051  if (endMinute == 60) {... */\n    tag_102:\n        /* \"contracts/DisasterRecoveryTraining.sol\":9201:9221  _toString(startHour) */\n      tag_104\n        /* \"contracts/DisasterRecoveryTraining.sol\":9211:9220  startHour */\n      dup5\n        /* \"contracts/DisasterRecoveryTraining.sol\":9201:9210  _toString */\n      tag_105\n        /* \"contracts/DisasterRecoveryTraining.sol\":9201:9221  _toString(startHour) */\n      jump\t// in\n    tag_104:\n        /* \"contracts/DisasterRecoveryTraining.sol\":9264:9265  0 */\n      0x00\n        /* \"contracts/DisasterRecoveryTraining.sol\":9249:9260  startMinute */\n      dup5\n        /* \"contracts/DisasterRecoveryTraining.sol\":9249:9265  startMinute == 0 */\n      eq\n        /* \"contracts/DisasterRecoveryTraining.sol\":9249:9279  startMinute == 0 ? \"00\" : \"30\" */\n      tag_106\n      jumpi\n      mload(0x40)\n      dup1\n      0x40\n      add\n      0x40\n      mstore\n      dup1\n      0x02\n      dup2\n      mstore\n      0x20\n      add\n      0x3330000000000000000000000000000000000000000000000000000000000000\n      dup2\n      mstore\n      pop\n      jump(tag_107)\n    tag_106:\n      mload(0x40)\n      dup1\n      0x40\n      add\n      0x40\n      mstore\n      dup1\n      0x02\n      dup2\n      mstore\n      0x20\n      add\n      0x3030000000000000000000000000000000000000000000000000000000000000\n      dup2\n      mstore\n      pop\n    tag_107:\n        /* \"contracts/DisasterRecoveryTraining.sol\":9327:9345  _toString(endHour) */\n      tag_108\n        /* \"contracts/DisasterRecoveryTraining.sol\":9337:9344  endHour */\n      dup5\n        /* \"contracts/DisasterRecoveryTraining.sol\":9327:9336  _toString */\n      tag_105\n        /* \"contracts/DisasterRecoveryTraining.sol\":9327:9345  _toString(endHour) */\n      jump\t// in\n    tag_108:\n        /* \"contracts/DisasterRecoveryTraining.sol\":9385:9386  0 */\n      0x00\n        /* \"contracts/DisasterRecoveryTraining.sol\":9372:9381  endMinute */\n      dup5\n        /* \"contracts/DisasterRecoveryTraining.sol\":9372:9386  endMinute == 0 */\n      eq\n        /* \"contracts/DisasterRecoveryTraining.sol\":9372:9400  endMinute == 0 ? \"00\" : \"30\" */\n      tag_109\n      jumpi\n      mload(0x40)\n      dup1\n      0x40\n      add\n      0x40\n      mstore\n      dup1\n      0x02\n      dup2\n      mstore\n      0x20\n      add\n      0x3330000000000000000000000000000000000000000000000000000000000000\n      dup2\n      mstore\n      pop\n      jump(tag_110)\n    tag_109:\n      mload(0x40)\n      dup1\n      0x40\n      add\n      0x40\n      mstore\n      dup1\n      0x02\n      dup2\n      mstore\n      0x20\n      add\n      0x3030000000000000000000000000000000000000000000000000000000000000\n      dup2\n      mstore\n      pop\n    tag_110:\n        /* \"contracts/DisasterRecoveryTraining.sol\":9163:9418  abi.encodePacked(... */\n      add(0x20, mload(0x40))\n      tag_111\n      swap5\n      swap4\n      swap3\n      swap2\n      swap1\n      tag_112\n      jump\t// in\n    tag_111:\n      mload(0x40)\n      0x20\n      dup2\n      dup4\n      sub\n      sub\n      dup2\n      mstore\n      swap1\n      0x40\n      mstore\n        /* \"contracts/DisasterRecoveryTraining.sol\":9136:9146  timeRanges */\n      dup9\n        /* \"contracts/DisasterRecoveryTraining.sol\":9147:9152  index */\n      dup8\n        /* \"contracts/DisasterRecoveryTraining.sol\":9136:9153  timeRanges[index] */\n      dup2\n      mload\n      dup2\n      lt\n      tag_113\n      jumpi\n      tag_114\n      tag_93\n      jump\t// in\n    tag_114:\n    tag_113:\n      0x20\n      mul\n      0x20\n      add\n      add\n        /* \"contracts/DisasterRecoveryTraining.sol\":9136:9419  timeRanges[index] = string(abi.encodePacked(... */\n      dup2\n      swap1\n      mstore\n      pop\n        /* \"contracts/DisasterRecoveryTraining.sol\":9454:9461  index++ */\n      dup6\n      dup1\n      tag_115\n      swap1\n      tag_78\n      jump\t// in\n    tag_115:\n      swap7\n      pop\n      pop\n        /* \"contracts/DisasterRecoveryTraining.sol\":8609:9476  {... */\n      pop\n      pop\n      pop\n      pop\n        /* \"contracts/DisasterRecoveryTraining.sol\":8567:9476  if (!trainerSlots[trainerId][i].isBooked) {... */\n    tag_90:\n        /* \"contracts/DisasterRecoveryTraining.sol\":8548:8551  i++ */\n      dup1\n      dup1\n      0x01\n      add\n      swap2\n      pop\n      pop\n        /* \"contracts/DisasterRecoveryTraining.sol\":8503:9486  for (uint256 i = 0; i < TOTAL_SLOTS_PER_DAY; i++) {... */\n      jump(tag_87)\n    tag_88:\n      pop\n        /* \"contracts/DisasterRecoveryTraining.sol\":9504:9539  return (availableSlots, timeRanges) */\n      pop\n      pop\n        /* \"contracts/DisasterRecoveryTraining.sol\":7802:9546  function viewTrainerSchedule(uint256 trainerId) external view returns (... */\n      swap2\n      pop\n      swap2\n      jump\t// out\n        /* \"contracts/DisasterRecoveryTraining.sol\":5824:6390  function viewAdminBalance() external view returns (uint256[] memory adminIdList, uint256[] memory balanceList) {... */\n    tag_23:\n        /* \"contracts/DisasterRecoveryTraining.sol\":5875:5903  uint256[] memory adminIdList */\n      0x60\n        /* \"contracts/DisasterRecoveryTraining.sol\":5905:5933  uint256[] memory balanceList */\n      dup1\n        /* \"contracts/DisasterRecoveryTraining.sol\":5945:5964  uint256 totalAdmins */\n      0x00\n        /* \"contracts/DisasterRecoveryTraining.sol\":5967:5975  adminIds */\n      0x07\n        /* \"contracts/DisasterRecoveryTraining.sol\":5967:5982  adminIds.length */\n      dup1\n      sload\n      swap1\n      pop\n        /* \"contracts/DisasterRecoveryTraining.sol\":5945:5982  uint256 totalAdmins = adminIds.length */\n      swap1\n      pop\n        /* \"contracts/DisasterRecoveryTraining.sol\":6029:6040  totalAdmins */\n      dup1\n        /* \"contracts/DisasterRecoveryTraining.sol\":6015:6041  new uint256[](totalAdmins) */\n      0xffffffffffffffff\n      dup2\n      gt\n      iszero\n      tag_117\n      jumpi\n      tag_118\n      tag_81\n      jump\t// in\n    tag_118:\n    tag_117:\n      mload(0x40)\n      swap1\n      dup1\n      dup3\n      mstore\n      dup1\n      0x20\n      mul\n      0x20\n      add\n      dup3\n      add\n      0x40\n      mstore\n      dup1\n      iszero\n      tag_119\n      jumpi\n      dup2\n      0x20\n      add\n      0x20\n      dup3\n      mul\n      dup1\n      calldatasize\n      dup4\n      calldatacopy\n      dup1\n      dup3\n      add\n      swap2\n      pop\n      pop\n      swap1\n      pop\n    tag_119:\n      pop\n        /* \"contracts/DisasterRecoveryTraining.sol\":6001:6041  adminIdList = new uint256[](totalAdmins) */\n      swap3\n      pop\n        /* \"contracts/DisasterRecoveryTraining.sol\":6079:6090  totalAdmins */\n      dup1\n        /* \"contracts/DisasterRecoveryTraining.sol\":6065:6091  new uint256[](totalAdmins) */\n      0xffffffffffffffff\n      dup2\n      gt\n      iszero\n      tag_120\n      jumpi\n      tag_121\n      tag_81\n      jump\t// in\n    tag_121:\n    tag_120:\n      mload(0x40)\n      swap1\n      dup1\n      dup3\n      mstore\n      dup1\n      0x20\n      mul\n      0x20\n      add\n      dup3\n      add\n      0x40\n      mstore\n      dup1\n      iszero\n      tag_122\n      jumpi\n      dup2\n      0x20\n      add\n      0x20\n      dup3\n      mul\n      dup1\n      calldatasize\n      dup4\n      calldatacopy\n      dup1\n      dup3\n      add\n      swap2\n      pop\n      pop\n      swap1\n      pop\n    tag_122:\n      pop\n        /* \"contracts/DisasterRecoveryTraining.sol\":6051:6091  balanceList = new uint256[](totalAdmins) */\n      swap2\n      pop\n        /* \"contracts/DisasterRecoveryTraining.sol\":6115:6124  uint256 i */\n      0x00\n        /* \"contracts/DisasterRecoveryTraining.sol\":6127:6128  0 */\n      0x00\n        /* \"contracts/DisasterRecoveryTraining.sol\":6115:6128  uint256 i = 0 */\n      swap1\n      pop\n        /* \"contracts/DisasterRecoveryTraining.sol\":6110:6332  for (uint256 i = 0; i < totalAdmins; i++) {... */\n    tag_123:\n        /* \"contracts/DisasterRecoveryTraining.sol\":6134:6145  totalAdmins */\n      dup2\n        /* \"contracts/DisasterRecoveryTraining.sol\":6130:6131  i */\n      dup2\n        /* \"contracts/DisasterRecoveryTraining.sol\":6130:6145  i < totalAdmins */\n      lt\n        /* \"contracts/DisasterRecoveryTraining.sol\":6110:6332  for (uint256 i = 0; i < totalAdmins; i++) {... */\n      iszero\n      tag_124\n      jumpi\n        /* \"contracts/DisasterRecoveryTraining.sol\":6166:6181  uint256 adminId */\n      0x00\n        /* \"contracts/DisasterRecoveryTraining.sol\":6184:6192  adminIds */\n      0x07\n        /* \"contracts/DisasterRecoveryTraining.sol\":6193:6194  i */\n      dup3\n        /* \"contracts/DisasterRecoveryTraining.sol\":6184:6195  adminIds[i] */\n      dup2\n      sload\n      dup2\n      lt\n      tag_126\n      jumpi\n      tag_127\n      tag_93\n      jump\t// in\n    tag_127:\n    tag_126:\n      swap1\n      0x00\n      mstore\n      keccak256(0x00, 0x20)\n      add\n      sload\n        /* \"contracts/DisasterRecoveryTraining.sol\":6166:6195  uint256 adminId = adminIds[i] */\n      swap1\n      pop\n        /* \"contracts/DisasterRecoveryTraining.sol\":6226:6233  adminId */\n      dup1\n        /* \"contracts/DisasterRecoveryTraining.sol\":6209:6220  adminIdList */\n      dup6\n        /* \"contracts/DisasterRecoveryTraining.sol\":6221:6222  i */\n      dup4\n        /* \"contracts/DisasterRecoveryTraining.sol\":6209:6223  adminIdList[i] */\n      dup2\n      mload\n      dup2\n      lt\n      tag_129\n      jumpi\n      tag_130\n      tag_93\n      jump\t// in\n    tag_130:\n    tag_129:\n      0x20\n      mul\n      0x20\n      add\n      add\n        /* \"contracts/DisasterRecoveryTraining.sol\":6209:6233  adminIdList[i] = adminId */\n      dup2\n      dup2\n      mstore\n      pop\n      pop\n        /* \"contracts/DisasterRecoveryTraining.sol\":6290:6297  1 ether */\n      0x0de0b6b3a7640000\n        /* \"contracts/DisasterRecoveryTraining.sol\":6264:6270  admins */\n      0x03\n        /* \"contracts/DisasterRecoveryTraining.sol\":6264:6279  admins[adminId] */\n      0x00\n        /* \"contracts/DisasterRecoveryTraining.sol\":6271:6278  adminId */\n      dup4\n        /* \"contracts/DisasterRecoveryTraining.sol\":6264:6279  admins[adminId] */\n      dup2\n      mstore\n      0x20\n      add\n      swap1\n      dup2\n      mstore\n      0x20\n      add\n      0x00\n      keccak256\n        /* \"contracts/DisasterRecoveryTraining.sol\":6264:6287  admins[adminId].balance */\n      0x03\n      add\n      sload\n        /* \"contracts/DisasterRecoveryTraining.sol\":6264:6297  admins[adminId].balance / 1 ether */\n      tag_131\n      swap2\n      swap1\n      tag_95\n      jump\t// in\n    tag_131:\n        /* \"contracts/DisasterRecoveryTraining.sol\":6247:6258  balanceList */\n      dup5\n        /* \"contracts/DisasterRecoveryTraining.sol\":6259:6260  i */\n      dup4\n        /* \"contracts/DisasterRecoveryTraining.sol\":6247:6261  balanceList[i] */\n      dup2\n      mload\n      dup2\n      lt\n      tag_132\n      jumpi\n      tag_133\n      tag_93\n      jump\t// in\n    tag_133:\n    tag_132:\n      0x20\n      mul\n      0x20\n      add\n      add\n        /* \"contracts/DisasterRecoveryTraining.sol\":6247:6297  balanceList[i] = admins[adminId].balance / 1 ether */\n      dup2\n      dup2\n      mstore\n      pop\n      pop\n        /* \"contracts/DisasterRecoveryTraining.sol\":6152:6332  {... */\n      pop\n        /* \"contracts/DisasterRecoveryTraining.sol\":6147:6150  i++ */\n      dup1\n      dup1\n      0x01\n      add\n      swap2\n      pop\n      pop\n        /* \"contracts/DisasterRecoveryTraining.sol\":6110:6332  for (uint256 i = 0; i < totalAdmins; i++) {... */\n      jump(tag_123)\n    tag_124:\n      pop\n        /* \"contracts/DisasterRecoveryTraining.sol\":6350:6383  return (adminIdList, balanceList) */\n      pop\n        /* \"contracts/DisasterRecoveryTraining.sol\":5824:6390  function viewAdminBalance() external view returns (uint256[] memory adminIdList, uint256[] memory balanceList) {... */\n      swap1\n      swap2\n      jump\t// out\n        /* \"contracts/DisasterRecoveryTraining.sol\":6455:7152  function viewParticipantData(uint256 participantId) external view returns (... */\n    tag_28:\n        /* \"contracts/DisasterRecoveryTraining.sol\":6539:6549  uint256 id */\n      0x00\n        /* \"contracts/DisasterRecoveryTraining.sol\":6559:6577  string memory name */\n      0x60\n        /* \"contracts/DisasterRecoveryTraining.sol\":6587:6598  uint256 age */\n      0x00\n        /* \"contracts/DisasterRecoveryTraining.sol\":6608:6628  string memory gender */\n      0x60\n        /* \"contracts/DisasterRecoveryTraining.sol\":6638:6660  string memory district */\n      dup1\n        /* \"contracts/DisasterRecoveryTraining.sol\":6670:6695  uint256 training_interest */\n      0x00\n        /* \"contracts/DisasterRecoveryTraining.sol\":6705:6732  bool has_completed_training */\n      0x00\n        /* \"contracts/DisasterRecoveryTraining.sol\":6742:6757  uint256 balance */\n      0x00\n        /* \"contracts/DisasterRecoveryTraining.sol\":6816:6817  0 */\n      0x00\n        /* \"contracts/DisasterRecoveryTraining.sol\":6782:6794  participants */\n      0x05\n        /* \"contracts/DisasterRecoveryTraining.sol\":6782:6809  participants[participantId] */\n      0x00\n        /* \"contracts/DisasterRecoveryTraining.sol\":6795:6808  participantId */\n      dup12\n        /* \"contracts/DisasterRecoveryTraining.sol\":6782:6809  participants[participantId] */\n      dup2\n      mstore\n      0x20\n      add\n      swap1\n      dup2\n      mstore\n      0x20\n      add\n      0x00\n      keccak256\n        /* \"contracts/DisasterRecoveryTraining.sol\":6782:6812  participants[participantId].id */\n      0x00\n      add\n      sload\n        /* \"contracts/DisasterRecoveryTraining.sol\":6782:6817  participants[participantId].id != 0 */\n      sub\n        /* \"contracts/DisasterRecoveryTraining.sol\":6774:6843  require(participants[participantId].id != 0, \"Participant not found\") */\n      tag_135\n      jumpi\n      mload(0x40)\n      0x08c379a000000000000000000000000000000000000000000000000000000000\n      dup2\n      mstore\n      0x04\n      add\n      tag_136\n      swap1\n      tag_56\n      jump\t// in\n    tag_136:\n      mload(0x40)\n      dup1\n      swap2\n      sub\n      swap1\n      revert\n    tag_135:\n        /* \"contracts/DisasterRecoveryTraining.sol\":6862:6882  Participant memory p */\n      0x00\n        /* \"contracts/DisasterRecoveryTraining.sol\":6885:6897  participants */\n      0x05\n        /* \"contracts/DisasterRecoveryTraining.sol\":6885:6912  participants[participantId] */\n      0x00\n        /* \"contracts/DisasterRecoveryTraining.sol\":6898:6911  participantId */\n      dup12\n        /* \"contracts/DisasterRecoveryTraining.sol\":6885:6912  participants[participantId] */\n      dup2\n      mstore\n      0x20\n      add\n      swap1\n      dup2\n      mstore\n      0x20\n      add\n      0x00\n      keccak256\n        /* \"contracts/DisasterRecoveryTraining.sol\":6862:6912  Participant memory p = participants[participantId] */\n      mload(0x40)\n      dup1\n      0x0100\n      add\n      0x40\n      mstore\n      swap1\n      dup2\n      0x00\n      dup3\n      add\n      sload\n      dup2\n      mstore\n      0x20\n      add\n      0x01\n      dup3\n      add\n      dup1\n      sload\n      tag_137\n      swap1\n      tag_138\n      jump\t// in\n    tag_137:\n      dup1\n      0x1f\n      add\n      0x20\n      dup1\n      swap2\n      div\n      mul\n      0x20\n      add\n      mload(0x40)\n      swap1\n      dup2\n      add\n      0x40\n      mstore\n      dup1\n      swap3\n      swap2\n      swap1\n      dup2\n      dup2\n      mstore\n      0x20\n      add\n      dup3\n      dup1\n      sload\n      tag_139\n      swap1\n      tag_138\n      jump\t// in\n    tag_139:\n      dup1\n      iszero\n      tag_140\n      jumpi\n      dup1\n      0x1f\n      lt\n      tag_141\n      jumpi\n      0x0100\n      dup1\n      dup4\n      sload\n      div\n      mul\n      dup4\n      mstore\n      swap2\n      0x20\n      add\n      swap2\n      jump(tag_140)\n    tag_141:\n      dup3\n      add\n      swap2\n      swap1\n      0x00\n      mstore\n      keccak256(0x00, 0x20)\n      swap1\n    tag_142:\n      dup2\n      sload\n      dup2\n      mstore\n      swap1\n      0x01\n      add\n      swap1\n      0x20\n      add\n      dup1\n      dup4\n      gt\n      tag_142\n      jumpi\n      dup3\n      swap1\n      sub\n      0x1f\n      and\n      dup3\n      add\n      swap2\n    tag_140:\n      pop\n      pop\n      pop\n      pop\n      pop\n      dup2\n      mstore\n      0x20\n      add\n      0x02\n      dup3\n      add\n      sload\n      dup2\n      mstore\n      0x20\n      add\n      0x03\n      dup3\n      add\n      dup1\n      sload\n      tag_143\n      swap1\n      tag_138\n      jump\t// in\n    tag_143:\n      dup1\n      0x1f\n      add\n      0x20\n      dup1\n      swap2\n      div\n      mul\n      0x20\n      add\n      mload(0x40)\n      swap1\n      dup2\n      add\n      0x40\n      mstore\n      dup1\n      swap3\n      swap2\n      swap1\n      dup2\n      dup2\n      mstore\n      0x20\n      add\n      dup3\n      dup1\n      sload\n      tag_144\n      swap1\n      tag_138\n      jump\t// in\n    tag_144:\n      dup1\n      iszero\n      tag_145\n      jumpi\n      dup1\n      0x1f\n      lt\n      tag_146\n      jumpi\n      0x0100\n      dup1\n      dup4\n      sload\n      div\n      mul\n      dup4\n      mstore\n      swap2\n      0x20\n      add\n      swap2\n      jump(tag_145)\n    tag_146:\n      dup3\n      add\n      swap2\n      swap1\n      0x00\n      mstore\n      keccak256(0x00, 0x20)\n      swap1\n    tag_147:\n      dup2\n      sload\n      dup2\n      mstore\n      swap1\n      0x01\n      add\n      swap1\n      0x20\n      add\n      dup1\n      dup4\n      gt\n      tag_147\n      jumpi\n      dup3\n      swap1\n      sub\n      0x1f\n      and\n      dup3\n      add\n      swap2\n    tag_145:\n      pop\n      pop\n      pop\n      pop\n      pop\n      dup2\n      mstore\n      0x20\n      add\n      0x04\n      dup3\n      add\n      dup1\n      sload\n      tag_148\n      swap1\n      tag_138\n      jump\t// in\n    tag_148:\n      dup1\n      0x1f\n      add\n      0x20\n      dup1\n      swap2\n      div\n      mul\n      0x20\n      add\n      mload(0x40)\n      swap1\n      dup2\n      add\n      0x40\n      mstore\n      dup1\n      swap3\n      swap2\n      swap1\n      dup2\n      dup2\n      mstore\n      0x20\n      add\n      dup3\n      dup1\n      sload\n      tag_149\n      swap1\n      tag_138\n      jump\t// in\n    tag_149:\n      dup1\n      iszero\n      tag_150\n      jumpi\n      dup1\n      0x1f\n      lt\n      tag_151\n      jumpi\n      0x0100\n      dup1\n      dup4\n      sload\n      div\n      mul\n      dup4\n      mstore\n      swap2\n      0x20\n      add\n      swap2\n      jump(tag_150)\n    tag_151:\n      dup3\n      add\n      swap2\n      swap1\n      0x00\n      mstore\n      keccak256(0x00, 0x20)\n      swap1\n    tag_152:\n      dup2\n      sload\n      dup2\n      mstore\n      swap1\n      0x01\n      add\n      swap1\n      0x20\n      add\n      dup1\n      dup4\n      gt\n      tag_152\n      jumpi\n      dup3\n      swap1\n      sub\n      0x1f\n      and\n      dup3\n      add\n      swap2\n    tag_150:\n      pop\n      pop\n      pop\n      pop\n      pop\n      dup2\n      mstore\n      0x20\n      add\n      0x05\n      dup3\n      add\n      0x00\n      swap1\n      sload\n      swap1\n      0x0100\n      exp\n      swap1\n      div\n      0xff\n      and\n      0x02\n      dup2\n      gt\n      iszero\n      tag_153\n      jumpi\n      tag_154\n      tag_66\n      jump\t// in\n    tag_154:\n    tag_153:\n      0x02\n      dup2\n      gt\n      iszero\n      tag_155\n      jumpi\n      tag_156\n      tag_66\n      jump\t// in\n    tag_156:\n    tag_155:\n      dup2\n      mstore\n      0x20\n      add\n      0x05\n      dup3\n      add\n      0x01\n      swap1\n      sload\n      swap1\n      0x0100\n      exp\n      swap1\n      div\n      0xff\n      and\n      iszero\n      iszero\n      iszero\n      iszero\n      dup2\n      mstore\n      0x20\n      add\n      0x06\n      dup3\n      add\n      sload\n      dup2\n      mstore\n      pop\n      pop\n      swap1\n      pop\n        /* \"contracts/DisasterRecoveryTraining.sol\":6943:6944  p */\n      dup1\n        /* \"contracts/DisasterRecoveryTraining.sol\":6943:6947  p.id */\n      0x00\n      add\n      mload\n        /* \"contracts/DisasterRecoveryTraining.sol\":6961:6962  p */\n      dup2\n        /* \"contracts/DisasterRecoveryTraining.sol\":6961:6967  p.name */\n      0x20\n      add\n      mload\n        /* \"contracts/DisasterRecoveryTraining.sol\":6981:6982  p */\n      dup3\n        /* \"contracts/DisasterRecoveryTraining.sol\":6981:6986  p.age */\n      0x40\n      add\n      mload\n        /* \"contracts/DisasterRecoveryTraining.sol\":7000:7001  p */\n      dup4\n        /* \"contracts/DisasterRecoveryTraining.sol\":7000:7008  p.gender */\n      0x60\n      add\n      mload\n        /* \"contracts/DisasterRecoveryTraining.sol\":7022:7023  p */\n      dup5\n        /* \"contracts/DisasterRecoveryTraining.sol\":7022:7032  p.district */\n      0x80\n      add\n      mload\n        /* \"contracts/DisasterRecoveryTraining.sol\":7054:7055  p */\n      dup6\n        /* \"contracts/DisasterRecoveryTraining.sol\":7054:7073  p.training_interest */\n      0xa0\n      add\n      mload\n        /* \"contracts/DisasterRecoveryTraining.sol\":7046:7074  uint256(p.training_interest) */\n      0x02\n      dup2\n      gt\n      iszero\n      tag_157\n      jumpi\n      tag_158\n      tag_66\n      jump\t// in\n    tag_158:\n    tag_157:\n        /* \"contracts/DisasterRecoveryTraining.sol\":7088:7089  p */\n      dup7\n        /* \"contracts/DisasterRecoveryTraining.sol\":7088:7112  p.has_completed_training */\n      0xc0\n      add\n      mload\n        /* \"contracts/DisasterRecoveryTraining.sol\":7126:7127  p */\n      dup8\n        /* \"contracts/DisasterRecoveryTraining.sol\":7126:7135  p.balance */\n      0xe0\n      add\n      mload\n        /* \"contracts/DisasterRecoveryTraining.sol\":6922:7145  return (... */\n      swap9\n      pop\n      swap9\n      pop\n      swap9\n      pop\n      swap9\n      pop\n      swap9\n      pop\n      swap9\n      pop\n      swap9\n      pop\n      swap9\n      pop\n      pop\n        /* \"contracts/DisasterRecoveryTraining.sol\":6455:7152  function viewParticipantData(uint256 participantId) external view returns (... */\n      swap2\n      swap4\n      swap6\n      swap8\n      pop\n      swap2\n      swap4\n      swap6\n      swap8\n      jump\t// out\n        /* \"contracts/DisasterRecoveryTraining.sol\":4382:5681  function bookTrainingSlot(uint256 trainerId, uint256 participantId, uint256 slotId) external returns (bool) {... */\n    tag_34:\n        /* \"contracts/DisasterRecoveryTraining.sol\":4484:4488  bool */\n      0x00\n        /* \"contracts/DisasterRecoveryTraining.sol\":4534:4535  0 */\n      0x00\n        /* \"contracts/DisasterRecoveryTraining.sol\":4508:4516  trainers */\n      0x04\n        /* \"contracts/DisasterRecoveryTraining.sol\":4508:4527  trainers[trainerId] */\n      0x00\n        /* \"contracts/DisasterRecoveryTraining.sol\":4517:4526  trainerId */\n      dup7\n        /* \"contracts/DisasterRecoveryTraining.sol\":4508:4527  trainers[trainerId] */\n      dup2\n      mstore\n      0x20\n      add\n      swap1\n      dup2\n      mstore\n      0x20\n      add\n      0x00\n      keccak256\n        /* \"contracts/DisasterRecoveryTraining.sol\":4508:4530  trainers[trainerId].id */\n      0x00\n      add\n      sload\n        /* \"contracts/DisasterRecoveryTraining.sol\":4508:4535  trainers[trainerId].id != 0 */\n      sub\n        /* \"contracts/DisasterRecoveryTraining.sol\":4500:4557  require(trainers[trainerId].id != 0, \"Trainer not found\") */\n      tag_160\n      jumpi\n      mload(0x40)\n      0x08c379a000000000000000000000000000000000000000000000000000000000\n      dup2\n      mstore\n      0x04\n      add\n      tag_161\n      swap1\n      tag_72\n      jump\t// in\n    tag_161:\n      mload(0x40)\n      dup1\n      swap2\n      sub\n      swap1\n      revert\n    tag_160:\n        /* \"contracts/DisasterRecoveryTraining.sol\":4609:4610  0 */\n      0x00\n        /* \"contracts/DisasterRecoveryTraining.sol\":4575:4587  participants */\n      0x05\n        /* \"contracts/DisasterRecoveryTraining.sol\":4575:4602  participants[participantId] */\n      0x00\n        /* \"contracts/DisasterRecoveryTraining.sol\":4588:4601  participantId */\n      dup6\n        /* \"contracts/DisasterRecoveryTraining.sol\":4575:4602  participants[participantId] */\n      dup2\n      mstore\n      0x20\n      add\n      swap1\n      dup2\n      mstore\n      0x20\n      add\n      0x00\n      keccak256\n        /* \"contracts/DisasterRecoveryTraining.sol\":4575:4605  participants[participantId].id */\n      0x00\n      add\n      sload\n        /* \"contracts/DisasterRecoveryTraining.sol\":4575:4610  participants[participantId].id != 0 */\n      sub\n        /* \"contracts/DisasterRecoveryTraining.sol\":4567:4636  require(participants[participantId].id != 0, \"Participant not found\") */\n      tag_162\n      jumpi\n      mload(0x40)\n      0x08c379a000000000000000000000000000000000000000000000000000000000\n      dup2\n      mstore\n      0x04\n      add\n      tag_163\n      swap1\n      tag_56\n      jump\t// in\n    tag_163:\n      mload(0x40)\n      dup1\n      swap2\n      sub\n      swap1\n      revert\n    tag_162:\n        /* \"contracts/DisasterRecoveryTraining.sol\":1130:1137  1 ether */\n      0x0de0b6b3a7640000\n        /* \"contracts/DisasterRecoveryTraining.sol\":4654:4666  participants */\n      0x05\n        /* \"contracts/DisasterRecoveryTraining.sol\":4654:4681  participants[participantId] */\n      0x00\n        /* \"contracts/DisasterRecoveryTraining.sol\":4667:4680  participantId */\n      dup6\n        /* \"contracts/DisasterRecoveryTraining.sol\":4654:4681  participants[participantId] */\n      dup2\n      mstore\n      0x20\n      add\n      swap1\n      dup2\n      mstore\n      0x20\n      add\n      0x00\n      keccak256\n        /* \"contracts/DisasterRecoveryTraining.sol\":4654:4689  participants[participantId].balance */\n      0x06\n      add\n      sload\n        /* \"contracts/DisasterRecoveryTraining.sol\":4654:4704  participants[participantId].balance >= BOOKING_FEE */\n      lt\n      iszero\n        /* \"contracts/DisasterRecoveryTraining.sol\":4646:4741  require(participants[participantId].balance >= BOOKING_FEE, \"Insufficient participant balance\") */\n      tag_164\n      jumpi\n      mload(0x40)\n      0x08c379a000000000000000000000000000000000000000000000000000000000\n      dup2\n      mstore\n      0x04\n      add\n      tag_165\n      swap1\n      tag_166\n      jump\t// in\n    tag_165:\n      mload(0x40)\n      dup1\n      swap2\n      sub\n      swap1\n      revert\n    tag_164:\n        /* \"contracts/DisasterRecoveryTraining.sol\":4777:4778  0 */\n      0x00\n        /* \"contracts/DisasterRecoveryTraining.sol\":4759:4767  adminIds */\n      0x07\n        /* \"contracts/DisasterRecoveryTraining.sol\":4759:4774  adminIds.length */\n      dup1\n      sload\n      swap1\n      pop\n        /* \"contracts/DisasterRecoveryTraining.sol\":4759:4778  adminIds.length > 0 */\n      gt\n        /* \"contracts/DisasterRecoveryTraining.sol\":4751:4802  require(adminIds.length > 0, \"No admins available\") */\n      tag_167\n      jumpi\n      mload(0x40)\n      0x08c379a000000000000000000000000000000000000000000000000000000000\n      dup2\n      mstore\n      0x04\n      add\n      tag_168\n      swap1\n      tag_169\n      jump\t// in\n    tag_168:\n      mload(0x40)\n      dup1\n      swap2\n      sub\n      swap1\n      revert\n    tag_167:\n        /* \"contracts/DisasterRecoveryTraining.sol\":1052:1054  48 */\n      0x30\n        /* \"contracts/DisasterRecoveryTraining.sol\":4820:4826  slotId */\n      dup3\n        /* \"contracts/DisasterRecoveryTraining.sol\":4820:4848  slotId < TOTAL_SLOTS_PER_DAY */\n      lt\n        /* \"contracts/DisasterRecoveryTraining.sol\":4812:4868  require(slotId < TOTAL_SLOTS_PER_DAY, \"Invalid slot ID\") */\n      tag_170\n      jumpi\n      mload(0x40)\n      0x08c379a000000000000000000000000000000000000000000000000000000000\n      dup2\n      mstore\n      0x04\n      add\n      tag_171\n      swap1\n      tag_172\n      jump\t// in\n    tag_171:\n      mload(0x40)\n      dup1\n      swap2\n      sub\n      swap1\n      revert\n    tag_170:\n        /* \"contracts/DisasterRecoveryTraining.sol\":4982:4994  trainerSlots */\n      0x06\n        /* \"contracts/DisasterRecoveryTraining.sol\":4982:5005  trainerSlots[trainerId] */\n      0x00\n        /* \"contracts/DisasterRecoveryTraining.sol\":4995:5004  trainerId */\n      dup6\n        /* \"contracts/DisasterRecoveryTraining.sol\":4982:5005  trainerSlots[trainerId] */\n      dup2\n      mstore\n      0x20\n      add\n      swap1\n      dup2\n      mstore\n      0x20\n      add\n      0x00\n      keccak256\n        /* \"contracts/DisasterRecoveryTraining.sol\":4982:5013  trainerSlots[trainerId][slotId] */\n      0x00\n        /* \"contracts/DisasterRecoveryTraining.sol\":5006:5012  slotId */\n      dup4\n        /* \"contracts/DisasterRecoveryTraining.sol\":4982:5013  trainerSlots[trainerId][slotId] */\n      dup2\n      mstore\n      0x20\n      add\n      swap1\n      dup2\n      mstore\n      0x20\n      add\n      0x00\n      keccak256\n        /* \"contracts/DisasterRecoveryTraining.sol\":4982:5022  trainerSlots[trainerId][slotId].isBooked */\n      0x03\n      add\n      0x00\n      swap1\n      sload\n      swap1\n      0x0100\n      exp\n      swap1\n      div\n      0xff\n      and\n        /* \"contracts/DisasterRecoveryTraining.sol\":4981:5022  !trainerSlots[trainerId][slotId].isBooked */\n      iszero\n        /* \"contracts/DisasterRecoveryTraining.sol\":4973:5049  require(!trainerSlots[trainerId][slotId].isBooked, \"Slot is already booked\") */\n      tag_173\n      jumpi\n      mload(0x40)\n      0x08c379a000000000000000000000000000000000000000000000000000000000\n      dup2\n      mstore\n      0x04\n      add\n      tag_174\n      swap1\n      tag_175\n      jump\t// in\n    tag_174:\n      mload(0x40)\n      dup1\n      swap2\n      sub\n      swap1\n      revert\n    tag_173:\n        /* \"contracts/DisasterRecoveryTraining.sol\":5136:5188  TrainingSlot(slotId, trainerId, participantId, true) */\n      mload(0x40)\n      dup1\n      0x80\n      add\n      0x40\n      mstore\n      dup1\n        /* \"contracts/DisasterRecoveryTraining.sol\":5149:5155  slotId */\n      dup4\n        /* \"contracts/DisasterRecoveryTraining.sol\":5136:5188  TrainingSlot(slotId, trainerId, participantId, true) */\n      dup2\n      mstore\n      0x20\n      add\n        /* \"contracts/DisasterRecoveryTraining.sol\":5157:5166  trainerId */\n      dup6\n        /* \"contracts/DisasterRecoveryTraining.sol\":5136:5188  TrainingSlot(slotId, trainerId, participantId, true) */\n      dup2\n      mstore\n      0x20\n      add\n        /* \"contracts/DisasterRecoveryTraining.sol\":5168:5181  participantId */\n      dup5\n        /* \"contracts/DisasterRecoveryTraining.sol\":5136:5188  TrainingSlot(slotId, trainerId, participantId, true) */\n      dup2\n      mstore\n      0x20\n      add\n        /* \"contracts/DisasterRecoveryTraining.sol\":5183:5187  true */\n      0x01\n        /* \"contracts/DisasterRecoveryTraining.sol\":5136:5188  TrainingSlot(slotId, trainerId, participantId, true) */\n      iszero\n      iszero\n      dup2\n      mstore\n      pop\n        /* \"contracts/DisasterRecoveryTraining.sol\":5102:5114  trainerSlots */\n      0x06\n        /* \"contracts/DisasterRecoveryTraining.sol\":5102:5125  trainerSlots[trainerId] */\n      0x00\n        /* \"contracts/DisasterRecoveryTraining.sol\":5115:5124  trainerId */\n      dup7\n        /* \"contracts/DisasterRecoveryTraining.sol\":5102:5125  trainerSlots[trainerId] */\n      dup2\n      mstore\n      0x20\n      add\n      swap1\n      dup2\n      mstore\n      0x20\n      add\n      0x00\n      keccak256\n        /* \"contracts/DisasterRecoveryTraining.sol\":5102:5133  trainerSlots[trainerId][slotId] */\n      0x00\n        /* \"contracts/DisasterRecoveryTraining.sol\":5126:5132  slotId */\n      dup5\n        /* \"contracts/DisasterRecoveryTraining.sol\":5102:5133  trainerSlots[trainerId][slotId] */\n      dup2\n      mstore\n      0x20\n      add\n      swap1\n      dup2\n      mstore\n      0x20\n      add\n      0x00\n      keccak256\n        /* \"contracts/DisasterRecoveryTraining.sol\":5102:5188  trainerSlots[trainerId][slotId] = TrainingSlot(slotId, trainerId, participantId, true) */\n      0x00\n      dup3\n      add\n      mload\n      dup2\n      0x00\n      add\n      sstore\n      0x20\n      dup3\n      add\n      mload\n      dup2\n      0x01\n      add\n      sstore\n      0x40\n      dup3\n      add\n      mload\n      dup2\n      0x02\n      add\n      sstore\n      0x60\n      dup3\n      add\n      mload\n      dup2\n      0x03\n      add\n      exp(0x0100, 0x00)\n      dup2\n      sload\n      dup2\n      0xff\n      mul\n      not\n      and\n      swap1\n      dup4\n      iszero\n      iszero\n      mul\n      or\n      swap1\n      sstore\n      pop\n      swap1\n      pop\n      pop\n        /* \"contracts/DisasterRecoveryTraining.sol\":5257:5276  uint256 randomIndex */\n      0x00\n        /* \"contracts/DisasterRecoveryTraining.sol\":5368:5376  adminIds */\n      0x07\n        /* \"contracts/DisasterRecoveryTraining.sol\":5368:5383  adminIds.length */\n      dup1\n      sload\n      swap1\n      pop\n        /* \"contracts/DisasterRecoveryTraining.sol\":5314:5329  block.timestamp */\n      timestamp\n        /* \"contracts/DisasterRecoveryTraining.sol\":5331:5347  block.difficulty */\n      prevrandao\n        /* \"contracts/DisasterRecoveryTraining.sol\":5349:5362  participantId */\n      dup7\n        /* \"contracts/DisasterRecoveryTraining.sol\":5297:5363  abi.encodePacked(block.timestamp, block.difficulty, participantId) */\n      add(0x20, mload(0x40))\n      tag_176\n      swap4\n      swap3\n      swap2\n      swap1\n      tag_177\n      jump\t// in\n    tag_176:\n      mload(0x40)\n      0x20\n      dup2\n      dup4\n      sub\n      sub\n      dup2\n      mstore\n      swap1\n      0x40\n      mstore\n        /* \"contracts/DisasterRecoveryTraining.sol\":5287:5364  keccak256(abi.encodePacked(block.timestamp, block.difficulty, participantId)) */\n      dup1\n      mload\n      swap1\n      0x20\n      add\n      keccak256\n        /* \"contracts/DisasterRecoveryTraining.sol\":5279:5365  uint256(keccak256(abi.encodePacked(block.timestamp, block.difficulty, participantId))) */\n      0x00\n      shr\n        /* \"contracts/DisasterRecoveryTraining.sol\":5279:5383  uint256(keccak256(abi.encodePacked(block.timestamp, block.difficulty, participantId))) % adminIds.length */\n      tag_178\n      swap2\n      swap1\n      tag_97\n      jump\t// in\n    tag_178:\n        /* \"contracts/DisasterRecoveryTraining.sol\":5257:5383  uint256 randomIndex = uint256(keccak256(abi.encodePacked(block.timestamp, block.difficulty, participantId))) % adminIds.length */\n      swap1\n      pop\n        /* \"contracts/DisasterRecoveryTraining.sol\":5393:5416  uint256 selectedAdminId */\n      0x00\n        /* \"contracts/DisasterRecoveryTraining.sol\":5419:5427  adminIds */\n      0x07\n        /* \"contracts/DisasterRecoveryTraining.sol\":5428:5439  randomIndex */\n      dup3\n        /* \"contracts/DisasterRecoveryTraining.sol\":5419:5440  adminIds[randomIndex] */\n      dup2\n      sload\n      dup2\n      lt\n      tag_179\n      jumpi\n      tag_180\n      tag_93\n      jump\t// in\n    tag_180:\n    tag_179:\n      swap1\n      0x00\n      mstore\n      keccak256(0x00, 0x20)\n      add\n      sload\n        /* \"contracts/DisasterRecoveryTraining.sol\":5393:5440  uint256 selectedAdminId = adminIds[randomIndex] */\n      swap1\n      pop\n        /* \"contracts/DisasterRecoveryTraining.sol\":1130:1137  1 ether */\n      0x0de0b6b3a7640000\n        /* \"contracts/DisasterRecoveryTraining.sol\":5538:5550  participants */\n      0x05\n        /* \"contracts/DisasterRecoveryTraining.sol\":5538:5565  participants[participantId] */\n      0x00\n        /* \"contracts/DisasterRecoveryTraining.sol\":5551:5564  participantId */\n      dup8\n        /* \"contracts/DisasterRecoveryTraining.sol\":5538:5565  participants[participantId] */\n      dup2\n      mstore\n      0x20\n      add\n      swap1\n      dup2\n      mstore\n      0x20\n      add\n      0x00\n      keccak256\n        /* \"contracts/DisasterRecoveryTraining.sol\":5538:5573  participants[participantId].balance */\n      0x06\n      add\n      0x00\n        /* \"contracts/DisasterRecoveryTraining.sol\":5538:5588  participants[participantId].balance -= BOOKING_FEE */\n      dup3\n      dup3\n      sload\n      tag_182\n      swap2\n      swap1\n      tag_183\n      jump\t// in\n    tag_182:\n      swap3\n      pop\n      pop\n      dup2\n      swap1\n      sstore\n      pop\n        /* \"contracts/DisasterRecoveryTraining.sol\":1130:1137  1 ether */\n      0x0de0b6b3a7640000\n        /* \"contracts/DisasterRecoveryTraining.sol\":5598:5604  admins */\n      0x03\n        /* \"contracts/DisasterRecoveryTraining.sol\":5598:5621  admins[selectedAdminId] */\n      0x00\n        /* \"contracts/DisasterRecoveryTraining.sol\":5605:5620  selectedAdminId */\n      dup4\n        /* \"contracts/DisasterRecoveryTraining.sol\":5598:5621  admins[selectedAdminId] */\n      dup2\n      mstore\n      0x20\n      add\n      swap1\n      dup2\n      mstore\n      0x20\n      add\n      0x00\n      keccak256\n        /* \"contracts/DisasterRecoveryTraining.sol\":5598:5629  admins[selectedAdminId].balance */\n      0x03\n      add\n      0x00\n        /* \"contracts/DisasterRecoveryTraining.sol\":5598:5644  admins[selectedAdminId].balance += BOOKING_FEE */\n      dup3\n      dup3\n      sload\n      tag_184\n      swap2\n      swap1\n      tag_101\n      jump\t// in\n    tag_184:\n      swap3\n      pop\n      pop\n      dup2\n      swap1\n      sstore\n      pop\n        /* \"contracts/DisasterRecoveryTraining.sol\":5670:5674  true */\n      0x01\n        /* \"contracts/DisasterRecoveryTraining.sol\":5663:5674  return true */\n      swap3\n      pop\n      pop\n      pop\n        /* \"contracts/DisasterRecoveryTraining.sol\":4382:5681  function bookTrainingSlot(uint256 trainerId, uint256 participantId, uint256 slotId) external returns (bool) {... */\n      swap4\n      swap3\n      pop\n      pop\n      pop\n      jump\t// out\n        /* \"contracts/DisasterRecoveryTraining.sol\":2401:2782  function registerTrainer(uint256 id, string memory name, uint256 age, string memory gender) external returns (uint256) {... */\n    tag_40:\n        /* \"contracts/DisasterRecoveryTraining.sol\":2511:2518  uint256 */\n      0x00\n        /* \"contracts/DisasterRecoveryTraining.sol\":2544:2545  0 */\n      0x00\n        /* \"contracts/DisasterRecoveryTraining.sol\":2538:2541  age */\n      dup4\n        /* \"contracts/DisasterRecoveryTraining.sol\":2538:2545  age > 0 */\n      gt\n        /* \"contracts/DisasterRecoveryTraining.sol\":2530:2561  require(age > 0, \"Invalid age\") */\n      tag_186\n      jumpi\n      mload(0x40)\n      0x08c379a000000000000000000000000000000000000000000000000000000000\n      dup2\n      mstore\n      0x04\n      add\n      tag_187\n      swap1\n      tag_188\n      jump\t// in\n    tag_187:\n      mload(0x40)\n      dup1\n      swap2\n      sub\n      swap1\n      revert\n    tag_186:\n        /* \"contracts/DisasterRecoveryTraining.sol\":2584:2585  0 */\n      0x00\n        /* \"contracts/DisasterRecoveryTraining.sol\":2579:2581  id */\n      dup6\n        /* \"contracts/DisasterRecoveryTraining.sol\":2579:2585  id > 0 */\n      gt\n        /* \"contracts/DisasterRecoveryTraining.sol\":2571:2600  require(id > 0, \"Invalid ID\") */\n      tag_189\n      jumpi\n      mload(0x40)\n      0x08c379a000000000000000000000000000000000000000000000000000000000\n      dup2\n      mstore\n      0x04\n      add\n      tag_190\n      swap1\n      tag_191\n      jump\t// in\n    tag_190:\n      mload(0x40)\n      dup1\n      swap2\n      sub\n      swap1\n      revert\n    tag_189:\n        /* \"contracts/DisasterRecoveryTraining.sol\":2637:2638  0 */\n      0x00\n        /* \"contracts/DisasterRecoveryTraining.sol\":2618:2626  trainers */\n      0x04\n        /* \"contracts/DisasterRecoveryTraining.sol\":2618:2630  trainers[id] */\n      0x00\n        /* \"contracts/DisasterRecoveryTraining.sol\":2627:2629  id */\n      dup8\n        /* \"contracts/DisasterRecoveryTraining.sol\":2618:2630  trainers[id] */\n      dup2\n      mstore\n      0x20\n      add\n      swap1\n      dup2\n      mstore\n      0x20\n      add\n      0x00\n      keccak256\n        /* \"contracts/DisasterRecoveryTraining.sol\":2618:2633  trainers[id].id */\n      0x00\n      add\n      sload\n        /* \"contracts/DisasterRecoveryTraining.sol\":2618:2638  trainers[id].id == 0 */\n      eq\n        /* \"contracts/DisasterRecoveryTraining.sol\":2610:2668  require(trainers[id].id == 0, \"Trainer ID already exists\") */\n      tag_192\n      jumpi\n      mload(0x40)\n      0x08c379a000000000000000000000000000000000000000000000000000000000\n      dup2\n      mstore\n      0x04\n      add\n      tag_193\n      swap1\n      tag_194\n      jump\t// in\n    tag_193:\n      mload(0x40)\n      dup1\n      swap2\n      sub\n      swap1\n      revert\n    tag_192:\n        /* \"contracts/DisasterRecoveryTraining.sol\":2702:2732  Trainer(id, name, age, gender) */\n      mload(0x40)\n      dup1\n      0x80\n      add\n      0x40\n      mstore\n      dup1\n        /* \"contracts/DisasterRecoveryTraining.sol\":2710:2712  id */\n      dup7\n        /* \"contracts/DisasterRecoveryTraining.sol\":2702:2732  Trainer(id, name, age, gender) */\n      dup2\n      mstore\n      0x20\n      add\n        /* \"contracts/DisasterRecoveryTraining.sol\":2714:2718  name */\n      dup6\n        /* \"contracts/DisasterRecoveryTraining.sol\":2702:2732  Trainer(id, name, age, gender) */\n      dup2\n      mstore\n      0x20\n      add\n        /* \"contracts/DisasterRecoveryTraining.sol\":2720:2723  age */\n      dup5\n        /* \"contracts/DisasterRecoveryTraining.sol\":2702:2732  Trainer(id, name, age, gender) */\n      dup2\n      mstore\n      0x20\n      add\n        /* \"contracts/DisasterRecoveryTraining.sol\":2725:2731  gender */\n      dup4\n        /* \"contracts/DisasterRecoveryTraining.sol\":2702:2732  Trainer(id, name, age, gender) */\n      dup2\n      mstore\n      pop\n        /* \"contracts/DisasterRecoveryTraining.sol\":2687:2695  trainers */\n      0x04\n        /* \"contracts/DisasterRecoveryTraining.sol\":2687:2699  trainers[id] */\n      0x00\n        /* \"contracts/DisasterRecoveryTraining.sol\":2696:2698  id */\n      dup8\n        /* \"contracts/DisasterRecoveryTraining.sol\":2687:2699  trainers[id] */\n      dup2\n      mstore\n      0x20\n      add\n      swap1\n      dup2\n      mstore\n      0x20\n      add\n      0x00\n      keccak256\n        /* \"contracts/DisasterRecoveryTraining.sol\":2687:2732  trainers[id] = Trainer(id, name, age, gender) */\n      0x00\n      dup3\n      add\n      mload\n      dup2\n      0x00\n      add\n      sstore\n      0x20\n      dup3\n      add\n      mload\n      dup2\n      0x01\n      add\n      swap1\n      dup2\n      tag_195\n      swap2\n      swap1\n      tag_196\n      jump\t// in\n    tag_195:\n      pop\n      0x40\n      dup3\n      add\n      mload\n      dup2\n      0x02\n      add\n      sstore\n      0x60\n      dup3\n      add\n      mload\n      dup2\n      0x03\n      add\n      swap1\n      dup2\n      tag_197\n      swap2\n      swap1\n      tag_196\n      jump\t// in\n    tag_197:\n      pop\n      swap1\n      pop\n      pop\n        /* \"contracts/DisasterRecoveryTraining.sol\":2742:2754  trainerCount */\n      0x01\n      0x00\n        /* \"contracts/DisasterRecoveryTraining.sol\":2742:2756  trainerCount++ */\n      dup2\n      sload\n      dup1\n      swap3\n      swap2\n      swap1\n      tag_198\n      swap1\n      tag_78\n      jump\t// in\n    tag_198:\n      swap2\n      swap1\n      pop\n      sstore\n      pop\n        /* \"contracts/DisasterRecoveryTraining.sol\":2773:2775  id */\n      dup5\n        /* \"contracts/DisasterRecoveryTraining.sol\":2766:2775  return id */\n      swap1\n      pop\n        /* \"contracts/DisasterRecoveryTraining.sol\":2401:2782  function registerTrainer(uint256 id, string memory name, uint256 age, string memory gender) external returns (uint256) {... */\n      swap5\n      swap4\n      pop\n      pop\n      pop\n      pop\n      jump\t// out\n        /* \"contracts/DisasterRecoveryTraining.sol\":2022:2391  function registerAdmin(uint256 id, string memory name, uint256 age) external returns (uint256) {... */\n    tag_46:\n        /* \"contracts/DisasterRecoveryTraining.sol\":2108:2115  uint256 */\n      0x00\n        /* \"contracts/DisasterRecoveryTraining.sol\":2141:2142  0 */\n      0x00\n        /* \"contracts/DisasterRecoveryTraining.sol\":2135:2138  age */\n      dup3\n        /* \"contracts/DisasterRecoveryTraining.sol\":2135:2142  age > 0 */\n      gt\n        /* \"contracts/DisasterRecoveryTraining.sol\":2127:2158  require(age > 0, \"Invalid age\") */\n      tag_200\n      jumpi\n      mload(0x40)\n      0x08c379a000000000000000000000000000000000000000000000000000000000\n      dup2\n      mstore\n      0x04\n      add\n      tag_201\n      swap1\n      tag_188\n      jump\t// in\n    tag_201:\n      mload(0x40)\n      dup1\n      swap2\n      sub\n      swap1\n      revert\n    tag_200:\n        /* \"contracts/DisasterRecoveryTraining.sol\":2181:2182  0 */\n      0x00\n        /* \"contracts/DisasterRecoveryTraining.sol\":2176:2178  id */\n      dup5\n        /* \"contracts/DisasterRecoveryTraining.sol\":2176:2182  id > 0 */\n      gt\n        /* \"contracts/DisasterRecoveryTraining.sol\":2168:2197  require(id > 0, \"Invalid ID\") */\n      tag_202\n      jumpi\n      mload(0x40)\n      0x08c379a000000000000000000000000000000000000000000000000000000000\n      dup2\n      mstore\n      0x04\n      add\n      tag_203\n      swap1\n      tag_191\n      jump\t// in\n    tag_203:\n      mload(0x40)\n      dup1\n      swap2\n      sub\n      swap1\n      revert\n    tag_202:\n        /* \"contracts/DisasterRecoveryTraining.sol\":2232:2233  0 */\n      0x00\n        /* \"contracts/DisasterRecoveryTraining.sol\":2215:2221  admins */\n      0x03\n        /* \"contracts/DisasterRecoveryTraining.sol\":2215:2225  admins[id] */\n      0x00\n        /* \"contracts/DisasterRecoveryTraining.sol\":2222:2224  id */\n      dup7\n        /* \"contracts/DisasterRecoveryTraining.sol\":2215:2225  admins[id] */\n      dup2\n      mstore\n      0x20\n      add\n      swap1\n      dup2\n      mstore\n      0x20\n      add\n      0x00\n      keccak256\n        /* \"contracts/DisasterRecoveryTraining.sol\":2215:2228  admins[id].id */\n      0x00\n      add\n      sload\n        /* \"contracts/DisasterRecoveryTraining.sol\":2215:2233  admins[id].id == 0 */\n      eq\n        /* \"contracts/DisasterRecoveryTraining.sol\":2207:2261  require(admins[id].id == 0, \"Admin ID already exists\") */\n      tag_204\n      jumpi\n      mload(0x40)\n      0x08c379a000000000000000000000000000000000000000000000000000000000\n      dup2\n      mstore\n      0x04\n      add\n      tag_205\n      swap1\n      tag_206\n      jump\t// in\n    tag_205:\n      mload(0x40)\n      dup1\n      swap2\n      sub\n      swap1\n      revert\n    tag_204:\n        /* \"contracts/DisasterRecoveryTraining.sol\":2293:2316  Admin(id, name, age, 0) */\n      mload(0x40)\n      dup1\n      0x80\n      add\n      0x40\n      mstore\n      dup1\n        /* \"contracts/DisasterRecoveryTraining.sol\":2299:2301  id */\n      dup6\n        /* \"contracts/DisasterRecoveryTraining.sol\":2293:2316  Admin(id, name, age, 0) */\n      dup2\n      mstore\n      0x20\n      add\n        /* \"contracts/DisasterRecoveryTraining.sol\":2303:2307  name */\n      dup5\n        /* \"contracts/DisasterRecoveryTraining.sol\":2293:2316  Admin(id, name, age, 0) */\n      dup2\n      mstore\n      0x20\n      add\n        /* \"contracts/DisasterRecoveryTraining.sol\":2309:2312  age */\n      dup4\n        /* \"contracts/DisasterRecoveryTraining.sol\":2293:2316  Admin(id, name, age, 0) */\n      dup2\n      mstore\n      0x20\n      add\n        /* \"contracts/DisasterRecoveryTraining.sol\":2314:2315  0 */\n      0x00\n        /* \"contracts/DisasterRecoveryTraining.sol\":2293:2316  Admin(id, name, age, 0) */\n      dup2\n      mstore\n      pop\n        /* \"contracts/DisasterRecoveryTraining.sol\":2280:2286  admins */\n      0x03\n        /* \"contracts/DisasterRecoveryTraining.sol\":2280:2290  admins[id] */\n      0x00\n        /* \"contracts/DisasterRecoveryTraining.sol\":2287:2289  id */\n      dup7\n        /* \"contracts/DisasterRecoveryTraining.sol\":2280:2290  admins[id] */\n      dup2\n      mstore\n      0x20\n      add\n      swap1\n      dup2\n      mstore\n      0x20\n      add\n      0x00\n      keccak256\n        /* \"contracts/DisasterRecoveryTraining.sol\":2280:2316  admins[id] = Admin(id, name, age, 0) */\n      0x00\n      dup3\n      add\n      mload\n      dup2\n      0x00\n      add\n      sstore\n      0x20\n      dup3\n      add\n      mload\n      dup2\n      0x01\n      add\n      swap1\n      dup2\n      tag_207\n      swap2\n      swap1\n      tag_196\n      jump\t// in\n    tag_207:\n      pop\n      0x40\n      dup3\n      add\n      mload\n      dup2\n      0x02\n      add\n      sstore\n      0x60\n      dup3\n      add\n      mload\n      dup2\n      0x03\n      add\n      sstore\n      swap1\n      pop\n      pop\n        /* \"contracts/DisasterRecoveryTraining.sol\":2326:2334  adminIds */\n      0x07\n        /* \"contracts/DisasterRecoveryTraining.sol\":2340:2342  id */\n      dup5\n        /* \"contracts/DisasterRecoveryTraining.sol\":2326:2343  adminIds.push(id) */\n      swap1\n      dup1\n      0x01\n      dup2\n      sload\n      add\n      dup1\n      dup3\n      sstore\n      dup1\n      swap2\n      pop\n      pop\n      0x01\n      swap1\n      sub\n      swap1\n      0x00\n      mstore\n      keccak256(0x00, 0x20)\n      add\n      0x00\n      swap1\n      swap2\n      swap1\n      swap2\n      swap1\n      swap2\n      pop\n      sstore\n        /* \"contracts/DisasterRecoveryTraining.sol\":2353:2363  adminCount */\n      0x00\n      0x00\n        /* \"contracts/DisasterRecoveryTraining.sol\":2353:2365  adminCount++ */\n      dup2\n      sload\n      dup1\n      swap3\n      swap2\n      swap1\n      tag_209\n      swap1\n      tag_78\n      jump\t// in\n    tag_209:\n      swap2\n      swap1\n      pop\n      sstore\n      pop\n        /* \"contracts/DisasterRecoveryTraining.sol\":2382:2384  id */\n      dup4\n        /* \"contracts/DisasterRecoveryTraining.sol\":2375:2384  return id */\n      swap1\n      pop\n        /* \"contracts/DisasterRecoveryTraining.sol\":2022:2391  function registerAdmin(uint256 id, string memory name, uint256 age) external returns (uint256) {... */\n      swap4\n      swap3\n      pop\n      pop\n      pop\n      jump\t// out\n        /* \"contracts/DisasterRecoveryTraining.sol\":2792:3611  function registerParticipant(... */\n    tag_51:\n        /* \"contracts/DisasterRecoveryTraining.sol\":3048:3055  uint256 */\n      0x00\n        /* \"contracts/DisasterRecoveryTraining.sol\":3081:3082  0 */\n      0x00\n        /* \"contracts/DisasterRecoveryTraining.sol\":3075:3078  age */\n      dup7\n        /* \"contracts/DisasterRecoveryTraining.sol\":3075:3082  age > 0 */\n      gt\n        /* \"contracts/DisasterRecoveryTraining.sol\":3067:3098  require(age > 0, \"Invalid age\") */\n      tag_211\n      jumpi\n      mload(0x40)\n      0x08c379a000000000000000000000000000000000000000000000000000000000\n      dup2\n      mstore\n      0x04\n      add\n      tag_212\n      swap1\n      tag_188\n      jump\t// in\n    tag_212:\n      mload(0x40)\n      dup1\n      swap2\n      sub\n      swap1\n      revert\n    tag_211:\n        /* \"contracts/DisasterRecoveryTraining.sol\":3121:3122  0 */\n      0x00\n        /* \"contracts/DisasterRecoveryTraining.sol\":3116:3118  id */\n      dup9\n        /* \"contracts/DisasterRecoveryTraining.sol\":3116:3122  id > 0 */\n      gt\n        /* \"contracts/DisasterRecoveryTraining.sol\":3108:3137  require(id > 0, \"Invalid ID\") */\n      tag_213\n      jumpi\n      mload(0x40)\n      0x08c379a000000000000000000000000000000000000000000000000000000000\n      dup2\n      mstore\n      0x04\n      add\n      tag_214\n      swap1\n      tag_191\n      jump\t// in\n    tag_214:\n      mload(0x40)\n      dup1\n      swap2\n      sub\n      swap1\n      revert\n    tag_213:\n        /* \"contracts/DisasterRecoveryTraining.sol\":3178:3179  0 */\n      0x00\n        /* \"contracts/DisasterRecoveryTraining.sol\":3155:3167  participants */\n      0x05\n        /* \"contracts/DisasterRecoveryTraining.sol\":3155:3171  participants[id] */\n      0x00\n        /* \"contracts/DisasterRecoveryTraining.sol\":3168:3170  id */\n      dup11\n        /* \"contracts/DisasterRecoveryTraining.sol\":3155:3171  participants[id] */\n      dup2\n      mstore\n      0x20\n      add\n      swap1\n      dup2\n      mstore\n      0x20\n      add\n      0x00\n      keccak256\n        /* \"contracts/DisasterRecoveryTraining.sol\":3155:3174  participants[id].id */\n      0x00\n      add\n      sload\n        /* \"contracts/DisasterRecoveryTraining.sol\":3155:3179  participants[id].id == 0 */\n      eq\n        /* \"contracts/DisasterRecoveryTraining.sol\":3147:3213  require(participants[id].id == 0, \"Participant ID already exists\") */\n      tag_215\n      jumpi\n      mload(0x40)\n      0x08c379a000000000000000000000000000000000000000000000000000000000\n      dup2\n      mstore\n      0x04\n      add\n      tag_216\n      swap1\n      tag_217\n      jump\t// in\n    tag_216:\n      mload(0x40)\n      dup1\n      swap2\n      sub\n      swap1\n      revert\n    tag_215:\n        /* \"contracts/DisasterRecoveryTraining.sol\":3252:3253  2 */\n      0x02\n        /* \"contracts/DisasterRecoveryTraining.sol\":3231:3248  training_interest */\n      dup4\n        /* \"contracts/DisasterRecoveryTraining.sol\":3231:3253  training_interest <= 2 */\n      gt\n      iszero\n        /* \"contracts/DisasterRecoveryTraining.sol\":3223:3283  require(training_interest <= 2, \"Invalid training interest\") */\n      tag_218\n      jumpi\n      mload(0x40)\n      0x08c379a000000000000000000000000000000000000000000000000000000000\n      dup2\n      mstore\n      0x04\n      add\n      tag_219\n      swap1\n      tag_59\n      jump\t// in\n    tag_219:\n      mload(0x40)\n      dup1\n      swap2\n      sub\n      swap1\n      revert\n    tag_218:\n        /* \"contracts/DisasterRecoveryTraining.sol\":3321:3557  Participant(... */\n      mload(0x40)\n      dup1\n      0x0100\n      add\n      0x40\n      mstore\n      dup1\n        /* \"contracts/DisasterRecoveryTraining.sol\":3346:3348  id */\n      dup10\n        /* \"contracts/DisasterRecoveryTraining.sol\":3321:3557  Participant(... */\n      dup2\n      mstore\n      0x20\n      add\n        /* \"contracts/DisasterRecoveryTraining.sol\":3362:3366  name */\n      dup9\n        /* \"contracts/DisasterRecoveryTraining.sol\":3321:3557  Participant(... */\n      dup2\n      mstore\n      0x20\n      add\n        /* \"contracts/DisasterRecoveryTraining.sol\":3380:3383  age */\n      dup8\n        /* \"contracts/DisasterRecoveryTraining.sol\":3321:3557  Participant(... */\n      dup2\n      mstore\n      0x20\n      add\n        /* \"contracts/DisasterRecoveryTraining.sol\":3397:3403  gender */\n      dup7\n        /* \"contracts/DisasterRecoveryTraining.sol\":3321:3557  Participant(... */\n      dup2\n      mstore\n      0x20\n      add\n        /* \"contracts/DisasterRecoveryTraining.sol\":3417:3425  district */\n      dup6\n        /* \"contracts/DisasterRecoveryTraining.sol\":3321:3557  Participant(... */\n      dup2\n      mstore\n      0x20\n      add\n        /* \"contracts/DisasterRecoveryTraining.sol\":3452:3469  training_interest */\n      dup5\n        /* \"contracts/DisasterRecoveryTraining.sol\":3439:3470  TrainingType(training_interest) */\n      0x02\n      dup2\n      gt\n      iszero\n      tag_220\n      jumpi\n      tag_221\n      tag_66\n      jump\t// in\n    tag_221:\n    tag_220:\n        /* \"contracts/DisasterRecoveryTraining.sol\":3321:3557  Participant(... */\n      0x02\n      dup2\n      gt\n      iszero\n      tag_222\n      jumpi\n      tag_223\n      tag_66\n      jump\t// in\n    tag_223:\n    tag_222:\n      dup2\n      mstore\n      0x20\n      add\n        /* \"contracts/DisasterRecoveryTraining.sol\":3484:3506  has_completed_training */\n      dup4\n        /* \"contracts/DisasterRecoveryTraining.sol\":3321:3557  Participant(... */\n      iszero\n      iszero\n      dup2\n      mstore\n      0x20\n      add\n        /* \"contracts/DisasterRecoveryTraining.sol\":1219:1227  10 ether */\n      0x8ac7230489e80000\n        /* \"contracts/DisasterRecoveryTraining.sol\":3321:3557  Participant(... */\n      dup2\n      mstore\n      pop\n        /* \"contracts/DisasterRecoveryTraining.sol\":3302:3314  participants */\n      0x05\n        /* \"contracts/DisasterRecoveryTraining.sol\":3302:3318  participants[id] */\n      0x00\n        /* \"contracts/DisasterRecoveryTraining.sol\":3315:3317  id */\n      dup11\n        /* \"contracts/DisasterRecoveryTraining.sol\":3302:3318  participants[id] */\n      dup2\n      mstore\n      0x20\n      add\n      swap1\n      dup2\n      mstore\n      0x20\n      add\n      0x00\n      keccak256\n        /* \"contracts/DisasterRecoveryTraining.sol\":3302:3557  participants[id] = Participant(... */\n      0x00\n      dup3\n      add\n      mload\n      dup2\n      0x00\n      add\n      sstore\n      0x20\n      dup3\n      add\n      mload\n      dup2\n      0x01\n      add\n      swap1\n      dup2\n      tag_224\n      swap2\n      swap1\n      tag_196\n      jump\t// in\n    tag_224:\n      pop\n      0x40\n      dup3\n      add\n      mload\n      dup2\n      0x02\n      add\n      sstore\n      0x60\n      dup3\n      add\n      mload\n      dup2\n      0x03\n      add\n      swap1\n      dup2\n      tag_225\n      swap2\n      swap1\n      tag_196\n      jump\t// in\n    tag_225:\n      pop\n      0x80\n      dup3\n      add\n      mload\n      dup2\n      0x04\n      add\n      swap1\n      dup2\n      tag_226\n      swap2\n      swap1\n      tag_196\n      jump\t// in\n    tag_226:\n      pop\n      0xa0\n      dup3\n      add\n      mload\n      dup2\n      0x05\n      add\n      exp(0x0100, 0x00)\n      dup2\n      sload\n      dup2\n      0xff\n      mul\n      not\n      and\n      swap1\n      dup4\n      0x02\n      dup2\n      gt\n      iszero\n      tag_227\n      jumpi\n      tag_228\n      tag_66\n      jump\t// in\n    tag_228:\n    tag_227:\n      mul\n      or\n      swap1\n      sstore\n      pop\n      0xc0\n      dup3\n      add\n      mload\n      dup2\n      0x05\n      add\n      exp(0x0100, 0x01)\n      dup2\n      sload\n      dup2\n      0xff\n      mul\n      not\n      and\n      swap1\n      dup4\n      iszero\n      iszero\n      mul\n      or\n      swap1\n      sstore\n      pop\n      0xe0\n      dup3\n      add\n      mload\n      dup2\n      0x06\n      add\n      sstore\n      swap1\n      pop\n      pop\n        /* \"contracts/DisasterRecoveryTraining.sol\":3567:3583  participantCount */\n      0x02\n      0x00\n        /* \"contracts/DisasterRecoveryTraining.sol\":3567:3585  participantCount++ */\n      dup2\n      sload\n      dup1\n      swap3\n      swap2\n      swap1\n      tag_229\n      swap1\n      tag_78\n      jump\t// in\n    tag_229:\n      swap2\n      swap1\n      pop\n      sstore\n      pop\n        /* \"contracts/DisasterRecoveryTraining.sol\":3602:3604  id */\n      dup8\n        /* \"contracts/DisasterRecoveryTraining.sol\":3595:3604  return id */\n      swap1\n      pop\n        /* \"contracts/DisasterRecoveryTraining.sol\":2792:3611  function registerParticipant(... */\n      swap8\n      swap7\n      pop\n      pop\n      pop\n      pop\n      pop\n      pop\n      pop\n      jump\t// out\n        /* \"contracts/DisasterRecoveryTraining.sol\":7205:7795  function _toString(uint256 value) internal pure returns (string memory) {... */\n    tag_105:\n        /* \"contracts/DisasterRecoveryTraining.sol\":7262:7275  string memory */\n      0x60\n        /* \"contracts/DisasterRecoveryTraining.sol\":7300:7301  0 */\n      0x00\n        /* \"contracts/DisasterRecoveryTraining.sol\":7291:7296  value */\n      dup3\n        /* \"contracts/DisasterRecoveryTraining.sol\":7291:7301  value == 0 */\n      sub\n        /* \"contracts/DisasterRecoveryTraining.sol\":7287:7313  if (value == 0) return \"0\" */\n      tag_231\n      jumpi\n        /* \"contracts/DisasterRecoveryTraining.sol\":7303:7313  return \"0\" */\n      mload(0x40)\n      dup1\n      0x40\n      add\n      0x40\n      mstore\n      dup1\n      0x01\n      dup2\n      mstore\n      0x20\n      add\n      0x3000000000000000000000000000000000000000000000000000000000000000\n      dup2\n      mstore\n      pop\n      swap1\n      pop\n      jump(tag_230)\n        /* \"contracts/DisasterRecoveryTraining.sol\":7287:7313  if (value == 0) return \"0\" */\n    tag_231:\n        /* \"contracts/DisasterRecoveryTraining.sol\":7335:7337  10 */\n      0x0a\n        /* \"contracts/DisasterRecoveryTraining.sol\":7327:7332  value */\n      dup3\n        /* \"contracts/DisasterRecoveryTraining.sol\":7327:7337  value < 10 */\n      lt\n        /* \"contracts/DisasterRecoveryTraining.sol\":7323:7402  if (value < 10) return string(abi.encodePacked(\"0\", bytes1(uint8(48 + value)))) */\n      iszero\n      tag_232\n      jumpi\n        /* \"contracts/DisasterRecoveryTraining.sol\":7393:7398  value */\n      dup2\n        /* \"contracts/DisasterRecoveryTraining.sol\":7388:7390  48 */\n      0x30\n        /* \"contracts/DisasterRecoveryTraining.sol\":7388:7398  48 + value */\n      tag_233\n      swap2\n      swap1\n      tag_101\n      jump\t// in\n    tag_233:\n        /* \"contracts/DisasterRecoveryTraining.sol\":7375:7400  bytes1(uint8(48 + value)) */\n      0xf8\n      shl\n        /* \"contracts/DisasterRecoveryTraining.sol\":7353:7401  abi.encodePacked(\"0\", bytes1(uint8(48 + value))) */\n      add(0x20, mload(0x40))\n      tag_234\n      swap2\n      swap1\n      tag_235\n      jump\t// in\n    tag_234:\n      mload(0x40)\n      0x20\n      dup2\n      dup4\n      sub\n      sub\n      dup2\n      mstore\n      swap1\n      0x40\n      mstore\n        /* \"contracts/DisasterRecoveryTraining.sol\":7339:7402  return string(abi.encodePacked(\"0\", bytes1(uint8(48 + value)))) */\n      swap1\n      pop\n      jump(tag_230)\n        /* \"contracts/DisasterRecoveryTraining.sol\":7323:7402  if (value < 10) return string(abi.encodePacked(\"0\", bytes1(uint8(48 + value)))) */\n    tag_232:\n        /* \"contracts/DisasterRecoveryTraining.sol\":7421:7433  uint256 temp */\n      0x00\n        /* \"contracts/DisasterRecoveryTraining.sol\":7436:7441  value */\n      dup3\n        /* \"contracts/DisasterRecoveryTraining.sol\":7421:7441  uint256 temp = value */\n      swap1\n      pop\n        /* \"contracts/DisasterRecoveryTraining.sol\":7451:7465  uint256 digits */\n      0x00\n        /* \"contracts/DisasterRecoveryTraining.sol\":7475:7550  while (temp != 0) {... */\n    tag_236:\n        /* \"contracts/DisasterRecoveryTraining.sol\":7490:7491  0 */\n      0x00\n        /* \"contracts/DisasterRecoveryTraining.sol\":7482:7486  temp */\n      dup3\n        /* \"contracts/DisasterRecoveryTraining.sol\":7482:7491  temp != 0 */\n      eq\n        /* \"contracts/DisasterRecoveryTraining.sol\":7475:7550  while (temp != 0) {... */\n      tag_237\n      jumpi\n        /* \"contracts/DisasterRecoveryTraining.sol\":7507:7515  digits++ */\n      dup1\n      dup1\n      tag_238\n      swap1\n      tag_78\n      jump\t// in\n    tag_238:\n      swap2\n      pop\n      pop\n        /* \"contracts/DisasterRecoveryTraining.sol\":7537:7539  10 */\n      0x0a\n        /* \"contracts/DisasterRecoveryTraining.sol\":7529:7539  temp /= 10 */\n      dup3\n      tag_239\n      swap2\n      swap1\n      tag_95\n      jump\t// in\n    tag_239:\n      swap2\n      pop\n        /* \"contracts/DisasterRecoveryTraining.sol\":7475:7550  while (temp != 0) {... */\n      jump(tag_236)\n    tag_237:\n        /* \"contracts/DisasterRecoveryTraining.sol\":7559:7578  bytes memory buffer */\n      0x00\n        /* \"contracts/DisasterRecoveryTraining.sol\":7591:7597  digits */\n      dup2\n        /* \"contracts/DisasterRecoveryTraining.sol\":7581:7598  new bytes(digits) */\n      0xffffffffffffffff\n      dup2\n      gt\n      iszero\n      tag_240\n      jumpi\n      tag_241\n      tag_81\n      jump\t// in\n    tag_241:\n    tag_240:\n      mload(0x40)\n      swap1\n      dup1\n      dup3\n      mstore\n      dup1\n      0x1f\n      add\n      not(0x1f)\n      and\n      0x20\n      add\n      dup3\n      add\n      0x40\n      mstore\n      dup1\n      iszero\n      tag_242\n      jumpi\n      dup2\n      0x20\n      add\n      0x01\n      dup3\n      mul\n      dup1\n      calldatasize\n      dup4\n      calldatacopy\n      dup1\n      dup3\n      add\n      swap2\n      pop\n      pop\n      swap1\n      pop\n    tag_242:\n      pop\n        /* \"contracts/DisasterRecoveryTraining.sol\":7559:7598  bytes memory buffer = new bytes(digits) */\n      swap1\n      pop\n        /* \"contracts/DisasterRecoveryTraining.sol\":7608:7758  while (value != 0) {... */\n    tag_243:\n        /* \"contracts/DisasterRecoveryTraining.sol\":7624:7625  0 */\n      0x00\n        /* \"contracts/DisasterRecoveryTraining.sol\":7615:7620  value */\n      dup6\n        /* \"contracts/DisasterRecoveryTraining.sol\":7615:7625  value != 0 */\n      eq\n        /* \"contracts/DisasterRecoveryTraining.sol\":7608:7758  while (value != 0) {... */\n      tag_244\n      jumpi\n        /* \"contracts/DisasterRecoveryTraining.sol\":7651:7652  1 */\n      0x01\n        /* \"contracts/DisasterRecoveryTraining.sol\":7641:7652  digits -= 1 */\n      dup3\n      tag_245\n      swap2\n      swap1\n      tag_183\n      jump\t// in\n    tag_245:\n      swap2\n      pop\n        /* \"contracts/DisasterRecoveryTraining.sol\":7717:7719  10 */\n      0x0a\n        /* \"contracts/DisasterRecoveryTraining.sol\":7709:7714  value */\n      dup6\n        /* \"contracts/DisasterRecoveryTraining.sol\":7709:7719  value % 10 */\n      tag_246\n      swap2\n      swap1\n      tag_97\n      jump\t// in\n    tag_246:\n        /* \"contracts/DisasterRecoveryTraining.sol\":7696:7698  48 */\n      0x30\n        /* \"contracts/DisasterRecoveryTraining.sol\":7696:7720  48 + uint256(value % 10) */\n      tag_247\n      swap2\n      swap1\n      tag_101\n      jump\t// in\n    tag_247:\n        /* \"contracts/DisasterRecoveryTraining.sol\":7683:7722  bytes1(uint8(48 + uint256(value % 10))) */\n      0xf8\n      shl\n        /* \"contracts/DisasterRecoveryTraining.sol\":7666:7672  buffer */\n      dup2\n        /* \"contracts/DisasterRecoveryTraining.sol\":7673:7679  digits */\n      dup4\n        /* \"contracts/DisasterRecoveryTraining.sol\":7666:7680  buffer[digits] */\n      dup2\n      mload\n      dup2\n      lt\n      tag_248\n      jumpi\n      tag_249\n      tag_93\n      jump\t// in\n    tag_249:\n    tag_248:\n      0x20\n      add\n      add\n        /* \"contracts/DisasterRecoveryTraining.sol\":7666:7722  buffer[digits] = bytes1(uint8(48 + uint256(value % 10))) */\n      swap1\n      not(0xffffffffffffffffffffffffffffffffffffffffffffffffffffffffffffff)\n      and\n      swap1\n      dup2\n      0x00\n      byte\n      swap1\n      mstore8\n      pop\n        /* \"contracts/DisasterRecoveryTraining.sol\":7745:7747  10 */\n      0x0a\n        /* \"contracts/DisasterRecoveryTraining.sol\":7736:7747  value /= 10 */\n      dup6\n      tag_250\n      swap2\n      swap1\n      tag_95\n      jump\t// in\n    tag_250:\n      swap5\n      pop\n        /* \"contracts/DisasterRecoveryTraining.sol\":7608:7758  while (value != 0) {... */\n      jump(tag_243)\n    tag_244:\n        /* \"contracts/DisasterRecoveryTraining.sol\":7781:7787  buffer */\n      dup1\n        /* \"contracts/DisasterRecoveryTraining.sol\":7767:7788  return string(buffer) */\n      swap4\n      pop\n      pop\n      pop\n      pop\n        /* \"contracts/DisasterRecoveryTraining.sol\":7205:7795  function _toString(uint256 value) internal pure returns (string memory) {... */\n    tag_230:\n      swap2\n      swap1\n      pop\n      jump\t// out\n        /* \"#utility.yul\":7:82   */\n    tag_251:\n        /* \"#utility.yul\":40:46   */\n      0x00\n        /* \"#utility.yul\":73:75   */\n      0x40\n        /* \"#utility.yul\":67:76   */\n      mload\n        /* \"#utility.yul\":57:76   */\n      swap1\n      pop\n        /* \"#utility.yul\":7:82   */\n      swap1\n      jump\t// out\n        /* \"#utility.yul\":88:205   */\n    tag_252:\n        /* \"#utility.yul\":197:198   */\n      0x00\n        /* \"#utility.yul\":194:195   */\n      0x00\n        /* \"#utility.yul\":187:199   */\n      revert\n        /* \"#utility.yul\":211:328   */\n    tag_253:\n        /* \"#utility.yul\":320:321   */\n      0x00\n        /* \"#utility.yul\":317:318   */\n      0x00\n        /* \"#utility.yul\":310:322   */\n      revert\n        /* \"#utility.yul\":334:411   */\n    tag_254:\n        /* \"#utility.yul\":371:378   */\n      0x00\n        /* \"#utility.yul\":400:405   */\n      dup2\n        /* \"#utility.yul\":389:405   */\n      swap1\n      pop\n        /* \"#utility.yul\":334:411   */\n      swap2\n      swap1\n      pop\n      jump\t// out\n        /* \"#utility.yul\":417:539   */\n    tag_255:\n        /* \"#utility.yul\":490:514   */\n      tag_353\n        /* \"#utility.yul\":508:513   */\n      dup2\n        /* \"#utility.yul\":490:514   */\n      tag_254\n      jump\t// in\n    tag_353:\n        /* \"#utility.yul\":483:488   */\n      dup2\n        /* \"#utility.yul\":480:515   */\n      eq\n        /* \"#utility.yul\":470:533   */\n      tag_354\n      jumpi\n        /* \"#utility.yul\":529:530   */\n      0x00\n        /* \"#utility.yul\":526:527   */\n      0x00\n        /* \"#utility.yul\":519:531   */\n      revert\n        /* \"#utility.yul\":470:533   */\n    tag_354:\n        /* \"#utility.yul\":417:539   */\n      pop\n      jump\t// out\n        /* \"#utility.yul\":545:684   */\n    tag_256:\n        /* \"#utility.yul\":591:596   */\n      0x00\n        /* \"#utility.yul\":629:635   */\n      dup2\n        /* \"#utility.yul\":616:636   */\n      calldataload\n        /* \"#utility.yul\":607:636   */\n      swap1\n      pop\n        /* \"#utility.yul\":645:678   */\n      tag_356\n        /* \"#utility.yul\":672:677   */\n      dup2\n        /* \"#utility.yul\":645:678   */\n      tag_255\n      jump\t// in\n    tag_356:\n        /* \"#utility.yul\":545:684   */\n      swap3\n      swap2\n      pop\n      pop\n      jump\t// out\n        /* \"#utility.yul\":690:780   */\n    tag_257:\n        /* \"#utility.yul\":724:731   */\n      0x00\n        /* \"#utility.yul\":767:772   */\n      dup2\n        /* \"#utility.yul\":760:773   */\n      iszero\n        /* \"#utility.yul\":753:774   */\n      iszero\n        /* \"#utility.yul\":742:774   */\n      swap1\n      pop\n        /* \"#utility.yul\":690:780   */\n      swap2\n      swap1\n      pop\n      jump\t// out\n        /* \"#utility.yul\":786:902   */\n    tag_258:\n        /* \"#utility.yul\":856:877   */\n      tag_359\n        /* \"#utility.yul\":871:876   */\n      dup2\n        /* \"#utility.yul\":856:877   */\n      tag_257\n      jump\t// in\n    tag_359:\n        /* \"#utility.yul\":849:854   */\n      dup2\n        /* \"#utility.yul\":846:878   */\n      eq\n        /* \"#utility.yul\":836:896   */\n      tag_360\n      jumpi\n        /* \"#utility.yul\":892:893   */\n      0x00\n        /* \"#utility.yul\":889:890   */\n      0x00\n        /* \"#utility.yul\":882:894   */\n      revert\n        /* \"#utility.yul\":836:896   */\n    tag_360:\n        /* \"#utility.yul\":786:902   */\n      pop\n      jump\t// out\n        /* \"#utility.yul\":908:1041   */\n    tag_259:\n        /* \"#utility.yul\":951:956   */\n      0x00\n        /* \"#utility.yul\":989:995   */\n      dup2\n        /* \"#utility.yul\":976:996   */\n      calldataload\n        /* \"#utility.yul\":967:996   */\n      swap1\n      pop\n        /* \"#utility.yul\":1005:1035   */\n      tag_362\n        /* \"#utility.yul\":1029:1034   */\n      dup2\n        /* \"#utility.yul\":1005:1035   */\n      tag_258\n      jump\t// in\n    tag_362:\n        /* \"#utility.yul\":908:1041   */\n      swap3\n      swap2\n      pop\n      pop\n      jump\t// out\n        /* \"#utility.yul\":1047:1660   */\n    tag_14:\n        /* \"#utility.yul\":1121:1127   */\n      0x00\n        /* \"#utility.yul\":1129:1135   */\n      0x00\n        /* \"#utility.yul\":1137:1143   */\n      0x00\n        /* \"#utility.yul\":1186:1188   */\n      0x60\n        /* \"#utility.yul\":1174:1183   */\n      dup5\n        /* \"#utility.yul\":1165:1172   */\n      dup7\n        /* \"#utility.yul\":1161:1184   */\n      sub\n        /* \"#utility.yul\":1157:1189   */\n      slt\n        /* \"#utility.yul\":1154:1273   */\n      iszero\n      tag_364\n      jumpi\n        /* \"#utility.yul\":1192:1271   */\n      tag_365\n      tag_252\n      jump\t// in\n    tag_365:\n        /* \"#utility.yul\":1154:1273   */\n    tag_364:\n        /* \"#utility.yul\":1312:1313   */\n      0x00\n        /* \"#utility.yul\":1337:1390   */\n      tag_366\n        /* \"#utility.yul\":1382:1389   */\n      dup7\n        /* \"#utility.yul\":1373:1379   */\n      dup3\n        /* \"#utility.yul\":1362:1371   */\n      dup8\n        /* \"#utility.yul\":1358:1380   */\n      add\n        /* \"#utility.yul\":1337:1390   */\n      tag_256\n      jump\t// in\n    tag_366:\n        /* \"#utility.yul\":1327:1390   */\n      swap4\n      pop\n        /* \"#utility.yul\":1283:1400   */\n      pop\n        /* \"#utility.yul\":1439:1441   */\n      0x20\n        /* \"#utility.yul\":1465:1518   */\n      tag_367\n        /* \"#utility.yul\":1510:1517   */\n      dup7\n        /* \"#utility.yul\":1501:1507   */\n      dup3\n        /* \"#utility.yul\":1490:1499   */\n      dup8\n        /* \"#utility.yul\":1486:1508   */\n      add\n        /* \"#utility.yul\":1465:1518   */\n      tag_256\n      jump\t// in\n    tag_367:\n        /* \"#utility.yul\":1455:1518   */\n      swap3\n      pop\n        /* \"#utility.yul\":1410:1528   */\n      pop\n        /* \"#utility.yul\":1567:1569   */\n      0x40\n        /* \"#utility.yul\":1593:1643   */\n      tag_368\n        /* \"#utility.yul\":1635:1642   */\n      dup7\n        /* \"#utility.yul\":1626:1632   */\n      dup3\n        /* \"#utility.yul\":1615:1624   */\n      dup8\n        /* \"#utility.yul\":1611:1633   */\n      add\n        /* \"#utility.yul\":1593:1643   */\n      tag_259\n      jump\t// in\n    tag_368:\n        /* \"#utility.yul\":1583:1643   */\n      swap2\n      pop\n        /* \"#utility.yul\":1538:1653   */\n      pop\n        /* \"#utility.yul\":1047:1660   */\n      swap3\n      pop\n      swap3\n      pop\n      swap3\n      jump\t// out\n        /* \"#utility.yul\":1666:1995   */\n    tag_18:\n        /* \"#utility.yul\":1725:1731   */\n      0x00\n        /* \"#utility.yul\":1774:1776   */\n      0x20\n        /* \"#utility.yul\":1762:1771   */\n      dup3\n        /* \"#utility.yul\":1753:1760   */\n      dup5\n        /* \"#utility.yul\":1749:1772   */\n      sub\n        /* \"#utility.yul\":1745:1777   */\n      slt\n        /* \"#utility.yul\":1742:1861   */\n      iszero\n      tag_370\n      jumpi\n        /* \"#utility.yul\":1780:1859   */\n      tag_371\n      tag_252\n      jump\t// in\n    tag_371:\n        /* \"#utility.yul\":1742:1861   */\n    tag_370:\n        /* \"#utility.yul\":1900:1901   */\n      0x00\n        /* \"#utility.yul\":1925:1978   */\n      tag_372\n        /* \"#utility.yul\":1970:1977   */\n      dup5\n        /* \"#utility.yul\":1961:1967   */\n      dup3\n        /* \"#utility.yul\":1950:1959   */\n      dup6\n        /* \"#utility.yul\":1946:1968   */\n      add\n        /* \"#utility.yul\":1925:1978   */\n      tag_256\n      jump\t// in\n    tag_372:\n        /* \"#utility.yul\":1915:1978   */\n      swap2\n      pop\n        /* \"#utility.yul\":1871:1988   */\n      pop\n        /* \"#utility.yul\":1666:1995   */\n      swap3\n      swap2\n      pop\n      pop\n      jump\t// out\n        /* \"#utility.yul\":2001:2115   */\n    tag_260:\n        /* \"#utility.yul\":2068:2074   */\n      0x00\n        /* \"#utility.yul\":2102:2107   */\n      dup2\n        /* \"#utility.yul\":2096:2108   */\n      mload\n        /* \"#utility.yul\":2086:2108   */\n      swap1\n      pop\n        /* \"#utility.yul\":2001:2115   */\n      swap2\n      swap1\n      pop\n      jump\t// out\n        /* \"#utility.yul\":2121:2305   */\n    tag_261:\n        /* \"#utility.yul\":2220:2231   */\n      0x00\n        /* \"#utility.yul\":2254:2260   */\n      dup3\n        /* \"#utility.yul\":2249:2252   */\n      dup3\n        /* \"#utility.yul\":2242:2261   */\n      mstore\n        /* \"#utility.yul\":2294:2298   */\n      0x20\n        /* \"#utility.yul\":2289:2292   */\n      dup3\n        /* \"#utility.yul\":2285:2299   */\n      add\n        /* \"#utility.yul\":2270:2299   */\n      swap1\n      pop\n        /* \"#utility.yul\":2121:2305   */\n      swap3\n      swap2\n      pop\n      pop\n      jump\t// out\n        /* \"#utility.yul\":2311:2443   */\n    tag_262:\n        /* \"#utility.yul\":2378:2382   */\n      0x00\n        /* \"#utility.yul\":2401:2404   */\n      dup2\n        /* \"#utility.yul\":2393:2404   */\n      swap1\n      pop\n        /* \"#utility.yul\":2431:2435   */\n      0x20\n        /* \"#utility.yul\":2426:2429   */\n      dup3\n        /* \"#utility.yul\":2422:2436   */\n      add\n        /* \"#utility.yul\":2414:2436   */\n      swap1\n      pop\n        /* \"#utility.yul\":2311:2443   */\n      swap2\n      swap1\n      pop\n      jump\t// out\n        /* \"#utility.yul\":2449:2557   */\n    tag_263:\n        /* \"#utility.yul\":2526:2550   */\n      tag_377\n        /* \"#utility.yul\":2544:2549   */\n      dup2\n        /* \"#utility.yul\":2526:2550   */\n      tag_254\n      jump\t// in\n    tag_377:\n        /* \"#utility.yul\":2521:2524   */\n      dup3\n        /* \"#utility.yul\":2514:2551   */\n      mstore\n        /* \"#utility.yul\":2449:2557   */\n      pop\n      pop\n      jump\t// out\n        /* \"#utility.yul\":2563:2742   */\n    tag_264:\n        /* \"#utility.yul\":2632:2642   */\n      0x00\n        /* \"#utility.yul\":2653:2699   */\n      tag_379\n        /* \"#utility.yul\":2695:2698   */\n      dup4\n        /* \"#utility.yul\":2687:2693   */\n      dup4\n        /* \"#utility.yul\":2653:2699   */\n      tag_263\n      jump\t// in\n    tag_379:\n        /* \"#utility.yul\":2731:2735   */\n      0x20\n        /* \"#utility.yul\":2726:2729   */\n      dup4\n        /* \"#utility.yul\":2722:2736   */\n      add\n        /* \"#utility.yul\":2708:2736   */\n      swap1\n      pop\n        /* \"#utility.yul\":2563:2742   */\n      swap3\n      swap2\n      pop\n      pop\n      jump\t// out\n        /* \"#utility.yul\":2748:2861   */\n    tag_265:\n        /* \"#utility.yul\":2818:2822   */\n      0x00\n        /* \"#utility.yul\":2850:2854   */\n      0x20\n        /* \"#utility.yul\":2845:2848   */\n      dup3\n        /* \"#utility.yul\":2841:2855   */\n      add\n        /* \"#utility.yul\":2833:2855   */\n      swap1\n      pop\n        /* \"#utility.yul\":2748:2861   */\n      swap2\n      swap1\n      pop\n      jump\t// out\n        /* \"#utility.yul\":2897:3629   */\n    tag_266:\n        /* \"#utility.yul\":3016:3019   */\n      0x00\n        /* \"#utility.yul\":3045:3099   */\n      tag_382\n        /* \"#utility.yul\":3093:3098   */\n      dup3\n        /* \"#utility.yul\":3045:3099   */\n      tag_260\n      jump\t// in\n    tag_382:\n        /* \"#utility.yul\":3115:3201   */\n      tag_383\n        /* \"#utility.yul\":3194:3200   */\n      dup2\n        /* \"#utility.yul\":3189:3192   */\n      dup6\n        /* \"#utility.yul\":3115:3201   */\n      tag_261\n      jump\t// in\n    tag_383:\n        /* \"#utility.yul\":3108:3201   */\n      swap4\n      pop\n        /* \"#utility.yul\":3225:3281   */\n      tag_384\n        /* \"#utility.yul\":3275:3280   */\n      dup4\n        /* \"#utility.yul\":3225:3281   */\n      tag_262\n      jump\t// in\n    tag_384:\n        /* \"#utility.yul\":3304:3311   */\n      dup1\n        /* \"#utility.yul\":3335:3336   */\n      0x00\n        /* \"#utility.yul\":3320:3604   */\n    tag_385:\n        /* \"#utility.yul\":3345:3351   */\n      dup4\n        /* \"#utility.yul\":3342:3343   */\n      dup2\n        /* \"#utility.yul\":3339:3352   */\n      lt\n        /* \"#utility.yul\":3320:3604   */\n      iszero\n      tag_387\n      jumpi\n        /* \"#utility.yul\":3421:3427   */\n      dup2\n        /* \"#utility.yul\":3415:3428   */\n      mload\n        /* \"#utility.yul\":3448:3511   */\n      tag_388\n        /* \"#utility.yul\":3507:3510   */\n      dup9\n        /* \"#utility.yul\":3492:3505   */\n      dup3\n        /* \"#utility.yul\":3448:3511   */\n      tag_264\n      jump\t// in\n    tag_388:\n        /* \"#utility.yul\":3441:3511   */\n      swap8\n      pop\n        /* \"#utility.yul\":3534:3594   */\n      tag_389\n        /* \"#utility.yul\":3587:3593   */\n      dup4\n        /* \"#utility.yul\":3534:3594   */\n      tag_265\n      jump\t// in\n    tag_389:\n        /* \"#utility.yul\":3524:3594   */\n      swap3\n      pop\n        /* \"#utility.yul\":3380:3604   */\n      pop\n        /* \"#utility.yul\":3367:3368   */\n      0x01\n        /* \"#utility.yul\":3364:3365   */\n      dup2\n        /* \"#utility.yul\":3360:3369   */\n      add\n        /* \"#utility.yul\":3355:3369   */\n      swap1\n      pop\n        /* \"#utility.yul\":3320:3604   */\n      jump(tag_385)\n    tag_387:\n        /* \"#utility.yul\":3324:3338   */\n      pop\n        /* \"#utility.yul\":3620:3623   */\n      dup6\n        /* \"#utility.yul\":3613:3623   */\n      swap4\n      pop\n        /* \"#utility.yul\":3021:3629   */\n      pop\n      pop\n      pop\n        /* \"#utility.yul\":2897:3629   */\n      swap3\n      swap2\n      pop\n      pop\n      jump\t// out\n        /* \"#utility.yul\":3635:3759   */\n    tag_267:\n        /* \"#utility.yul\":3712:3718   */\n      0x00\n        /* \"#utility.yul\":3746:3751   */\n      dup2\n        /* \"#utility.yul\":3740:3752   */\n      mload\n        /* \"#utility.yul\":3730:3752   */\n      swap1\n      pop\n        /* \"#utility.yul\":3635:3759   */\n      swap2\n      swap1\n      pop\n      jump\t// out\n        /* \"#utility.yul\":3765:3959   */\n    tag_268:\n        /* \"#utility.yul\":3874:3885   */\n      0x00\n        /* \"#utility.yul\":3908:3914   */\n      dup3\n        /* \"#utility.yul\":3903:3906   */\n      dup3\n        /* \"#utility.yul\":3896:3915   */\n      mstore\n        /* \"#utility.yul\":3948:3952   */\n      0x20\n        /* \"#utility.yul\":3943:3946   */\n      dup3\n        /* \"#utility.yul\":3939:3953   */\n      add\n        /* \"#utility.yul\":3924:3953   */\n      swap1\n      pop\n        /* \"#utility.yul\":3765:3959   */\n      swap3\n      swap2\n      pop\n      pop\n      jump\t// out\n        /* \"#utility.yul\":3965:4107   */\n    tag_269:\n        /* \"#utility.yul\":4042:4046   */\n      0x00\n        /* \"#utility.yul\":4065:4068   */\n      dup2\n        /* \"#utility.yul\":4057:4068   */\n      swap1\n      pop\n        /* \"#utility.yul\":4095:4099   */\n      0x20\n        /* \"#utility.yul\":4090:4093   */\n      dup3\n        /* \"#utility.yul\":4086:4100   */\n      add\n        /* \"#utility.yul\":4078:4100   */\n      swap1\n      pop\n        /* \"#utility.yul\":3965:4107   */\n      swap2\n      swap1\n      pop\n      jump\t// out\n        /* \"#utility.yul\":4113:4212   */\n    tag_270:\n        /* \"#utility.yul\":4165:4171   */\n      0x00\n        /* \"#utility.yul\":4199:4204   */\n      dup2\n        /* \"#utility.yul\":4193:4205   */\n      mload\n        /* \"#utility.yul\":4183:4205   */\n      swap1\n      pop\n        /* \"#utility.yul\":4113:4212   */\n      swap2\n      swap1\n      pop\n      jump\t// out\n        /* \"#utility.yul\":4218:4377   */\n    tag_271:\n        /* \"#utility.yul\":4292:4303   */\n      0x00\n        /* \"#utility.yul\":4326:4332   */\n      dup3\n        /* \"#utility.yul\":4321:4324   */\n      dup3\n        /* \"#utility.yul\":4314:4333   */\n      mstore\n        /* \"#utility.yul\":4366:4370   */\n      0x20\n        /* \"#utility.yul\":4361:4364   */\n      dup3\n        /* \"#utility.yul\":4357:4371   */\n      add\n        /* \"#utility.yul\":4342:4371   */\n      swap1\n      pop\n        /* \"#utility.yul\":4218:4377   */\n      swap3\n      swap2\n      pop\n      pop\n      jump\t// out\n        /* \"#utility.yul\":4383:4522   */\n    tag_272:\n        /* \"#utility.yul\":4472:4478   */\n      dup3\n        /* \"#utility.yul\":4467:4470   */\n      dup2\n        /* \"#utility.yul\":4462:4465   */\n      dup4\n        /* \"#utility.yul\":4456:4479   */\n      mcopy\n        /* \"#utility.yul\":4513:4514   */\n      0x00\n        /* \"#utility.yul\":4504:4510   */\n      dup4\n        /* \"#utility.yul\":4499:4502   */\n      dup4\n        /* \"#utility.yul\":4495:4511   */\n      add\n        /* \"#utility.yul\":4488:4515   */\n      mstore\n        /* \"#utility.yul\":4383:4522   */\n      pop\n      pop\n      pop\n      jump\t// out\n        /* \"#utility.yul\":4528:4630   */\n    tag_273:\n        /* \"#utility.yul\":4569:4575   */\n      0x00\n        /* \"#utility.yul\":4620:4622   */\n      0x1f\n        /* \"#utility.yul\":4616:4623   */\n      not\n        /* \"#utility.yul\":4611:4613   */\n      0x1f\n        /* \"#utility.yul\":4604:4609   */\n      dup4\n        /* \"#utility.yul\":4600:4614   */\n      add\n        /* \"#utility.yul\":4596:4624   */\n      and\n        /* \"#utility.yul\":4586:4624   */\n      swap1\n      pop\n        /* \"#utility.yul\":4528:4630   */\n      swap2\n      swap1\n      pop\n      jump\t// out\n        /* \"#utility.yul\":4636:4993   */\n    tag_274:\n        /* \"#utility.yul\":4714:4717   */\n      0x00\n        /* \"#utility.yul\":4742:4781   */\n      tag_398\n        /* \"#utility.yul\":4775:4780   */\n      dup3\n        /* \"#utility.yul\":4742:4781   */\n      tag_270\n      jump\t// in\n    tag_398:\n        /* \"#utility.yul\":4797:4858   */\n      tag_399\n        /* \"#utility.yul\":4851:4857   */\n      dup2\n        /* \"#utility.yul\":4846:4849   */\n      dup6\n        /* \"#utility.yul\":4797:4858   */\n      tag_271\n      jump\t// in\n    tag_399:\n        /* \"#utility.yul\":4790:4858   */\n      swap4\n      pop\n        /* \"#utility.yul\":4867:4932   */\n      tag_400\n        /* \"#utility.yul\":4925:4931   */\n      dup2\n        /* \"#utility.yul\":4920:4923   */\n      dup6\n        /* \"#utility.yul\":4913:4917   */\n      0x20\n        /* \"#utility.yul\":4906:4911   */\n      dup7\n        /* \"#utility.yul\":4902:4918   */\n      add\n        /* \"#utility.yul\":4867:4932   */\n      tag_272\n      jump\t// in\n    tag_400:\n        /* \"#utility.yul\":4957:4986   */\n      tag_401\n        /* \"#utility.yul\":4979:4985   */\n      dup2\n        /* \"#utility.yul\":4957:4986   */\n      tag_273\n      jump\t// in\n    tag_401:\n        /* \"#utility.yul\":4952:4955   */\n      dup5\n        /* \"#utility.yul\":4948:4987   */\n      add\n        /* \"#utility.yul\":4941:4987   */\n      swap2\n      pop\n        /* \"#utility.yul\":4718:4993   */\n      pop\n        /* \"#utility.yul\":4636:4993   */\n      swap3\n      swap2\n      pop\n      pop\n      jump\t// out\n        /* \"#utility.yul\":4999:5195   */\n    tag_275:\n        /* \"#utility.yul\":5088:5098   */\n      0x00\n        /* \"#utility.yul\":5123:5189   */\n      tag_403\n        /* \"#utility.yul\":5185:5188   */\n      dup4\n        /* \"#utility.yul\":5177:5183   */\n      dup4\n        /* \"#utility.yul\":5123:5189   */\n      tag_274\n      jump\t// in\n    tag_403:\n        /* \"#utility.yul\":5109:5189   */\n      swap1\n      pop\n        /* \"#utility.yul\":4999:5195   */\n      swap3\n      swap2\n      pop\n      pop\n      jump\t// out\n        /* \"#utility.yul\":5201:5324   */\n    tag_276:\n        /* \"#utility.yul\":5281:5285   */\n      0x00\n        /* \"#utility.yul\":5313:5317   */\n      0x20\n        /* \"#utility.yul\":5308:5311   */\n      dup3\n        /* \"#utility.yul\":5304:5318   */\n      add\n        /* \"#utility.yul\":5296:5318   */\n      swap1\n      pop\n        /* \"#utility.yul\":5201:5324   */\n      swap2\n      swap1\n      pop\n      jump\t// out\n        /* \"#utility.yul\":5358:6349   */\n    tag_277:\n        /* \"#utility.yul\":5497:5500   */\n      0x00\n        /* \"#utility.yul\":5526:5590   */\n      tag_406\n        /* \"#utility.yul\":5584:5589   */\n      dup3\n        /* \"#utility.yul\":5526:5590   */\n      tag_267\n      jump\t// in\n    tag_406:\n        /* \"#utility.yul\":5606:5702   */\n      tag_407\n        /* \"#utility.yul\":5695:5701   */\n      dup2\n        /* \"#utility.yul\":5690:5693   */\n      dup6\n        /* \"#utility.yul\":5606:5702   */\n      tag_268\n      jump\t// in\n    tag_407:\n        /* \"#utility.yul\":5599:5702   */\n      swap4\n      pop\n        /* \"#utility.yul\":5728:5731   */\n      dup4\n        /* \"#utility.yul\":5773:5777   */\n      0x20\n        /* \"#utility.yul\":5765:5771   */\n      dup3\n        /* \"#utility.yul\":5761:5778   */\n      mul\n        /* \"#utility.yul\":5756:5759   */\n      dup6\n        /* \"#utility.yul\":5752:5779   */\n      add\n        /* \"#utility.yul\":5803:5869   */\n      tag_408\n        /* \"#utility.yul\":5863:5868   */\n      dup6\n        /* \"#utility.yul\":5803:5869   */\n      tag_269\n      jump\t// in\n    tag_408:\n        /* \"#utility.yul\":5892:5899   */\n      dup1\n        /* \"#utility.yul\":5923:5924   */\n      0x00\n        /* \"#utility.yul\":5908:6304   */\n    tag_409:\n        /* \"#utility.yul\":5933:5939   */\n      dup6\n        /* \"#utility.yul\":5930:5931   */\n      dup2\n        /* \"#utility.yul\":5927:5940   */\n      lt\n        /* \"#utility.yul\":5908:6304   */\n      iszero\n      tag_411\n      jumpi\n        /* \"#utility.yul\":6004:6013   */\n      dup5\n        /* \"#utility.yul\":5998:6002   */\n      dup5\n        /* \"#utility.yul\":5994:6014   */\n      sub\n        /* \"#utility.yul\":5989:5992   */\n      dup10\n        /* \"#utility.yul\":5982:6015   */\n      mstore\n        /* \"#utility.yul\":6055:6061   */\n      dup2\n        /* \"#utility.yul\":6049:6062   */\n      mload\n        /* \"#utility.yul\":6083:6167   */\n      tag_412\n        /* \"#utility.yul\":6162:6166   */\n      dup6\n        /* \"#utility.yul\":6147:6160   */\n      dup3\n        /* \"#utility.yul\":6083:6167   */\n      tag_275\n      jump\t// in\n    tag_412:\n        /* \"#utility.yul\":6075:6167   */\n      swap5\n      pop\n        /* \"#utility.yul\":6190:6260   */\n      tag_413\n        /* \"#utility.yul\":6253:6259   */\n      dup4\n        /* \"#utility.yul\":6190:6260   */\n      tag_276\n      jump\t// in\n    tag_413:\n        /* \"#utility.yul\":6180:6260   */\n      swap3\n      pop\n        /* \"#utility.yul\":6289:6293   */\n      0x20\n        /* \"#utility.yul\":6284:6287   */\n      dup11\n        /* \"#utility.yul\":6280:6294   */\n      add\n        /* \"#utility.yul\":6273:6294   */\n      swap10\n      pop\n        /* \"#utility.yul\":5968:6304   */\n      pop\n        /* \"#utility.yul\":5955:5956   */\n      0x01\n        /* \"#utility.yul\":5952:5953   */\n      dup2\n        /* \"#utility.yul\":5948:5957   */\n      add\n        /* \"#utility.yul\":5943:5957   */\n      swap1\n      pop\n        /* \"#utility.yul\":5908:6304   */\n      jump(tag_409)\n    tag_411:\n        /* \"#utility.yul\":5912:5926   */\n      pop\n        /* \"#utility.yul\":6320:6324   */\n      dup3\n        /* \"#utility.yul\":6313:6324   */\n      swap8\n      pop\n        /* \"#utility.yul\":6340:6343   */\n      dup8\n        /* \"#utility.yul\":6333:6343   */\n      swap6\n      pop\n        /* \"#utility.yul\":5502:6349   */\n      pop\n      pop\n      pop\n      pop\n      pop\n        /* \"#utility.yul\":5358:6349   */\n      swap3\n      swap2\n      pop\n      pop\n      jump\t// out\n        /* \"#utility.yul\":6355:7029   */\n    tag_21:\n        /* \"#utility.yul\":6596:6600   */\n      0x00\n        /* \"#utility.yul\":6634:6636   */\n      0x40\n        /* \"#utility.yul\":6623:6632   */\n      dup3\n        /* \"#utility.yul\":6619:6637   */\n      add\n        /* \"#utility.yul\":6611:6637   */\n      swap1\n      pop\n        /* \"#utility.yul\":6683:6692   */\n      dup2\n        /* \"#utility.yul\":6677:6681   */\n      dup2\n        /* \"#utility.yul\":6673:6693   */\n      sub\n        /* \"#utility.yul\":6669:6670   */\n      0x00\n        /* \"#utility.yul\":6658:6667   */\n      dup4\n        /* \"#utility.yul\":6654:6671   */\n      add\n        /* \"#utility.yul\":6647:6694   */\n      mstore\n        /* \"#utility.yul\":6711:6819   */\n      tag_415\n        /* \"#utility.yul\":6814:6818   */\n      dup2\n        /* \"#utility.yul\":6805:6811   */\n      dup6\n        /* \"#utility.yul\":6711:6819   */\n      tag_266\n      jump\t// in\n    tag_415:\n        /* \"#utility.yul\":6703:6819   */\n      swap1\n      pop\n        /* \"#utility.yul\":6866:6875   */\n      dup2\n        /* \"#utility.yul\":6860:6864   */\n      dup2\n        /* \"#utility.yul\":6856:6876   */\n      sub\n        /* \"#utility.yul\":6851:6853   */\n      0x20\n        /* \"#utility.yul\":6840:6849   */\n      dup4\n        /* \"#utility.yul\":6836:6854   */\n      add\n        /* \"#utility.yul\":6829:6877   */\n      mstore\n        /* \"#utility.yul\":6894:7022   */\n      tag_416\n        /* \"#utility.yul\":7017:7021   */\n      dup2\n        /* \"#utility.yul\":7008:7014   */\n      dup5\n        /* \"#utility.yul\":6894:7022   */\n      tag_277\n      jump\t// in\n    tag_416:\n        /* \"#utility.yul\":6886:7022   */\n      swap1\n      pop\n        /* \"#utility.yul\":6355:7029   */\n      swap4\n      swap3\n      pop\n      pop\n      pop\n      jump\t// out\n        /* \"#utility.yul\":7035:7669   */\n    tag_25:\n        /* \"#utility.yul\":7256:7260   */\n      0x00\n        /* \"#utility.yul\":7294:7296   */\n      0x40\n        /* \"#utility.yul\":7283:7292   */\n      dup3\n        /* \"#utility.yul\":7279:7297   */\n      add\n        /* \"#utility.yul\":7271:7297   */\n      swap1\n      pop\n        /* \"#utility.yul\":7343:7352   */\n      dup2\n        /* \"#utility.yul\":7337:7341   */\n      dup2\n        /* \"#utility.yul\":7333:7353   */\n      sub\n        /* \"#utility.yul\":7329:7330   */\n      0x00\n        /* \"#utility.yul\":7318:7327   */\n      dup4\n        /* \"#utility.yul\":7314:7331   */\n      add\n        /* \"#utility.yul\":7307:7354   */\n      mstore\n        /* \"#utility.yul\":7371:7479   */\n      tag_418\n        /* \"#utility.yul\":7474:7478   */\n      dup2\n        /* \"#utility.yul\":7465:7471   */\n      dup6\n        /* \"#utility.yul\":7371:7479   */\n      tag_266\n      jump\t// in\n    tag_418:\n        /* \"#utility.yul\":7363:7479   */\n      swap1\n      pop\n        /* \"#utility.yul\":7526:7535   */\n      dup2\n        /* \"#utility.yul\":7520:7524   */\n      dup2\n        /* \"#utility.yul\":7516:7536   */\n      sub\n        /* \"#utility.yul\":7511:7513   */\n      0x20\n        /* \"#utility.yul\":7500:7509   */\n      dup4\n        /* \"#utility.yul\":7496:7514   */\n      add\n        /* \"#utility.yul\":7489:7537   */\n      mstore\n        /* \"#utility.yul\":7554:7662   */\n      tag_419\n        /* \"#utility.yul\":7657:7661   */\n      dup2\n        /* \"#utility.yul\":7648:7654   */\n      dup5\n        /* \"#utility.yul\":7554:7662   */\n      tag_266\n      jump\t// in\n    tag_419:\n        /* \"#utility.yul\":7546:7662   */\n      swap1\n      pop\n        /* \"#utility.yul\":7035:7669   */\n      swap4\n      swap3\n      pop\n      pop\n      pop\n      jump\t// out\n        /* \"#utility.yul\":7675:7793   */\n    tag_278:\n        /* \"#utility.yul\":7762:7786   */\n      tag_421\n        /* \"#utility.yul\":7780:7785   */\n      dup2\n        /* \"#utility.yul\":7762:7786   */\n      tag_254\n      jump\t// in\n    tag_421:\n        /* \"#utility.yul\":7757:7760   */\n      dup3\n        /* \"#utility.yul\":7750:7787   */\n      mstore\n        /* \"#utility.yul\":7675:7793   */\n      pop\n      pop\n      jump\t// out\n        /* \"#utility.yul\":7799:7968   */\n    tag_279:\n        /* \"#utility.yul\":7883:7894   */\n      0x00\n        /* \"#utility.yul\":7917:7923   */\n      dup3\n        /* \"#utility.yul\":7912:7915   */\n      dup3\n        /* \"#utility.yul\":7905:7924   */\n      mstore\n        /* \"#utility.yul\":7957:7961   */\n      0x20\n        /* \"#utility.yul\":7952:7955   */\n      dup3\n        /* \"#utility.yul\":7948:7962   */\n      add\n        /* \"#utility.yul\":7933:7962   */\n      swap1\n      pop\n        /* \"#utility.yul\":7799:7968   */\n      swap3\n      swap2\n      pop\n      pop\n      jump\t// out\n        /* \"#utility.yul\":7974:8351   */\n    tag_280:\n        /* \"#utility.yul\":8062:8065   */\n      0x00\n        /* \"#utility.yul\":8090:8129   */\n      tag_424\n        /* \"#utility.yul\":8123:8128   */\n      dup3\n        /* \"#utility.yul\":8090:8129   */\n      tag_270\n      jump\t// in\n    tag_424:\n        /* \"#utility.yul\":8145:8216   */\n      tag_425\n        /* \"#utility.yul\":8209:8215   */\n      dup2\n        /* \"#utility.yul\":8204:8207   */\n      dup6\n        /* \"#utility.yul\":8145:8216   */\n      tag_279\n      jump\t// in\n    tag_425:\n        /* \"#utility.yul\":8138:8216   */\n      swap4\n      pop\n        /* \"#utility.yul\":8225:8290   */\n      tag_426\n        /* \"#utility.yul\":8283:8289   */\n      dup2\n        /* \"#utility.yul\":8278:8281   */\n      dup6\n        /* \"#utility.yul\":8271:8275   */\n      0x20\n        /* \"#utility.yul\":8264:8269   */\n      dup7\n        /* \"#utility.yul\":8260:8276   */\n      add\n        /* \"#utility.yul\":8225:8290   */\n      tag_272\n      jump\t// in\n    tag_426:\n        /* \"#utility.yul\":8315:8344   */\n      tag_427\n        /* \"#utility.yul\":8337:8343   */\n      dup2\n        /* \"#utility.yul\":8315:8344   */\n      tag_273\n      jump\t// in\n    tag_427:\n        /* \"#utility.yul\":8310:8313   */\n      dup5\n        /* \"#utility.yul\":8306:8345   */\n      add\n        /* \"#utility.yul\":8299:8345   */\n      swap2\n      pop\n        /* \"#utility.yul\":8066:8351   */\n      pop\n        /* \"#utility.yul\":7974:8351   */\n      swap3\n      swap2\n      pop\n      pop\n      jump\t// out\n        /* \"#utility.yul\":8357:8466   */\n    tag_281:\n        /* \"#utility.yul\":8438:8459   */\n      tag_429\n        /* \"#utility.yul\":8453:8458   */\n      dup2\n        /* \"#utility.yul\":8438:8459   */\n      tag_257\n      jump\t// in\n    tag_429:\n        /* \"#utility.yul\":8433:8436   */\n      dup3\n        /* \"#utility.yul\":8426:8460   */\n      mstore\n        /* \"#utility.yul\":8357:8466   */\n      pop\n      pop\n      jump\t// out\n        /* \"#utility.yul\":8472:9730   */\n    tag_30:\n        /* \"#utility.yul\":8815:8819   */\n      0x00\n        /* \"#utility.yul\":8853:8856   */\n      0x0100\n        /* \"#utility.yul\":8842:8851   */\n      dup3\n        /* \"#utility.yul\":8838:8857   */\n      add\n        /* \"#utility.yul\":8830:8857   */\n      swap1\n      pop\n        /* \"#utility.yul\":8867:8938   */\n      tag_431\n        /* \"#utility.yul\":8935:8936   */\n      0x00\n        /* \"#utility.yul\":8924:8933   */\n      dup4\n        /* \"#utility.yul\":8920:8937   */\n      add\n        /* \"#utility.yul\":8911:8917   */\n      dup12\n        /* \"#utility.yul\":8867:8938   */\n      tag_278\n      jump\t// in\n    tag_431:\n        /* \"#utility.yul\":8985:8994   */\n      dup2\n        /* \"#utility.yul\":8979:8983   */\n      dup2\n        /* \"#utility.yul\":8975:8995   */\n      sub\n        /* \"#utility.yul\":8970:8972   */\n      0x20\n        /* \"#utility.yul\":8959:8968   */\n      dup4\n        /* \"#utility.yul\":8955:8973   */\n      add\n        /* \"#utility.yul\":8948:8996   */\n      mstore\n        /* \"#utility.yul\":9013:9091   */\n      tag_432\n        /* \"#utility.yul\":9086:9090   */\n      dup2\n        /* \"#utility.yul\":9077:9083   */\n      dup11\n        /* \"#utility.yul\":9013:9091   */\n      tag_280\n      jump\t// in\n    tag_432:\n        /* \"#utility.yul\":9005:9091   */\n      swap1\n      pop\n        /* \"#utility.yul\":9101:9173   */\n      tag_433\n        /* \"#utility.yul\":9169:9171   */\n      0x40\n        /* \"#utility.yul\":9158:9167   */\n      dup4\n        /* \"#utility.yul\":9154:9172   */\n      add\n        /* \"#utility.yul\":9145:9151   */\n      dup10\n        /* \"#utility.yul\":9101:9173   */\n      tag_278\n      jump\t// in\n    tag_433:\n        /* \"#utility.yul\":9220:9229   */\n      dup2\n        /* \"#utility.yul\":9214:9218   */\n      dup2\n        /* \"#utility.yul\":9210:9230   */\n      sub\n        /* \"#utility.yul\":9205:9207   */\n      0x60\n        /* \"#utility.yul\":9194:9203   */\n      dup4\n        /* \"#utility.yul\":9190:9208   */\n      add\n        /* \"#utility.yul\":9183:9231   */\n      mstore\n        /* \"#utility.yul\":9248:9326   */\n      tag_434\n        /* \"#utility.yul\":9321:9325   */\n      dup2\n        /* \"#utility.yul\":9312:9318   */\n      dup9\n        /* \"#utility.yul\":9248:9326   */\n      tag_280\n      jump\t// in\n    tag_434:\n        /* \"#utility.yul\":9240:9326   */\n      swap1\n      pop\n        /* \"#utility.yul\":9374:9383   */\n      dup2\n        /* \"#utility.yul\":9368:9372   */\n      dup2\n        /* \"#utility.yul\":9364:9384   */\n      sub\n        /* \"#utility.yul\":9358:9361   */\n      0x80\n        /* \"#utility.yul\":9347:9356   */\n      dup4\n        /* \"#utility.yul\":9343:9362   */\n      add\n        /* \"#utility.yul\":9336:9385   */\n      mstore\n        /* \"#utility.yul\":9402:9480   */\n      tag_435\n        /* \"#utility.yul\":9475:9479   */\n      dup2\n        /* \"#utility.yul\":9466:9472   */\n      dup8\n        /* \"#utility.yul\":9402:9480   */\n      tag_280\n      jump\t// in\n    tag_435:\n        /* \"#utility.yul\":9394:9480   */\n      swap1\n      pop\n        /* \"#utility.yul\":9490:9563   */\n      tag_436\n        /* \"#utility.yul\":9558:9561   */\n      0xa0\n        /* \"#utility.yul\":9547:9556   */\n      dup4\n        /* \"#utility.yul\":9543:9562   */\n      add\n        /* \"#utility.yul\":9534:9540   */\n      dup7\n        /* \"#utility.yul\":9490:9563   */\n      tag_278\n      jump\t// in\n    tag_436:\n        /* \"#utility.yul\":9573:9640   */\n      tag_437\n        /* \"#utility.yul\":9635:9638   */\n      0xc0\n        /* \"#utility.yul\":9624:9633   */\n      dup4\n        /* \"#utility.yul\":9620:9639   */\n      add\n        /* \"#utility.yul\":9611:9617   */\n      dup6\n        /* \"#utility.yul\":9573:9640   */\n      tag_281\n      jump\t// in\n    tag_437:\n        /* \"#utility.yul\":9650:9723   */\n      tag_438\n        /* \"#utility.yul\":9718:9721   */\n      0xe0\n        /* \"#utility.yul\":9707:9716   */\n      dup4\n        /* \"#utility.yul\":9703:9722   */\n      add\n        /* \"#utility.yul\":9694:9700   */\n      dup5\n        /* \"#utility.yul\":9650:9723   */\n      tag_278\n      jump\t// in\n    tag_438:\n        /* \"#utility.yul\":8472:9730   */\n      swap10\n      swap9\n      pop\n      pop\n      pop\n      pop\n      pop\n      pop\n      pop\n      pop\n      pop\n      jump\t// out\n        /* \"#utility.yul\":9736:10355   */\n    tag_33:\n        /* \"#utility.yul\":9813:9819   */\n      0x00\n        /* \"#utility.yul\":9821:9827   */\n      0x00\n        /* \"#utility.yul\":9829:9835   */\n      0x00\n        /* \"#utility.yul\":9878:9880   */\n      0x60\n        /* \"#utility.yul\":9866:9875   */\n      dup5\n        /* \"#utility.yul\":9857:9864   */\n      dup7\n        /* \"#utility.yul\":9853:9876   */\n      sub\n        /* \"#utility.yul\":9849:9881   */\n      slt\n        /* \"#utility.yul\":9846:9965   */\n      iszero\n      tag_440\n      jumpi\n        /* \"#utility.yul\":9884:9963   */\n      tag_441\n      tag_252\n      jump\t// in\n    tag_441:\n        /* \"#utility.yul\":9846:9965   */\n    tag_440:\n        /* \"#utility.yul\":10004:10005   */\n      0x00\n        /* \"#utility.yul\":10029:10082   */\n      tag_442\n        /* \"#utility.yul\":10074:10081   */\n      dup7\n        /* \"#utility.yul\":10065:10071   */\n      dup3\n        /* \"#utility.yul\":10054:10063   */\n      dup8\n        /* \"#utility.yul\":10050:10072   */\n      add\n        /* \"#utility.yul\":10029:10082   */\n      tag_256\n      jump\t// in\n    tag_442:\n        /* \"#utility.yul\":10019:10082   */\n      swap4\n      pop\n        /* \"#utility.yul\":9975:10092   */\n      pop\n        /* \"#utility.yul\":10131:10133   */\n      0x20\n        /* \"#utility.yul\":10157:10210   */\n      tag_443\n        /* \"#utility.yul\":10202:10209   */\n      dup7\n        /* \"#utility.yul\":10193:10199   */\n      dup3\n        /* \"#utility.yul\":10182:10191   */\n      dup8\n        /* \"#utility.yul\":10178:10200   */\n      add\n        /* \"#utility.yul\":10157:10210   */\n      tag_256\n      jump\t// in\n    tag_443:\n        /* \"#utility.yul\":10147:10210   */\n      swap3\n      pop\n        /* \"#utility.yul\":10102:10220   */\n      pop\n        /* \"#utility.yul\":10259:10261   */\n      0x40\n        /* \"#utility.yul\":10285:10338   */\n      tag_444\n        /* \"#utility.yul\":10330:10337   */\n      dup7\n        /* \"#utility.yul\":10321:10327   */\n      dup3\n        /* \"#utility.yul\":10310:10319   */\n      dup8\n        /* \"#utility.yul\":10306:10328   */\n      add\n        /* \"#utility.yul\":10285:10338   */\n      tag_256\n      jump\t// in\n    tag_444:\n        /* \"#utility.yul\":10275:10338   */\n      swap2\n      pop\n        /* \"#utility.yul\":10230:10348   */\n      pop\n        /* \"#utility.yul\":9736:10355   */\n      swap3\n      pop\n      swap3\n      pop\n      swap3\n      jump\t// out\n        /* \"#utility.yul\":10361:10571   */\n    tag_36:\n        /* \"#utility.yul\":10448:10452   */\n      0x00\n        /* \"#utility.yul\":10486:10488   */\n      0x20\n        /* \"#utility.yul\":10475:10484   */\n      dup3\n        /* \"#utility.yul\":10471:10489   */\n      add\n        /* \"#utility.yul\":10463:10489   */\n      swap1\n      pop\n        /* \"#utility.yul\":10499:10564   */\n      tag_446\n        /* \"#utility.yul\":10561:10562   */\n      0x00\n        /* \"#utility.yul\":10550:10559   */\n      dup4\n        /* \"#utility.yul\":10546:10563   */\n      add\n        /* \"#utility.yul\":10537:10543   */\n      dup5\n        /* \"#utility.yul\":10499:10564   */\n      tag_281\n      jump\t// in\n    tag_446:\n        /* \"#utility.yul\":10361:10571   */\n      swap3\n      swap2\n      pop\n      pop\n      jump\t// out\n        /* \"#utility.yul\":10577:10694   */\n    tag_282:\n        /* \"#utility.yul\":10686:10687   */\n      0x00\n        /* \"#utility.yul\":10683:10684   */\n      0x00\n        /* \"#utility.yul\":10676:10688   */\n      revert\n        /* \"#utility.yul\":10700:10817   */\n    tag_283:\n        /* \"#utility.yul\":10809:10810   */\n      0x00\n        /* \"#utility.yul\":10806:10807   */\n      0x00\n        /* \"#utility.yul\":10799:10811   */\n      revert\n        /* \"#utility.yul\":10823:11003   */\n    tag_81:\n        /* \"#utility.yul\":10871:10948   */\n      0x4e487b7100000000000000000000000000000000000000000000000000000000\n        /* \"#utility.yul\":10868:10869   */\n      0x00\n        /* \"#utility.yul\":10861:10949   */\n      mstore\n        /* \"#utility.yul\":10968:10972   */\n      0x41\n        /* \"#utility.yul\":10965:10966   */\n      0x04\n        /* \"#utility.yul\":10958:10973   */\n      mstore\n        /* \"#utility.yul\":10992:10996   */\n      0x24\n        /* \"#utility.yul\":10989:10990   */\n      0x00\n        /* \"#utility.yul\":10982:10997   */\n      revert\n        /* \"#utility.yul\":11009:11290   */\n    tag_284:\n        /* \"#utility.yul\":11092:11119   */\n      tag_451\n        /* \"#utility.yul\":11114:11118   */\n      dup3\n        /* \"#utility.yul\":11092:11119   */\n      tag_273\n      jump\t// in\n    tag_451:\n        /* \"#utility.yul\":11084:11090   */\n      dup2\n        /* \"#utility.yul\":11080:11120   */\n      add\n        /* \"#utility.yul\":11222:11228   */\n      dup2\n        /* \"#utility.yul\":11210:11220   */\n      dup2\n        /* \"#utility.yul\":11207:11229   */\n      lt\n        /* \"#utility.yul\":11186:11204   */\n      0xffffffffffffffff\n        /* \"#utility.yul\":11174:11184   */\n      dup3\n        /* \"#utility.yul\":11171:11205   */\n      gt\n        /* \"#utility.yul\":11168:11230   */\n      or\n        /* \"#utility.yul\":11165:11253   */\n      iszero\n      tag_452\n      jumpi\n        /* \"#utility.yul\":11233:11251   */\n      tag_453\n      tag_81\n      jump\t// in\n    tag_453:\n        /* \"#utility.yul\":11165:11253   */\n    tag_452:\n        /* \"#utility.yul\":11273:11283   */\n      dup1\n        /* \"#utility.yul\":11269:11271   */\n      0x40\n        /* \"#utility.yul\":11262:11284   */\n      mstore\n        /* \"#utility.yul\":11052:11290   */\n      pop\n        /* \"#utility.yul\":11009:11290   */\n      pop\n      pop\n      jump\t// out\n        /* \"#utility.yul\":11296:11425   */\n    tag_285:\n        /* \"#utility.yul\":11330:11336   */\n      0x00\n        /* \"#utility.yul\":11357:11377   */\n      tag_455\n      tag_251\n      jump\t// in\n    tag_455:\n        /* \"#utility.yul\":11347:11377   */\n      swap1\n      pop\n        /* \"#utility.yul\":11386:11419   */\n      tag_456\n        /* \"#utility.yul\":11414:11418   */\n      dup3\n        /* \"#utility.yul\":11406:11412   */\n      dup3\n        /* \"#utility.yul\":11386:11419   */\n      tag_284\n      jump\t// in\n    tag_456:\n        /* \"#utility.yul\":11296:11425   */\n      swap2\n      swap1\n      pop\n      jump\t// out\n        /* \"#utility.yul\":11431:11739   */\n    tag_286:\n        /* \"#utility.yul\":11493:11497   */\n      0x00\n        /* \"#utility.yul\":11583:11601   */\n      0xffffffffffffffff\n        /* \"#utility.yul\":11575:11581   */\n      dup3\n        /* \"#utility.yul\":11572:11602   */\n      gt\n        /* \"#utility.yul\":11569:11625   */\n      iszero\n      tag_458\n      jumpi\n        /* \"#utility.yul\":11605:11623   */\n      tag_459\n      tag_81\n      jump\t// in\n    tag_459:\n        /* \"#utility.yul\":11569:11625   */\n    tag_458:\n        /* \"#utility.yul\":11643:11672   */\n      tag_460\n        /* \"#utility.yul\":11665:11671   */\n      dup3\n        /* \"#utility.yul\":11643:11672   */\n      tag_273\n      jump\t// in\n    tag_460:\n        /* \"#utility.yul\":11635:11672   */\n      swap1\n      pop\n        /* \"#utility.yul\":11727:11731   */\n      0x20\n        /* \"#utility.yul\":11721:11725   */\n      dup2\n        /* \"#utility.yul\":11717:11732   */\n      add\n        /* \"#utility.yul\":11709:11732   */\n      swap1\n      pop\n        /* \"#utility.yul\":11431:11739   */\n      swap2\n      swap1\n      pop\n      jump\t// out\n        /* \"#utility.yul\":11745:11893   */\n    tag_287:\n        /* \"#utility.yul\":11843:11849   */\n      dup3\n        /* \"#utility.yul\":11838:11841   */\n      dup2\n        /* \"#utility.yul\":11833:11836   */\n      dup4\n        /* \"#utility.yul\":11820:11850   */\n      calldatacopy\n        /* \"#utility.yul\":11884:11885   */\n      0x00\n        /* \"#utility.yul\":11875:11881   */\n      dup4\n        /* \"#utility.yul\":11870:11873   */\n      dup4\n        /* \"#utility.yul\":11866:11882   */\n      add\n        /* \"#utility.yul\":11859:11886   */\n      mstore\n        /* \"#utility.yul\":11745:11893   */\n      pop\n      pop\n      pop\n      jump\t// out\n        /* \"#utility.yul\":11899:12324   */\n    tag_288:\n        /* \"#utility.yul\":11977:11982   */\n      0x00\n        /* \"#utility.yul\":12002:12068   */\n      tag_463\n        /* \"#utility.yul\":12018:12067   */\n      tag_464\n        /* \"#utility.yul\":12060:12066   */\n      dup5\n        /* \"#utility.yul\":12018:12067   */\n      tag_286\n      jump\t// in\n    tag_464:\n        /* \"#utility.yul\":12002:12068   */\n      tag_285\n      jump\t// in\n    tag_463:\n        /* \"#utility.yul\":11993:12068   */\n      swap1\n      pop\n        /* \"#utility.yul\":12091:12097   */\n      dup3\n        /* \"#utility.yul\":12084:12089   */\n      dup2\n        /* \"#utility.yul\":12077:12098   */\n      mstore\n        /* \"#utility.yul\":12129:12133   */\n      0x20\n        /* \"#utility.yul\":12122:12127   */\n      dup2\n        /* \"#utility.yul\":12118:12134   */\n      add\n        /* \"#utility.yul\":12167:12170   */\n      dup5\n        /* \"#utility.yul\":12158:12164   */\n      dup5\n        /* \"#utility.yul\":12153:12156   */\n      dup5\n        /* \"#utility.yul\":12149:12165   */\n      add\n        /* \"#utility.yul\":12146:12171   */\n      gt\n        /* \"#utility.yul\":12143:12255   */\n      iszero\n      tag_465\n      jumpi\n        /* \"#utility.yul\":12174:12253   */\n      tag_466\n      tag_283\n      jump\t// in\n    tag_466:\n        /* \"#utility.yul\":12143:12255   */\n    tag_465:\n        /* \"#utility.yul\":12264:12318   */\n      tag_467\n        /* \"#utility.yul\":12311:12317   */\n      dup5\n        /* \"#utility.yul\":12306:12309   */\n      dup3\n        /* \"#utility.yul\":12301:12304   */\n      dup6\n        /* \"#utility.yul\":12264:12318   */\n      tag_287\n      jump\t// in\n    tag_467:\n        /* \"#utility.yul\":11983:12324   */\n      pop\n        /* \"#utility.yul\":11899:12324   */\n      swap4\n      swap3\n      pop\n      pop\n      pop\n      jump\t// out\n        /* \"#utility.yul\":12344:12684   */\n    tag_289:\n        /* \"#utility.yul\":12400:12405   */\n      0x00\n        /* \"#utility.yul\":12449:12452   */\n      dup3\n        /* \"#utility.yul\":12442:12446   */\n      0x1f\n        /* \"#utility.yul\":12434:12440   */\n      dup4\n        /* \"#utility.yul\":12430:12447   */\n      add\n        /* \"#utility.yul\":12426:12453   */\n      slt\n        /* \"#utility.yul\":12416:12538   */\n      tag_469\n      jumpi\n        /* \"#utility.yul\":12457:12536   */\n      tag_470\n      tag_282\n      jump\t// in\n    tag_470:\n        /* \"#utility.yul\":12416:12538   */\n    tag_469:\n        /* \"#utility.yul\":12574:12580   */\n      dup2\n        /* \"#utility.yul\":12561:12581   */\n      calldataload\n        /* \"#utility.yul\":12599:12678   */\n      tag_471\n        /* \"#utility.yul\":12674:12677   */\n      dup5\n        /* \"#utility.yul\":12666:12672   */\n      dup3\n        /* \"#utility.yul\":12659:12663   */\n      0x20\n        /* \"#utility.yul\":12651:12657   */\n      dup7\n        /* \"#utility.yul\":12647:12664   */\n      add\n        /* \"#utility.yul\":12599:12678   */\n      tag_288\n      jump\t// in\n    tag_471:\n        /* \"#utility.yul\":12590:12678   */\n      swap2\n      pop\n        /* \"#utility.yul\":12406:12684   */\n      pop\n        /* \"#utility.yul\":12344:12684   */\n      swap3\n      swap2\n      pop\n      pop\n      jump\t// out\n        /* \"#utility.yul\":12690:13815   */\n    tag_39:\n        /* \"#utility.yul\":12796:12802   */\n      0x00\n        /* \"#utility.yul\":12804:12810   */\n      0x00\n        /* \"#utility.yul\":12812:12818   */\n      0x00\n        /* \"#utility.yul\":12820:12826   */\n      0x00\n        /* \"#utility.yul\":12869:12872   */\n      0x80\n        /* \"#utility.yul\":12857:12866   */\n      dup6\n        /* \"#utility.yul\":12848:12855   */\n      dup8\n        /* \"#utility.yul\":12844:12867   */\n      sub\n        /* \"#utility.yul\":12840:12873   */\n      slt\n        /* \"#utility.yul\":12837:12957   */\n      iszero\n      tag_473\n      jumpi\n        /* \"#utility.yul\":12876:12955   */\n      tag_474\n      tag_252\n      jump\t// in\n    tag_474:\n        /* \"#utility.yul\":12837:12957   */\n    tag_473:\n        /* \"#utility.yul\":12996:12997   */\n      0x00\n        /* \"#utility.yul\":13021:13074   */\n      tag_475\n        /* \"#utility.yul\":13066:13073   */\n      dup8\n        /* \"#utility.yul\":13057:13063   */\n      dup3\n        /* \"#utility.yul\":13046:13055   */\n      dup9\n        /* \"#utility.yul\":13042:13064   */\n      add\n        /* \"#utility.yul\":13021:13074   */\n      tag_256\n      jump\t// in\n    tag_475:\n        /* \"#utility.yul\":13011:13074   */\n      swap5\n      pop\n        /* \"#utility.yul\":12967:13084   */\n      pop\n        /* \"#utility.yul\":13151:13153   */\n      0x20\n        /* \"#utility.yul\":13140:13149   */\n      dup6\n        /* \"#utility.yul\":13136:13154   */\n      add\n        /* \"#utility.yul\":13123:13155   */\n      calldataload\n        /* \"#utility.yul\":13182:13200   */\n      0xffffffffffffffff\n        /* \"#utility.yul\":13174:13180   */\n      dup2\n        /* \"#utility.yul\":13171:13201   */\n      gt\n        /* \"#utility.yul\":13168:13285   */\n      iszero\n      tag_476\n      jumpi\n        /* \"#utility.yul\":13204:13283   */\n      tag_477\n      tag_253\n      jump\t// in\n    tag_477:\n        /* \"#utility.yul\":13168:13285   */\n    tag_476:\n        /* \"#utility.yul\":13309:13372   */\n      tag_478\n        /* \"#utility.yul\":13364:13371   */\n      dup8\n        /* \"#utility.yul\":13355:13361   */\n      dup3\n        /* \"#utility.yul\":13344:13353   */\n      dup9\n        /* \"#utility.yul\":13340:13362   */\n      add\n        /* \"#utility.yul\":13309:13372   */\n      tag_289\n      jump\t// in\n    tag_478:\n        /* \"#utility.yul\":13299:13372   */\n      swap4\n      pop\n        /* \"#utility.yul\":13094:13382   */\n      pop\n        /* \"#utility.yul\":13421:13423   */\n      0x40\n        /* \"#utility.yul\":13447:13500   */\n      tag_479\n        /* \"#utility.yul\":13492:13499   */\n      dup8\n        /* \"#utility.yul\":13483:13489   */\n      dup3\n        /* \"#utility.yul\":13472:13481   */\n      dup9\n        /* \"#utility.yul\":13468:13490   */\n      add\n        /* \"#utility.yul\":13447:13500   */\n      tag_256\n      jump\t// in\n    tag_479:\n        /* \"#utility.yul\":13437:13500   */\n      swap3\n      pop\n        /* \"#utility.yul\":13392:13510   */\n      pop\n        /* \"#utility.yul\":13577:13579   */\n      0x60\n        /* \"#utility.yul\":13566:13575   */\n      dup6\n        /* \"#utility.yul\":13562:13580   */\n      add\n        /* \"#utility.yul\":13549:13581   */\n      calldataload\n        /* \"#utility.yul\":13608:13626   */\n      0xffffffffffffffff\n        /* \"#utility.yul\":13600:13606   */\n      dup2\n        /* \"#utility.yul\":13597:13627   */\n      gt\n        /* \"#utility.yul\":13594:13711   */\n      iszero\n      tag_480\n      jumpi\n        /* \"#utility.yul\":13630:13709   */\n      tag_481\n      tag_253\n      jump\t// in\n    tag_481:\n        /* \"#utility.yul\":13594:13711   */\n    tag_480:\n        /* \"#utility.yul\":13735:13798   */\n      tag_482\n        /* \"#utility.yul\":13790:13797   */\n      dup8\n        /* \"#utility.yul\":13781:13787   */\n      dup3\n        /* \"#utility.yul\":13770:13779   */\n      dup9\n        /* \"#utility.yul\":13766:13788   */\n      add\n        /* \"#utility.yul\":13735:13798   */\n      tag_289\n      jump\t// in\n    tag_482:\n        /* \"#utility.yul\":13725:13798   */\n      swap2\n      pop\n        /* \"#utility.yul\":13520:13808   */\n      pop\n        /* \"#utility.yul\":12690:13815   */\n      swap3\n      swap6\n      swap2\n      swap5\n      pop\n      swap3\n      pop\n      jump\t// out\n        /* \"#utility.yul\":13821:14043   */\n    tag_42:\n        /* \"#utility.yul\":13914:13918   */\n      0x00\n        /* \"#utility.yul\":13952:13954   */\n      0x20\n        /* \"#utility.yul\":13941:13950   */\n      dup3\n        /* \"#utility.yul\":13937:13955   */\n      add\n        /* \"#utility.yul\":13929:13955   */\n      swap1\n      pop\n        /* \"#utility.yul\":13965:14036   */\n      tag_484\n        /* \"#utility.yul\":14033:14034   */\n      0x00\n        /* \"#utility.yul\":14022:14031   */\n      dup4\n        /* \"#utility.yul\":14018:14035   */\n      add\n        /* \"#utility.yul\":14009:14015   */\n      dup5\n        /* \"#utility.yul\":13965:14036   */\n      tag_278\n      jump\t// in\n    tag_484:\n        /* \"#utility.yul\":13821:14043   */\n      swap3\n      swap2\n      pop\n      pop\n      jump\t// out\n        /* \"#utility.yul\":14049:14848   */\n    tag_45:\n        /* \"#utility.yul\":14136:14142   */\n      0x00\n        /* \"#utility.yul\":14144:14150   */\n      0x00\n        /* \"#utility.yul\":14152:14158   */\n      0x00\n        /* \"#utility.yul\":14201:14203   */\n      0x60\n        /* \"#utility.yul\":14189:14198   */\n      dup5\n        /* \"#utility.yul\":14180:14187   */\n      dup7\n        /* \"#utility.yul\":14176:14199   */\n      sub\n        /* \"#utility.yul\":14172:14204   */\n      slt\n        /* \"#utility.yul\":14169:14288   */\n      iszero\n      tag_486\n      jumpi\n        /* \"#utility.yul\":14207:14286   */\n      tag_487\n      tag_252\n      jump\t// in\n    tag_487:\n        /* \"#utility.yul\":14169:14288   */\n    tag_486:\n        /* \"#utility.yul\":14327:14328   */\n      0x00\n        /* \"#utility.yul\":14352:14405   */\n      tag_488\n        /* \"#utility.yul\":14397:14404   */\n      dup7\n        /* \"#utility.yul\":14388:14394   */\n      dup3\n        /* \"#utility.yul\":14377:14386   */\n      dup8\n        /* \"#utility.yul\":14373:14395   */\n      add\n        /* \"#utility.yul\":14352:14405   */\n      tag_256\n      jump\t// in\n    tag_488:\n        /* \"#utility.yul\":14342:14405   */\n      swap4\n      pop\n        /* \"#utility.yul\":14298:14415   */\n      pop\n        /* \"#utility.yul\":14482:14484   */\n      0x20\n        /* \"#utility.yul\":14471:14480   */\n      dup5\n        /* \"#utility.yul\":14467:14485   */\n      add\n        /* \"#utility.yul\":14454:14486   */\n      calldataload\n        /* \"#utility.yul\":14513:14531   */\n      0xffffffffffffffff\n        /* \"#utility.yul\":14505:14511   */\n      dup2\n        /* \"#utility.yul\":14502:14532   */\n      gt\n        /* \"#utility.yul\":14499:14616   */\n      iszero\n      tag_489\n      jumpi\n        /* \"#utility.yul\":14535:14614   */\n      tag_490\n      tag_253\n      jump\t// in\n    tag_490:\n        /* \"#utility.yul\":14499:14616   */\n    tag_489:\n        /* \"#utility.yul\":14640:14703   */\n      tag_491\n        /* \"#utility.yul\":14695:14702   */\n      dup7\n        /* \"#utility.yul\":14686:14692   */\n      dup3\n        /* \"#utility.yul\":14675:14684   */\n      dup8\n        /* \"#utility.yul\":14671:14693   */\n      add\n        /* \"#utility.yul\":14640:14703   */\n      tag_289\n      jump\t// in\n    tag_491:\n        /* \"#utility.yul\":14630:14703   */\n      swap3\n      pop\n        /* \"#utility.yul\":14425:14713   */\n      pop\n        /* \"#utility.yul\":14752:14754   */\n      0x40\n        /* \"#utility.yul\":14778:14831   */\n      tag_492\n        /* \"#utility.yul\":14823:14830   */\n      dup7\n        /* \"#utility.yul\":14814:14820   */\n      dup3\n        /* \"#utility.yul\":14803:14812   */\n      dup8\n        /* \"#utility.yul\":14799:14821   */\n      add\n        /* \"#utility.yul\":14778:14831   */\n      tag_256\n      jump\t// in\n    tag_492:\n        /* \"#utility.yul\":14768:14831   */\n      swap2\n      pop\n        /* \"#utility.yul\":14723:14841   */\n      pop\n        /* \"#utility.yul\":14049:14848   */\n      swap3\n      pop\n      swap3\n      pop\n      swap3\n      jump\t// out\n        /* \"#utility.yul\":14854:16591   */\n    tag_50:\n        /* \"#utility.yul\":14994:15000   */\n      0x00\n        /* \"#utility.yul\":15002:15008   */\n      0x00\n        /* \"#utility.yul\":15010:15016   */\n      0x00\n        /* \"#utility.yul\":15018:15024   */\n      0x00\n        /* \"#utility.yul\":15026:15032   */\n      0x00\n        /* \"#utility.yul\":15034:15040   */\n      0x00\n        /* \"#utility.yul\":15042:15048   */\n      0x00\n        /* \"#utility.yul\":15091:15094   */\n      0xe0\n        /* \"#utility.yul\":15079:15088   */\n      dup9\n        /* \"#utility.yul\":15070:15077   */\n      dup11\n        /* \"#utility.yul\":15066:15089   */\n      sub\n        /* \"#utility.yul\":15062:15095   */\n      slt\n        /* \"#utility.yul\":15059:15179   */\n      iszero\n      tag_494\n      jumpi\n        /* \"#utility.yul\":15098:15177   */\n      tag_495\n      tag_252\n      jump\t// in\n    tag_495:\n        /* \"#utility.yul\":15059:15179   */\n    tag_494:\n        /* \"#utility.yul\":15218:15219   */\n      0x00\n        /* \"#utility.yul\":15243:15296   */\n      tag_496\n        /* \"#utility.yul\":15288:15295   */\n      dup11\n        /* \"#utility.yul\":15279:15285   */\n      dup3\n        /* \"#utility.yul\":15268:15277   */\n      dup12\n        /* \"#utility.yul\":15264:15286   */\n      add\n        /* \"#utility.yul\":15243:15296   */\n      tag_256\n      jump\t// in\n    tag_496:\n        /* \"#utility.yul\":15233:15296   */\n      swap8\n      pop\n        /* \"#utility.yul\":15189:15306   */\n      pop\n        /* \"#utility.yul\":15373:15375   */\n      0x20\n        /* \"#utility.yul\":15362:15371   */\n      dup9\n        /* \"#utility.yul\":15358:15376   */\n      add\n        /* \"#utility.yul\":15345:15377   */\n      calldataload\n        /* \"#utility.yul\":15404:15422   */\n      0xffffffffffffffff\n        /* \"#utility.yul\":15396:15402   */\n      dup2\n        /* \"#utility.yul\":15393:15423   */\n      gt\n        /* \"#utility.yul\":15390:15507   */\n      iszero\n      tag_497\n      jumpi\n        /* \"#utility.yul\":15426:15505   */\n      tag_498\n      tag_253\n      jump\t// in\n    tag_498:\n        /* \"#utility.yul\":15390:15507   */\n    tag_497:\n        /* \"#utility.yul\":15531:15594   */\n      tag_499\n        /* \"#utility.yul\":15586:15593   */\n      dup11\n        /* \"#utility.yul\":15577:15583   */\n      dup3\n        /* \"#utility.yul\":15566:15575   */\n      dup12\n        /* \"#utility.yul\":15562:15584   */\n      add\n        /* \"#utility.yul\":15531:15594   */\n      tag_289\n      jump\t// in\n    tag_499:\n        /* \"#utility.yul\":15521:15594   */\n      swap7\n      pop\n        /* \"#utility.yul\":15316:15604   */\n      pop\n        /* \"#utility.yul\":15643:15645   */\n      0x40\n        /* \"#utility.yul\":15669:15722   */\n      tag_500\n        /* \"#utility.yul\":15714:15721   */\n      dup11\n        /* \"#utility.yul\":15705:15711   */\n      dup3\n        /* \"#utility.yul\":15694:15703   */\n      dup12\n        /* \"#utility.yul\":15690:15712   */\n      add\n        /* \"#utility.yul\":15669:15722   */\n      tag_256\n      jump\t// in\n    tag_500:\n        /* \"#utility.yul\":15659:15722   */\n      swap6\n      pop\n        /* \"#utility.yul\":15614:15732   */\n      pop\n        /* \"#utility.yul\":15799:15801   */\n      0x60\n        /* \"#utility.yul\":15788:15797   */\n      dup9\n        /* \"#utility.yul\":15784:15802   */\n      add\n        /* \"#utility.yul\":15771:15803   */\n      calldataload\n        /* \"#utility.yul\":15830:15848   */\n      0xffffffffffffffff\n        /* \"#utility.yul\":15822:15828   */\n      dup2\n        /* \"#utility.yul\":15819:15849   */\n      gt\n        /* \"#utility.yul\":15816:15933   */\n      iszero\n      tag_501\n      jumpi\n        /* \"#utility.yul\":15852:15931   */\n      tag_502\n      tag_253\n      jump\t// in\n    tag_502:\n        /* \"#utility.yul\":15816:15933   */\n    tag_501:\n        /* \"#utility.yul\":15957:16020   */\n      tag_503\n        /* \"#utility.yul\":16012:16019   */\n      dup11\n        /* \"#utility.yul\":16003:16009   */\n      dup3\n        /* \"#utility.yul\":15992:16001   */\n      dup12\n        /* \"#utility.yul\":15988:16010   */\n      add\n        /* \"#utility.yul\":15957:16020   */\n      tag_289\n      jump\t// in\n    tag_503:\n        /* \"#utility.yul\":15947:16020   */\n      swap5\n      pop\n        /* \"#utility.yul\":15742:16030   */\n      pop\n        /* \"#utility.yul\":16097:16100   */\n      0x80\n        /* \"#utility.yul\":16086:16095   */\n      dup9\n        /* \"#utility.yul\":16082:16101   */\n      add\n        /* \"#utility.yul\":16069:16102   */\n      calldataload\n        /* \"#utility.yul\":16129:16147   */\n      0xffffffffffffffff\n        /* \"#utility.yul\":16121:16127   */\n      dup2\n        /* \"#utility.yul\":16118:16148   */\n      gt\n        /* \"#utility.yul\":16115:16232   */\n      iszero\n      tag_504\n      jumpi\n        /* \"#utility.yul\":16151:16230   */\n      tag_505\n      tag_253\n      jump\t// in\n    tag_505:\n        /* \"#utility.yul\":16115:16232   */\n    tag_504:\n        /* \"#utility.yul\":16256:16319   */\n      tag_506\n        /* \"#utility.yul\":16311:16318   */\n      dup11\n        /* \"#utility.yul\":16302:16308   */\n      dup3\n        /* \"#utility.yul\":16291:16300   */\n      dup12\n        /* \"#utility.yul\":16287:16309   */\n      add\n        /* \"#utility.yul\":16256:16319   */\n      tag_289\n      jump\t// in\n    tag_506:\n        /* \"#utility.yul\":16246:16319   */\n      swap4\n      pop\n        /* \"#utility.yul\":16040:16329   */\n      pop\n        /* \"#utility.yul\":16368:16371   */\n      0xa0\n        /* \"#utility.yul\":16395:16448   */\n      tag_507\n        /* \"#utility.yul\":16440:16447   */\n      dup11\n        /* \"#utility.yul\":16431:16437   */\n      dup3\n        /* \"#utility.yul\":16420:16429   */\n      dup12\n        /* \"#utility.yul\":16416:16438   */\n      add\n        /* \"#utility.yul\":16395:16448   */\n      tag_256\n      jump\t// in\n    tag_507:\n        /* \"#utility.yul\":16385:16448   */\n      swap3\n      pop\n        /* \"#utility.yul\":16339:16458   */\n      pop\n        /* \"#utility.yul\":16497:16500   */\n      0xc0\n        /* \"#utility.yul\":16524:16574   */\n      tag_508\n        /* \"#utility.yul\":16566:16573   */\n      dup11\n        /* \"#utility.yul\":16557:16563   */\n      dup3\n        /* \"#utility.yul\":16546:16555   */\n      dup12\n        /* \"#utility.yul\":16542:16564   */\n      add\n        /* \"#utility.yul\":16524:16574   */\n      tag_259\n      jump\t// in\n    tag_508:\n        /* \"#utility.yul\":16514:16574   */\n      swap2\n      pop\n        /* \"#utility.yul\":16468:16584   */\n      pop\n        /* \"#utility.yul\":14854:16591   */\n      swap3\n      swap6\n      swap9\n      swap2\n      swap5\n      swap8\n      pop\n      swap3\n      swap6\n      pop\n      jump\t// out\n        /* \"#utility.yul\":16597:16768   */\n    tag_290:\n        /* \"#utility.yul\":16737:16760   */\n      0x5061727469636970616e74206e6f7420666f756e640000000000000000000000\n        /* \"#utility.yul\":16733:16734   */\n      0x00\n        /* \"#utility.yul\":16725:16731   */\n      dup3\n        /* \"#utility.yul\":16721:16735   */\n      add\n        /* \"#utility.yul\":16714:16761   */\n      mstore\n        /* \"#utility.yul\":16597:16768   */\n      pop\n      jump\t// out\n        /* \"#utility.yul\":16774:17140   */\n    tag_291:\n        /* \"#utility.yul\":16916:16919   */\n      0x00\n        /* \"#utility.yul\":16937:17004   */\n      tag_511\n        /* \"#utility.yul\":17001:17003   */\n      0x15\n        /* \"#utility.yul\":16996:16999   */\n      dup4\n        /* \"#utility.yul\":16937:17004   */\n      tag_279\n      jump\t// in\n    tag_511:\n        /* \"#utility.yul\":16930:17004   */\n      swap2\n      pop\n        /* \"#utility.yul\":17013:17106   */\n      tag_512\n        /* \"#utility.yul\":17102:17105   */\n      dup3\n        /* \"#utility.yul\":17013:17106   */\n      tag_290\n      jump\t// in\n    tag_512:\n        /* \"#utility.yul\":17131:17133   */\n      0x20\n        /* \"#utility.yul\":17126:17129   */\n      dup3\n        /* \"#utility.yul\":17122:17134   */\n      add\n        /* \"#utility.yul\":17115:17134   */\n      swap1\n      pop\n        /* \"#utility.yul\":16774:17140   */\n      swap2\n      swap1\n      pop\n      jump\t// out\n        /* \"#utility.yul\":17146:17565   */\n    tag_56:\n        /* \"#utility.yul\":17312:17316   */\n      0x00\n        /* \"#utility.yul\":17350:17352   */\n      0x20\n        /* \"#utility.yul\":17339:17348   */\n      dup3\n        /* \"#utility.yul\":17335:17353   */\n      add\n        /* \"#utility.yul\":17327:17353   */\n      swap1\n      pop\n        /* \"#utility.yul\":17399:17408   */\n      dup2\n        /* \"#utility.yul\":17393:17397   */\n      dup2\n        /* \"#utility.yul\":17389:17409   */\n      sub\n        /* \"#utility.yul\":17385:17386   */\n      0x00\n        /* \"#utility.yul\":17374:17383   */\n      dup4\n        /* \"#utility.yul\":17370:17387   */\n      add\n        /* \"#utility.yul\":17363:17410   */\n      mstore\n        /* \"#utility.yul\":17427:17558   */\n      tag_514\n        /* \"#utility.yul\":17553:17557   */\n      dup2\n        /* \"#utility.yul\":17427:17558   */\n      tag_291\n      jump\t// in\n    tag_514:\n        /* \"#utility.yul\":17419:17558   */\n      swap1\n      pop\n        /* \"#utility.yul\":17146:17565   */\n      swap2\n      swap1\n      pop\n      jump\t// out\n        /* \"#utility.yul\":17571:17746   */\n    tag_292:\n        /* \"#utility.yul\":17711:17738   */\n      0x496e76616c696420747261696e696e6720696e74657265737400000000000000\n        /* \"#utility.yul\":17707:17708   */\n      0x00\n        /* \"#utility.yul\":17699:17705   */\n      dup3\n        /* \"#utility.yul\":17695:17709   */\n      add\n        /* \"#utility.yul\":17688:17739   */\n      mstore\n        /* \"#utility.yul\":17571:17746   */\n      pop\n      jump\t// out\n        /* \"#utility.yul\":17752:18118   */\n    tag_293:\n        /* \"#utility.yul\":17894:17897   */\n      0x00\n        /* \"#utility.yul\":17915:17982   */\n      tag_517\n        /* \"#utility.yul\":17979:17981   */\n      0x19\n        /* \"#utility.yul\":17974:17977   */\n      dup4\n        /* \"#utility.yul\":17915:17982   */\n      tag_279\n      jump\t// in\n    tag_517:\n        /* \"#utility.yul\":17908:17982   */\n      swap2\n      pop\n        /* \"#utility.yul\":17991:18084   */\n      tag_518\n        /* \"#utility.yul\":18080:18083   */\n      dup3\n        /* \"#utility.yul\":17991:18084   */\n      tag_292\n      jump\t// in\n    tag_518:\n        /* \"#utility.yul\":18109:18111   */\n      0x20\n        /* \"#utility.yul\":18104:18107   */\n      dup3\n        /* \"#utility.yul\":18100:18112   */\n      add\n        /* \"#utility.yul\":18093:18112   */\n      swap1\n      pop\n        /* \"#utility.yul\":17752:18118   */\n      swap2\n      swap1\n      pop\n      jump\t// out\n        /* \"#utility.yul\":18124:18543   */\n    tag_59:\n        /* \"#utility.yul\":18290:18294   */\n      0x00\n        /* \"#utility.yul\":18328:18330   */\n      0x20\n        /* \"#utility.yul\":18317:18326   */\n      dup3\n        /* \"#utility.yul\":18313:18331   */\n      add\n        /* \"#utility.yul\":18305:18331   */\n      swap1\n      pop\n        /* \"#utility.yul\":18377:18386   */\n      dup2\n        /* \"#utility.yul\":18371:18375   */\n      dup2\n        /* \"#utility.yul\":18367:18387   */\n      sub\n        /* \"#utility.yul\":18363:18364   */\n      0x00\n        /* \"#utility.yul\":18352:18361   */\n      dup4\n        /* \"#utility.yul\":18348:18365   */\n      add\n        /* \"#utility.yul\":18341:18388   */\n      mstore\n        /* \"#utility.yul\":18405:18536   */\n      tag_520\n        /* \"#utility.yul\":18531:18535   */\n      dup2\n        /* \"#utility.yul\":18405:18536   */\n      tag_293\n      jump\t// in\n    tag_520:\n        /* \"#utility.yul\":18397:18536   */\n      swap1\n      pop\n        /* \"#utility.yul\":18124:18543   */\n      swap2\n      swap1\n      pop\n      jump\t// out\n        /* \"#utility.yul\":18549:18778   */\n    tag_294:\n        /* \"#utility.yul\":18689:18723   */\n      0x43616e6e6f74206368616e676520636f6d706c657465642066726f6d20747275\n        /* \"#utility.yul\":18685:18686   */\n      0x00\n        /* \"#utility.yul\":18677:18683   */\n      dup3\n        /* \"#utility.yul\":18673:18687   */\n      add\n        /* \"#utility.yul\":18666:18724   */\n      mstore\n        /* \"#utility.yul\":18758:18770   */\n      0x6520746f2066616c736500000000000000000000000000000000000000000000\n        /* \"#utility.yul\":18753:18755   */\n      0x20\n        /* \"#utility.yul\":18745:18751   */\n      dup3\n        /* \"#utility.yul\":18741:18756   */\n      add\n        /* \"#utility.yul\":18734:18771   */\n      mstore\n        /* \"#utility.yul\":18549:18778   */\n      pop\n      jump\t// out\n        /* \"#utility.yul\":18784:19150   */\n    tag_295:\n        /* \"#utility.yul\":18926:18929   */\n      0x00\n        /* \"#utility.yul\":18947:19014   */\n      tag_523\n        /* \"#utility.yul\":19011:19013   */\n      0x2a\n        /* \"#utility.yul\":19006:19009   */\n      dup4\n        /* \"#utility.yul\":18947:19014   */\n      tag_279\n      jump\t// in\n    tag_523:\n        /* \"#utility.yul\":18940:19014   */\n      swap2\n      pop\n        /* \"#utility.yul\":19023:19116   */\n      tag_524\n        /* \"#utility.yul\":19112:19115   */\n      dup3\n        /* \"#utility.yul\":19023:19116   */\n      tag_294\n      jump\t// in\n    tag_524:\n        /* \"#utility.yul\":19141:19143   */\n      0x40\n        /* \"#utility.yul\":19136:19139   */\n      dup3\n        /* \"#utility.yul\":19132:19144   */\n      add\n        /* \"#utility.yul\":19125:19144   */\n      swap1\n      pop\n        /* \"#utility.yul\":18784:19150   */\n      swap2\n      swap1\n      pop\n      jump\t// out\n        /* \"#utility.yul\":19156:19575   */\n    tag_63:\n        /* \"#utility.yul\":19322:19326   */\n      0x00\n        /* \"#utility.yul\":19360:19362   */\n      0x20\n        /* \"#utility.yul\":19349:19358   */\n      dup3\n        /* \"#utility.yul\":19345:19363   */\n      add\n        /* \"#utility.yul\":19337:19363   */\n      swap1\n      pop\n        /* \"#utility.yul\":19409:19418   */\n      dup2\n        /* \"#utility.yul\":19403:19407   */\n      dup2\n        /* \"#utility.yul\":19399:19419   */\n      sub\n        /* \"#utility.yul\":19395:19396   */\n      0x00\n        /* \"#utility.yul\":19384:19393   */\n      dup4\n        /* \"#utility.yul\":19380:19397   */\n      add\n        /* \"#utility.yul\":19373:19420   */\n      mstore\n        /* \"#utility.yul\":19437:19568   */\n      tag_526\n        /* \"#utility.yul\":19563:19567   */\n      dup2\n        /* \"#utility.yul\":19437:19568   */\n      tag_295\n      jump\t// in\n    tag_526:\n        /* \"#utility.yul\":19429:19568   */\n      swap1\n      pop\n        /* \"#utility.yul\":19156:19575   */\n      swap2\n      swap1\n      pop\n      jump\t// out\n        /* \"#utility.yul\":19581:19761   */\n    tag_66:\n        /* \"#utility.yul\":19629:19706   */\n      0x4e487b7100000000000000000000000000000000000000000000000000000000\n        /* \"#utility.yul\":19626:19627   */\n      0x00\n        /* \"#utility.yul\":19619:19707   */\n      mstore\n        /* \"#utility.yul\":19726:19730   */\n      0x21\n        /* \"#utility.yul\":19723:19724   */\n      0x04\n        /* \"#utility.yul\":19716:19731   */\n      mstore\n        /* \"#utility.yul\":19750:19754   */\n      0x24\n        /* \"#utility.yul\":19747:19748   */\n      0x00\n        /* \"#utility.yul\":19740:19755   */\n      revert\n        /* \"#utility.yul\":19767:19934   */\n    tag_296:\n        /* \"#utility.yul\":19907:19926   */\n      0x547261696e6572206e6f7420666f756e64000000000000000000000000000000\n        /* \"#utility.yul\":19903:19904   */\n      0x00\n        /* \"#utility.yul\":19895:19901   */\n      dup3\n        /* \"#utility.yul\":19891:19905   */\n      add\n        /* \"#utility.yul\":19884:19927   */\n      mstore\n        /* \"#utility.yul\":19767:19934   */\n      pop\n      jump\t// out\n        /* \"#utility.yul\":19940:20306   */\n    tag_297:\n        /* \"#utility.yul\":20082:20085   */\n      0x00\n        /* \"#utility.yul\":20103:20170   */\n      tag_530\n        /* \"#utility.yul\":20167:20169   */\n      0x11\n        /* \"#utility.yul\":20162:20165   */\n      dup4\n        /* \"#utility.yul\":20103:20170   */\n      tag_279\n      jump\t// in\n    tag_530:\n        /* \"#utility.yul\":20096:20170   */\n      swap2\n      pop\n        /* \"#utility.yul\":20179:20272   */\n      tag_531\n        /* \"#utility.yul\":20268:20271   */\n      dup3\n        /* \"#utility.yul\":20179:20272   */\n      tag_296\n      jump\t// in\n    tag_531:\n        /* \"#utility.yul\":20297:20299   */\n      0x20\n        /* \"#utility.yul\":20292:20295   */\n      dup3\n        /* \"#utility.yul\":20288:20300   */\n      add\n        /* \"#utility.yul\":20281:20300   */\n      swap1\n      pop\n        /* \"#utility.yul\":19940:20306   */\n      swap2\n      swap1\n      pop\n      jump\t// out\n        /* \"#utility.yul\":20312:20731   */\n    tag_72:\n        /* \"#utility.yul\":20478:20482   */\n      0x00\n        /* \"#utility.yul\":20516:20518   */\n      0x20\n        /* \"#utility.yul\":20505:20514   */\n      dup3\n        /* \"#utility.yul\":20501:20519   */\n      add\n        /* \"#utility.yul\":20493:20519   */\n      swap1\n      pop\n        /* \"#utility.yul\":20565:20574   */\n      dup2\n        /* \"#utility.yul\":20559:20563   */\n      dup2\n        /* \"#utility.yul\":20555:20575   */\n      sub\n        /* \"#utility.yul\":20551:20552   */\n      0x00\n        /* \"#utility.yul\":20540:20549   */\n      dup4\n        /* \"#utility.yul\":20536:20553   */\n      add\n        /* \"#utility.yul\":20529:20576   */\n      mstore\n        /* \"#utility.yul\":20593:20724   */\n      tag_533\n        /* \"#utility.yul\":20719:20723   */\n      dup2\n        /* \"#utility.yul\":20593:20724   */\n      tag_297\n      jump\t// in\n    tag_533:\n        /* \"#utility.yul\":20585:20724   */\n      swap1\n      pop\n        /* \"#utility.yul\":20312:20731   */\n      swap2\n      swap1\n      pop\n      jump\t// out\n        /* \"#utility.yul\":20737:20917   */\n    tag_298:\n        /* \"#utility.yul\":20785:20862   */\n      0x4e487b7100000000000000000000000000000000000000000000000000000000\n        /* \"#utility.yul\":20782:20783   */\n      0x00\n        /* \"#utility.yul\":20775:20863   */\n      mstore\n        /* \"#utility.yul\":20882:20886   */\n      0x11\n        /* \"#utility.yul\":20879:20880   */\n      0x04\n        /* \"#utility.yul\":20872:20887   */\n      mstore\n        /* \"#utility.yul\":20906:20910   */\n      0x24\n        /* \"#utility.yul\":20903:20904   */\n      0x00\n        /* \"#utility.yul\":20896:20911   */\n      revert\n        /* \"#utility.yul\":20923:21156   */\n    tag_78:\n        /* \"#utility.yul\":20962:20965   */\n      0x00\n        /* \"#utility.yul\":20985:21009   */\n      tag_536\n        /* \"#utility.yul\":21003:21008   */\n      dup3\n        /* \"#utility.yul\":20985:21009   */\n      tag_254\n      jump\t// in\n    tag_536:\n        /* \"#utility.yul\":20976:21009   */\n      swap2\n      pop\n        /* \"#utility.yul\":21031:21097   */\n      0xffffffffffffffffffffffffffffffffffffffffffffffffffffffffffffffff\n        /* \"#utility.yul\":21024:21029   */\n      dup3\n        /* \"#utility.yul\":21021:21098   */\n      sub\n        /* \"#utility.yul\":21018:21121   */\n      tag_537\n      jumpi\n        /* \"#utility.yul\":21101:21119   */\n      tag_538\n      tag_298\n      jump\t// in\n    tag_538:\n        /* \"#utility.yul\":21018:21121   */\n    tag_537:\n        /* \"#utility.yul\":21148:21149   */\n      0x01\n        /* \"#utility.yul\":21141:21146   */\n      dup3\n        /* \"#utility.yul\":21137:21150   */\n      add\n        /* \"#utility.yul\":21130:21150   */\n      swap1\n      pop\n        /* \"#utility.yul\":20923:21156   */\n      swap2\n      swap1\n      pop\n      jump\t// out\n        /* \"#utility.yul\":21162:21342   */\n    tag_93:\n        /* \"#utility.yul\":21210:21287   */\n      0x4e487b7100000000000000000000000000000000000000000000000000000000\n        /* \"#utility.yul\":21207:21208   */\n      0x00\n        /* \"#utility.yul\":21200:21288   */\n      mstore\n        /* \"#utility.yul\":21307:21311   */\n      0x32\n        /* \"#utility.yul\":21304:21305   */\n      0x04\n        /* \"#utility.yul\":21297:21312   */\n      mstore\n        /* \"#utility.yul\":21331:21335   */\n      0x24\n        /* \"#utility.yul\":21328:21329   */\n      0x00\n        /* \"#utility.yul\":21321:21336   */\n      revert\n        /* \"#utility.yul\":21348:21528   */\n    tag_299:\n        /* \"#utility.yul\":21396:21473   */\n      0x4e487b7100000000000000000000000000000000000000000000000000000000\n        /* \"#utility.yul\":21393:21394   */\n      0x00\n        /* \"#utility.yul\":21386:21474   */\n      mstore\n        /* \"#utility.yul\":21493:21497   */\n      0x12\n        /* \"#utility.yul\":21490:21491   */\n      0x04\n        /* \"#utility.yul\":21483:21498   */\n      mstore\n        /* \"#utility.yul\":21517:21521   */\n      0x24\n        /* \"#utility.yul\":21514:21515   */\n      0x00\n        /* \"#utility.yul\":21507:21522   */\n      revert\n        /* \"#utility.yul\":21534:21719   */\n    tag_95:\n        /* \"#utility.yul\":21574:21575   */\n      0x00\n        /* \"#utility.yul\":21591:21611   */\n      tag_542\n        /* \"#utility.yul\":21609:21610   */\n      dup3\n        /* \"#utility.yul\":21591:21611   */\n      tag_254\n      jump\t// in\n    tag_542:\n        /* \"#utility.yul\":21586:21611   */\n      swap2\n      pop\n        /* \"#utility.yul\":21625:21645   */\n      tag_543\n        /* \"#utility.yul\":21643:21644   */\n      dup4\n        /* \"#utility.yul\":21625:21645   */\n      tag_254\n      jump\t// in\n    tag_543:\n        /* \"#utility.yul\":21620:21645   */\n      swap3\n      pop\n        /* \"#utility.yul\":21664:21665   */\n      dup3\n        /* \"#utility.yul\":21654:21689   */\n      tag_544\n      jumpi\n        /* \"#utility.yul\":21669:21687   */\n      tag_545\n      tag_299\n      jump\t// in\n    tag_545:\n        /* \"#utility.yul\":21654:21689   */\n    tag_544:\n        /* \"#utility.yul\":21711:21712   */\n      dup3\n        /* \"#utility.yul\":21708:21709   */\n      dup3\n        /* \"#utility.yul\":21704:21713   */\n      div\n        /* \"#utility.yul\":21699:21713   */\n      swap1\n      pop\n        /* \"#utility.yul\":21534:21719   */\n      swap3\n      swap2\n      pop\n      pop\n      jump\t// out\n        /* \"#utility.yul\":21725:21901   */\n    tag_97:\n        /* \"#utility.yul\":21757:21758   */\n      0x00\n        /* \"#utility.yul\":21774:21794   */\n      tag_547\n        /* \"#utility.yul\":21792:21793   */\n      dup3\n        /* \"#utility.yul\":21774:21794   */\n      tag_254\n      jump\t// in\n    tag_547:\n        /* \"#utility.yul\":21769:21794   */\n      swap2\n      pop\n        /* \"#utility.yul\":21808:21828   */\n      tag_548\n        /* \"#utility.yul\":21826:21827   */\n      dup4\n        /* \"#utility.yul\":21808:21828   */\n      tag_254\n      jump\t// in\n    tag_548:\n        /* \"#utility.yul\":21803:21828   */\n      swap3\n      pop\n        /* \"#utility.yul\":21847:21848   */\n      dup3\n        /* \"#utility.yul\":21837:21872   */\n      tag_549\n      jumpi\n        /* \"#utility.yul\":21852:21870   */\n      tag_550\n      tag_299\n      jump\t// in\n    tag_550:\n        /* \"#utility.yul\":21837:21872   */\n    tag_549:\n        /* \"#utility.yul\":21893:21894   */\n      dup3\n        /* \"#utility.yul\":21890:21891   */\n      dup3\n        /* \"#utility.yul\":21886:21895   */\n      mod\n        /* \"#utility.yul\":21881:21895   */\n      swap1\n      pop\n        /* \"#utility.yul\":21725:21901   */\n      swap3\n      swap2\n      pop\n      pop\n      jump\t// out\n        /* \"#utility.yul\":21907:22317   */\n    tag_99:\n        /* \"#utility.yul\":21947:21954   */\n      0x00\n        /* \"#utility.yul\":21970:21990   */\n      tag_552\n        /* \"#utility.yul\":21988:21989   */\n      dup3\n        /* \"#utility.yul\":21970:21990   */\n      tag_254\n      jump\t// in\n    tag_552:\n        /* \"#utility.yul\":21965:21990   */\n      swap2\n      pop\n        /* \"#utility.yul\":22004:22024   */\n      tag_553\n        /* \"#utility.yul\":22022:22023   */\n      dup4\n        /* \"#utility.yul\":22004:22024   */\n      tag_254\n      jump\t// in\n    tag_553:\n        /* \"#utility.yul\":21999:22024   */\n      swap3\n      pop\n        /* \"#utility.yul\":22059:22060   */\n      dup3\n        /* \"#utility.yul\":22056:22057   */\n      dup3\n        /* \"#utility.yul\":22052:22061   */\n      mul\n        /* \"#utility.yul\":22081:22111   */\n      tag_554\n        /* \"#utility.yul\":22099:22110   */\n      dup2\n        /* \"#utility.yul\":22081:22111   */\n      tag_254\n      jump\t// in\n    tag_554:\n        /* \"#utility.yul\":22070:22111   */\n      swap2\n      pop\n        /* \"#utility.yul\":22260:22261   */\n      dup3\n        /* \"#utility.yul\":22251:22258   */\n      dup3\n        /* \"#utility.yul\":22247:22262   */\n      div\n        /* \"#utility.yul\":22244:22245   */\n      dup5\n        /* \"#utility.yul\":22241:22263   */\n      eq\n        /* \"#utility.yul\":22221:22222   */\n      dup4\n        /* \"#utility.yul\":22214:22223   */\n      iszero\n        /* \"#utility.yul\":22194:22277   */\n      or\n        /* \"#utility.yul\":22171:22310   */\n      tag_555\n      jumpi\n        /* \"#utility.yul\":22290:22308   */\n      tag_556\n      tag_298\n      jump\t// in\n    tag_556:\n        /* \"#utility.yul\":22171:22310   */\n    tag_555:\n        /* \"#utility.yul\":21955:22317   */\n      pop\n        /* \"#utility.yul\":21907:22317   */\n      swap3\n      swap2\n      pop\n      pop\n      jump\t// out\n        /* \"#utility.yul\":22323:22514   */\n    tag_101:\n        /* \"#utility.yul\":22363:22366   */\n      0x00\n        /* \"#utility.yul\":22382:22402   */\n      tag_558\n        /* \"#utility.yul\":22400:22401   */\n      dup3\n        /* \"#utility.yul\":22382:22402   */\n      tag_254\n      jump\t// in\n    tag_558:\n        /* \"#utility.yul\":22377:22402   */\n      swap2\n      pop\n        /* \"#utility.yul\":22416:22436   */\n      tag_559\n        /* \"#utility.yul\":22434:22435   */\n      dup4\n        /* \"#utility.yul\":22416:22436   */\n      tag_254\n      jump\t// in\n    tag_559:\n        /* \"#utility.yul\":22411:22436   */\n      swap3\n      pop\n        /* \"#utility.yul\":22459:22460   */\n      dup3\n        /* \"#utility.yul\":22456:22457   */\n      dup3\n        /* \"#utility.yul\":22452:22461   */\n      add\n        /* \"#utility.yul\":22445:22461   */\n      swap1\n      pop\n        /* \"#utility.yul\":22480:22483   */\n      dup1\n        /* \"#utility.yul\":22477:22478   */\n      dup3\n        /* \"#utility.yul\":22474:22484   */\n      gt\n        /* \"#utility.yul\":22471:22507   */\n      iszero\n      tag_560\n      jumpi\n        /* \"#utility.yul\":22487:22505   */\n      tag_561\n      tag_298\n      jump\t// in\n    tag_561:\n        /* \"#utility.yul\":22471:22507   */\n    tag_560:\n        /* \"#utility.yul\":22323:22514   */\n      swap3\n      swap2\n      pop\n      pop\n      jump\t// out\n        /* \"#utility.yul\":22520:22668   */\n    tag_300:\n        /* \"#utility.yul\":22622:22633   */\n      0x00\n        /* \"#utility.yul\":22659:22662   */\n      dup2\n        /* \"#utility.yul\":22644:22662   */\n      swap1\n      pop\n        /* \"#utility.yul\":22520:22668   */\n      swap3\n      swap2\n      pop\n      pop\n      jump\t// out\n        /* \"#utility.yul\":22674:23064   */\n    tag_301:\n        /* \"#utility.yul\":22780:22783   */\n      0x00\n        /* \"#utility.yul\":22808:22847   */\n      tag_564\n        /* \"#utility.yul\":22841:22846   */\n      dup3\n        /* \"#utility.yul\":22808:22847   */\n      tag_270\n      jump\t// in\n    tag_564:\n        /* \"#utility.yul\":22863:22952   */\n      tag_565\n        /* \"#utility.yul\":22945:22951   */\n      dup2\n        /* \"#utility.yul\":22940:22943   */\n      dup6\n        /* \"#utility.yul\":22863:22952   */\n      tag_300\n      jump\t// in\n    tag_565:\n        /* \"#utility.yul\":22856:22952   */\n      swap4\n      pop\n        /* \"#utility.yul\":22961:23026   */\n      tag_566\n        /* \"#utility.yul\":23019:23025   */\n      dup2\n        /* \"#utility.yul\":23014:23017   */\n      dup6\n        /* \"#utility.yul\":23007:23011   */\n      0x20\n        /* \"#utility.yul\":23000:23005   */\n      dup7\n        /* \"#utility.yul\":22996:23012   */\n      add\n        /* \"#utility.yul\":22961:23026   */\n      tag_272\n      jump\t// in\n    tag_566:\n        /* \"#utility.yul\":23051:23057   */\n      dup1\n        /* \"#utility.yul\":23046:23049   */\n      dup5\n        /* \"#utility.yul\":23042:23058   */\n      add\n        /* \"#utility.yul\":23035:23058   */\n      swap2\n      pop\n        /* \"#utility.yul\":22784:23064   */\n      pop\n        /* \"#utility.yul\":22674:23064   */\n      swap3\n      swap2\n      pop\n      pop\n      jump\t// out\n        /* \"#utility.yul\":23070:23221   */\n    tag_302:\n        /* \"#utility.yul\":23210:23213   */\n      0x3a00000000000000000000000000000000000000000000000000000000000000\n        /* \"#utility.yul\":23206:23207   */\n      0x00\n        /* \"#utility.yul\":23198:23204   */\n      dup3\n        /* \"#utility.yul\":23194:23208   */\n      add\n        /* \"#utility.yul\":23187:23214   */\n      mstore\n        /* \"#utility.yul\":23070:23221   */\n      pop\n      jump\t// out\n        /* \"#utility.yul\":23227:23627   */\n    tag_303:\n        /* \"#utility.yul\":23387:23390   */\n      0x00\n        /* \"#utility.yul\":23408:23492   */\n      tag_569\n        /* \"#utility.yul\":23490:23491   */\n      0x01\n        /* \"#utility.yul\":23485:23488   */\n      dup4\n        /* \"#utility.yul\":23408:23492   */\n      tag_300\n      jump\t// in\n    tag_569:\n        /* \"#utility.yul\":23401:23492   */\n      swap2\n      pop\n        /* \"#utility.yul\":23501:23594   */\n      tag_570\n        /* \"#utility.yul\":23590:23593   */\n      dup3\n        /* \"#utility.yul\":23501:23594   */\n      tag_302\n      jump\t// in\n    tag_570:\n        /* \"#utility.yul\":23619:23620   */\n      0x01\n        /* \"#utility.yul\":23614:23617   */\n      dup3\n        /* \"#utility.yul\":23610:23621   */\n      add\n        /* \"#utility.yul\":23603:23621   */\n      swap1\n      pop\n        /* \"#utility.yul\":23227:23627   */\n      swap2\n      swap1\n      pop\n      jump\t// out\n        /* \"#utility.yul\":23633:23784   */\n    tag_304:\n        /* \"#utility.yul\":23773:23776   */\n      0x2d00000000000000000000000000000000000000000000000000000000000000\n        /* \"#utility.yul\":23769:23770   */\n      0x00\n        /* \"#utility.yul\":23761:23767   */\n      dup3\n        /* \"#utility.yul\":23757:23771   */\n      add\n        /* \"#utility.yul\":23750:23777   */\n      mstore\n        /* \"#utility.yul\":23633:23784   */\n      pop\n      jump\t// out\n        /* \"#utility.yul\":23790:24190   */\n    tag_305:\n        /* \"#utility.yul\":23950:23953   */\n      0x00\n        /* \"#utility.yul\":23971:24055   */\n      tag_573\n        /* \"#utility.yul\":24053:24054   */\n      0x01\n        /* \"#utility.yul\":24048:24051   */\n      dup4\n        /* \"#utility.yul\":23971:24055   */\n      tag_300\n      jump\t// in\n    tag_573:\n        /* \"#utility.yul\":23964:24055   */\n      swap2\n      pop\n        /* \"#utility.yul\":24064:24157   */\n      tag_574\n        /* \"#utility.yul\":24153:24156   */\n      dup3\n        /* \"#utility.yul\":24064:24157   */\n      tag_304\n      jump\t// in\n    tag_574:\n        /* \"#utility.yul\":24182:24183   */\n      0x01\n        /* \"#utility.yul\":24177:24180   */\n      dup3\n        /* \"#utility.yul\":24173:24184   */\n      add\n        /* \"#utility.yul\":24166:24184   */\n      swap1\n      pop\n        /* \"#utility.yul\":23790:24190   */\n      swap2\n      swap1\n      pop\n      jump\t// out\n        /* \"#utility.yul\":24196:25749   */\n    tag_112:\n        /* \"#utility.yul\":24775:24778   */\n      0x00\n        /* \"#utility.yul\":24797:24892   */\n      tag_576\n        /* \"#utility.yul\":24888:24891   */\n      dup3\n        /* \"#utility.yul\":24879:24885   */\n      dup8\n        /* \"#utility.yul\":24797:24892   */\n      tag_301\n      jump\t// in\n    tag_576:\n        /* \"#utility.yul\":24790:24892   */\n      swap2\n      pop\n        /* \"#utility.yul\":24909:25057   */\n      tag_577\n        /* \"#utility.yul\":25053:25056   */\n      dup3\n        /* \"#utility.yul\":24909:25057   */\n      tag_303\n      jump\t// in\n    tag_577:\n        /* \"#utility.yul\":24902:25057   */\n      swap2\n      pop\n        /* \"#utility.yul\":25074:25169   */\n      tag_578\n        /* \"#utility.yul\":25165:25168   */\n      dup3\n        /* \"#utility.yul\":25156:25162   */\n      dup7\n        /* \"#utility.yul\":25074:25169   */\n      tag_301\n      jump\t// in\n    tag_578:\n        /* \"#utility.yul\":25067:25169   */\n      swap2\n      pop\n        /* \"#utility.yul\":25186:25334   */\n      tag_579\n        /* \"#utility.yul\":25330:25333   */\n      dup3\n        /* \"#utility.yul\":25186:25334   */\n      tag_305\n      jump\t// in\n    tag_579:\n        /* \"#utility.yul\":25179:25334   */\n      swap2\n      pop\n        /* \"#utility.yul\":25351:25446   */\n      tag_580\n        /* \"#utility.yul\":25442:25445   */\n      dup3\n        /* \"#utility.yul\":25433:25439   */\n      dup6\n        /* \"#utility.yul\":25351:25446   */\n      tag_301\n      jump\t// in\n    tag_580:\n        /* \"#utility.yul\":25344:25446   */\n      swap2\n      pop\n        /* \"#utility.yul\":25463:25611   */\n      tag_581\n        /* \"#utility.yul\":25607:25610   */\n      dup3\n        /* \"#utility.yul\":25463:25611   */\n      tag_303\n      jump\t// in\n    tag_581:\n        /* \"#utility.yul\":25456:25611   */\n      swap2\n      pop\n        /* \"#utility.yul\":25628:25723   */\n      tag_582\n        /* \"#utility.yul\":25719:25722   */\n      dup3\n        /* \"#utility.yul\":25710:25716   */\n      dup5\n        /* \"#utility.yul\":25628:25723   */\n      tag_301\n      jump\t// in\n    tag_582:\n        /* \"#utility.yul\":25621:25723   */\n      swap2\n      pop\n        /* \"#utility.yul\":25740:25743   */\n      dup2\n        /* \"#utility.yul\":25733:25743   */\n      swap1\n      pop\n        /* \"#utility.yul\":24196:25749   */\n      swap6\n      swap5\n      pop\n      pop\n      pop\n      pop\n      pop\n      jump\t// out\n        /* \"#utility.yul\":25755:25935   */\n    tag_306:\n        /* \"#utility.yul\":25803:25880   */\n      0x4e487b7100000000000000000000000000000000000000000000000000000000\n        /* \"#utility.yul\":25800:25801   */\n      0x00\n        /* \"#utility.yul\":25793:25881   */\n      mstore\n        /* \"#utility.yul\":25900:25904   */\n      0x22\n        /* \"#utility.yul\":25897:25898   */\n      0x04\n        /* \"#utility.yul\":25890:25905   */\n      mstore\n        /* \"#utility.yul\":25924:25928   */\n      0x24\n        /* \"#utility.yul\":25921:25922   */\n      0x00\n        /* \"#utility.yul\":25914:25929   */\n      revert\n        /* \"#utility.yul\":25941:26261   */\n    tag_138:\n        /* \"#utility.yul\":25985:25991   */\n      0x00\n        /* \"#utility.yul\":26022:26023   */\n      0x02\n        /* \"#utility.yul\":26016:26020   */\n      dup3\n        /* \"#utility.yul\":26012:26024   */\n      div\n        /* \"#utility.yul\":26002:26024   */\n      swap1\n      pop\n        /* \"#utility.yul\":26069:26070   */\n      0x01\n        /* \"#utility.yul\":26063:26067   */\n      dup3\n        /* \"#utility.yul\":26059:26071   */\n      and\n        /* \"#utility.yul\":26090:26108   */\n      dup1\n        /* \"#utility.yul\":26080:26161   */\n      tag_585\n      jumpi\n        /* \"#utility.yul\":26146:26150   */\n      0x7f\n        /* \"#utility.yul\":26138:26144   */\n      dup3\n        /* \"#utility.yul\":26134:26151   */\n      and\n        /* \"#utility.yul\":26124:26151   */\n      swap2\n      pop\n        /* \"#utility.yul\":26080:26161   */\n    tag_585:\n        /* \"#utility.yul\":26208:26210   */\n      0x20\n        /* \"#utility.yul\":26200:26206   */\n      dup3\n        /* \"#utility.yul\":26197:26211   */\n      lt\n        /* \"#utility.yul\":26177:26195   */\n      dup2\n        /* \"#utility.yul\":26174:26212   */\n      sub\n        /* \"#utility.yul\":26171:26255   */\n      tag_586\n      jumpi\n        /* \"#utility.yul\":26227:26245   */\n      tag_587\n      tag_306\n      jump\t// in\n    tag_587:\n        /* \"#utility.yul\":26171:26255   */\n    tag_586:\n        /* \"#utility.yul\":25992:26261   */\n      pop\n        /* \"#utility.yul\":25941:26261   */\n      swap2\n      swap1\n      pop\n      jump\t// out\n        /* \"#utility.yul\":26267:26449   */\n    tag_307:\n        /* \"#utility.yul\":26407:26441   */\n      0x496e73756666696369656e74207061727469636970616e742062616c616e6365\n        /* \"#utility.yul\":26403:26404   */\n      0x00\n        /* \"#utility.yul\":26395:26401   */\n      dup3\n        /* \"#utility.yul\":26391:26405   */\n      add\n        /* \"#utility.yul\":26384:26442   */\n      mstore\n        /* \"#utility.yul\":26267:26449   */\n      pop\n      jump\t// out\n        /* \"#utility.yul\":26455:26821   */\n    tag_308:\n        /* \"#utility.yul\":26597:26600   */\n      0x00\n        /* \"#utility.yul\":26618:26685   */\n      tag_590\n        /* \"#utility.yul\":26682:26684   */\n      0x20\n        /* \"#utility.yul\":26677:26680   */\n      dup4\n        /* \"#utility.yul\":26618:26685   */\n      tag_279\n      jump\t// in\n    tag_590:\n        /* \"#utility.yul\":26611:26685   */\n      swap2\n      pop\n        /* \"#utility.yul\":26694:26787   */\n      tag_591\n        /* \"#utility.yul\":26783:26786   */\n      dup3\n        /* \"#utility.yul\":26694:26787   */\n      tag_307\n      jump\t// in\n    tag_591:\n        /* \"#utility.yul\":26812:26814   */\n      0x20\n        /* \"#utility.yul\":26807:26810   */\n      dup3\n        /* \"#utility.yul\":26803:26815   */\n      add\n        /* \"#utility.yul\":26796:26815   */\n      swap1\n      pop\n        /* \"#utility.yul\":26455:26821   */\n      swap2\n      swap1\n      pop\n      jump\t// out\n        /* \"#utility.yul\":26827:27246   */\n    tag_166:\n        /* \"#utility.yul\":26993:26997   */\n      0x00\n        /* \"#utility.yul\":27031:27033   */\n      0x20\n        /* \"#utility.yul\":27020:27029   */\n      dup3\n        /* \"#utility.yul\":27016:27034   */\n      add\n        /* \"#utility.yul\":27008:27034   */\n      swap1\n      pop\n        /* \"#utility.yul\":27080:27089   */\n      dup2\n        /* \"#utility.yul\":27074:27078   */\n      dup2\n        /* \"#utility.yul\":27070:27090   */\n      sub\n        /* \"#utility.yul\":27066:27067   */\n      0x00\n        /* \"#utility.yul\":27055:27064   */\n      dup4\n        /* \"#utility.yul\":27051:27068   */\n      add\n        /* \"#utility.yul\":27044:27091   */\n      mstore\n        /* \"#utility.yul\":27108:27239   */\n      tag_593\n        /* \"#utility.yul\":27234:27238   */\n      dup2\n        /* \"#utility.yul\":27108:27239   */\n      tag_308\n      jump\t// in\n    tag_593:\n        /* \"#utility.yul\":27100:27239   */\n      swap1\n      pop\n        /* \"#utility.yul\":26827:27246   */\n      swap2\n      swap1\n      pop\n      jump\t// out\n        /* \"#utility.yul\":27252:27421   */\n    tag_309:\n        /* \"#utility.yul\":27392:27413   */\n      0x4e6f2061646d696e7320617661696c61626c6500000000000000000000000000\n        /* \"#utility.yul\":27388:27389   */\n      0x00\n        /* \"#utility.yul\":27380:27386   */\n      dup3\n        /* \"#utility.yul\":27376:27390   */\n      add\n        /* \"#utility.yul\":27369:27414   */\n      mstore\n        /* \"#utility.yul\":27252:27421   */\n      pop\n      jump\t// out\n        /* \"#utility.yul\":27427:27793   */\n    tag_310:\n        /* \"#utility.yul\":27569:27572   */\n      0x00\n        /* \"#utility.yul\":27590:27657   */\n      tag_596\n        /* \"#utility.yul\":27654:27656   */\n      0x13\n        /* \"#utility.yul\":27649:27652   */\n      dup4\n        /* \"#utility.yul\":27590:27657   */\n      tag_279\n      jump\t// in\n    tag_596:\n        /* \"#utility.yul\":27583:27657   */\n      swap2\n      pop\n        /* \"#utility.yul\":27666:27759   */\n      tag_597\n        /* \"#utility.yul\":27755:27758   */\n      dup3\n        /* \"#utility.yul\":27666:27759   */\n      tag_309\n      jump\t// in\n    tag_597:\n        /* \"#utility.yul\":27784:27786   */\n      0x20\n        /* \"#utility.yul\":27779:27782   */\n      dup3\n        /* \"#utility.yul\":27775:27787   */\n      add\n        /* \"#utility.yul\":27768:27787   */\n      swap1\n      pop\n        /* \"#utility.yul\":27427:27793   */\n      swap2\n      swap1\n      pop\n      jump\t// out\n        /* \"#utility.yul\":27799:28218   */\n    tag_169:\n        /* \"#utility.yul\":27965:27969   */\n      0x00\n        /* \"#utility.yul\":28003:28005   */\n      0x20\n        /* \"#utility.yul\":27992:28001   */\n      dup3\n        /* \"#utility.yul\":27988:28006   */\n      add\n        /* \"#utility.yul\":27980:28006   */\n      swap1\n      pop\n        /* \"#utility.yul\":28052:28061   */\n      dup2\n        /* \"#utility.yul\":28046:28050   */\n      dup2\n        /* \"#utility.yul\":28042:28062   */\n      sub\n        /* \"#utility.yul\":28038:28039   */\n      0x00\n        /* \"#utility.yul\":28027:28036   */\n      dup4\n        /* \"#utility.yul\":28023:28040   */\n      add\n        /* \"#utility.yul\":28016:28063   */\n      mstore\n        /* \"#utility.yul\":28080:28211   */\n      tag_599\n        /* \"#utility.yul\":28206:28210   */\n      dup2\n        /* \"#utility.yul\":28080:28211   */\n      tag_310\n      jump\t// in\n    tag_599:\n        /* \"#utility.yul\":28072:28211   */\n      swap1\n      pop\n        /* \"#utility.yul\":27799:28218   */\n      swap2\n      swap1\n      pop\n      jump\t// out\n        /* \"#utility.yul\":28224:28389   */\n    tag_311:\n        /* \"#utility.yul\":28364:28381   */\n      0x496e76616c696420736c6f742049440000000000000000000000000000000000\n        /* \"#utility.yul\":28360:28361   */\n      0x00\n        /* \"#utility.yul\":28352:28358   */\n      dup3\n        /* \"#utility.yul\":28348:28362   */\n      add\n        /* \"#utility.yul\":28341:28382   */\n      mstore\n        /* \"#utility.yul\":28224:28389   */\n      pop\n      jump\t// out\n        /* \"#utility.yul\":28395:28761   */\n    tag_312:\n        /* \"#utility.yul\":28537:28540   */\n      0x00\n        /* \"#utility.yul\":28558:28625   */\n      tag_602\n        /* \"#utility.yul\":28622:28624   */\n      0x0f\n        /* \"#utility.yul\":28617:28620   */\n      dup4\n        /* \"#utility.yul\":28558:28625   */\n      tag_279\n      jump\t// in\n    tag_602:\n        /* \"#utility.yul\":28551:28625   */\n      swap2\n      pop\n        /* \"#utility.yul\":28634:28727   */\n      tag_603\n        /* \"#utility.yul\":28723:28726   */\n      dup3\n        /* \"#utility.yul\":28634:28727   */\n      tag_311\n      jump\t// in\n    tag_603:\n        /* \"#utility.yul\":28752:28754   */\n      0x20\n        /* \"#utility.yul\":28747:28750   */\n      dup3\n        /* \"#utility.yul\":28743:28755   */\n      add\n        /* \"#utility.yul\":28736:28755   */\n      swap1\n      pop\n        /* \"#utility.yul\":28395:28761   */\n      swap2\n      swap1\n      pop\n      jump\t// out\n        /* \"#utility.yul\":28767:29186   */\n    tag_172:\n        /* \"#utility.yul\":28933:28937   */\n      0x00\n        /* \"#utility.yul\":28971:28973   */\n      0x20\n        /* \"#utility.yul\":28960:28969   */\n      dup3\n        /* \"#utility.yul\":28956:28974   */\n      add\n        /* \"#utility.yul\":28948:28974   */\n      swap1\n      pop\n        /* \"#utility.yul\":29020:29029   */\n      dup2\n        /* \"#utility.yul\":29014:29018   */\n      dup2\n        /* \"#utility.yul\":29010:29030   */\n      sub\n        /* \"#utility.yul\":29006:29007   */\n      0x00\n        /* \"#utility.yul\":28995:29004   */\n      dup4\n        /* \"#utility.yul\":28991:29008   */\n      add\n        /* \"#utility.yul\":28984:29031   */\n      mstore\n        /* \"#utility.yul\":29048:29179   */\n      tag_605\n        /* \"#utility.yul\":29174:29178   */\n      dup2\n        /* \"#utility.yul\":29048:29179   */\n      tag_312\n      jump\t// in\n    tag_605:\n        /* \"#utility.yul\":29040:29179   */\n      swap1\n      pop\n        /* \"#utility.yul\":28767:29186   */\n      swap2\n      swap1\n      pop\n      jump\t// out\n        /* \"#utility.yul\":29192:29364   */\n    tag_313:\n        /* \"#utility.yul\":29332:29356   */\n      0x536c6f7420697320616c726561647920626f6f6b656400000000000000000000\n        /* \"#utility.yul\":29328:29329   */\n      0x00\n        /* \"#utility.yul\":29320:29326   */\n      dup3\n        /* \"#utility.yul\":29316:29330   */\n      add\n        /* \"#utility.yul\":29309:29357   */\n      mstore\n        /* \"#utility.yul\":29192:29364   */\n      pop\n      jump\t// out\n        /* \"#utility.yul\":29370:29736   */\n    tag_314:\n        /* \"#utility.yul\":29512:29515   */\n      0x00\n        /* \"#utility.yul\":29533:29600   */\n      tag_608\n        /* \"#utility.yul\":29597:29599   */\n      0x16\n        /* \"#utility.yul\":29592:29595   */\n      dup4\n        /* \"#utility.yul\":29533:29600   */\n      tag_279\n      jump\t// in\n    tag_608:\n        /* \"#utility.yul\":29526:29600   */\n      swap2\n      pop\n        /* \"#utility.yul\":29609:29702   */\n      tag_609\n        /* \"#utility.yul\":29698:29701   */\n      dup3\n        /* \"#utility.yul\":29609:29702   */\n      tag_313\n      jump\t// in\n    tag_609:\n        /* \"#utility.yul\":29727:29729   */\n      0x20\n        /* \"#utility.yul\":29722:29725   */\n      dup3\n        /* \"#utility.yul\":29718:29730   */\n      add\n        /* \"#utility.yul\":29711:29730   */\n      swap1\n      pop\n        /* \"#utility.yul\":29370:29736   */\n      swap2\n      swap1\n      pop\n      jump\t// out\n        /* \"#utility.yul\":29742:30161   */\n    tag_175:\n        /* \"#utility.yul\":29908:29912   */\n      0x00\n        /* \"#utility.yul\":29946:29948   */\n      0x20\n        /* \"#utility.yul\":29935:29944   */\n      dup3\n        /* \"#utility.yul\":29931:29949   */\n      add\n        /* \"#utility.yul\":29923:29949   */\n      swap1\n      pop\n        /* \"#utility.yul\":29995:30004   */\n      dup2\n        /* \"#utility.yul\":29989:29993   */\n      dup2\n        /* \"#utility.yul\":29985:30005   */\n      sub\n        /* \"#utility.yul\":29981:29982   */\n      0x00\n        /* \"#utility.yul\":29970:29979   */\n      dup4\n        /* \"#utility.yul\":29966:29983   */\n      add\n        /* \"#utility.yul\":29959:30006   */\n      mstore\n        /* \"#utility.yul\":30023:30154   */\n      tag_611\n        /* \"#utility.yul\":30149:30153   */\n      dup2\n        /* \"#utility.yul\":30023:30154   */\n      tag_314\n      jump\t// in\n    tag_611:\n        /* \"#utility.yul\":30015:30154   */\n      swap1\n      pop\n        /* \"#utility.yul\":29742:30161   */\n      swap2\n      swap1\n      pop\n      jump\t// out\n        /* \"#utility.yul\":30167:30246   */\n    tag_315:\n        /* \"#utility.yul\":30206:30213   */\n      0x00\n        /* \"#utility.yul\":30235:30240   */\n      dup2\n        /* \"#utility.yul\":30224:30240   */\n      swap1\n      pop\n        /* \"#utility.yul\":30167:30246   */\n      swap2\n      swap1\n      pop\n      jump\t// out\n        /* \"#utility.yul\":30252:30409   */\n    tag_316:\n        /* \"#utility.yul\":30357:30402   */\n      tag_614\n        /* \"#utility.yul\":30377:30401   */\n      tag_615\n        /* \"#utility.yul\":30395:30400   */\n      dup3\n        /* \"#utility.yul\":30377:30401   */\n      tag_254\n      jump\t// in\n    tag_615:\n        /* \"#utility.yul\":30357:30402   */\n      tag_315\n      jump\t// in\n    tag_614:\n        /* \"#utility.yul\":30352:30355   */\n      dup3\n        /* \"#utility.yul\":30345:30403   */\n      mstore\n        /* \"#utility.yul\":30252:30409   */\n      pop\n      pop\n      jump\t// out\n        /* \"#utility.yul\":30415:30953   */\n    tag_177:\n        /* \"#utility.yul\":30583:30586   */\n      0x00\n        /* \"#utility.yul\":30598:30673   */\n      tag_617\n        /* \"#utility.yul\":30669:30672   */\n      dup3\n        /* \"#utility.yul\":30660:30666   */\n      dup7\n        /* \"#utility.yul\":30598:30673   */\n      tag_316\n      jump\t// in\n    tag_617:\n        /* \"#utility.yul\":30698:30700   */\n      0x20\n        /* \"#utility.yul\":30693:30696   */\n      dup3\n        /* \"#utility.yul\":30689:30701   */\n      add\n        /* \"#utility.yul\":30682:30701   */\n      swap2\n      pop\n        /* \"#utility.yul\":30711:30786   */\n      tag_618\n        /* \"#utility.yul\":30782:30785   */\n      dup3\n        /* \"#utility.yul\":30773:30779   */\n      dup6\n        /* \"#utility.yul\":30711:30786   */\n      tag_316\n      jump\t// in\n    tag_618:\n        /* \"#utility.yul\":30811:30813   */\n      0x20\n        /* \"#utility.yul\":30806:30809   */\n      dup3\n        /* \"#utility.yul\":30802:30814   */\n      add\n        /* \"#utility.yul\":30795:30814   */\n      swap2\n      pop\n        /* \"#utility.yul\":30824:30899   */\n      tag_619\n        /* \"#utility.yul\":30895:30898   */\n      dup3\n        /* \"#utility.yul\":30886:30892   */\n      dup5\n        /* \"#utility.yul\":30824:30899   */\n      tag_316\n      jump\t// in\n    tag_619:\n        /* \"#utility.yul\":30924:30926   */\n      0x20\n        /* \"#utility.yul\":30919:30922   */\n      dup3\n        /* \"#utility.yul\":30915:30927   */\n      add\n        /* \"#utility.yul\":30908:30927   */\n      swap2\n      pop\n        /* \"#utility.yul\":30944:30947   */\n      dup2\n        /* \"#utility.yul\":30937:30947   */\n      swap1\n      pop\n        /* \"#utility.yul\":30415:30953   */\n      swap5\n      swap4\n      pop\n      pop\n      pop\n      pop\n      jump\t// out\n        /* \"#utility.yul\":30959:31153   */\n    tag_183:\n        /* \"#utility.yul\":30999:31003   */\n      0x00\n        /* \"#utility.yul\":31019:31039   */\n      tag_621\n        /* \"#utility.yul\":31037:31038   */\n      dup3\n        /* \"#utility.yul\":31019:31039   */\n      tag_254\n      jump\t// in\n    tag_621:\n        /* \"#utility.yul\":31014:31039   */\n      swap2\n      pop\n        /* \"#utility.yul\":31053:31073   */\n      tag_622\n        /* \"#utility.yul\":31071:31072   */\n      dup4\n        /* \"#utility.yul\":31053:31073   */\n      tag_254\n      jump\t// in\n    tag_622:\n        /* \"#utility.yul\":31048:31073   */\n      swap3\n      pop\n        /* \"#utility.yul\":31097:31098   */\n      dup3\n        /* \"#utility.yul\":31094:31095   */\n      dup3\n        /* \"#utility.yul\":31090:31099   */\n      sub\n        /* \"#utility.yul\":31082:31099   */\n      swap1\n      pop\n        /* \"#utility.yul\":31121:31122   */\n      dup2\n        /* \"#utility.yul\":31115:31119   */\n      dup2\n        /* \"#utility.yul\":31112:31123   */\n      gt\n        /* \"#utility.yul\":31109:31146   */\n      iszero\n      tag_623\n      jumpi\n        /* \"#utility.yul\":31126:31144   */\n      tag_624\n      tag_298\n      jump\t// in\n    tag_624:\n        /* \"#utility.yul\":31109:31146   */\n    tag_623:\n        /* \"#utility.yul\":30959:31153   */\n      swap3\n      swap2\n      pop\n      pop\n      jump\t// out\n        /* \"#utility.yul\":31159:31320   */\n    tag_317:\n        /* \"#utility.yul\":31299:31312   */\n      0x496e76616c696420616765000000000000000000000000000000000000000000\n        /* \"#utility.yul\":31295:31296   */\n      0x00\n        /* \"#utility.yul\":31287:31293   */\n      dup3\n        /* \"#utility.yul\":31283:31297   */\n      add\n        /* \"#utility.yul\":31276:31313   */\n      mstore\n        /* \"#utility.yul\":31159:31320   */\n      pop\n      jump\t// out\n        /* \"#utility.yul\":31326:31692   */\n    tag_318:\n        /* \"#utility.yul\":31468:31471   */\n      0x00\n        /* \"#utility.yul\":31489:31556   */\n      tag_627\n        /* \"#utility.yul\":31553:31555   */\n      0x0b\n        /* \"#utility.yul\":31548:31551   */\n      dup4\n        /* \"#utility.yul\":31489:31556   */\n      tag_279\n      jump\t// in\n    tag_627:\n        /* \"#utility.yul\":31482:31556   */\n      swap2\n      pop\n        /* \"#utility.yul\":31565:31658   */\n      tag_628\n        /* \"#utility.yul\":31654:31657   */\n      dup3\n        /* \"#utility.yul\":31565:31658   */\n      tag_317\n      jump\t// in\n    tag_628:\n        /* \"#utility.yul\":31683:31685   */\n      0x20\n        /* \"#utility.yul\":31678:31681   */\n      dup3\n        /* \"#utility.yul\":31674:31686   */\n      add\n        /* \"#utility.yul\":31667:31686   */\n      swap1\n      pop\n        /* \"#utility.yul\":31326:31692   */\n      swap2\n      swap1\n      pop\n      jump\t// out\n        /* \"#utility.yul\":31698:32117   */\n    tag_188:\n        /* \"#utility.yul\":31864:31868   */\n      0x00\n        /* \"#utility.yul\":31902:31904   */\n      0x20\n        /* \"#utility.yul\":31891:31900   */\n      dup3\n        /* \"#utility.yul\":31887:31905   */\n      add\n        /* \"#utility.yul\":31879:31905   */\n      swap1\n      pop\n        /* \"#utility.yul\":31951:31960   */\n      dup2\n        /* \"#utility.yul\":31945:31949   */\n      dup2\n        /* \"#utility.yul\":31941:31961   */\n      sub\n        /* \"#utility.yul\":31937:31938   */\n      0x00\n        /* \"#utility.yul\":31926:31935   */\n      dup4\n        /* \"#utility.yul\":31922:31939   */\n      add\n        /* \"#utility.yul\":31915:31962   */\n      mstore\n        /* \"#utility.yul\":31979:32110   */\n      tag_630\n        /* \"#utility.yul\":32105:32109   */\n      dup2\n        /* \"#utility.yul\":31979:32110   */\n      tag_318\n      jump\t// in\n    tag_630:\n        /* \"#utility.yul\":31971:32110   */\n      swap1\n      pop\n        /* \"#utility.yul\":31698:32117   */\n      swap2\n      swap1\n      pop\n      jump\t// out\n        /* \"#utility.yul\":32123:32283   */\n    tag_319:\n        /* \"#utility.yul\":32263:32275   */\n      0x496e76616c696420494400000000000000000000000000000000000000000000\n        /* \"#utility.yul\":32259:32260   */\n      0x00\n        /* \"#utility.yul\":32251:32257   */\n      dup3\n        /* \"#utility.yul\":32247:32261   */\n      add\n        /* \"#utility.yul\":32240:32276   */\n      mstore\n        /* \"#utility.yul\":32123:32283   */\n      pop\n      jump\t// out\n        /* \"#utility.yul\":32289:32655   */\n    tag_320:\n        /* \"#utility.yul\":32431:32434   */\n      0x00\n        /* \"#utility.yul\":32452:32519   */\n      tag_633\n        /* \"#utility.yul\":32516:32518   */\n      0x0a\n        /* \"#utility.yul\":32511:32514   */\n      dup4\n        /* \"#utility.yul\":32452:32519   */\n      tag_279\n      jump\t// in\n    tag_633:\n        /* \"#utility.yul\":32445:32519   */\n      swap2\n      pop\n        /* \"#utility.yul\":32528:32621   */\n      tag_634\n        /* \"#utility.yul\":32617:32620   */\n      dup3\n        /* \"#utility.yul\":32528:32621   */\n      tag_319\n      jump\t// in\n    tag_634:\n        /* \"#utility.yul\":32646:32648   */\n      0x20\n        /* \"#utility.yul\":32641:32644   */\n      dup3\n        /* \"#utility.yul\":32637:32649   */\n      add\n        /* \"#utility.yul\":32630:32649   */\n      swap1\n      pop\n        /* \"#utility.yul\":32289:32655   */\n      swap2\n      swap1\n      pop\n      jump\t// out\n        /* \"#utility.yul\":32661:33080   */\n    tag_191:\n        /* \"#utility.yul\":32827:32831   */\n      0x00\n        /* \"#utility.yul\":32865:32867   */\n      0x20\n        /* \"#utility.yul\":32854:32863   */\n      dup3\n        /* \"#utility.yul\":32850:32868   */\n      add\n        /* \"#utility.yul\":32842:32868   */\n      swap1\n      pop\n        /* \"#utility.yul\":32914:32923   */\n      dup2\n        /* \"#utility.yul\":32908:32912   */\n      dup2\n        /* \"#utility.yul\":32904:32924   */\n      sub\n        /* \"#utility.yul\":32900:32901   */\n      0x00\n        /* \"#utility.yul\":32889:32898   */\n      dup4\n        /* \"#utility.yul\":32885:32902   */\n      add\n        /* \"#utility.yul\":32878:32925   */\n      mstore\n        /* \"#utility.yul\":32942:33073   */\n      tag_636\n        /* \"#utility.yul\":33068:33072   */\n      dup2\n        /* \"#utility.yul\":32942:33073   */\n      tag_320\n      jump\t// in\n    tag_636:\n        /* \"#utility.yul\":32934:33073   */\n      swap1\n      pop\n        /* \"#utility.yul\":32661:33080   */\n      swap2\n      swap1\n      pop\n      jump\t// out\n        /* \"#utility.yul\":33086:33261   */\n    tag_321:\n        /* \"#utility.yul\":33226:33253   */\n      0x547261696e657220494420616c72656164792065786973747300000000000000\n        /* \"#utility.yul\":33222:33223   */\n      0x00\n        /* \"#utility.yul\":33214:33220   */\n      dup3\n        /* \"#utility.yul\":33210:33224   */\n      add\n        /* \"#utility.yul\":33203:33254   */\n      mstore\n        /* \"#utility.yul\":33086:33261   */\n      pop\n      jump\t// out\n        /* \"#utility.yul\":33267:33633   */\n    tag_322:\n        /* \"#utility.yul\":33409:33412   */\n      0x00\n        /* \"#utility.yul\":33430:33497   */\n      tag_639\n        /* \"#utility.yul\":33494:33496   */\n      0x19\n        /* \"#utility.yul\":33489:33492   */\n      dup4\n        /* \"#utility.yul\":33430:33497   */\n      tag_279\n      jump\t// in\n    tag_639:\n        /* \"#utility.yul\":33423:33497   */\n      swap2\n      pop\n        /* \"#utility.yul\":33506:33599   */\n      tag_640\n        /* \"#utility.yul\":33595:33598   */\n      dup3\n        /* \"#utility.yul\":33506:33599   */\n      tag_321\n      jump\t// in\n    tag_640:\n        /* \"#utility.yul\":33624:33626   */\n      0x20\n        /* \"#utility.yul\":33619:33622   */\n      dup3\n        /* \"#utility.yul\":33615:33627   */\n      add\n        /* \"#utility.yul\":33608:33627   */\n      swap1\n      pop\n        /* \"#utility.yul\":33267:33633   */\n      swap2\n      swap1\n      pop\n      jump\t// out\n        /* \"#utility.yul\":33639:34058   */\n    tag_194:\n        /* \"#utility.yul\":33805:33809   */\n      0x00\n        /* \"#utility.yul\":33843:33845   */\n      0x20\n        /* \"#utility.yul\":33832:33841   */\n      dup3\n        /* \"#utility.yul\":33828:33846   */\n      add\n        /* \"#utility.yul\":33820:33846   */\n      swap1\n      pop\n        /* \"#utility.yul\":33892:33901   */\n      dup2\n        /* \"#utility.yul\":33886:33890   */\n      dup2\n        /* \"#utility.yul\":33882:33902   */\n      sub\n        /* \"#utility.yul\":33878:33879   */\n      0x00\n        /* \"#utility.yul\":33867:33876   */\n      dup4\n        /* \"#utility.yul\":33863:33880   */\n      add\n        /* \"#utility.yul\":33856:33903   */\n      mstore\n        /* \"#utility.yul\":33920:34051   */\n      tag_642\n        /* \"#utility.yul\":34046:34050   */\n      dup2\n        /* \"#utility.yul\":33920:34051   */\n      tag_322\n      jump\t// in\n    tag_642:\n        /* \"#utility.yul\":33912:34051   */\n      swap1\n      pop\n        /* \"#utility.yul\":33639:34058   */\n      swap2\n      swap1\n      pop\n      jump\t// out\n        /* \"#utility.yul\":34064:34205   */\n    tag_323:\n        /* \"#utility.yul\":34113:34117   */\n      0x00\n        /* \"#utility.yul\":34136:34139   */\n      dup2\n        /* \"#utility.yul\":34128:34139   */\n      swap1\n      pop\n        /* \"#utility.yul\":34159:34162   */\n      dup2\n        /* \"#utility.yul\":34156:34157   */\n      0x00\n        /* \"#utility.yul\":34149:34163   */\n      mstore\n        /* \"#utility.yul\":34193:34197   */\n      0x20\n        /* \"#utility.yul\":34190:34191   */\n      0x00\n        /* \"#utility.yul\":34180:34198   */\n      keccak256\n        /* \"#utility.yul\":34172:34198   */\n      swap1\n      pop\n        /* \"#utility.yul\":34064:34205   */\n      swap2\n      swap1\n      pop\n      jump\t// out\n        /* \"#utility.yul\":34211:34304   */\n    tag_324:\n        /* \"#utility.yul\":34248:34254   */\n      0x00\n        /* \"#utility.yul\":34295:34297   */\n      0x20\n        /* \"#utility.yul\":34290:34292   */\n      0x1f\n        /* \"#utility.yul\":34283:34288   */\n      dup4\n        /* \"#utility.yul\":34279:34293   */\n      add\n        /* \"#utility.yul\":34275:34298   */\n      div\n        /* \"#utility.yul\":34265:34298   */\n      swap1\n      pop\n        /* \"#utility.yul\":34211:34304   */\n      swap2\n      swap1\n      pop\n      jump\t// out\n        /* \"#utility.yul\":34310:34417   */\n    tag_325:\n        /* \"#utility.yul\":34354:34362   */\n      0x00\n        /* \"#utility.yul\":34404:34409   */\n      dup3\n        /* \"#utility.yul\":34398:34402   */\n      dup3\n        /* \"#utility.yul\":34394:34410   */\n      shl\n        /* \"#utility.yul\":34373:34410   */\n      swap1\n      pop\n        /* \"#utility.yul\":34310:34417   */\n      swap3\n      swap2\n      pop\n      pop\n      jump\t// out\n        /* \"#utility.yul\":34423:34816   */\n    tag_326:\n        /* \"#utility.yul\":34492:34498   */\n      0x00\n        /* \"#utility.yul\":34542:34543   */\n      0x08\n        /* \"#utility.yul\":34530:34540   */\n      dup4\n        /* \"#utility.yul\":34526:34544   */\n      mul\n        /* \"#utility.yul\":34565:34662   */\n      tag_647\n        /* \"#utility.yul\":34595:34661   */\n      0xffffffffffffffffffffffffffffffffffffffffffffffffffffffffffffffff\n        /* \"#utility.yul\":34584:34593   */\n      dup3\n        /* \"#utility.yul\":34565:34662   */\n      tag_325\n      jump\t// in\n    tag_647:\n        /* \"#utility.yul\":34683:34722   */\n      tag_648\n        /* \"#utility.yul\":34713:34721   */\n      dup7\n        /* \"#utility.yul\":34702:34711   */\n      dup4\n        /* \"#utility.yul\":34683:34722   */\n      tag_325\n      jump\t// in\n    tag_648:\n        /* \"#utility.yul\":34671:34722   */\n      swap6\n      pop\n        /* \"#utility.yul\":34755:34759   */\n      dup1\n        /* \"#utility.yul\":34751:34760   */\n      not\n        /* \"#utility.yul\":34744:34749   */\n      dup5\n        /* \"#utility.yul\":34740:34761   */\n      and\n        /* \"#utility.yul\":34731:34761   */\n      swap4\n      pop\n        /* \"#utility.yul\":34804:34808   */\n      dup1\n        /* \"#utility.yul\":34794:34802   */\n      dup7\n        /* \"#utility.yul\":34790:34809   */\n      and\n        /* \"#utility.yul\":34783:34788   */\n      dup5\n        /* \"#utility.yul\":34780:34810   */\n      or\n        /* \"#utility.yul\":34770:34810   */\n      swap3\n      pop\n        /* \"#utility.yul\":34499:34816   */\n      pop\n      pop\n        /* \"#utility.yul\":34423:34816   */\n      swap4\n      swap3\n      pop\n      pop\n      pop\n      jump\t// out\n        /* \"#utility.yul\":34822:34882   */\n    tag_327:\n        /* \"#utility.yul\":34850:34853   */\n      0x00\n        /* \"#utility.yul\":34871:34876   */\n      dup2\n        /* \"#utility.yul\":34864:34876   */\n      swap1\n      pop\n        /* \"#utility.yul\":34822:34882   */\n      swap2\n      swap1\n      pop\n      jump\t// out\n        /* \"#utility.yul\":34888:35030   */\n    tag_328:\n        /* \"#utility.yul\":34938:34947   */\n      0x00\n        /* \"#utility.yul\":34971:35024   */\n      tag_651\n        /* \"#utility.yul\":34989:35023   */\n      tag_652\n        /* \"#utility.yul\":34998:35022   */\n      tag_653\n        /* \"#utility.yul\":35016:35021   */\n      dup5\n        /* \"#utility.yul\":34998:35022   */\n      tag_254\n      jump\t// in\n    tag_653:\n        /* \"#utility.yul\":34989:35023   */\n      tag_327\n      jump\t// in\n    tag_652:\n        /* \"#utility.yul\":34971:35024   */\n      tag_254\n      jump\t// in\n    tag_651:\n        /* \"#utility.yul\":34958:35024   */\n      swap1\n      pop\n        /* \"#utility.yul\":34888:35030   */\n      swap2\n      swap1\n      pop\n      jump\t// out\n        /* \"#utility.yul\":35036:35111   */\n    tag_329:\n        /* \"#utility.yul\":35079:35082   */\n      0x00\n        /* \"#utility.yul\":35100:35105   */\n      dup2\n        /* \"#utility.yul\":35093:35105   */\n      swap1\n      pop\n        /* \"#utility.yul\":35036:35111   */\n      swap2\n      swap1\n      pop\n      jump\t// out\n        /* \"#utility.yul\":35117:35386   */\n    tag_330:\n        /* \"#utility.yul\":35227:35266   */\n      tag_656\n        /* \"#utility.yul\":35258:35265   */\n      dup4\n        /* \"#utility.yul\":35227:35266   */\n      tag_328\n      jump\t// in\n    tag_656:\n        /* \"#utility.yul\":35288:35379   */\n      tag_657\n        /* \"#utility.yul\":35337:35378   */\n      tag_658\n        /* \"#utility.yul\":35361:35377   */\n      dup3\n        /* \"#utility.yul\":35337:35378   */\n      tag_329\n      jump\t// in\n    tag_658:\n        /* \"#utility.yul\":35329:35335   */\n      dup5\n        /* \"#utility.yul\":35322:35326   */\n      dup5\n        /* \"#utility.yul\":35316:35327   */\n      sload\n        /* \"#utility.yul\":35288:35379   */\n      tag_326\n      jump\t// in\n    tag_657:\n        /* \"#utility.yul\":35282:35286   */\n      dup3\n        /* \"#utility.yul\":35275:35380   */\n      sstore\n        /* \"#utility.yul\":35193:35386   */\n      pop\n        /* \"#utility.yul\":35117:35386   */\n      pop\n      pop\n      pop\n      jump\t// out\n        /* \"#utility.yul\":35392:35465   */\n    tag_331:\n        /* \"#utility.yul\":35437:35440   */\n      0x00\n        /* \"#utility.yul\":35458:35459   */\n      0x00\n        /* \"#utility.yul\":35451:35459   */\n      swap1\n      pop\n        /* \"#utility.yul\":35392:35465   */\n      swap1\n      jump\t// out\n        /* \"#utility.yul\":35471:35660   */\n    tag_332:\n        /* \"#utility.yul\":35548:35580   */\n      tag_661\n      tag_331\n      jump\t// in\n    tag_661:\n        /* \"#utility.yul\":35589:35654   */\n      tag_662\n        /* \"#utility.yul\":35647:35653   */\n      dup2\n        /* \"#utility.yul\":35639:35645   */\n      dup5\n        /* \"#utility.yul\":35633:35637   */\n      dup5\n        /* \"#utility.yul\":35589:35654   */\n      tag_330\n      jump\t// in\n    tag_662:\n        /* \"#utility.yul\":35524:35660   */\n      pop\n        /* \"#utility.yul\":35471:35660   */\n      pop\n      pop\n      jump\t// out\n        /* \"#utility.yul\":35666:35852   */\n    tag_333:\n        /* \"#utility.yul\":35726:35846   */\n    tag_664:\n        /* \"#utility.yul\":35743:35746   */\n      dup2\n        /* \"#utility.yul\":35736:35741   */\n      dup2\n        /* \"#utility.yul\":35733:35747   */\n      lt\n        /* \"#utility.yul\":35726:35846   */\n      iszero\n      tag_666\n      jumpi\n        /* \"#utility.yul\":35797:35836   */\n      tag_667\n        /* \"#utility.yul\":35834:35835   */\n      0x00\n        /* \"#utility.yul\":35827:35832   */\n      dup3\n        /* \"#utility.yul\":35797:35836   */\n      tag_332\n      jump\t// in\n    tag_667:\n        /* \"#utility.yul\":35770:35771   */\n      0x01\n        /* \"#utility.yul\":35763:35768   */\n      dup2\n        /* \"#utility.yul\":35759:35772   */\n      add\n        /* \"#utility.yul\":35750:35772   */\n      swap1\n      pop\n        /* \"#utility.yul\":35726:35846   */\n      jump(tag_664)\n    tag_666:\n        /* \"#utility.yul\":35666:35852   */\n      pop\n      pop\n      jump\t// out\n        /* \"#utility.yul\":35858:36401   */\n    tag_334:\n        /* \"#utility.yul\":35959:35961   */\n      0x1f\n        /* \"#utility.yul\":35954:35957   */\n      dup3\n        /* \"#utility.yul\":35951:35962   */\n      gt\n        /* \"#utility.yul\":35948:36394   */\n      iszero\n      tag_669\n      jumpi\n        /* \"#utility.yul\":35993:36031   */\n      tag_670\n        /* \"#utility.yul\":36025:36030   */\n      dup2\n        /* \"#utility.yul\":35993:36031   */\n      tag_323\n      jump\t// in\n    tag_670:\n        /* \"#utility.yul\":36077:36106   */\n      tag_671\n        /* \"#utility.yul\":36095:36105   */\n      dup5\n        /* \"#utility.yul\":36077:36106   */\n      tag_324\n      jump\t// in\n    tag_671:\n        /* \"#utility.yul\":36067:36075   */\n      dup2\n        /* \"#utility.yul\":36063:36107   */\n      add\n        /* \"#utility.yul\":36260:36262   */\n      0x20\n        /* \"#utility.yul\":36248:36258   */\n      dup6\n        /* \"#utility.yul\":36245:36263   */\n      lt\n        /* \"#utility.yul\":36242:36291   */\n      iszero\n      tag_672\n      jumpi\n        /* \"#utility.yul\":36281:36289   */\n      dup2\n        /* \"#utility.yul\":36266:36289   */\n      swap1\n      pop\n        /* \"#utility.yul\":36242:36291   */\n    tag_672:\n        /* \"#utility.yul\":36304:36384   */\n      tag_673\n        /* \"#utility.yul\":36360:36382   */\n      tag_674\n        /* \"#utility.yul\":36378:36381   */\n      dup6\n        /* \"#utility.yul\":36360:36382   */\n      tag_324\n      jump\t// in\n    tag_674:\n        /* \"#utility.yul\":36350:36358   */\n      dup4\n        /* \"#utility.yul\":36346:36383   */\n      add\n        /* \"#utility.yul\":36333:36344   */\n      dup3\n        /* \"#utility.yul\":36304:36384   */\n      tag_333\n      jump\t// in\n    tag_673:\n        /* \"#utility.yul\":35963:36394   */\n      pop\n      pop\n        /* \"#utility.yul\":35948:36394   */\n    tag_669:\n        /* \"#utility.yul\":35858:36401   */\n      pop\n      pop\n      pop\n      jump\t// out\n        /* \"#utility.yul\":36407:36524   */\n    tag_335:\n        /* \"#utility.yul\":36461:36469   */\n      0x00\n        /* \"#utility.yul\":36511:36516   */\n      dup3\n        /* \"#utility.yul\":36505:36509   */\n      dup3\n        /* \"#utility.yul\":36501:36517   */\n      shr\n        /* \"#utility.yul\":36480:36517   */\n      swap1\n      pop\n        /* \"#utility.yul\":36407:36524   */\n      swap3\n      swap2\n      pop\n      pop\n      jump\t// out\n        /* \"#utility.yul\":36530:36699   */\n    tag_336:\n        /* \"#utility.yul\":36574:36580   */\n      0x00\n        /* \"#utility.yul\":36607:36658   */\n      tag_677\n        /* \"#utility.yul\":36655:36656   */\n      0x00\n        /* \"#utility.yul\":36651:36657   */\n      not\n        /* \"#utility.yul\":36643:36648   */\n      dup5\n        /* \"#utility.yul\":36640:36641   */\n      0x08\n        /* \"#utility.yul\":36636:36649   */\n      mul\n        /* \"#utility.yul\":36607:36658   */\n      tag_335\n      jump\t// in\n    tag_677:\n        /* \"#utility.yul\":36603:36659   */\n      not\n        /* \"#utility.yul\":36688:36692   */\n      dup1\n        /* \"#utility.yul\":36682:36686   */\n      dup4\n        /* \"#utility.yul\":36678:36693   */\n      and\n        /* \"#utility.yul\":36668:36693   */\n      swap2\n      pop\n        /* \"#utility.yul\":36581:36699   */\n      pop\n        /* \"#utility.yul\":36530:36699   */\n      swap3\n      swap2\n      pop\n      pop\n      jump\t// out\n        /* \"#utility.yul\":36704:36999   */\n    tag_337:\n        /* \"#utility.yul\":36780:36784   */\n      0x00\n        /* \"#utility.yul\":36926:36955   */\n      tag_679\n        /* \"#utility.yul\":36951:36954   */\n      dup4\n        /* \"#utility.yul\":36945:36949   */\n      dup4\n        /* \"#utility.yul\":36926:36955   */\n      tag_336\n      jump\t// in\n    tag_679:\n        /* \"#utility.yul\":36918:36955   */\n      swap2\n      pop\n        /* \"#utility.yul\":36988:36991   */\n      dup3\n        /* \"#utility.yul\":36985:36986   */\n      0x02\n        /* \"#utility.yul\":36981:36992   */\n      mul\n        /* \"#utility.yul\":36975:36979   */\n      dup3\n        /* \"#utility.yul\":36972:36993   */\n      or\n        /* \"#utility.yul\":36964:36993   */\n      swap1\n      pop\n        /* \"#utility.yul\":36704:36999   */\n      swap3\n      swap2\n      pop\n      pop\n      jump\t// out\n        /* \"#utility.yul\":37004:38399   */\n    tag_196:\n        /* \"#utility.yul\":37121:37158   */\n      tag_681\n        /* \"#utility.yul\":37154:37157   */\n      dup3\n        /* \"#utility.yul\":37121:37158   */\n      tag_270\n      jump\t// in\n    tag_681:\n        /* \"#utility.yul\":37223:37241   */\n      0xffffffffffffffff\n        /* \"#utility.yul\":37215:37221   */\n      dup2\n        /* \"#utility.yul\":37212:37242   */\n      gt\n        /* \"#utility.yul\":37209:37265   */\n      iszero\n      tag_682\n      jumpi\n        /* \"#utility.yul\":37245:37263   */\n      tag_683\n      tag_81\n      jump\t// in\n    tag_683:\n        /* \"#utility.yul\":37209:37265   */\n    tag_682:\n        /* \"#utility.yul\":37289:37327   */\n      tag_684\n        /* \"#utility.yul\":37321:37325   */\n      dup3\n        /* \"#utility.yul\":37315:37326   */\n      sload\n        /* \"#utility.yul\":37289:37327   */\n      tag_138\n      jump\t// in\n    tag_684:\n        /* \"#utility.yul\":37374:37441   */\n      tag_685\n        /* \"#utility.yul\":37434:37440   */\n      dup3\n        /* \"#utility.yul\":37426:37432   */\n      dup3\n        /* \"#utility.yul\":37420:37424   */\n      dup6\n        /* \"#utility.yul\":37374:37441   */\n      tag_334\n      jump\t// in\n    tag_685:\n        /* \"#utility.yul\":37468:37469   */\n      0x00\n        /* \"#utility.yul\":37492:37496   */\n      0x20\n        /* \"#utility.yul\":37479:37496   */\n      swap1\n      pop\n        /* \"#utility.yul\":37524:37526   */\n      0x1f\n        /* \"#utility.yul\":37516:37522   */\n      dup4\n        /* \"#utility.yul\":37513:37527   */\n      gt\n        /* \"#utility.yul\":37541:37542   */\n      0x01\n        /* \"#utility.yul\":37536:38154   */\n      dup2\n      eq\n      tag_687\n      jumpi\n        /* \"#utility.yul\":38198:38199   */\n      0x00\n        /* \"#utility.yul\":38215:38221   */\n      dup5\n        /* \"#utility.yul\":38212:38289   */\n      iszero\n      tag_688\n      jumpi\n        /* \"#utility.yul\":38264:38273   */\n      dup3\n        /* \"#utility.yul\":38259:38262   */\n      dup8\n        /* \"#utility.yul\":38255:38274   */\n      add\n        /* \"#utility.yul\":38249:38275   */\n      mload\n        /* \"#utility.yul\":38240:38275   */\n      swap1\n      pop\n        /* \"#utility.yul\":38212:38289   */\n    tag_688:\n        /* \"#utility.yul\":38315:38382   */\n      tag_689\n        /* \"#utility.yul\":38375:38381   */\n      dup6\n        /* \"#utility.yul\":38368:38373   */\n      dup3\n        /* \"#utility.yul\":38315:38382   */\n      tag_337\n      jump\t// in\n    tag_689:\n        /* \"#utility.yul\":38309:38313   */\n      dup7\n        /* \"#utility.yul\":38302:38383   */\n      sstore\n        /* \"#utility.yul\":38171:38393   */\n      pop\n        /* \"#utility.yul\":37506:38393   */\n      jump(tag_686)\n        /* \"#utility.yul\":37536:38154   */\n    tag_687:\n        /* \"#utility.yul\":37588:37592   */\n      0x1f\n        /* \"#utility.yul\":37584:37593   */\n      not\n        /* \"#utility.yul\":37576:37582   */\n      dup5\n        /* \"#utility.yul\":37572:37594   */\n      and\n        /* \"#utility.yul\":37622:37659   */\n      tag_690\n        /* \"#utility.yul\":37654:37658   */\n      dup7\n        /* \"#utility.yul\":37622:37659   */\n      tag_323\n      jump\t// in\n    tag_690:\n        /* \"#utility.yul\":37681:37682   */\n      0x00\n        /* \"#utility.yul\":37695:37903   */\n    tag_691:\n        /* \"#utility.yul\":37709:37716   */\n      dup3\n        /* \"#utility.yul\":37706:37707   */\n      dup2\n        /* \"#utility.yul\":37703:37717   */\n      lt\n        /* \"#utility.yul\":37695:37903   */\n      iszero\n      tag_693\n      jumpi\n        /* \"#utility.yul\":37788:37797   */\n      dup5\n        /* \"#utility.yul\":37783:37786   */\n      dup10\n        /* \"#utility.yul\":37779:37798   */\n      add\n        /* \"#utility.yul\":37773:37799   */\n      mload\n        /* \"#utility.yul\":37765:37771   */\n      dup3\n        /* \"#utility.yul\":37758:37800   */\n      sstore\n        /* \"#utility.yul\":37839:37840   */\n      0x01\n        /* \"#utility.yul\":37831:37837   */\n      dup3\n        /* \"#utility.yul\":37827:37841   */\n      add\n        /* \"#utility.yul\":37817:37841   */\n      swap2\n      pop\n        /* \"#utility.yul\":37886:37888   */\n      0x20\n        /* \"#utility.yul\":37875:37884   */\n      dup6\n        /* \"#utility.yul\":37871:37889   */\n      add\n        /* \"#utility.yul\":37858:37889   */\n      swap5\n      pop\n        /* \"#utility.yul\":37732:37736   */\n      0x20\n        /* \"#utility.yul\":37729:37730   */\n      dup2\n        /* \"#utility.yul\":37725:37737   */\n      add\n        /* \"#utility.yul\":37720:37737   */\n      swap1\n      pop\n        /* \"#utility.yul\":37695:37903   */\n      jump(tag_691)\n    tag_693:\n        /* \"#utility.yul\":37931:37937   */\n      dup7\n        /* \"#utility.yul\":37922:37929   */\n      dup4\n        /* \"#utility.yul\":37919:37938   */\n      lt\n        /* \"#utility.yul\":37916:38095   */\n      iszero\n      tag_694\n      jumpi\n        /* \"#utility.yul\":37989:37998   */\n      dup5\n        /* \"#utility.yul\":37984:37987   */\n      dup10\n        /* \"#utility.yul\":37980:37999   */\n      add\n        /* \"#utility.yul\":37974:38000   */\n      mload\n        /* \"#utility.yul\":38032:38080   */\n      tag_695\n        /* \"#utility.yul\":38074:38078   */\n      0x1f\n        /* \"#utility.yul\":38066:38072   */\n      dup10\n        /* \"#utility.yul\":38062:38079   */\n      and\n        /* \"#utility.yul\":38051:38060   */\n      dup3\n        /* \"#utility.yul\":38032:38080   */\n      tag_336\n      jump\t// in\n    tag_695:\n        /* \"#utility.yul\":38024:38030   */\n      dup4\n        /* \"#utility.yul\":38017:38081   */\n      sstore\n        /* \"#utility.yul\":37939:38095   */\n      pop\n        /* \"#utility.yul\":37916:38095   */\n    tag_694:\n        /* \"#utility.yul\":38141:38142   */\n      0x01\n        /* \"#utility.yul\":38137:38138   */\n      0x02\n        /* \"#utility.yul\":38129:38135   */\n      dup9\n        /* \"#utility.yul\":38125:38139   */\n      mul\n        /* \"#utility.yul\":38121:38143   */\n      add\n        /* \"#utility.yul\":38115:38119   */\n      dup9\n        /* \"#utility.yul\":38108:38144   */\n      sstore\n        /* \"#utility.yul\":37543:38154   */\n      pop\n      pop\n      pop\n        /* \"#utility.yul\":37506:38393   */\n    tag_686:\n      pop\n        /* \"#utility.yul\":37096:38399   */\n      pop\n      pop\n      pop\n        /* \"#utility.yul\":37004:38399   */\n      pop\n      pop\n      jump\t// out\n        /* \"#utility.yul\":38405:38578   */\n    tag_338:\n        /* \"#utility.yul\":38545:38570   */\n      0x41646d696e20494420616c726561647920657869737473000000000000000000\n        /* \"#utility.yul\":38541:38542   */\n      0x00\n        /* \"#utility.yul\":38533:38539   */\n      dup3\n        /* \"#utility.yul\":38529:38543   */\n      add\n        /* \"#utility.yul\":38522:38571   */\n      mstore\n        /* \"#utility.yul\":38405:38578   */\n      pop\n      jump\t// out\n        /* \"#utility.yul\":38584:38950   */\n    tag_339:\n        /* \"#utility.yul\":38726:38729   */\n      0x00\n        /* \"#utility.yul\":38747:38814   */\n      tag_698\n        /* \"#utility.yul\":38811:38813   */\n      0x17\n        /* \"#utility.yul\":38806:38809   */\n      dup4\n        /* \"#utility.yul\":38747:38814   */\n      tag_279\n      jump\t// in\n    tag_698:\n        /* \"#utility.yul\":38740:38814   */\n      swap2\n      pop\n        /* \"#utility.yul\":38823:38916   */\n      tag_699\n        /* \"#utility.yul\":38912:38915   */\n      dup3\n        /* \"#utility.yul\":38823:38916   */\n      tag_338\n      jump\t// in\n    tag_699:\n        /* \"#utility.yul\":38941:38943   */\n      0x20\n        /* \"#utility.yul\":38936:38939   */\n      dup3\n        /* \"#utility.yul\":38932:38944   */\n      add\n        /* \"#utility.yul\":38925:38944   */\n      swap1\n      pop\n        /* \"#utility.yul\":38584:38950   */\n      swap2\n      swap1\n      pop\n      jump\t// out\n        /* \"#utility.yul\":38956:39375   */\n    tag_206:\n        /* \"#utility.yul\":39122:39126   */\n      0x00\n        /* \"#utility.yul\":39160:39162   */\n      0x20\n        /* \"#utility.yul\":39149:39158   */\n      dup3\n        /* \"#utility.yul\":39145:39163   */\n      add\n        /* \"#utility.yul\":39137:39163   */\n      swap1\n      pop\n        /* \"#utility.yul\":39209:39218   */\n      dup2\n        /* \"#utility.yul\":39203:39207   */\n      dup2\n        /* \"#utility.yul\":39199:39219   */\n      sub\n        /* \"#utility.yul\":39195:39196   */\n      0x00\n        /* \"#utility.yul\":39184:39193   */\n      dup4\n        /* \"#utility.yul\":39180:39197   */\n      add\n        /* \"#utility.yul\":39173:39220   */\n      mstore\n        /* \"#utility.yul\":39237:39368   */\n      tag_701\n        /* \"#utility.yul\":39363:39367   */\n      dup2\n        /* \"#utility.yul\":39237:39368   */\n      tag_339\n      jump\t// in\n    tag_701:\n        /* \"#utility.yul\":39229:39368   */\n      swap1\n      pop\n        /* \"#utility.yul\":38956:39375   */\n      swap2\n      swap1\n      pop\n      jump\t// out\n        /* \"#utility.yul\":39381:39560   */\n    tag_340:\n        /* \"#utility.yul\":39521:39552   */\n      0x5061727469636970616e7420494420616c726561647920657869737473000000\n        /* \"#utility.yul\":39517:39518   */\n      0x00\n        /* \"#utility.yul\":39509:39515   */\n      dup3\n        /* \"#utility.yul\":39505:39519   */\n      add\n        /* \"#utility.yul\":39498:39553   */\n      mstore\n        /* \"#utility.yul\":39381:39560   */\n      pop\n      jump\t// out\n        /* \"#utility.yul\":39566:39932   */\n    tag_341:\n        /* \"#utility.yul\":39708:39711   */\n      0x00\n        /* \"#utility.yul\":39729:39796   */\n      tag_704\n        /* \"#utility.yul\":39793:39795   */\n      0x1d\n        /* \"#utility.yul\":39788:39791   */\n      dup4\n        /* \"#utility.yul\":39729:39796   */\n      tag_279\n      jump\t// in\n    tag_704:\n        /* \"#utility.yul\":39722:39796   */\n      swap2\n      pop\n        /* \"#utility.yul\":39805:39898   */\n      tag_705\n        /* \"#utility.yul\":39894:39897   */\n      dup3\n        /* \"#utility.yul\":39805:39898   */\n      tag_340\n      jump\t// in\n    tag_705:\n        /* \"#utility.yul\":39923:39925   */\n      0x20\n        /* \"#utility.yul\":39918:39921   */\n      dup3\n        /* \"#utility.yul\":39914:39926   */\n      add\n        /* \"#utility.yul\":39907:39926   */\n      swap1\n      pop\n        /* \"#utility.yul\":39566:39932   */\n      swap2\n      swap1\n      pop\n      jump\t// out\n        /* \"#utility.yul\":39938:40357   */\n    tag_217:\n        /* \"#utility.yul\":40104:40108   */\n      0x00\n        /* \"#utility.yul\":40142:40144   */\n      0x20\n        /* \"#utility.yul\":40131:40140   */\n      dup3\n        /* \"#utility.yul\":40127:40145   */\n      add\n        /* \"#utility.yul\":40119:40145   */\n      swap1\n      pop\n        /* \"#utility.yul\":40191:40200   */\n      dup2\n        /* \"#utility.yul\":40185:40189   */\n      dup2\n        /* \"#utility.yul\":40181:40201   */\n      sub\n        /* \"#utility.yul\":40177:40178   */\n      0x00\n        /* \"#utility.yul\":40166:40175   */\n      dup4\n        /* \"#utility.yul\":40162:40179   */\n      add\n        /* \"#utility.yul\":40155:40202   */\n      mstore\n        /* \"#utility.yul\":40219:40350   */\n      tag_707\n        /* \"#utility.yul\":40345:40349   */\n      dup2\n        /* \"#utility.yul\":40219:40350   */\n      tag_341\n      jump\t// in\n    tag_707:\n        /* \"#utility.yul\":40211:40350   */\n      swap1\n      pop\n        /* \"#utility.yul\":39938:40357   */\n      swap2\n      swap1\n      pop\n      jump\t// out\n        /* \"#utility.yul\":40363:40514   */\n    tag_342:\n        /* \"#utility.yul\":40503:40506   */\n      0x3000000000000000000000000000000000000000000000000000000000000000\n        /* \"#utility.yul\":40499:40500   */\n      0x00\n        /* \"#utility.yul\":40491:40497   */\n      dup3\n        /* \"#utility.yul\":40487:40501   */\n      add\n        /* \"#utility.yul\":40480:40507   */\n      mstore\n        /* \"#utility.yul\":40363:40514   */\n      pop\n      jump\t// out\n        /* \"#utility.yul\":40520:40920   */\n    tag_343:\n        /* \"#utility.yul\":40680:40683   */\n      0x00\n        /* \"#utility.yul\":40701:40785   */\n      tag_710\n        /* \"#utility.yul\":40783:40784   */\n      0x01\n        /* \"#utility.yul\":40778:40781   */\n      dup4\n        /* \"#utility.yul\":40701:40785   */\n      tag_300\n      jump\t// in\n    tag_710:\n        /* \"#utility.yul\":40694:40785   */\n      swap2\n      pop\n        /* \"#utility.yul\":40794:40887   */\n      tag_711\n        /* \"#utility.yul\":40883:40886   */\n      dup3\n        /* \"#utility.yul\":40794:40887   */\n      tag_342\n      jump\t// in\n    tag_711:\n        /* \"#utility.yul\":40912:40913   */\n      0x01\n        /* \"#utility.yul\":40907:40910   */\n      dup3\n        /* \"#utility.yul\":40903:40914   */\n      add\n        /* \"#utility.yul\":40896:40914   */\n      swap1\n      pop\n        /* \"#utility.yul\":40520:40920   */\n      swap2\n      swap1\n      pop\n      jump\t// out\n        /* \"#utility.yul\":40926:41075   */\n    tag_344:\n        /* \"#utility.yul\":40962:40969   */\n      0x00\n        /* \"#utility.yul\":41002:41068   */\n      0xff00000000000000000000000000000000000000000000000000000000000000\n        /* \"#utility.yul\":40995:41000   */\n      dup3\n        /* \"#utility.yul\":40991:41069   */\n      and\n        /* \"#utility.yul\":40980:41069   */\n      swap1\n      pop\n        /* \"#utility.yul\":40926:41075   */\n      swap2\n      swap1\n      pop\n      jump\t// out\n        /* \"#utility.yul\":41081:41159   */\n    tag_345:\n        /* \"#utility.yul\":41119:41126   */\n      0x00\n        /* \"#utility.yul\":41148:41153   */\n      dup2\n        /* \"#utility.yul\":41137:41153   */\n      swap1\n      pop\n        /* \"#utility.yul\":41081:41159   */\n      swap2\n      swap1\n      pop\n      jump\t// out\n        /* \"#utility.yul\":41165:41318   */\n    tag_346:\n        /* \"#utility.yul\":41268:41311   */\n      tag_715\n        /* \"#utility.yul\":41287:41310   */\n      tag_716\n        /* \"#utility.yul\":41304:41309   */\n      dup3\n        /* \"#utility.yul\":41287:41310   */\n      tag_344\n      jump\t// in\n    tag_716:\n        /* \"#utility.yul\":41268:41311   */\n      tag_345\n      jump\t// in\n    tag_715:\n        /* \"#utility.yul\":41263:41266   */\n      dup3\n        /* \"#utility.yul\":41256:41312   */\n      mstore\n        /* \"#utility.yul\":41165:41318   */\n      pop\n      pop\n      jump\t// out\n        /* \"#utility.yul\":41324:41841   */\n    tag_235:\n        /* \"#utility.yul\":41535:41538   */\n      0x00\n        /* \"#utility.yul\":41557:41705   */\n      tag_718\n        /* \"#utility.yul\":41701:41704   */\n      dup3\n        /* \"#utility.yul\":41557:41705   */\n      tag_343\n      jump\t// in\n    tag_718:\n        /* \"#utility.yul\":41550:41705   */\n      swap2\n      pop\n        /* \"#utility.yul\":41715:41788   */\n      tag_719\n        /* \"#utility.yul\":41784:41787   */\n      dup3\n        /* \"#utility.yul\":41775:41781   */\n      dup5\n        /* \"#utility.yul\":41715:41788   */\n      tag_346\n      jump\t// in\n    tag_719:\n        /* \"#utility.yul\":41813:41814   */\n      0x01\n        /* \"#utility.yul\":41808:41811   */\n      dup3\n        /* \"#utility.yul\":41804:41815   */\n      add\n        /* \"#utility.yul\":41797:41815   */\n      swap2\n      pop\n        /* \"#utility.yul\":41832:41835   */\n      dup2\n        /* \"#utility.yul\":41825:41835   */\n      swap1\n      pop\n        /* \"#utility.yul\":41324:41841   */\n      swap3\n      swap2\n      pop\n      pop\n      jump\t// out\n\n    auxdata: 0xa2646970667358221220221cc609908bd808cae28b8c8e2b90b8d09ebb00776999d1770cdc73671e9f6d64736f6c634300081e0033\n}\n",
				"bytecode": {
					"linkReferences": {},
					"object": "6080604052348015600e575f5ffd5b505f5f819055505f6001819055505f6002819055506129f8806100305f395ff3fe608060405234801561000f575f5ffd5b5060043610610086575f3560e01c80636620f95f116100595780636620f95f1461012d5780636c80cd331461015d578063710e2aba1461018d578063a30b027b146101bd57610086565b80633a7002e11461008a57806351eca4dd146100a65780635a29dc29146100d75780635ffc80f2146100f6575b5f5ffd5b6100a4600480360381019061009f91906115df565b6101ed565b005b6100c060048036038101906100bb919061162f565b610353565b6040516100ce92919061183c565b60405180910390f35b6100df6106d5565b6040516100ed929190611871565b60405180910390f35b610110600480360381019061010b919061162f565b61081f565b60405161012498979695949392919061190c565b60405180910390f35b6101476004803603810190610142919061199d565b610b15565b60405161015491906119ed565b60405180910390f35b61017760048036038101906101729190611b32565b610e6c565b6040516101849190611bce565b60405180910390f35b6101a760048036038101906101a29190611be7565b610fdb565b6040516101b49190611bce565b60405180910390f35b6101d760048036038101906101d29190611c53565b611162565b6040516101e49190611bce565b60405180910390f35b5f60055f8581526020019081526020015f205f015403610242576040517f08c379a000000000000000000000000000000000000000000000000000000000815260040161023990611d8e565b60405180910390fd5b6002821115610286576040517f08c379a000000000000000000000000000000000000000000000000000000000815260040161027d90611df6565b60405180910390fd5b5f60055f8581526020019081526020015f2090508060050160019054906101000a900460ff1615806102b55750815b6102f4576040517f08c379a00000000000000000000000000000000000000000000000000000000081526004016102eb90611e84565b60405180910390fd5b82600281111561030757610306611ea2565b5b816005015f6101000a81548160ff0219169083600281111561032c5761032b611ea2565b5b0217905550818160050160016101000a81548160ff02191690831515021790555050505050565b6060805f60045f8581526020019081526020015f205f0154036103ab576040517f08c379a00000000000000000000000000000000000000000000000000000000081526004016103a290611f19565b60405180910390fd5b5f5f90505f5f90505b603081101561040d5760065f8681526020019081526020015f205f8281526020019081526020015f206003015f9054906101000a900460ff166104005781806103fc90611f64565b9250505b80806001019150506103b4565b508067ffffffffffffffff81111561042857610427611a0e565b5b6040519080825280602002602001820160405280156104565781602001602082028036833780820191505090505b5092508067ffffffffffffffff81111561047357610472611a0e565b5b6040519080825280602002602001820160405280156104a657816020015b60608152602001906001900390816104915790505b5091505f5f90505f5f90505b60308110156106cd5760065f8781526020019081526020015f205f8281526020019081526020015f206003015f9054906101000a900460ff166106c0578085838151811061050357610502611fab565b5b6020026020010181815250505f60028261051d9190612005565b90505f601e60028461052f9190612035565b6105399190612065565b90505f8290505f601e8361054d91906120a6565b9050603c810361056957818061056290611f64565b9250505f90505b610572846113ce565b5f84146105b4576040518060400160405280600281526020017f33300000000000000000000000000000000000000000000000000000000000008152506105eb565b6040518060400160405280600281526020017f30300000000000000000000000000000000000000000000000000000000000008152505b6105f4846113ce565b5f8414610636576040518060400160405280600281526020017f333000000000000000000000000000000000000000000000000000000000000081525061066d565b6040518060400160405280600281526020017f30300000000000000000000000000000000000000000000000000000000000008152505b60405160200161068094939291906121a7565b6040516020818303038152906040528887815181106106a2576106a1611fab565b5b602002602001018190525085806106b890611f64565b965050505050505b80806001019150506104b2565b505050915091565b6060805f60078054905090508067ffffffffffffffff8111156106fb576106fa611a0e565b5b6040519080825280602002602001820160405280156107295781602001602082028036833780820191505090505b5092508067ffffffffffffffff81111561074657610745611a0e565b5b6040519080825280602002602001820160405280156107745781602001602082028036833780820191505090505b5091505f5f90505b81811015610819575f6007828154811061079957610798611fab565b5b905f5260205f2001549050808583815181106107b8576107b7611fab565b5b602002602001018181525050670de0b6b3a764000060035f8381526020019081526020015f20600301546107ec9190612005565b8483815181106107ff576107fe611fab565b5b60200260200101818152505050808060010191505061077c565b50509091565b5f60605f6060805f5f5f5f60055f8b81526020019081526020015f205f01540361087e576040517f08c379a000000000000000000000000000000000000000000000000000000000815260040161087590611d8e565b60405180910390fd5b5f60055f8b81526020019081526020015f20604051806101000160405290815f82015481526020016001820180546108b590612232565b80601f01602080910402602001604051908101604052809291908181526020018280546108e190612232565b801561092c5780601f106109035761010080835404028352916020019161092c565b820191905f5260205f20905b81548152906001019060200180831161090f57829003601f168201915b505050505081526020016002820154815260200160038201805461094f90612232565b80601f016020809104026020016040519081016040528092919081815260200182805461097b90612232565b80156109c65780601f1061099d576101008083540402835291602001916109c6565b820191905f5260205f20905b8154815290600101906020018083116109a957829003601f168201915b505050505081526020016004820180546109df90612232565b80601f0160208091040260200160405190810160405280929190818152602001828054610a0b90612232565b8015610a565780601f10610a2d57610100808354040283529160200191610a56565b820191905f5260205f20905b815481529060010190602001808311610a3957829003601f168201915b50505050508152602001600582015f9054906101000a900460ff166002811115610a8357610a82611ea2565b5b6002811115610a9557610a94611ea2565b5b81526020016005820160019054906101000a900460ff161515151581526020016006820154815250509050805f015181602001518260400151836060015184608001518560a001516002811115610aef57610aee611ea2565b5b8660c001518760e001519850985098509850985098509850985050919395975091939597565b5f5f60045f8681526020019081526020015f205f015403610b6b576040517f08c379a0000000000000000000000000000000000000000000000000000000008152600401610b6290611f19565b60405180910390fd5b5f60055f8581526020019081526020015f205f015403610bc0576040517f08c379a0000000000000000000000000000000000000000000000000000000008152600401610bb790611d8e565b60405180910390fd5b670de0b6b3a764000060055f8581526020019081526020015f20600601541015610c1f576040517f08c379a0000000000000000000000000000000000000000000000000000000008152600401610c16906122ac565b60405180910390fd5b5f60078054905011610c66576040517f08c379a0000000000000000000000000000000000000000000000000000000008152600401610c5d90612314565b60405180910390fd5b60308210610ca9576040517f08c379a0000000000000000000000000000000000000000000000000000000008152600401610ca09061237c565b60405180910390fd5b60065f8581526020019081526020015f205f8381526020019081526020015f206003015f9054906101000a900460ff1615610d19576040517f08c379a0000000000000000000000000000000000000000000000000000000008152600401610d10906123e4565b60405180910390fd5b60405180608001604052808381526020018581526020018481526020016001151581525060065f8681526020019081526020015f205f8481526020019081526020015f205f820151815f015560208201518160010155604082015181600201556060820151816003015f6101000a81548160ff0219169083151502179055509050505f600780549050424486604051602001610db793929190612422565b604051602081830303815290604052805190602001205f1c610dd99190612035565b90505f60078281548110610df057610def611fab565b5b905f5260205f2001549050670de0b6b3a764000060055f8781526020019081526020015f206006015f828254610e26919061245e565b92505081905550670de0b6b3a764000060035f8381526020019081526020015f206003015f828254610e5891906120a6565b925050819055506001925050509392505050565b5f5f8311610eaf576040517f08c379a0000000000000000000000000000000000000000000000000000000008152600401610ea6906124db565b60405180910390fd5b5f8511610ef1576040517f08c379a0000000000000000000000000000000000000000000000000000000008152600401610ee890612543565b60405180910390fd5b5f60045f8781526020019081526020015f205f015414610f46576040517f08c379a0000000000000000000000000000000000000000000000000000000008152600401610f3d906125ab565b60405180910390fd5b60405180608001604052808681526020018581526020018481526020018381525060045f8781526020019081526020015f205f820151815f01556020820151816001019081610f959190612769565b50604082015181600201556060820151816003019081610fb59190612769565b5090505060015f815480929190610fcb90611f64565b9190505550849050949350505050565b5f5f821161101e576040517f08c379a0000000000000000000000000000000000000000000000000000000008152600401611015906124db565b60405180910390fd5b5f8411611060576040517f08c379a000000000000000000000000000000000000000000000000000000000815260040161105790612543565b60405180910390fd5b5f60035f8681526020019081526020015f205f0154146110b5576040517f08c379a00000000000000000000000000000000000000000000000000000000081526004016110ac90612882565b60405180910390fd5b60405180608001604052808581526020018481526020018381526020015f81525060035f8681526020019081526020015f205f820151815f015560208201518160010190816111049190612769565b506040820151816002015560608201518160030155905050600784908060018154018082558091505060019003905f5260205f20015f90919091909150555f5f81548092919061115390611f64565b91905055508390509392505050565b5f5f86116111a5576040517f08c379a000000000000000000000000000000000000000000000000000000000815260040161119c906124db565b60405180910390fd5b5f88116111e7576040517f08c379a00000000000000000000000000000000000000000000000000000000081526004016111de90612543565b60405180910390fd5b5f60055f8a81526020019081526020015f205f01541461123c576040517f08c379a0000000000000000000000000000000000000000000000000000000008152600401611233906128ea565b60405180910390fd5b6002831115611280576040517f08c379a000000000000000000000000000000000000000000000000000000000815260040161127790611df6565b60405180910390fd5b6040518061010001604052808981526020018881526020018781526020018681526020018581526020018460028111156112bd576112bc611ea2565b5b60028111156112cf576112ce611ea2565b5b81526020018315158152602001678ac7230489e8000081525060055f8a81526020019081526020015f205f820151815f015560208201518160010190816113169190612769565b506040820151816002015560608201518160030190816113369190612769565b50608082015181600401908161134c9190612769565b5060a0820151816005015f6101000a81548160ff0219169083600281111561137757611376611ea2565b5b021790555060c08201518160050160016101000a81548160ff02191690831515021790555060e0820151816006015590505060025f8154809291906113bb90611f64565b9190505550879050979650505050505050565b60605f8203611414576040518060400160405280600181526020017f30000000000000000000000000000000000000000000000000000000000000008152509050611561565b600a8210156114535781603061142a91906120a6565b60f81b60405160200161143d919061299d565b6040516020818303038152906040529050611561565b5f8290505f5b5f821461148257808061146b90611f64565b915050600a8261147b9190612005565b9150611459565b5f8167ffffffffffffffff81111561149d5761149c611a0e565b5b6040519080825280601f01601f1916602001820160405280156114cf5781602001600182028036833780820191505090505b5090505b5f851461155a576001826114e7919061245e565b9150600a856114f69190612035565b603061150291906120a6565b60f81b81838151811061151857611517611fab565b5b60200101907effffffffffffffffffffffffffffffffffffffffffffffffffffffffffffff191690815f1a905350600a856115539190612005565b94506114d3565b8093505050505b919050565b5f604051905090565b5f5ffd5b5f5ffd5b5f819050919050565b61158981611577565b8114611593575f5ffd5b50565b5f813590506115a481611580565b92915050565b5f8115159050919050565b6115be816115aa565b81146115c8575f5ffd5b50565b5f813590506115d9816115b5565b92915050565b5f5f5f606084860312156115f6576115f561156f565b5b5f61160386828701611596565b935050602061161486828701611596565b9250506040611625868287016115cb565b9150509250925092565b5f602082840312156116445761164361156f565b5b5f61165184828501611596565b91505092915050565b5f81519050919050565b5f82825260208201905092915050565b5f819050602082019050919050565b61168c81611577565b82525050565b5f61169d8383611683565b60208301905092915050565b5f602082019050919050565b5f6116bf8261165a565b6116c98185611664565b93506116d483611674565b805f5b838110156117045781516116eb8882611692565b97506116f6836116a9565b9250506001810190506116d7565b5085935050505092915050565b5f81519050919050565b5f82825260208201905092915050565b5f819050602082019050919050565b5f81519050919050565b5f82825260208201905092915050565b8281835e5f83830152505050565b5f601f19601f8301169050919050565b5f61177c8261173a565b6117868185611744565b9350611796818560208601611754565b61179f81611762565b840191505092915050565b5f6117b58383611772565b905092915050565b5f602082019050919050565b5f6117d382611711565b6117dd818561171b565b9350836020820285016117ef8561172b565b805f5b8581101561182a578484038952815161180b85826117aa565b9450611816836117bd565b925060208a019950506001810190506117f2565b50829750879550505050505092915050565b5f6040820190508181035f83015261185481856116b5565b9050818103602083015261186881846117c9565b90509392505050565b5f6040820190508181035f83015261188981856116b5565b9050818103602083015261189d81846116b5565b90509392505050565b6118af81611577565b82525050565b5f82825260208201905092915050565b5f6118cf8261173a565b6118d981856118b5565b93506118e9818560208601611754565b6118f281611762565b840191505092915050565b611906816115aa565b82525050565b5f610100820190506119205f83018b6118a6565b8181036020830152611932818a6118c5565b905061194160408301896118a6565b818103606083015261195381886118c5565b9050818103608083015261196781876118c5565b905061197660a08301866118a6565b61198360c08301856118fd565b61199060e08301846118a6565b9998505050505050505050565b5f5f5f606084860312156119b4576119b361156f565b5b5f6119c186828701611596565b93505060206119d286828701611596565b92505060406119e386828701611596565b9150509250925092565b5f602082019050611a005f8301846118fd565b92915050565b5f5ffd5b5f5ffd5b7f4e487b71000000000000000000000000000000000000000000000000000000005f52604160045260245ffd5b611a4482611762565b810181811067ffffffffffffffff82111715611a6357611a62611a0e565b5b80604052505050565b5f611a75611566565b9050611a818282611a3b565b919050565b5f67ffffffffffffffff821115611aa057611a9f611a0e565b5b611aa982611762565b9050602081019050919050565b828183375f83830152505050565b5f611ad6611ad184611a86565b611a6c565b905082815260208101848484011115611af257611af1611a0a565b5b611afd848285611ab6565b509392505050565b5f82601f830112611b1957611b18611a06565b5b8135611b29848260208601611ac4565b91505092915050565b5f5f5f5f60808587031215611b4a57611b4961156f565b5b5f611b5787828801611596565b945050602085013567ffffffffffffffff811115611b7857611b77611573565b5b611b8487828801611b05565b9350506040611b9587828801611596565b925050606085013567ffffffffffffffff811115611bb657611bb5611573565b5b611bc287828801611b05565b91505092959194509250565b5f602082019050611be15f8301846118a6565b92915050565b5f5f5f60608486031215611bfe57611bfd61156f565b5b5f611c0b86828701611596565b935050602084013567ffffffffffffffff811115611c2c57611c2b611573565b5b611c3886828701611b05565b9250506040611c4986828701611596565b9150509250925092565b5f5f5f5f5f5f5f60e0888a031215611c6e57611c6d61156f565b5b5f611c7b8a828b01611596565b975050602088013567ffffffffffffffff811115611c9c57611c9b611573565b5b611ca88a828b01611b05565b9650506040611cb98a828b01611596565b955050606088013567ffffffffffffffff811115611cda57611cd9611573565b5b611ce68a828b01611b05565b945050608088013567ffffffffffffffff811115611d0757611d06611573565b5b611d138a828b01611b05565b93505060a0611d248a828b01611596565b92505060c0611d358a828b016115cb565b91505092959891949750929550565b7f5061727469636970616e74206e6f7420666f756e6400000000000000000000005f82015250565b5f611d786015836118b5565b9150611d8382611d44565b602082019050919050565b5f6020820190508181035f830152611da581611d6c565b9050919050565b7f496e76616c696420747261696e696e6720696e746572657374000000000000005f82015250565b5f611de06019836118b5565b9150611deb82611dac565b602082019050919050565b5f6020820190508181035f830152611e0d81611dd4565b9050919050565b7f43616e6e6f74206368616e676520636f6d706c657465642066726f6d207472755f8201527f6520746f2066616c736500000000000000000000000000000000000000000000602082015250565b5f611e6e602a836118b5565b9150611e7982611e14565b604082019050919050565b5f6020820190508181035f830152611e9b81611e62565b9050919050565b7f4e487b71000000000000000000000000000000000000000000000000000000005f52602160045260245ffd5b7f547261696e6572206e6f7420666f756e640000000000000000000000000000005f82015250565b5f611f036011836118b5565b9150611f0e82611ecf565b602082019050919050565b5f6020820190508181035f830152611f3081611ef7565b9050919050565b7f4e487b71000000000000000000000000000000000000000000000000000000005f52601160045260245ffd5b5f611f6e82611577565b91507fffffffffffffffffffffffffffffffffffffffffffffffffffffffffffffffff8203611fa057611f9f611f37565b5b600182019050919050565b7f4e487b71000000000000000000000000000000000000000000000000000000005f52603260045260245ffd5b7f4e487b71000000000000000000000000000000000000000000000000000000005f52601260045260245ffd5b5f61200f82611577565b915061201a83611577565b92508261202a57612029611fd8565b5b828204905092915050565b5f61203f82611577565b915061204a83611577565b92508261205a57612059611fd8565b5b828206905092915050565b5f61206f82611577565b915061207a83611577565b925082820261208881611577565b9150828204841483151761209f5761209e611f37565b5b5092915050565b5f6120b082611577565b91506120bb83611577565b92508282019050808211156120d3576120d2611f37565b5b92915050565b5f81905092915050565b5f6120ed8261173a565b6120f781856120d9565b9350612107818560208601611754565b80840191505092915050565b7f3a000000000000000000000000000000000000000000000000000000000000005f82015250565b5f6121476001836120d9565b915061215282612113565b600182019050919050565b7f2d000000000000000000000000000000000000000000000000000000000000005f82015250565b5f6121916001836120d9565b915061219c8261215d565b600182019050919050565b5f6121b282876120e3565b91506121bd8261213b565b91506121c982866120e3565b91506121d482612185565b91506121e082856120e3565b91506121eb8261213b565b91506121f782846120e3565b915081905095945050505050565b7f4e487b71000000000000000000000000000000000000000000000000000000005f52602260045260245ffd5b5f600282049050600182168061224957607f821691505b60208210810361225c5761225b612205565b5b50919050565b7f496e73756666696369656e74207061727469636970616e742062616c616e63655f82015250565b5f6122966020836118b5565b91506122a182612262565b602082019050919050565b5f6020820190508181035f8301526122c38161228a565b9050919050565b7f4e6f2061646d696e7320617661696c61626c65000000000000000000000000005f82015250565b5f6122fe6013836118b5565b9150612309826122ca565b602082019050919050565b5f6020820190508181035f83015261232b816122f2565b9050919050565b7f496e76616c696420736c6f7420494400000000000000000000000000000000005f82015250565b5f612366600f836118b5565b915061237182612332565b602082019050919050565b5f6020820190508181035f8301526123938161235a565b9050919050565b7f536c6f7420697320616c726561647920626f6f6b6564000000000000000000005f82015250565b5f6123ce6016836118b5565b91506123d98261239a565b602082019050919050565b5f6020820190508181035f8301526123fb816123c2565b9050919050565b5f819050919050565b61241c61241782611577565b612402565b82525050565b5f61242d828661240b565b60208201915061243d828561240b565b60208201915061244d828461240b565b602082019150819050949350505050565b5f61246882611577565b915061247383611577565b925082820390508181111561248b5761248a611f37565b5b92915050565b7f496e76616c6964206167650000000000000000000000000000000000000000005f82015250565b5f6124c5600b836118b5565b91506124d082612491565b602082019050919050565b5f6020820190508181035f8301526124f2816124b9565b9050919050565b7f496e76616c6964204944000000000000000000000000000000000000000000005f82015250565b5f61252d600a836118b5565b9150612538826124f9565b602082019050919050565b5f6020820190508181035f83015261255a81612521565b9050919050565b7f547261696e657220494420616c726561647920657869737473000000000000005f82015250565b5f6125956019836118b5565b91506125a082612561565b602082019050919050565b5f6020820190508181035f8301526125c281612589565b9050919050565b5f819050815f5260205f209050919050565b5f6020601f8301049050919050565b5f82821b905092915050565b5f600883026126257fffffffffffffffffffffffffffffffffffffffffffffffffffffffffffffffff826125ea565b61262f86836125ea565b95508019841693508086168417925050509392505050565b5f819050919050565b5f61266a61266561266084611577565b612647565b611577565b9050919050565b5f819050919050565b61268383612650565b61269761268f82612671565b8484546125f6565b825550505050565b5f5f905090565b6126ae61269f565b6126b981848461267a565b505050565b5b818110156126dc576126d15f826126a6565b6001810190506126bf565b5050565b601f821115612721576126f2816125c9565b6126fb846125db565b8101602085101561270a578190505b61271e612716856125db565b8301826126be565b50505b505050565b5f82821c905092915050565b5f6127415f1984600802612726565b1980831691505092915050565b5f6127598383612732565b9150826002028217905092915050565b6127728261173a565b67ffffffffffffffff81111561278b5761278a611a0e565b5b6127958254612232565b6127a08282856126e0565b5f60209050601f8311600181146127d1575f84156127bf578287015190505b6127c9858261274e565b865550612830565b601f1984166127df866125c9565b5f5b82811015612806578489015182556001820191506020850194506020810190506127e1565b86831015612823578489015161281f601f891682612732565b8355505b6001600288020188555050505b505050505050565b7f41646d696e20494420616c7265616479206578697374730000000000000000005f82015250565b5f61286c6017836118b5565b915061287782612838565b602082019050919050565b5f6020820190508181035f83015261289981612860565b9050919050565b7f5061727469636970616e7420494420616c7265616479206578697374730000005f82015250565b5f6128d4601d836118b5565b91506128df826128a0565b602082019050919050565b5f6020820190508181035f830152612901816128c8565b9050919050565b7f30000000000000000000000000000000000000000000000000000000000000005f82015250565b5f61293c6001836120d9565b915061294782612908565b600182019050919050565b5f7fff0000000000000000000000000000000000000000000000000000000000000082169050919050565b5f819050919050565b61299761299282612952565b61297d565b82525050565b5f6129a782612930565b91506129b38284612986565b6001820191508190509291505056fea2646970667358221220221cc609908bd808cae28b8c8e2b90b8d09ebb00776999d1770cdc73671e9f6d64736f6c634300081e0033",
					"opcodes": "PUSH1 0x80 PUSH1 0x40 MSTORE CALLVALUE DUP1 ISZERO PUSH1 0xE JUMPI PUSH0 PUSH0 REVERT JUMPDEST POP PUSH0 PUSH0 DUP2 SWAP1 SSTORE POP PUSH0 PUSH1 0x1 DUP2 SWAP1 SSTORE POP PUSH0 PUSH1 0x2 DUP2 SWAP1 SSTORE POP PUSH2 0x29F8 DUP1 PUSH2 0x30 PUSH0 CODECOPY PUSH0 RETURN INVALID PUSH1 0x80 PUSH1 0x40 MSTORE CALLVALUE DUP1 ISZERO PUSH2 0xF JUMPI PUSH0 PUSH0 REVERT JUMPDEST POP PUSH1 0x4 CALLDATASIZE LT PUSH2 0x86 JUMPI PUSH0 CALLDATALOAD PUSH1 0xE0 SHR DUP1 PUSH4 0x6620F95F GT PUSH2 0x59 JUMPI DUP1 PUSH4 0x6620F95F EQ PUSH2 0x12D JUMPI DUP1 PUSH4 0x6C80CD33 EQ PUSH2 0x15D JUMPI DUP1 PUSH4 0x710E2ABA EQ PUSH2 0x18D JUMPI DUP1 PUSH4 0xA30B027B EQ PUSH2 0x1BD JUMPI PUSH2 0x86 JUMP JUMPDEST DUP1 PUSH4 0x3A7002E1 EQ PUSH2 0x8A JUMPI DUP1 PUSH4 0x51ECA4DD EQ PUSH2 0xA6 JUMPI DUP1 PUSH4 0x5A29DC29 EQ PUSH2 0xD7 JUMPI DUP1 PUSH4 0x5FFC80F2 EQ PUSH2 0xF6 JUMPI JUMPDEST PUSH0 PUSH0 REVERT JUMPDEST PUSH2 0xA4 PUSH1 0x4 DUP1 CALLDATASIZE SUB DUP2 ADD SWAP1 PUSH2 0x9F SWAP2 SWAP1 PUSH2 0x15DF JUMP JUMPDEST PUSH2 0x1ED JUMP JUMPDEST STOP JUMPDEST PUSH2 0xC0 PUSH1 0x4 DUP1 CALLDATASIZE SUB DUP2 ADD SWAP1 PUSH2 0xBB SWAP2 SWAP1 PUSH2 0x162F JUMP JUMPDEST PUSH2 0x353 JUMP JUMPDEST PUSH1 0x40 MLOAD PUSH2 0xCE SWAP3 SWAP2 SWAP1 PUSH2 0x183C JUMP JUMPDEST PUSH1 0x40 MLOAD DUP1 SWAP2 SUB SWAP1 RETURN JUMPDEST PUSH2 0xDF PUSH2 0x6D5 JUMP JUMPDEST PUSH1 0x40 MLOAD PUSH2 0xED SWAP3 SWAP2 SWAP1 PUSH2 0x1871 JUMP JUMPDEST PUSH1 0x40 MLOAD DUP1 SWAP2 SUB SWAP1 RETURN JUMPDEST PUSH2 0x110 PUSH1 0x4 DUP1 CALLDATASIZE SUB DUP2 ADD SWAP1 PUSH2 0x10B SWAP2 SWAP1 PUSH2 0x162F JUMP JUMPDEST PUSH2 0x81F JUMP JUMPDEST PUSH1 0x40 MLOAD PUSH2 0x124 SWAP9 SWAP8 SWAP7 SWAP6 SWAP5 SWAP4 SWAP3 SWAP2 SWAP1 PUSH2 0x190C JUMP JUMPDEST PUSH1 0x40 MLOAD DUP1 SWAP2 SUB SWAP1 RETURN JUMPDEST PUSH2 0x147 PUSH1 0x4 DUP1 CALLDATASIZE SUB DUP2 ADD SWAP1 PUSH2 0x142 SWAP2 SWAP1 PUSH2 0x199D JUMP JUMPDEST PUSH2 0xB15 JUMP JUMPDEST PUSH1 0x40 MLOAD PUSH2 0x154 SWAP2 SWAP1 PUSH2 0x19ED JUMP JUMPDEST PUSH1 0x40 MLOAD DUP1 SWAP2 SUB SWAP1 RETURN JUMPDEST PUSH2 0x177 PUSH1 0x4 DUP1 CALLDATASIZE SUB DUP2 ADD SWAP1 PUSH2 0x172 SWAP2 SWAP1 PUSH2 0x1B32 JUMP JUMPDEST PUSH2 0xE6C JUMP JUMPDEST PUSH1 0x40 MLOAD PUSH2 0x184 SWAP2 SWAP1 PUSH2 0x1BCE JUMP JUMPDEST PUSH1 0x40 MLOAD DUP1 SWAP2 SUB SWAP1 RETURN JUMPDEST PUSH2 0x1A7 PUSH1 0x4 DUP1 CALLDATASIZE SUB DUP2 ADD SWAP1 PUSH2 0x1A2 SWAP2 SWAP1 PUSH2 0x1BE7 JUMP JUMPDEST PUSH2 0xFDB JUMP JUMPDEST PUSH1 0x40 MLOAD PUSH2 0x1B4 SWAP2 SWAP1 PUSH2 0x1BCE JUMP JUMPDEST PUSH1 0x40 MLOAD DUP1 SWAP2 SUB SWAP1 RETURN JUMPDEST PUSH2 0x1D7 PUSH1 0x4 DUP1 CALLDATASIZE SUB DUP2 ADD SWAP1 PUSH2 0x1D2 SWAP2 SWAP1 PUSH2 0x1C53 JUMP JUMPDEST PUSH2 0x1162 JUMP JUMPDEST PUSH1 0x40 MLOAD PUSH2 0x1E4 SWAP2 SWAP1 PUSH2 0x1BCE JUMP JUMPDEST PUSH1 0x40 MLOAD DUP1 SWAP2 SUB SWAP1 RETURN JUMPDEST PUSH0 PUSH1 0x5 PUSH0 DUP6 DUP2 MSTORE PUSH1 0x20 ADD SWAP1 DUP2 MSTORE PUSH1 0x20 ADD PUSH0 KECCAK256 PUSH0 ADD SLOAD SUB PUSH2 0x242 JUMPI PUSH1 0x40 MLOAD PUSH32 0x8C379A000000000000000000000000000000000000000000000000000000000 DUP2 MSTORE PUSH1 0x4 ADD PUSH2 0x239 SWAP1 PUSH2 0x1D8E JUMP JUMPDEST PUSH1 0x40 MLOAD DUP1 SWAP2 SUB SWAP1 REVERT JUMPDEST PUSH1 0x2 DUP3 GT ISZERO PUSH2 0x286 JUMPI PUSH1 0x40 MLOAD PUSH32 0x8C379A000000000000000000000000000000000000000000000000000000000 DUP2 MSTORE PUSH1 0x4 ADD PUSH2 0x27D SWAP1 PUSH2 0x1DF6 JUMP JUMPDEST PUSH1 0x40 MLOAD DUP1 SWAP2 SUB SWAP1 REVERT JUMPDEST PUSH0 PUSH1 0x5 PUSH0 DUP6 DUP2 MSTORE PUSH1 0x20 ADD SWAP1 DUP2 MSTORE PUSH1 0x20 ADD PUSH0 KECCAK256 SWAP1 POP DUP1 PUSH1 0x5 ADD PUSH1 0x1 SWAP1 SLOAD SWAP1 PUSH2 0x100 EXP SWAP1 DIV PUSH1 0xFF AND ISZERO DUP1 PUSH2 0x2B5 JUMPI POP DUP2 JUMPDEST PUSH2 0x2F4 JUMPI PUSH1 0x40 MLOAD PUSH32 0x8C379A000000000000000000000000000000000000000000000000000000000 DUP2 MSTORE PUSH1 0x4 ADD PUSH2 0x2EB SWAP1 PUSH2 0x1E84 JUMP JUMPDEST PUSH1 0x40 MLOAD DUP1 SWAP2 SUB SWAP1 REVERT JUMPDEST DUP3 PUSH1 0x2 DUP2 GT ISZERO PUSH2 0x307 JUMPI PUSH2 0x306 PUSH2 0x1EA2 JUMP JUMPDEST JUMPDEST DUP2 PUSH1 0x5 ADD PUSH0 PUSH2 0x100 EXP DUP2 SLOAD DUP2 PUSH1 0xFF MUL NOT AND SWAP1 DUP4 PUSH1 0x2 DUP2 GT ISZERO PUSH2 0x32C JUMPI PUSH2 0x32B PUSH2 0x1EA2 JUMP JUMPDEST JUMPDEST MUL OR SWAP1 SSTORE POP DUP2 DUP2 PUSH1 0x5 ADD PUSH1 0x1 PUSH2 0x100 EXP DUP2 SLOAD DUP2 PUSH1 0xFF MUL NOT AND SWAP1 DUP4 ISZERO ISZERO MUL OR SWAP1 SSTORE POP POP POP POP POP JUMP JUMPDEST PUSH1 0x60 DUP1 PUSH0 PUSH1 0x4 PUSH0 DUP6 DUP2 MSTORE PUSH1 0x20 ADD SWAP1 DUP2 MSTORE PUSH1 0x20 ADD PUSH0 KECCAK256 PUSH0 ADD SLOAD SUB PUSH2 0x3AB JUMPI PUSH1 0x40 MLOAD PUSH32 0x8C379A000000000000000000000000000000000000000000000000000000000 DUP2 MSTORE PUSH1 0x4 ADD PUSH2 0x3A2 SWAP1 PUSH2 0x1F19 JUMP JUMPDEST PUSH1 0x40 MLOAD DUP1 SWAP2 SUB SWAP1 REVERT JUMPDEST PUSH0 PUSH0 SWAP1 POP PUSH0 PUSH0 SWAP1 POP JUMPDEST PUSH1 0x30 DUP2 LT ISZERO PUSH2 0x40D JUMPI PUSH1 0x6 PUSH0 DUP7 DUP2 MSTORE PUSH1 0x20 ADD SWAP1 DUP2 MSTORE PUSH1 0x20 ADD PUSH0 KECCAK256 PUSH0 DUP3 DUP2 MSTORE PUSH1 0x20 ADD SWAP1 DUP2 MSTORE PUSH1 0x20 ADD PUSH0 KECCAK256 PUSH1 0x3 ADD PUSH0 SWAP1 SLOAD SWAP1 PUSH2 0x100 EXP SWAP1 DIV PUSH1 0xFF AND PUSH2 0x400 JUMPI DUP2 DUP1 PUSH2 0x3FC SWAP1 PUSH2 0x1F64 JUMP JUMPDEST SWAP3 POP POP JUMPDEST DUP1 DUP1 PUSH1 0x1 ADD SWAP2 POP POP PUSH2 0x3B4 JUMP JUMPDEST POP DUP1 PUSH8 0xFFFFFFFFFFFFFFFF DUP2 GT ISZERO PUSH2 0x428 JUMPI PUSH2 0x427 PUSH2 0x1A0E JUMP JUMPDEST JUMPDEST PUSH1 0x40 MLOAD SWAP1 DUP1 DUP3 MSTORE DUP1 PUSH1 0x20 MUL PUSH1 0x20 ADD DUP3 ADD PUSH1 0x40 MSTORE DUP1 ISZERO PUSH2 0x456 JUMPI DUP2 PUSH1 0x20 ADD PUSH1 0x20 DUP3 MUL DUP1 CALLDATASIZE DUP4 CALLDATACOPY DUP1 DUP3 ADD SWAP2 POP POP SWAP1 POP JUMPDEST POP SWAP3 POP DUP1 PUSH8 0xFFFFFFFFFFFFFFFF DUP2 GT ISZERO PUSH2 0x473 JUMPI PUSH2 0x472 PUSH2 0x1A0E JUMP JUMPDEST JUMPDEST PUSH1 0x40 MLOAD SWAP1 DUP1 DUP3 MSTORE DUP1 PUSH1 0x20 MUL PUSH1 0x20 ADD DUP3 ADD PUSH1 0x40 MSTORE DUP1 ISZERO PUSH2 0x4A6 JUMPI DUP2 PUSH1 0x20 ADD JUMPDEST PUSH1 0x60 DUP2 MSTORE PUSH1 0x20 ADD SWAP1 PUSH1 0x1 SWAP1 SUB SWAP1 DUP2 PUSH2 0x491 JUMPI SWAP1 POP JUMPDEST POP SWAP2 POP PUSH0 PUSH0 SWAP1 POP PUSH0 PUSH0 SWAP1 POP JUMPDEST PUSH1 0x30 DUP2 LT ISZERO PUSH2 0x6CD JUMPI PUSH1 0x6 PUSH0 DUP8 DUP2 MSTORE PUSH1 0x20 ADD SWAP1 DUP2 MSTORE PUSH1 0x20 ADD PUSH0 KECCAK256 PUSH0 DUP3 DUP2 MSTORE PUSH1 0x20 ADD SWAP1 DUP2 MSTORE PUSH1 0x20 ADD PUSH0 KECCAK256 PUSH1 0x3 ADD PUSH0 SWAP1 SLOAD SWAP1 PUSH2 0x100 EXP SWAP1 DIV PUSH1 0xFF AND PUSH2 0x6C0 JUMPI DUP1 DUP6 DUP4 DUP2 MLOAD DUP2 LT PUSH2 0x503 JUMPI PUSH2 0x502 PUSH2 0x1FAB JUMP JUMPDEST JUMPDEST PUSH1 0x20 MUL PUSH1 0x20 ADD ADD DUP2 DUP2 MSTORE POP POP PUSH0 PUSH1 0x2 DUP3 PUSH2 0x51D SWAP2 SWAP1 PUSH2 0x2005 JUMP JUMPDEST SWAP1 POP PUSH0 PUSH1 0x1E PUSH1 0x2 DUP5 PUSH2 0x52F SWAP2 SWAP1 PUSH2 0x2035 JUMP JUMPDEST PUSH2 0x539 SWAP2 SWAP1 PUSH2 0x2065 JUMP JUMPDEST SWAP1 POP PUSH0 DUP3 SWAP1 POP PUSH0 PUSH1 0x1E DUP4 PUSH2 0x54D SWAP2 SWAP1 PUSH2 0x20A6 JUMP JUMPDEST SWAP1 POP PUSH1 0x3C DUP2 SUB PUSH2 0x569 JUMPI DUP2 DUP1 PUSH2 0x562 SWAP1 PUSH2 0x1F64 JUMP JUMPDEST SWAP3 POP POP PUSH0 SWAP1 POP JUMPDEST PUSH2 0x572 DUP5 PUSH2 0x13CE JUMP JUMPDEST PUSH0 DUP5 EQ PUSH2 0x5B4 JUMPI PUSH1 0x40 MLOAD DUP1 PUSH1 0x40 ADD PUSH1 0x40 MSTORE DUP1 PUSH1 0x2 DUP2 MSTORE PUSH1 0x20 ADD PUSH32 0x3330000000000000000000000000000000000000000000000000000000000000 DUP2 MSTORE POP PUSH2 0x5EB JUMP JUMPDEST PUSH1 0x40 MLOAD DUP1 PUSH1 0x40 ADD PUSH1 0x40 MSTORE DUP1 PUSH1 0x2 DUP2 MSTORE PUSH1 0x20 ADD PUSH32 0x3030000000000000000000000000000000000000000000000000000000000000 DUP2 MSTORE POP JUMPDEST PUSH2 0x5F4 DUP5 PUSH2 0x13CE JUMP JUMPDEST PUSH0 DUP5 EQ PUSH2 0x636 JUMPI PUSH1 0x40 MLOAD DUP1 PUSH1 0x40 ADD PUSH1 0x40 MSTORE DUP1 PUSH1 0x2 DUP2 MSTORE PUSH1 0x20 ADD PUSH32 0x3330000000000000000000000000000000000000000000000000000000000000 DUP2 MSTORE POP PUSH2 0x66D JUMP JUMPDEST PUSH1 0x40 MLOAD DUP1 PUSH1 0x40 ADD PUSH1 0x40 MSTORE DUP1 PUSH1 0x2 DUP2 MSTORE PUSH1 0x20 ADD PUSH32 0x3030000000000000000000000000000000000000000000000000000000000000 DUP2 MSTORE POP JUMPDEST PUSH1 0x40 MLOAD PUSH1 0x20 ADD PUSH2 0x680 SWAP5 SWAP4 SWAP3 SWAP2 SWAP1 PUSH2 0x21A7 JUMP JUMPDEST PUSH1 0x40 MLOAD PUSH1 0x20 DUP2 DUP4 SUB SUB DUP2 MSTORE SWAP1 PUSH1 0x40 MSTORE DUP9 DUP8 DUP2 MLOAD DUP2 LT PUSH2 0x6A2 JUMPI PUSH2 0x6A1 PUSH2 0x1FAB JUMP JUMPDEST JUMPDEST PUSH1 0x20 MUL PUSH1 0x20 ADD ADD DUP2 SWAP1 MSTORE POP DUP6 DUP1 PUSH2 0x6B8 SWAP1 PUSH2 0x1F64 JUMP JUMPDEST SWAP7 POP POP POP POP POP POP JUMPDEST DUP1 DUP1 PUSH1 0x1 ADD SWAP2 POP POP PUSH2 0x4B2 JUMP JUMPDEST POP POP POP SWAP2 POP SWAP2 JUMP JUMPDEST PUSH1 0x60 DUP1 PUSH0 PUSH1 0x7 DUP1 SLOAD SWAP1 POP SWAP1 POP DUP1 PUSH8 0xFFFFFFFFFFFFFFFF DUP2 GT ISZERO PUSH2 0x6FB JUMPI PUSH2 0x6FA PUSH2 0x1A0E JUMP JUMPDEST JUMPDEST PUSH1 0x40 MLOAD SWAP1 DUP1 DUP3 MSTORE DUP1 PUSH1 0x20 MUL PUSH1 0x20 ADD DUP3 ADD PUSH1 0x40 MSTORE DUP1 ISZERO PUSH2 0x729 JUMPI DUP2 PUSH1 0x20 ADD PUSH1 0x20 DUP3 MUL DUP1 CALLDATASIZE DUP4 CALLDATACOPY DUP1 DUP3 ADD SWAP2 POP POP SWAP1 POP JUMPDEST POP SWAP3 POP DUP1 PUSH8 0xFFFFFFFFFFFFFFFF DUP2 GT ISZERO PUSH2 0x746 JUMPI PUSH2 0x745 PUSH2 0x1A0E JUMP JUMPDEST JUMPDEST PUSH1 0x40 MLOAD SWAP1 DUP1 DUP3 MSTORE DUP1 PUSH1 0x20 MUL PUSH1 0x20 ADD DUP3 ADD PUSH1 0x40 MSTORE DUP1 ISZERO PUSH2 0x774 JUMPI DUP2 PUSH1 0x20 ADD PUSH1 0x20 DUP3 MUL DUP1 CALLDATASIZE DUP4 CALLDATACOPY DUP1 DUP3 ADD SWAP2 POP POP SWAP1 POP JUMPDEST POP SWAP2 POP PUSH0 PUSH0 SWAP1 POP JUMPDEST DUP2 DUP2 LT ISZERO PUSH2 0x819 JUMPI PUSH0 PUSH1 0x7 DUP3 DUP2 SLOAD DUP2 LT PUSH2 0x799 JUMPI PUSH2 0x798 PUSH2 0x1FAB JUMP JUMPDEST JUMPDEST SWAP1 PUSH0 MSTORE PUSH1 0x20 PUSH0 KECCAK256 ADD SLOAD SWAP1 POP DUP1 DUP6 DUP4 DUP2 MLOAD DUP2 LT PUSH2 0x7B8 JUMPI PUSH2 0x7B7 PUSH2 0x1FAB JUMP JUMPDEST JUMPDEST PUSH1 0x20 MUL PUSH1 0x20 ADD ADD DUP2 DUP2 MSTORE POP POP PUSH8 0xDE0B6B3A7640000 PUSH1 0x3 PUSH0 DUP4 DUP2 MSTORE PUSH1 0x20 ADD SWAP1 DUP2 MSTORE PUSH1 0x20 ADD PUSH0 KECCAK256 PUSH1 0x3 ADD SLOAD PUSH2 0x7EC SWAP2 SWAP1 PUSH2 0x2005 JUMP JUMPDEST DUP5 DUP4 DUP2 MLOAD DUP2 LT PUSH2 0x7FF JUMPI PUSH2 0x7FE PUSH2 0x1FAB JUMP JUMPDEST JUMPDEST PUSH1 0x20 MUL PUSH1 0x20 ADD ADD DUP2 DUP2 MSTORE POP POP POP DUP1 DUP1 PUSH1 0x1 ADD SWAP2 POP POP PUSH2 0x77C JUMP JUMPDEST POP POP SWAP1 SWAP2 JUMP JUMPDEST PUSH0 PUSH1 0x60 PUSH0 PUSH1 0x60 DUP1 PUSH0 PUSH0 PUSH0 PUSH0 PUSH1 0x5 PUSH0 DUP12 DUP2 MSTORE PUSH1 0x20 ADD SWAP1 DUP2 MSTORE PUSH1 0x20 ADD PUSH0 KECCAK256 PUSH0 ADD SLOAD SUB PUSH2 0x87E JUMPI PUSH1 0x40 MLOAD PUSH32 0x8C379A000000000000000000000000000000000000000000000000000000000 DUP2 MSTORE PUSH1 0x4 ADD PUSH2 0x875 SWAP1 PUSH2 0x1D8E JUMP JUMPDEST PUSH1 0x40 MLOAD DUP1 SWAP2 SUB SWAP1 REVERT JUMPDEST PUSH0 PUSH1 0x5 PUSH0 DUP12 DUP2 MSTORE PUSH1 0x20 ADD SWAP1 DUP2 MSTORE PUSH1 0x20 ADD PUSH0 KECCAK256 PUSH1 0x40 MLOAD DUP1 PUSH2 0x100 ADD PUSH1 0x40 MSTORE SWAP1 DUP2 PUSH0 DUP3 ADD SLOAD DUP2 MSTORE PUSH1 0x20 ADD PUSH1 0x1 DUP3 ADD DUP1 SLOAD PUSH2 0x8B5 SWAP1 PUSH2 0x2232 JUMP JUMPDEST DUP1 PUSH1 0x1F ADD PUSH1 0x20 DUP1 SWAP2 DIV MUL PUSH1 0x20 ADD PUSH1 0x40 MLOAD SWAP1 DUP2 ADD PUSH1 0x40 MSTORE DUP1 SWAP3 SWAP2 SWAP1 DUP2 DUP2 MSTORE PUSH1 0x20 ADD DUP3 DUP1 SLOAD PUSH2 0x8E1 SWAP1 PUSH2 0x2232 JUMP JUMPDEST DUP1 ISZERO PUSH2 0x92C JUMPI DUP1 PUSH1 0x1F LT PUSH2 0x903 JUMPI PUSH2 0x100 DUP1 DUP4 SLOAD DIV MUL DUP4 MSTORE SWAP2 PUSH1 0x20 ADD SWAP2 PUSH2 0x92C JUMP JUMPDEST DUP3 ADD SWAP2 SWAP1 PUSH0 MSTORE PUSH1 0x20 PUSH0 KECCAK256 SWAP1 JUMPDEST DUP2 SLOAD DUP2 MSTORE SWAP1 PUSH1 0x1 ADD SWAP1 PUSH1 0x20 ADD DUP1 DUP4 GT PUSH2 0x90F JUMPI DUP3 SWAP1 SUB PUSH1 0x1F AND DUP3 ADD SWAP2 JUMPDEST POP POP POP POP POP DUP2 MSTORE PUSH1 0x20 ADD PUSH1 0x2 DUP3 ADD SLOAD DUP2 MSTORE PUSH1 0x20 ADD PUSH1 0x3 DUP3 ADD DUP1 SLOAD PUSH2 0x94F SWAP1 PUSH2 0x2232 JUMP JUMPDEST DUP1 PUSH1 0x1F ADD PUSH1 0x20 DUP1 SWAP2 DIV MUL PUSH1 0x20 ADD PUSH1 0x40 MLOAD SWAP1 DUP2 ADD PUSH1 0x40 MSTORE DUP1 SWAP3 SWAP2 SWAP1 DUP2 DUP2 MSTORE PUSH1 0x20 ADD DUP3 DUP1 SLOAD PUSH2 0x97B SWAP1 PUSH2 0x2232 JUMP JUMPDEST DUP1 ISZERO PUSH2 0x9C6 JUMPI DUP1 PUSH1 0x1F LT PUSH2 0x99D JUMPI PUSH2 0x100 DUP1 DUP4 SLOAD DIV MUL DUP4 MSTORE SWAP2 PUSH1 0x20 ADD SWAP2 PUSH2 0x9C6 JUMP JUMPDEST DUP3 ADD SWAP2 SWAP1 PUSH0 MSTORE PUSH1 0x20 PUSH0 KECCAK256 SWAP1 JUMPDEST DUP2 SLOAD DUP2 MSTORE SWAP1 PUSH1 0x1 ADD SWAP1 PUSH1 0x20 ADD DUP1 DUP4 GT PUSH2 0x9A9 JUMPI DUP3 SWAP1 SUB PUSH1 0x1F AND DUP3 ADD SWAP2 JUMPDEST POP POP POP POP POP DUP2 MSTORE PUSH1 0x20 ADD PUSH1 0x4 DUP3 ADD DUP1 SLOAD PUSH2 0x9DF SWAP1 PUSH2 0x2232 JUMP JUMPDEST DUP1 PUSH1 0x1F ADD PUSH1 0x20 DUP1 SWAP2 DIV MUL PUSH1 0x20 ADD PUSH1 0x40 MLOAD SWAP1 DUP2 ADD PUSH1 0x40 MSTORE DUP1 SWAP3 SWAP2 SWAP1 DUP2 DUP2 MSTORE PUSH1 0x20 ADD DUP3 DUP1 SLOAD PUSH2 0xA0B SWAP1 PUSH2 0x2232 JUMP JUMPDEST DUP1 ISZERO PUSH2 0xA56 JUMPI DUP1 PUSH1 0x1F LT PUSH2 0xA2D JUMPI PUSH2 0x100 DUP1 DUP4 SLOAD DIV MUL DUP4 MSTORE SWAP2 PUSH1 0x20 ADD SWAP2 PUSH2 0xA56 JUMP JUMPDEST DUP3 ADD SWAP2 SWAP1 PUSH0 MSTORE PUSH1 0x20 PUSH0 KECCAK256 SWAP1 JUMPDEST DUP2 SLOAD DUP2 MSTORE SWAP1 PUSH1 0x1 ADD SWAP1 PUSH1 0x20 ADD DUP1 DUP4 GT PUSH2 0xA39 JUMPI DUP3 SWAP1 SUB PUSH1 0x1F AND DUP3 ADD SWAP2 JUMPDEST POP POP POP POP POP DUP2 MSTORE PUSH1 0x20 ADD PUSH1 0x5 DUP3 ADD PUSH0 SWAP1 SLOAD SWAP1 PUSH2 0x100 EXP SWAP1 DIV PUSH1 0xFF AND PUSH1 0x2 DUP2 GT ISZERO PUSH2 0xA83 JUMPI PUSH2 0xA82 PUSH2 0x1EA2 JUMP JUMPDEST JUMPDEST PUSH1 0x2 DUP2 GT ISZERO PUSH2 0xA95 JUMPI PUSH2 0xA94 PUSH2 0x1EA2 JUMP JUMPDEST JUMPDEST DUP2 MSTORE PUSH1 0x20 ADD PUSH1 0x5 DUP3 ADD PUSH1 0x1 SWAP1 SLOAD SWAP1 PUSH2 0x100 EXP SWAP1 DIV PUSH1 0xFF AND ISZERO ISZERO ISZERO ISZERO DUP2 MSTORE PUSH1 0x20 ADD PUSH1 0x6 DUP3 ADD SLOAD DUP2 MSTORE POP POP SWAP1 POP DUP1 PUSH0 ADD MLOAD DUP2 PUSH1 0x20 ADD MLOAD DUP3 PUSH1 0x40 ADD MLOAD DUP4 PUSH1 0x60 ADD MLOAD DUP5 PUSH1 0x80 ADD MLOAD DUP6 PUSH1 0xA0 ADD MLOAD PUSH1 0x2 DUP2 GT ISZERO PUSH2 0xAEF JUMPI PUSH2 0xAEE PUSH2 0x1EA2 JUMP JUMPDEST JUMPDEST DUP7 PUSH1 0xC0 ADD MLOAD DUP8 PUSH1 0xE0 ADD MLOAD SWAP9 POP SWAP9 POP SWAP9 POP SWAP9 POP SWAP9 POP SWAP9 POP SWAP9 POP SWAP9 POP POP SWAP2 SWAP4 SWAP6 SWAP8 POP SWAP2 SWAP4 SWAP6 SWAP8 JUMP JUMPDEST PUSH0 PUSH0 PUSH1 0x4 PUSH0 DUP7 DUP2 MSTORE PUSH1 0x20 ADD SWAP1 DUP2 MSTORE PUSH1 0x20 ADD PUSH0 KECCAK256 PUSH0 ADD SLOAD SUB PUSH2 0xB6B JUMPI PUSH1 0x40 MLOAD PUSH32 0x8C379A000000000000000000000000000000000000000000000000000000000 DUP2 MSTORE PUSH1 0x4 ADD PUSH2 0xB62 SWAP1 PUSH2 0x1F19 JUMP JUMPDEST PUSH1 0x40 MLOAD DUP1 SWAP2 SUB SWAP1 REVERT JUMPDEST PUSH0 PUSH1 0x5 PUSH0 DUP6 DUP2 MSTORE PUSH1 0x20 ADD SWAP1 DUP2 MSTORE PUSH1 0x20 ADD PUSH0 KECCAK256 PUSH0 ADD SLOAD SUB PUSH2 0xBC0 JUMPI PUSH1 0x40 MLOAD PUSH32 0x8C379A000000000000000000000000000000000000000000000000000000000 DUP2 MSTORE PUSH1 0x4 ADD PUSH2 0xBB7 SWAP1 PUSH2 0x1D8E JUMP JUMPDEST PUSH1 0x40 MLOAD DUP1 SWAP2 SUB SWAP1 REVERT JUMPDEST PUSH8 0xDE0B6B3A7640000 PUSH1 0x5 PUSH0 DUP6 DUP2 MSTORE PUSH1 0x20 ADD SWAP1 DUP2 MSTORE PUSH1 0x20 ADD PUSH0 KECCAK256 PUSH1 0x6 ADD SLOAD LT ISZERO PUSH2 0xC1F JUMPI PUSH1 0x40 MLOAD PUSH32 0x8C379A000000000000000000000000000000000000000000000000000000000 DUP2 MSTORE PUSH1 0x4 ADD PUSH2 0xC16 SWAP1 PUSH2 0x22AC JUMP JUMPDEST PUSH1 0x40 MLOAD DUP1 SWAP2 SUB SWAP1 REVERT JUMPDEST PUSH0 PUSH1 0x7 DUP1 SLOAD SWAP1 POP GT PUSH2 0xC66 JUMPI PUSH1 0x40 MLOAD PUSH32 0x8C379A000000000000000000000000000000000000000000000000000000000 DUP2 MSTORE PUSH1 0x4 ADD PUSH2 0xC5D SWAP1 PUSH2 0x2314 JUMP JUMPDEST PUSH1 0x40 MLOAD DUP1 SWAP2 SUB SWAP1 REVERT JUMPDEST PUSH1 0x30 DUP3 LT PUSH2 0xCA9 JUMPI PUSH1 0x40 MLOAD PUSH32 0x8C379A000000000000000000000000000000000000000000000000000000000 DUP2 MSTORE PUSH1 0x4 ADD PUSH2 0xCA0 SWAP1 PUSH2 0x237C JUMP JUMPDEST PUSH1 0x40 MLOAD DUP1 SWAP2 SUB SWAP1 REVERT JUMPDEST PUSH1 0x6 PUSH0 DUP6 DUP2 MSTORE PUSH1 0x20 ADD SWAP1 DUP2 MSTORE PUSH1 0x20 ADD PUSH0 KECCAK256 PUSH0 DUP4 DUP2 MSTORE PUSH1 0x20 ADD SWAP1 DUP2 MSTORE PUSH1 0x20 ADD PUSH0 KECCAK256 PUSH1 0x3 ADD PUSH0 SWAP1 SLOAD SWAP1 PUSH2 0x100 EXP SWAP1 DIV PUSH1 0xFF AND ISZERO PUSH2 0xD19 JUMPI PUSH1 0x40 MLOAD PUSH32 0x8C379A000000000000000000000000000000000000000000000000000000000 DUP2 MSTORE PUSH1 0x4 ADD PUSH2 0xD10 SWAP1 PUSH2 0x23E4 JUMP JUMPDEST PUSH1 0x40 MLOAD DUP1 SWAP2 SUB SWAP1 REVERT JUMPDEST PUSH1 0x40 MLOAD DUP1 PUSH1 0x80 ADD PUSH1 0x40 MSTORE DUP1 DUP4 DUP2 MSTORE PUSH1 0x20 ADD DUP6 DUP2 MSTORE PUSH1 0x20 ADD DUP5 DUP2 MSTORE PUSH1 0x20 ADD PUSH1 0x1 ISZERO ISZERO DUP2 MSTORE POP PUSH1 0x6 PUSH0 DUP7 DUP2 MSTORE PUSH1 0x20 ADD SWAP1 DUP2 MSTORE PUSH1 0x20 ADD PUSH0 KECCAK256 PUSH0 DUP5 DUP2 MSTORE PUSH1 0x20 ADD SWAP1 DUP2 MSTORE PUSH1 0x20 ADD PUSH0 KECCAK256 PUSH0 DUP3 ADD MLOAD DUP2 PUSH0 ADD SSTORE PUSH1 0x20 DUP3 ADD MLOAD DUP2 PUSH1 0x1 ADD SSTORE PUSH1 0x40 DUP3 ADD MLOAD DUP2 PUSH1 0x2 ADD SSTORE PUSH1 0x60 DUP3 ADD MLOAD DUP2 PUSH1 0x3 ADD PUSH0 PUSH2 0x100 EXP DUP2 SLOAD DUP2 PUSH1 0xFF MUL NOT AND SWAP1 DUP4 ISZERO ISZERO MUL OR SWAP1 SSTORE POP SWAP1 POP POP PUSH0 PUSH1 0x7 DUP1 SLOAD SWAP1 POP TIMESTAMP PREVRANDAO DUP7 PUSH1 0x40 MLOAD PUSH1 0x20 ADD PUSH2 0xDB7 SWAP4 SWAP3 SWAP2 SWAP1 PUSH2 0x2422 JUMP JUMPDEST PUSH1 0x40 MLOAD PUSH1 0x20 DUP2 DUP4 SUB SUB DUP2 MSTORE SWAP1 PUSH1 0x40 MSTORE DUP1 MLOAD SWAP1 PUSH1 0x20 ADD KECCAK256 PUSH0 SHR PUSH2 0xDD9 SWAP2 SWAP1 PUSH2 0x2035 JUMP JUMPDEST SWAP1 POP PUSH0 PUSH1 0x7 DUP3 DUP2 SLOAD DUP2 LT PUSH2 0xDF0 JUMPI PUSH2 0xDEF PUSH2 0x1FAB JUMP JUMPDEST JUMPDEST SWAP1 PUSH0 MSTORE PUSH1 0x20 PUSH0 KECCAK256 ADD SLOAD SWAP1 POP PUSH8 0xDE0B6B3A7640000 PUSH1 0x5 PUSH0 DUP8 DUP2 MSTORE PUSH1 0x20 ADD SWAP1 DUP2 MSTORE PUSH1 0x20 ADD PUSH0 KECCAK256 PUSH1 0x6 ADD PUSH0 DUP3 DUP3 SLOAD PUSH2 0xE26 SWAP2 SWAP1 PUSH2 0x245E JUMP JUMPDEST SWAP3 POP POP DUP2 SWAP1 SSTORE POP PUSH8 0xDE0B6B3A7640000 PUSH1 0x3 PUSH0 DUP4 DUP2 MSTORE PUSH1 0x20 ADD SWAP1 DUP2 MSTORE PUSH1 0x20 ADD PUSH0 KECCAK256 PUSH1 0x3 ADD PUSH0 DUP3 DUP3 SLOAD PUSH2 0xE58 SWAP2 SWAP1 PUSH2 0x20A6 JUMP JUMPDEST SWAP3 POP POP DUP2 SWAP1 SSTORE POP PUSH1 0x1 SWAP3 POP POP POP SWAP4 SWAP3 POP POP POP JUMP JUMPDEST PUSH0 PUSH0 DUP4 GT PUSH2 0xEAF JUMPI PUSH1 0x40 MLOAD PUSH32 0x8C379A000000000000000000000000000000000000000000000000000000000 DUP2 MSTORE PUSH1 0x4 ADD PUSH2 0xEA6 SWAP1 PUSH2 0x24DB JUMP JUMPDEST PUSH1 0x40 MLOAD DUP1 SWAP2 SUB SWAP1 REVERT JUMPDEST PUSH0 DUP6 GT PUSH2 0xEF1 JUMPI PUSH1 0x40 MLOAD PUSH32 0x8C379A000000000000000000000000000000000000000000000000000000000 DUP2 MSTORE PUSH1 0x4 ADD PUSH2 0xEE8 SWAP1 PUSH2 0x2543 JUMP JUMPDEST PUSH1 0x40 MLOAD DUP1 SWAP2 SUB SWAP1 REVERT JUMPDEST PUSH0 PUSH1 0x4 PUSH0 DUP8 DUP2 MSTORE PUSH1 0x20 ADD SWAP1 DUP2 MSTORE PUSH1 0x20 ADD PUSH0 KECCAK256 PUSH0 ADD SLOAD EQ PUSH2 0xF46 JUMPI PUSH1 0x40 MLOAD PUSH32 0x8C379A000000000000000000000000000000000000000000000000000000000 DUP2 MSTORE PUSH1 0x4 ADD PUSH2 0xF3D SWAP1 PUSH2 0x25AB JUMP JUMPDEST PUSH1 0x40 MLOAD DUP1 SWAP2 SUB SWAP1 REVERT JUMPDEST PUSH1 0x40 MLOAD DUP1 PUSH1 0x80 ADD PUSH1 0x40 MSTORE DUP1 DUP7 DUP2 MSTORE PUSH1 0x20 ADD DUP6 DUP2 MSTORE PUSH1 0x20 ADD DUP5 DUP2 MSTORE PUSH1 0x20 ADD DUP4 DUP2 MSTORE POP PUSH1 0x4 PUSH0 DUP8 DUP2 MSTORE PUSH1 0x20 ADD SWAP1 DUP2 MSTORE PUSH1 0x20 ADD PUSH0 KECCAK256 PUSH0 DUP3 ADD MLOAD DUP2 PUSH0 ADD SSTORE PUSH1 0x20 DUP3 ADD MLOAD DUP2 PUSH1 0x1 ADD SWAP1 DUP2 PUSH2 0xF95 SWAP2 SWAP1 PUSH2 0x2769 JUMP JUMPDEST POP PUSH1 0x40 DUP3 ADD MLOAD DUP2 PUSH1 0x2 ADD SSTORE PUSH1 0x60 DUP3 ADD MLOAD DUP2 PUSH1 0x3 ADD SWAP1 DUP2 PUSH2 0xFB5 SWAP2 SWAP1 PUSH2 0x2769 JUMP JUMPDEST POP SWAP1 POP POP PUSH1 0x1 PUSH0 DUP2 SLOAD DUP1 SWAP3 SWAP2 SWAP1 PUSH2 0xFCB SWAP1 PUSH2 0x1F64 JUMP JUMPDEST SWAP2 SWAP1 POP SSTORE POP DUP5 SWAP1 POP SWAP5 SWAP4 POP POP POP POP JUMP JUMPDEST PUSH0 PUSH0 DUP3 GT PUSH2 0x101E JUMPI PUSH1 0x40 MLOAD PUSH32 0x8C379A000000000000000000000000000000000000000000000000000000000 DUP2 MSTORE PUSH1 0x4 ADD PUSH2 0x1015 SWAP1 PUSH2 0x24DB JUMP JUMPDEST PUSH1 0x40 MLOAD DUP1 SWAP2 SUB SWAP1 REVERT JUMPDEST PUSH0 DUP5 GT PUSH2 0x1060 JUMPI PUSH1 0x40 MLOAD PUSH32 0x8C379A000000000000000000000000000000000000000000000000000000000 DUP2 MSTORE PUSH1 0x4 ADD PUSH2 0x1057 SWAP1 PUSH2 0x2543 JUMP JUMPDEST PUSH1 0x40 MLOAD DUP1 SWAP2 SUB SWAP1 REVERT JUMPDEST PUSH0 PUSH1 0x3 PUSH0 DUP7 DUP2 MSTORE PUSH1 0x20 ADD SWAP1 DUP2 MSTORE PUSH1 0x20 ADD PUSH0 KECCAK256 PUSH0 ADD SLOAD EQ PUSH2 0x10B5 JUMPI PUSH1 0x40 MLOAD PUSH32 0x8C379A000000000000000000000000000000000000000000000000000000000 DUP2 MSTORE PUSH1 0x4 ADD PUSH2 0x10AC SWAP1 PUSH2 0x2882 JUMP JUMPDEST PUSH1 0x40 MLOAD DUP1 SWAP2 SUB SWAP1 REVERT JUMPDEST PUSH1 0x40 MLOAD DUP1 PUSH1 0x80 ADD PUSH1 0x40 MSTORE DUP1 DUP6 DUP2 MSTORE PUSH1 0x20 ADD DUP5 DUP2 MSTORE PUSH1 0x20 ADD DUP4 DUP2 MSTORE PUSH1 0x20 ADD PUSH0 DUP2 MSTORE POP PUSH1 0x3 PUSH0 DUP7 DUP2 MSTORE PUSH1 0x20 ADD SWAP1 DUP2 MSTORE PUSH1 0x20 ADD PUSH0 KECCAK256 PUSH0 DUP3 ADD MLOAD DUP2 PUSH0 ADD SSTORE PUSH1 0x20 DUP3 ADD MLOAD DUP2 PUSH1 0x1 ADD SWAP1 DUP2 PUSH2 0x1104 SWAP2 SWAP1 PUSH2 0x2769 JUMP JUMPDEST POP PUSH1 0x40 DUP3 ADD MLOAD DUP2 PUSH1 0x2 ADD SSTORE PUSH1 0x60 DUP3 ADD MLOAD DUP2 PUSH1 0x3 ADD SSTORE SWAP1 POP POP PUSH1 0x7 DUP5 SWAP1 DUP1 PUSH1 0x1 DUP2 SLOAD ADD DUP1 DUP3 SSTORE DUP1 SWAP2 POP POP PUSH1 0x1 SWAP1 SUB SWAP1 PUSH0 MSTORE PUSH1 0x20 PUSH0 KECCAK256 ADD PUSH0 SWAP1 SWAP2 SWAP1 SWAP2 SWAP1 SWAP2 POP SSTORE PUSH0 PUSH0 DUP2 SLOAD DUP1 SWAP3 SWAP2 SWAP1 PUSH2 0x1153 SWAP1 PUSH2 0x1F64 JUMP JUMPDEST SWAP2 SWAP1 POP SSTORE POP DUP4 SWAP1 POP SWAP4 SWAP3 POP POP POP JUMP JUMPDEST PUSH0 PUSH0 DUP7 GT PUSH2 0x11A5 JUMPI PUSH1 0x40 MLOAD PUSH32 0x8C379A000000000000000000000000000000000000000000000000000000000 DUP2 MSTORE PUSH1 0x4 ADD PUSH2 0x119C SWAP1 PUSH2 0x24DB JUMP JUMPDEST PUSH1 0x40 MLOAD DUP1 SWAP2 SUB SWAP1 REVERT JUMPDEST PUSH0 DUP9 GT PUSH2 0x11E7 JUMPI PUSH1 0x40 MLOAD PUSH32 0x8C379A000000000000000000000000000000000000000000000000000000000 DUP2 MSTORE PUSH1 0x4 ADD PUSH2 0x11DE SWAP1 PUSH2 0x2543 JUMP JUMPDEST PUSH1 0x40 MLOAD DUP1 SWAP2 SUB SWAP1 REVERT JUMPDEST PUSH0 PUSH1 0x5 PUSH0 DUP11 DUP2 MSTORE PUSH1 0x20 ADD SWAP1 DUP2 MSTORE PUSH1 0x20 ADD PUSH0 KECCAK256 PUSH0 ADD SLOAD EQ PUSH2 0x123C JUMPI PUSH1 0x40 MLOAD PUSH32 0x8C379A000000000000000000000000000000000000000000000000000000000 DUP2 MSTORE PUSH1 0x4 ADD PUSH2 0x1233 SWAP1 PUSH2 0x28EA JUMP JUMPDEST PUSH1 0x40 MLOAD DUP1 SWAP2 SUB SWAP1 REVERT JUMPDEST PUSH1 0x2 DUP4 GT ISZERO PUSH2 0x1280 JUMPI PUSH1 0x40 MLOAD PUSH32 0x8C379A000000000000000000000000000000000000000000000000000000000 DUP2 MSTORE PUSH1 0x4 ADD PUSH2 0x1277 SWAP1 PUSH2 0x1DF6 JUMP JUMPDEST PUSH1 0x40 MLOAD DUP1 SWAP2 SUB SWAP1 REVERT JUMPDEST PUSH1 0x40 MLOAD DUP1 PUSH2 0x100 ADD PUSH1 0x40 MSTORE DUP1 DUP10 DUP2 MSTORE PUSH1 0x20 ADD DUP9 DUP2 MSTORE PUSH1 0x20 ADD DUP8 DUP2 MSTORE PUSH1 0x20 ADD DUP7 DUP2 MSTORE PUSH1 0x20 ADD DUP6 DUP2 MSTORE PUSH1 0x20 ADD DUP5 PUSH1 0x2 DUP2 GT ISZERO PUSH2 0x12BD JUMPI PUSH2 0x12BC PUSH2 0x1EA2 JUMP JUMPDEST JUMPDEST PUSH1 0x2 DUP2 GT ISZERO PUSH2 0x12CF JUMPI PUSH2 0x12CE PUSH2 0x1EA2 JUMP JUMPDEST JUMPDEST DUP2 MSTORE PUSH1 0x20 ADD DUP4 ISZERO ISZERO DUP2 MSTORE PUSH1 0x20 ADD PUSH8 0x8AC7230489E80000 DUP2 MSTORE POP PUSH1 0x5 PUSH0 DUP11 DUP2 MSTORE PUSH1 0x20 ADD SWAP1 DUP2 MSTORE PUSH1 0x20 ADD PUSH0 KECCAK256 PUSH0 DUP3 ADD MLOAD DUP2 PUSH0 ADD SSTORE PUSH1 0x20 DUP3 ADD MLOAD DUP2 PUSH1 0x1 ADD SWAP1 DUP2 PUSH2 0x1316 SWAP2 SWAP1 PUSH2 0x2769 JUMP JUMPDEST POP PUSH1 0x40 DUP3 ADD MLOAD DUP2 PUSH1 0x2 ADD SSTORE PUSH1 0x60 DUP3 ADD MLOAD DUP2 PUSH1 0x3 ADD SWAP1 DUP2 PUSH2 0x1336 SWAP2 SWAP1 PUSH2 0x2769 JUMP JUMPDEST POP PUSH1 0x80 DUP3 ADD MLOAD DUP2 PUSH1 0x4 ADD SWAP1 DUP2 PUSH2 0x134C SWAP2 SWAP1 PUSH2 0x2769 JUMP JUMPDEST POP PUSH1 0xA0 DUP3 ADD MLOAD DUP2 PUSH1 0x5 ADD PUSH0 PUSH2 0x100 EXP DUP2 SLOAD DUP2 PUSH1 0xFF MUL NOT AND SWAP1 DUP4 PUSH1 0x2 DUP2 GT ISZERO PUSH2 0x1377 JUMPI PUSH2 0x1376 PUSH2 0x1EA2 JUMP JUMPDEST JUMPDEST MUL OR SWAP1 SSTORE POP PUSH1 0xC0 DUP3 ADD MLOAD DUP2 PUSH1 0x5 ADD PUSH1 0x1 PUSH2 0x100 EXP DUP2 SLOAD DUP2 PUSH1 0xFF MUL NOT AND SWAP1 DUP4 ISZERO ISZERO MUL OR SWAP1 SSTORE POP PUSH1 0xE0 DUP3 ADD MLOAD DUP2 PUSH1 0x6 ADD SSTORE SWAP1 POP POP PUSH1 0x2 PUSH0 DUP2 SLOAD DUP1 SWAP3 SWAP2 SWAP1 PUSH2 0x13BB SWAP1 PUSH2 0x1F64 JUMP JUMPDEST SWAP2 SWAP1 POP SSTORE POP DUP8 SWAP1 POP SWAP8 SWAP7 POP POP POP POP POP POP POP JUMP JUMPDEST PUSH1 0x60 PUSH0 DUP3 SUB PUSH2 0x1414 JUMPI PUSH1 0x40 MLOAD DUP1 PUSH1 0x40 ADD PUSH1 0x40 MSTORE DUP1 PUSH1 0x1 DUP2 MSTORE PUSH1 0x20 ADD PUSH32 0x3000000000000000000000000000000000000000000000000000000000000000 DUP2 MSTORE POP SWAP1 POP PUSH2 0x1561 JUMP JUMPDEST PUSH1 0xA DUP3 LT ISZERO PUSH2 0x1453 JUMPI DUP2 PUSH1 0x30 PUSH2 0x142A SWAP2 SWAP1 PUSH2 0x20A6 JUMP JUMPDEST PUSH1 0xF8 SHL PUSH1 0x40 MLOAD PUSH1 0x20 ADD PUSH2 0x143D SWAP2 SWAP1 PUSH2 0x299D JUMP JUMPDEST PUSH1 0x40 MLOAD PUSH1 0x20 DUP2 DUP4 SUB SUB DUP2 MSTORE SWAP1 PUSH1 0x40 MSTORE SWAP1 POP PUSH2 0x1561 JUMP JUMPDEST PUSH0 DUP3 SWAP1 POP PUSH0 JUMPDEST PUSH0 DUP3 EQ PUSH2 0x1482 JUMPI DUP1 DUP1 PUSH2 0x146B SWAP1 PUSH2 0x1F64 JUMP JUMPDEST SWAP2 POP POP PUSH1 0xA DUP3 PUSH2 0x147B SWAP2 SWAP1 PUSH2 0x2005 JUMP JUMPDEST SWAP2 POP PUSH2 0x1459 JUMP JUMPDEST PUSH0 DUP2 PUSH8 0xFFFFFFFFFFFFFFFF DUP2 GT ISZERO PUSH2 0x149D JUMPI PUSH2 0x149C PUSH2 0x1A0E JUMP JUMPDEST JUMPDEST PUSH1 0x40 MLOAD SWAP1 DUP1 DUP3 MSTORE DUP1 PUSH1 0x1F ADD PUSH1 0x1F NOT AND PUSH1 0x20 ADD DUP3 ADD PUSH1 0x40 MSTORE DUP1 ISZERO PUSH2 0x14CF JUMPI DUP2 PUSH1 0x20 ADD PUSH1 0x1 DUP3 MUL DUP1 CALLDATASIZE DUP4 CALLDATACOPY DUP1 DUP3 ADD SWAP2 POP POP SWAP1 POP JUMPDEST POP SWAP1 POP JUMPDEST PUSH0 DUP6 EQ PUSH2 0x155A JUMPI PUSH1 0x1 DUP3 PUSH2 0x14E7 SWAP2 SWAP1 PUSH2 0x245E JUMP JUMPDEST SWAP2 POP PUSH1 0xA DUP6 PUSH2 0x14F6 SWAP2 SWAP1 PUSH2 0x2035 JUMP JUMPDEST PUSH1 0x30 PUSH2 0x1502 SWAP2 SWAP1 PUSH2 0x20A6 JUMP JUMPDEST PUSH1 0xF8 SHL DUP2 DUP4 DUP2 MLOAD DUP2 LT PUSH2 0x1518 JUMPI PUSH2 0x1517 PUSH2 0x1FAB JUMP JUMPDEST JUMPDEST PUSH1 0x20 ADD ADD SWAP1 PUSH31 0xFFFFFFFFFFFFFFFFFFFFFFFFFFFFFFFFFFFFFFFFFFFFFFFFFFFFFFFFFFFFFF NOT AND SWAP1 DUP2 PUSH0 BYTE SWAP1 MSTORE8 POP PUSH1 0xA DUP6 PUSH2 0x1553 SWAP2 SWAP1 PUSH2 0x2005 JUMP JUMPDEST SWAP5 POP PUSH2 0x14D3 JUMP JUMPDEST DUP1 SWAP4 POP POP POP POP JUMPDEST SWAP2 SWAP1 POP JUMP JUMPDEST PUSH0 PUSH1 0x40 MLOAD SWAP1 POP SWAP1 JUMP JUMPDEST PUSH0 PUSH0 REVERT JUMPDEST PUSH0 PUSH0 REVERT JUMPDEST PUSH0 DUP2 SWAP1 POP SWAP2 SWAP1 POP JUMP JUMPDEST PUSH2 0x1589 DUP2 PUSH2 0x1577 JUMP JUMPDEST DUP2 EQ PUSH2 0x1593 JUMPI PUSH0 PUSH0 REVERT JUMPDEST POP JUMP JUMPDEST PUSH0 DUP2 CALLDATALOAD SWAP1 POP PUSH2 0x15A4 DUP2 PUSH2 0x1580 JUMP JUMPDEST SWAP3 SWAP2 POP POP JUMP JUMPDEST PUSH0 DUP2 ISZERO ISZERO SWAP1 POP SWAP2 SWAP1 POP JUMP JUMPDEST PUSH2 0x15BE DUP2 PUSH2 0x15AA JUMP JUMPDEST DUP2 EQ PUSH2 0x15C8 JUMPI PUSH0 PUSH0 REVERT JUMPDEST POP JUMP JUMPDEST PUSH0 DUP2 CALLDATALOAD SWAP1 POP PUSH2 0x15D9 DUP2 PUSH2 0x15B5 JUMP JUMPDEST SWAP3 SWAP2 POP POP JUMP JUMPDEST PUSH0 PUSH0 PUSH0 PUSH1 0x60 DUP5 DUP7 SUB SLT ISZERO PUSH2 0x15F6 JUMPI PUSH2 0x15F5 PUSH2 0x156F JUMP JUMPDEST JUMPDEST PUSH0 PUSH2 0x1603 DUP7 DUP3 DUP8 ADD PUSH2 0x1596 JUMP JUMPDEST SWAP4 POP POP PUSH1 0x20 PUSH2 0x1614 DUP7 DUP3 DUP8 ADD PUSH2 0x1596 JUMP JUMPDEST SWAP3 POP POP PUSH1 0x40 PUSH2 0x1625 DUP7 DUP3 DUP8 ADD PUSH2 0x15CB JUMP JUMPDEST SWAP2 POP POP SWAP3 POP SWAP3 POP SWAP3 JUMP JUMPDEST PUSH0 PUSH1 0x20 DUP3 DUP5 SUB SLT ISZERO PUSH2 0x1644 JUMPI PUSH2 0x1643 PUSH2 0x156F JUMP JUMPDEST JUMPDEST PUSH0 PUSH2 0x1651 DUP5 DUP3 DUP6 ADD PUSH2 0x1596 JUMP JUMPDEST SWAP2 POP POP SWAP3 SWAP2 POP POP JUMP JUMPDEST PUSH0 DUP2 MLOAD SWAP1 POP SWAP2 SWAP1 POP JUMP JUMPDEST PUSH0 DUP3 DUP3 MSTORE PUSH1 0x20 DUP3 ADD SWAP1 POP SWAP3 SWAP2 POP POP JUMP JUMPDEST PUSH0 DUP2 SWAP1 POP PUSH1 0x20 DUP3 ADD SWAP1 POP SWAP2 SWAP1 POP JUMP JUMPDEST PUSH2 0x168C DUP2 PUSH2 0x1577 JUMP JUMPDEST DUP3 MSTORE POP POP JUMP JUMPDEST PUSH0 PUSH2 0x169D DUP4 DUP4 PUSH2 0x1683 JUMP JUMPDEST PUSH1 0x20 DUP4 ADD SWAP1 POP SWAP3 SWAP2 POP POP JUMP JUMPDEST PUSH0 PUSH1 0x20 DUP3 ADD SWAP1 POP SWAP2 SWAP1 POP JUMP JUMPDEST PUSH0 PUSH2 0x16BF DUP3 PUSH2 0x165A JUMP JUMPDEST PUSH2 0x16C9 DUP2 DUP6 PUSH2 0x1664 JUMP JUMPDEST SWAP4 POP PUSH2 0x16D4 DUP4 PUSH2 0x1674 JUMP JUMPDEST DUP1 PUSH0 JUMPDEST DUP4 DUP2 LT ISZERO PUSH2 0x1704 JUMPI DUP2 MLOAD PUSH2 0x16EB DUP9 DUP3 PUSH2 0x1692 JUMP JUMPDEST SWAP8 POP PUSH2 0x16F6 DUP4 PUSH2 0x16A9 JUMP JUMPDEST SWAP3 POP POP PUSH1 0x1 DUP2 ADD SWAP1 POP PUSH2 0x16D7 JUMP JUMPDEST POP DUP6 SWAP4 POP POP POP POP SWAP3 SWAP2 POP POP JUMP JUMPDEST PUSH0 DUP2 MLOAD SWAP1 POP SWAP2 SWAP1 POP JUMP JUMPDEST PUSH0 DUP3 DUP3 MSTORE PUSH1 0x20 DUP3 ADD SWAP1 POP SWAP3 SWAP2 POP POP JUMP JUMPDEST PUSH0 DUP2 SWAP1 POP PUSH1 0x20 DUP3 ADD SWAP1 POP SWAP2 SWAP1 POP JUMP JUMPDEST PUSH0 DUP2 MLOAD SWAP1 POP SWAP2 SWAP1 POP JUMP JUMPDEST PUSH0 DUP3 DUP3 MSTORE PUSH1 0x20 DUP3 ADD SWAP1 POP SWAP3 SWAP2 POP POP JUMP JUMPDEST DUP3 DUP2 DUP4 MCOPY PUSH0 DUP4 DUP4 ADD MSTORE POP POP POP JUMP JUMPDEST PUSH0 PUSH1 0x1F NOT PUSH1 0x1F DUP4 ADD AND SWAP1 POP SWAP2 SWAP1 POP JUMP JUMPDEST PUSH0 PUSH2 0x177C DUP3 PUSH2 0x173A JUMP JUMPDEST PUSH2 0x1786 DUP2 DUP6 PUSH2 0x1744 JUMP JUMPDEST SWAP4 POP PUSH2 0x1796 DUP2 DUP6 PUSH1 0x20 DUP7 ADD PUSH2 0x1754 JUMP JUMPDEST PUSH2 0x179F DUP2 PUSH2 0x1762 JUMP JUMPDEST DUP5 ADD SWAP2 POP POP SWAP3 SWAP2 POP POP JUMP JUMPDEST PUSH0 PUSH2 0x17B5 DUP4 DUP4 PUSH2 0x1772 JUMP JUMPDEST SWAP1 POP SWAP3 SWAP2 POP POP JUMP JUMPDEST PUSH0 PUSH1 0x20 DUP3 ADD SWAP1 POP SWAP2 SWAP1 POP JUMP JUMPDEST PUSH0 PUSH2 0x17D3 DUP3 PUSH2 0x1711 JUMP JUMPDEST PUSH2 0x17DD DUP2 DUP6 PUSH2 0x171B JUMP JUMPDEST SWAP4 POP DUP4 PUSH1 0x20 DUP3 MUL DUP6 ADD PUSH2 0x17EF DUP6 PUSH2 0x172B JUMP JUMPDEST DUP1 PUSH0 JUMPDEST DUP6 DUP2 LT ISZERO PUSH2 0x182A JUMPI DUP5 DUP5 SUB DUP10 MSTORE DUP2 MLOAD PUSH2 0x180B DUP6 DUP3 PUSH2 0x17AA JUMP JUMPDEST SWAP5 POP PUSH2 0x1816 DUP4 PUSH2 0x17BD JUMP JUMPDEST SWAP3 POP PUSH1 0x20 DUP11 ADD SWAP10 POP POP PUSH1 0x1 DUP2 ADD SWAP1 POP PUSH2 0x17F2 JUMP JUMPDEST POP DUP3 SWAP8 POP DUP8 SWAP6 POP POP POP POP POP POP SWAP3 SWAP2 POP POP JUMP JUMPDEST PUSH0 PUSH1 0x40 DUP3 ADD SWAP1 POP DUP2 DUP2 SUB PUSH0 DUP4 ADD MSTORE PUSH2 0x1854 DUP2 DUP6 PUSH2 0x16B5 JUMP JUMPDEST SWAP1 POP DUP2 DUP2 SUB PUSH1 0x20 DUP4 ADD MSTORE PUSH2 0x1868 DUP2 DUP5 PUSH2 0x17C9 JUMP JUMPDEST SWAP1 POP SWAP4 SWAP3 POP POP POP JUMP JUMPDEST PUSH0 PUSH1 0x40 DUP3 ADD SWAP1 POP DUP2 DUP2 SUB PUSH0 DUP4 ADD MSTORE PUSH2 0x1889 DUP2 DUP6 PUSH2 0x16B5 JUMP JUMPDEST SWAP1 POP DUP2 DUP2 SUB PUSH1 0x20 DUP4 ADD MSTORE PUSH2 0x189D DUP2 DUP5 PUSH2 0x16B5 JUMP JUMPDEST SWAP1 POP SWAP4 SWAP3 POP POP POP JUMP JUMPDEST PUSH2 0x18AF DUP2 PUSH2 0x1577 JUMP JUMPDEST DUP3 MSTORE POP POP JUMP JUMPDEST PUSH0 DUP3 DUP3 MSTORE PUSH1 0x20 DUP3 ADD SWAP1 POP SWAP3 SWAP2 POP POP JUMP JUMPDEST PUSH0 PUSH2 0x18CF DUP3 PUSH2 0x173A JUMP JUMPDEST PUSH2 0x18D9 DUP2 DUP6 PUSH2 0x18B5 JUMP JUMPDEST SWAP4 POP PUSH2 0x18E9 DUP2 DUP6 PUSH1 0x20 DUP7 ADD PUSH2 0x1754 JUMP JUMPDEST PUSH2 0x18F2 DUP2 PUSH2 0x1762 JUMP JUMPDEST DUP5 ADD SWAP2 POP POP SWAP3 SWAP2 POP POP JUMP JUMPDEST PUSH2 0x1906 DUP2 PUSH2 0x15AA JUMP JUMPDEST DUP3 MSTORE POP POP JUMP JUMPDEST PUSH0 PUSH2 0x100 DUP3 ADD SWAP1 POP PUSH2 0x1920 PUSH0 DUP4 ADD DUP12 PUSH2 0x18A6 JUMP JUMPDEST DUP2 DUP2 SUB PUSH1 0x20 DUP4 ADD MSTORE PUSH2 0x1932 DUP2 DUP11 PUSH2 0x18C5 JUMP JUMPDEST SWAP1 POP PUSH2 0x1941 PUSH1 0x40 DUP4 ADD DUP10 PUSH2 0x18A6 JUMP JUMPDEST DUP2 DUP2 SUB PUSH1 0x60 DUP4 ADD MSTORE PUSH2 0x1953 DUP2 DUP9 PUSH2 0x18C5 JUMP JUMPDEST SWAP1 POP DUP2 DUP2 SUB PUSH1 0x80 DUP4 ADD MSTORE PUSH2 0x1967 DUP2 DUP8 PUSH2 0x18C5 JUMP JUMPDEST SWAP1 POP PUSH2 0x1976 PUSH1 0xA0 DUP4 ADD DUP7 PUSH2 0x18A6 JUMP JUMPDEST PUSH2 0x1983 PUSH1 0xC0 DUP4 ADD DUP6 PUSH2 0x18FD JUMP JUMPDEST PUSH2 0x1990 PUSH1 0xE0 DUP4 ADD DUP5 PUSH2 0x18A6 JUMP JUMPDEST SWAP10 SWAP9 POP POP POP POP POP POP POP POP POP JUMP JUMPDEST PUSH0 PUSH0 PUSH0 PUSH1 0x60 DUP5 DUP7 SUB SLT ISZERO PUSH2 0x19B4 JUMPI PUSH2 0x19B3 PUSH2 0x156F JUMP JUMPDEST JUMPDEST PUSH0 PUSH2 0x19C1 DUP7 DUP3 DUP8 ADD PUSH2 0x1596 JUMP JUMPDEST SWAP4 POP POP PUSH1 0x20 PUSH2 0x19D2 DUP7 DUP3 DUP8 ADD PUSH2 0x1596 JUMP JUMPDEST SWAP3 POP POP PUSH1 0x40 PUSH2 0x19E3 DUP7 DUP3 DUP8 ADD PUSH2 0x1596 JUMP JUMPDEST SWAP2 POP POP SWAP3 POP SWAP3 POP SWAP3 JUMP JUMPDEST PUSH0 PUSH1 0x20 DUP3 ADD SWAP1 POP PUSH2 0x1A00 PUSH0 DUP4 ADD DUP5 PUSH2 0x18FD JUMP JUMPDEST SWAP3 SWAP2 POP POP JUMP JUMPDEST PUSH0 PUSH0 REVERT JUMPDEST PUSH0 PUSH0 REVERT JUMPDEST PUSH32 0x4E487B7100000000000000000000000000000000000000000000000000000000 PUSH0 MSTORE PUSH1 0x41 PUSH1 0x4 MSTORE PUSH1 0x24 PUSH0 REVERT JUMPDEST PUSH2 0x1A44 DUP3 PUSH2 0x1762 JUMP JUMPDEST DUP2 ADD DUP2 DUP2 LT PUSH8 0xFFFFFFFFFFFFFFFF DUP3 GT OR ISZERO PUSH2 0x1A63 JUMPI PUSH2 0x1A62 PUSH2 0x1A0E JUMP JUMPDEST JUMPDEST DUP1 PUSH1 0x40 MSTORE POP POP POP JUMP JUMPDEST PUSH0 PUSH2 0x1A75 PUSH2 0x1566 JUMP JUMPDEST SWAP1 POP PUSH2 0x1A81 DUP3 DUP3 PUSH2 0x1A3B JUMP JUMPDEST SWAP2 SWAP1 POP JUMP JUMPDEST PUSH0 PUSH8 0xFFFFFFFFFFFFFFFF DUP3 GT ISZERO PUSH2 0x1AA0 JUMPI PUSH2 0x1A9F PUSH2 0x1A0E JUMP JUMPDEST JUMPDEST PUSH2 0x1AA9 DUP3 PUSH2 0x1762 JUMP JUMPDEST SWAP1 POP PUSH1 0x20 DUP2 ADD SWAP1 POP SWAP2 SWAP1 POP JUMP JUMPDEST DUP3 DUP2 DUP4 CALLDATACOPY PUSH0 DUP4 DUP4 ADD MSTORE POP POP POP JUMP JUMPDEST PUSH0 PUSH2 0x1AD6 PUSH2 0x1AD1 DUP5 PUSH2 0x1A86 JUMP JUMPDEST PUSH2 0x1A6C JUMP JUMPDEST SWAP1 POP DUP3 DUP2 MSTORE PUSH1 0x20 DUP2 ADD DUP5 DUP5 DUP5 ADD GT ISZERO PUSH2 0x1AF2 JUMPI PUSH2 0x1AF1 PUSH2 0x1A0A JUMP JUMPDEST JUMPDEST PUSH2 0x1AFD DUP5 DUP3 DUP6 PUSH2 0x1AB6 JUMP JUMPDEST POP SWAP4 SWAP3 POP POP POP JUMP JUMPDEST PUSH0 DUP3 PUSH1 0x1F DUP4 ADD SLT PUSH2 0x1B19 JUMPI PUSH2 0x1B18 PUSH2 0x1A06 JUMP JUMPDEST JUMPDEST DUP2 CALLDATALOAD PUSH2 0x1B29 DUP5 DUP3 PUSH1 0x20 DUP7 ADD PUSH2 0x1AC4 JUMP JUMPDEST SWAP2 POP POP SWAP3 SWAP2 POP POP JUMP JUMPDEST PUSH0 PUSH0 PUSH0 PUSH0 PUSH1 0x80 DUP6 DUP8 SUB SLT ISZERO PUSH2 0x1B4A JUMPI PUSH2 0x1B49 PUSH2 0x156F JUMP JUMPDEST JUMPDEST PUSH0 PUSH2 0x1B57 DUP8 DUP3 DUP9 ADD PUSH2 0x1596 JUMP JUMPDEST SWAP5 POP POP PUSH1 0x20 DUP6 ADD CALLDATALOAD PUSH8 0xFFFFFFFFFFFFFFFF DUP2 GT ISZERO PUSH2 0x1B78 JUMPI PUSH2 0x1B77 PUSH2 0x1573 JUMP JUMPDEST JUMPDEST PUSH2 0x1B84 DUP8 DUP3 DUP9 ADD PUSH2 0x1B05 JUMP JUMPDEST SWAP4 POP POP PUSH1 0x40 PUSH2 0x1B95 DUP8 DUP3 DUP9 ADD PUSH2 0x1596 JUMP JUMPDEST SWAP3 POP POP PUSH1 0x60 DUP6 ADD CALLDATALOAD PUSH8 0xFFFFFFFFFFFFFFFF DUP2 GT ISZERO PUSH2 0x1BB6 JUMPI PUSH2 0x1BB5 PUSH2 0x1573 JUMP JUMPDEST JUMPDEST PUSH2 0x1BC2 DUP8 DUP3 DUP9 ADD PUSH2 0x1B05 JUMP JUMPDEST SWAP2 POP POP SWAP3 SWAP6 SWAP2 SWAP5 POP SWAP3 POP JUMP JUMPDEST PUSH0 PUSH1 0x20 DUP3 ADD SWAP1 POP PUSH2 0x1BE1 PUSH0 DUP4 ADD DUP5 PUSH2 0x18A6 JUMP JUMPDEST SWAP3 SWAP2 POP POP JUMP JUMPDEST PUSH0 PUSH0 PUSH0 PUSH1 0x60 DUP5 DUP7 SUB SLT ISZERO PUSH2 0x1BFE JUMPI PUSH2 0x1BFD PUSH2 0x156F JUMP JUMPDEST JUMPDEST PUSH0 PUSH2 0x1C0B DUP7 DUP3 DUP8 ADD PUSH2 0x1596 JUMP JUMPDEST SWAP4 POP POP PUSH1 0x20 DUP5 ADD CALLDATALOAD PUSH8 0xFFFFFFFFFFFFFFFF DUP2 GT ISZERO PUSH2 0x1C2C JUMPI PUSH2 0x1C2B PUSH2 0x1573 JUMP JUMPDEST JUMPDEST PUSH2 0x1C38 DUP7 DUP3 DUP8 ADD PUSH2 0x1B05 JUMP JUMPDEST SWAP3 POP POP PUSH1 0x40 PUSH2 0x1C49 DUP7 DUP3 DUP8 ADD PUSH2 0x1596 JUMP JUMPDEST SWAP2 POP POP SWAP3 POP SWAP3 POP SWAP3 JUMP JUMPDEST PUSH0 PUSH0 PUSH0 PUSH0 PUSH0 PUSH0 PUSH0 PUSH1 0xE0 DUP9 DUP11 SUB SLT ISZERO PUSH2 0x1C6E JUMPI PUSH2 0x1C6D PUSH2 0x156F JUMP JUMPDEST JUMPDEST PUSH0 PUSH2 0x1C7B DUP11 DUP3 DUP12 ADD PUSH2 0x1596 JUMP JUMPDEST SWAP8 POP POP PUSH1 0x20 DUP9 ADD CALLDATALOAD PUSH8 0xFFFFFFFFFFFFFFFF DUP2 GT ISZERO PUSH2 0x1C9C JUMPI PUSH2 0x1C9B PUSH2 0x1573 JUMP JUMPDEST JUMPDEST PUSH2 0x1CA8 DUP11 DUP3 DUP12 ADD PUSH2 0x1B05 JUMP JUMPDEST SWAP7 POP POP PUSH1 0x40 PUSH2 0x1CB9 DUP11 DUP3 DUP12 ADD PUSH2 0x1596 JUMP JUMPDEST SWAP6 POP POP PUSH1 0x60 DUP9 ADD CALLDATALOAD PUSH8 0xFFFFFFFFFFFFFFFF DUP2 GT ISZERO PUSH2 0x1CDA JUMPI PUSH2 0x1CD9 PUSH2 0x1573 JUMP JUMPDEST JUMPDEST PUSH2 0x1CE6 DUP11 DUP3 DUP12 ADD PUSH2 0x1B05 JUMP JUMPDEST SWAP5 POP POP PUSH1 0x80 DUP9 ADD CALLDATALOAD PUSH8 0xFFFFFFFFFFFFFFFF DUP2 GT ISZERO PUSH2 0x1D07 JUMPI PUSH2 0x1D06 PUSH2 0x1573 JUMP JUMPDEST JUMPDEST PUSH2 0x1D13 DUP11 DUP3 DUP12 ADD PUSH2 0x1B05 JUMP JUMPDEST SWAP4 POP POP PUSH1 0xA0 PUSH2 0x1D24 DUP11 DUP3 DUP12 ADD PUSH2 0x1596 JUMP JUMPDEST SWAP3 POP POP PUSH1 0xC0 PUSH2 0x1D35 DUP11 DUP3 DUP12 ADD PUSH2 0x15CB JUMP JUMPDEST SWAP2 POP POP SWAP3 SWAP6 SWAP9 SWAP2 SWAP5 SWAP8 POP SWAP3 SWAP6 POP JUMP JUMPDEST PUSH32 0x5061727469636970616E74206E6F7420666F756E640000000000000000000000 PUSH0 DUP3 ADD MSTORE POP JUMP JUMPDEST PUSH0 PUSH2 0x1D78 PUSH1 0x15 DUP4 PUSH2 0x18B5 JUMP JUMPDEST SWAP2 POP PUSH2 0x1D83 DUP3 PUSH2 0x1D44 JUMP JUMPDEST PUSH1 0x20 DUP3 ADD SWAP1 POP SWAP2 SWAP1 POP JUMP JUMPDEST PUSH0 PUSH1 0x20 DUP3 ADD SWAP1 POP DUP2 DUP2 SUB PUSH0 DUP4 ADD MSTORE PUSH2 0x1DA5 DUP2 PUSH2 0x1D6C JUMP JUMPDEST SWAP1 POP SWAP2 SWAP1 POP JUMP JUMPDEST PUSH32 0x496E76616C696420747261696E696E6720696E74657265737400000000000000 PUSH0 DUP3 ADD MSTORE POP JUMP JUMPDEST PUSH0 PUSH2 0x1DE0 PUSH1 0x19 DUP4 PUSH2 0x18B5 JUMP JUMPDEST SWAP2 POP PUSH2 0x1DEB DUP3 PUSH2 0x1DAC JUMP JUMPDEST PUSH1 0x20 DUP3 ADD SWAP1 POP SWAP2 SWAP1 POP JUMP JUMPDEST PUSH0 PUSH1 0x20 DUP3 ADD SWAP1 POP DUP2 DUP2 SUB PUSH0 DUP4 ADD MSTORE PUSH2 0x1E0D DUP2 PUSH2 0x1DD4 JUMP JUMPDEST SWAP1 POP SWAP2 SWAP1 POP JUMP JUMPDEST PUSH32 0x43616E6E6F74206368616E676520636F6D706C657465642066726F6D20747275 PUSH0 DUP3 ADD MSTORE PUSH32 0x6520746F2066616C736500000000000000000000000000000000000000000000 PUSH1 0x20 DUP3 ADD MSTORE POP JUMP JUMPDEST PUSH0 PUSH2 0x1E6E PUSH1 0x2A DUP4 PUSH2 0x18B5 JUMP JUMPDEST SWAP2 POP PUSH2 0x1E79 DUP3 PUSH2 0x1E14 JUMP JUMPDEST PUSH1 0x40 DUP3 ADD SWAP1 POP SWAP2 SWAP1 POP JUMP JUMPDEST PUSH0 PUSH1 0x20 DUP3 ADD SWAP1 POP DUP2 DUP2 SUB PUSH0 DUP4 ADD MSTORE PUSH2 0x1E9B DUP2 PUSH2 0x1E62 JUMP JUMPDEST SWAP1 POP SWAP2 SWAP1 POP JUMP JUMPDEST PUSH32 0x4E487B7100000000000000000000000000000000000000000000000000000000 PUSH0 MSTORE PUSH1 0x21 PUSH1 0x4 MSTORE PUSH1 0x24 PUSH0 REVERT JUMPDEST PUSH32 0x547261696E6572206E6F7420666F756E64000000000000000000000000000000 PUSH0 DUP3 ADD MSTORE POP JUMP JUMPDEST PUSH0 PUSH2 0x1F03 PUSH1 0x11 DUP4 PUSH2 0x18B5 JUMP JUMPDEST SWAP2 POP PUSH2 0x1F0E DUP3 PUSH2 0x1ECF JUMP JUMPDEST PUSH1 0x20 DUP3 ADD SWAP1 POP SWAP2 SWAP1 POP JUMP JUMPDEST PUSH0 PUSH1 0x20 DUP3 ADD SWAP1 POP DUP2 DUP2 SUB PUSH0 DUP4 ADD MSTORE PUSH2 0x1F30 DUP2 PUSH2 0x1EF7 JUMP JUMPDEST SWAP1 POP SWAP2 SWAP1 POP JUMP JUMPDEST PUSH32 0x4E487B7100000000000000000000000000000000000000000000000000000000 PUSH0 MSTORE PUSH1 0x11 PUSH1 0x4 MSTORE PUSH1 0x24 PUSH0 REVERT JUMPDEST PUSH0 PUSH2 0x1F6E DUP3 PUSH2 0x1577 JUMP JUMPDEST SWAP2 POP PUSH32 0xFFFFFFFFFFFFFFFFFFFFFFFFFFFFFFFFFFFFFFFFFFFFFFFFFFFFFFFFFFFFFFFF DUP3 SUB PUSH2 0x1FA0 JUMPI PUSH2 0x1F9F PUSH2 0x1F37 JUMP JUMPDEST JUMPDEST PUSH1 0x1 DUP3 ADD SWAP1 POP SWAP2 SWAP1 POP JUMP JUMPDEST PUSH32 0x4E487B7100000000000000000000000000000000000000000000000000000000 PUSH0 MSTORE PUSH1 0x32 PUSH1 0x4 MSTORE PUSH1 0x24 PUSH0 REVERT JUMPDEST PUSH32 0x4E487B7100000000000000000000000000000000000000000000000000000000 PUSH0 MSTORE PUSH1 0x12 PUSH1 0x4 MSTORE PUSH1 0x24 PUSH0 REVERT JUMPDEST PUSH0 PUSH2 0x200F DUP3 PUSH2 0x1577 JUMP JUMPDEST SWAP2 POP PUSH2 0x201A DUP4 PUSH2 0x1577 JUMP JUMPDEST SWAP3 POP DUP3 PUSH2 0x202A JUMPI PUSH2 0x2029 PUSH2 0x1FD8 JUMP JUMPDEST JUMPDEST DUP3 DUP3 DIV SWAP1 POP SWAP3 SWAP2 POP POP JUMP JUMPDEST PUSH0 PUSH2 0x203F DUP3 PUSH2 0x1577 JUMP JUMPDEST SWAP2 POP PUSH2 0x204A DUP4 PUSH2 0x1577 JUMP JUMPDEST SWAP3 POP DUP3 PUSH2 0x205A JUMPI PUSH2 0x2059 PUSH2 0x1FD8 JUMP JUMPDEST JUMPDEST DUP3 DUP3 MOD SWAP1 POP SWAP3 SWAP2 POP POP JUMP JUMPDEST PUSH0 PUSH2 0x206F DUP3 PUSH2 0x1577 JUMP JUMPDEST SWAP2 POP PUSH2 0x207A DUP4 PUSH2 0x1577 JUMP JUMPDEST SWAP3 POP DUP3 DUP3 MUL PUSH2 0x2088 DUP2 PUSH2 0x1577 JUMP JUMPDEST SWAP2 POP DUP3 DUP3 DIV DUP5 EQ DUP4 ISZERO OR PUSH2 0x209F JUMPI PUSH2 0x209E PUSH2 0x1F37 JUMP JUMPDEST JUMPDEST POP SWAP3 SWAP2 POP POP JUMP JUMPDEST PUSH0 PUSH2 0x20B0 DUP3 PUSH2 0x1577 JUMP JUMPDEST SWAP2 POP PUSH2 0x20BB DUP4 PUSH2 0x1577 JUMP JUMPDEST SWAP3 POP DUP3 DUP3 ADD SWAP1 POP DUP1 DUP3 GT ISZERO PUSH2 0x20D3 JUMPI PUSH2 0x20D2 PUSH2 0x1F37 JUMP JUMPDEST JUMPDEST SWAP3 SWAP2 POP POP JUMP JUMPDEST PUSH0 DUP2 SWAP1 POP SWAP3 SWAP2 POP POP JUMP JUMPDEST PUSH0 PUSH2 0x20ED DUP3 PUSH2 0x173A JUMP JUMPDEST PUSH2 0x20F7 DUP2 DUP6 PUSH2 0x20D9 JUMP JUMPDEST SWAP4 POP PUSH2 0x2107 DUP2 DUP6 PUSH1 0x20 DUP7 ADD PUSH2 0x1754 JUMP JUMPDEST DUP1 DUP5 ADD SWAP2 POP POP SWAP3 SWAP2 POP POP JUMP JUMPDEST PUSH32 0x3A00000000000000000000000000000000000000000000000000000000000000 PUSH0 DUP3 ADD MSTORE POP JUMP JUMPDEST PUSH0 PUSH2 0x2147 PUSH1 0x1 DUP4 PUSH2 0x20D9 JUMP JUMPDEST SWAP2 POP PUSH2 0x2152 DUP3 PUSH2 0x2113 JUMP JUMPDEST PUSH1 0x1 DUP3 ADD SWAP1 POP SWAP2 SWAP1 POP JUMP JUMPDEST PUSH32 0x2D00000000000000000000000000000000000000000000000000000000000000 PUSH0 DUP3 ADD MSTORE POP JUMP JUMPDEST PUSH0 PUSH2 0x2191 PUSH1 0x1 DUP4 PUSH2 0x20D9 JUMP JUMPDEST SWAP2 POP PUSH2 0x219C DUP3 PUSH2 0x215D JUMP JUMPDEST PUSH1 0x1 DUP3 ADD SWAP1 POP SWAP2 SWAP1 POP JUMP JUMPDEST PUSH0 PUSH2 0x21B2 DUP3 DUP8 PUSH2 0x20E3 JUMP JUMPDEST SWAP2 POP PUSH2 0x21BD DUP3 PUSH2 0x213B JUMP JUMPDEST SWAP2 POP PUSH2 0x21C9 DUP3 DUP7 PUSH2 0x20E3 JUMP JUMPDEST SWAP2 POP PUSH2 0x21D4 DUP3 PUSH2 0x2185 JUMP JUMPDEST SWAP2 POP PUSH2 0x21E0 DUP3 DUP6 PUSH2 0x20E3 JUMP JUMPDEST SWAP2 POP PUSH2 0x21EB DUP3 PUSH2 0x213B JUMP JUMPDEST SWAP2 POP PUSH2 0x21F7 DUP3 DUP5 PUSH2 0x20E3 JUMP JUMPDEST SWAP2 POP DUP2 SWAP1 POP SWAP6 SWAP5 POP POP POP POP POP JUMP JUMPDEST PUSH32 0x4E487B7100000000000000000000000000000000000000000000000000000000 PUSH0 MSTORE PUSH1 0x22 PUSH1 0x4 MSTORE PUSH1 0x24 PUSH0 REVERT JUMPDEST PUSH0 PUSH1 0x2 DUP3 DIV SWAP1 POP PUSH1 0x1 DUP3 AND DUP1 PUSH2 0x2249 JUMPI PUSH1 0x7F DUP3 AND SWAP2 POP JUMPDEST PUSH1 0x20 DUP3 LT DUP2 SUB PUSH2 0x225C JUMPI PUSH2 0x225B PUSH2 0x2205 JUMP JUMPDEST JUMPDEST POP SWAP2 SWAP1 POP JUMP JUMPDEST PUSH32 0x496E73756666696369656E74207061727469636970616E742062616C616E6365 PUSH0 DUP3 ADD MSTORE POP JUMP JUMPDEST PUSH0 PUSH2 0x2296 PUSH1 0x20 DUP4 PUSH2 0x18B5 JUMP JUMPDEST SWAP2 POP PUSH2 0x22A1 DUP3 PUSH2 0x2262 JUMP JUMPDEST PUSH1 0x20 DUP3 ADD SWAP1 POP SWAP2 SWAP1 POP JUMP JUMPDEST PUSH0 PUSH1 0x20 DUP3 ADD SWAP1 POP DUP2 DUP2 SUB PUSH0 DUP4 ADD MSTORE PUSH2 0x22C3 DUP2 PUSH2 0x228A JUMP JUMPDEST SWAP1 POP SWAP2 SWAP1 POP JUMP JUMPDEST PUSH32 0x4E6F2061646D696E7320617661696C61626C6500000000000000000000000000 PUSH0 DUP3 ADD MSTORE POP JUMP JUMPDEST PUSH0 PUSH2 0x22FE PUSH1 0x13 DUP4 PUSH2 0x18B5 JUMP JUMPDEST SWAP2 POP PUSH2 0x2309 DUP3 PUSH2 0x22CA JUMP JUMPDEST PUSH1 0x20 DUP3 ADD SWAP1 POP SWAP2 SWAP1 POP JUMP JUMPDEST PUSH0 PUSH1 0x20 DUP3 ADD SWAP1 POP DUP2 DUP2 SUB PUSH0 DUP4 ADD MSTORE PUSH2 0x232B DUP2 PUSH2 0x22F2 JUMP JUMPDEST SWAP1 POP SWAP2 SWAP1 POP JUMP JUMPDEST PUSH32 0x496E76616C696420736C6F742049440000000000000000000000000000000000 PUSH0 DUP3 ADD MSTORE POP JUMP JUMPDEST PUSH0 PUSH2 0x2366 PUSH1 0xF DUP4 PUSH2 0x18B5 JUMP JUMPDEST SWAP2 POP PUSH2 0x2371 DUP3 PUSH2 0x2332 JUMP JUMPDEST PUSH1 0x20 DUP3 ADD SWAP1 POP SWAP2 SWAP1 POP JUMP JUMPDEST PUSH0 PUSH1 0x20 DUP3 ADD SWAP1 POP DUP2 DUP2 SUB PUSH0 DUP4 ADD MSTORE PUSH2 0x2393 DUP2 PUSH2 0x235A JUMP JUMPDEST SWAP1 POP SWAP2 SWAP1 POP JUMP JUMPDEST PUSH32 0x536C6F7420697320616C726561647920626F6F6B656400000000000000000000 PUSH0 DUP3 ADD MSTORE POP JUMP JUMPDEST PUSH0 PUSH2 0x23CE PUSH1 0x16 DUP4 PUSH2 0x18B5 JUMP JUMPDEST SWAP2 POP PUSH2 0x23D9 DUP3 PUSH2 0x239A JUMP JUMPDEST PUSH1 0x20 DUP3 ADD SWAP1 POP SWAP2 SWAP1 POP JUMP JUMPDEST PUSH0 PUSH1 0x20 DUP3 ADD SWAP1 POP DUP2 DUP2 SUB PUSH0 DUP4 ADD MSTORE PUSH2 0x23FB DUP2 PUSH2 0x23C2 JUMP JUMPDEST SWAP1 POP SWAP2 SWAP1 POP JUMP JUMPDEST PUSH0 DUP2 SWAP1 POP SWAP2 SWAP1 POP JUMP JUMPDEST PUSH2 0x241C PUSH2 0x2417 DUP3 PUSH2 0x1577 JUMP JUMPDEST PUSH2 0x2402 JUMP JUMPDEST DUP3 MSTORE POP POP JUMP JUMPDEST PUSH0 PUSH2 0x242D DUP3 DUP7 PUSH2 0x240B JUMP JUMPDEST PUSH1 0x20 DUP3 ADD SWAP2 POP PUSH2 0x243D DUP3 DUP6 PUSH2 0x240B JUMP JUMPDEST PUSH1 0x20 DUP3 ADD SWAP2 POP PUSH2 0x244D DUP3 DUP5 PUSH2 0x240B JUMP JUMPDEST PUSH1 0x20 DUP3 ADD SWAP2 POP DUP2 SWAP1 POP SWAP5 SWAP4 POP POP POP POP JUMP JUMPDEST PUSH0 PUSH2 0x2468 DUP3 PUSH2 0x1577 JUMP JUMPDEST SWAP2 POP PUSH2 0x2473 DUP4 PUSH2 0x1577 JUMP JUMPDEST SWAP3 POP DUP3 DUP3 SUB SWAP1 POP DUP2 DUP2 GT ISZERO PUSH2 0x248B JUMPI PUSH2 0x248A PUSH2 0x1F37 JUMP JUMPDEST JUMPDEST SWAP3 SWAP2 POP POP JUMP JUMPDEST PUSH32 0x496E76616C696420616765000000000000000000000000000000000000000000 PUSH0 DUP3 ADD MSTORE POP JUMP JUMPDEST PUSH0 PUSH2 0x24C5 PUSH1 0xB DUP4 PUSH2 0x18B5 JUMP JUMPDEST SWAP2 POP PUSH2 0x24D0 DUP3 PUSH2 0x2491 JUMP JUMPDEST PUSH1 0x20 DUP3 ADD SWAP1 POP SWAP2 SWAP1 POP JUMP JUMPDEST PUSH0 PUSH1 0x20 DUP3 ADD SWAP1 POP DUP2 DUP2 SUB PUSH0 DUP4 ADD MSTORE PUSH2 0x24F2 DUP2 PUSH2 0x24B9 JUMP JUMPDEST SWAP1 POP SWAP2 SWAP1 POP JUMP JUMPDEST PUSH32 0x496E76616C696420494400000000000000000000000000000000000000000000 PUSH0 DUP3 ADD MSTORE POP JUMP JUMPDEST PUSH0 PUSH2 0x252D PUSH1 0xA DUP4 PUSH2 0x18B5 JUMP JUMPDEST SWAP2 POP PUSH2 0x2538 DUP3 PUSH2 0x24F9 JUMP JUMPDEST PUSH1 0x20 DUP3 ADD SWAP1 POP SWAP2 SWAP1 POP JUMP JUMPDEST PUSH0 PUSH1 0x20 DUP3 ADD SWAP1 POP DUP2 DUP2 SUB PUSH0 DUP4 ADD MSTORE PUSH2 0x255A DUP2 PUSH2 0x2521 JUMP JUMPDEST SWAP1 POP SWAP2 SWAP1 POP JUMP JUMPDEST PUSH32 0x547261696E657220494420616C72656164792065786973747300000000000000 PUSH0 DUP3 ADD MSTORE POP JUMP JUMPDEST PUSH0 PUSH2 0x2595 PUSH1 0x19 DUP4 PUSH2 0x18B5 JUMP JUMPDEST SWAP2 POP PUSH2 0x25A0 DUP3 PUSH2 0x2561 JUMP JUMPDEST PUSH1 0x20 DUP3 ADD SWAP1 POP SWAP2 SWAP1 POP JUMP JUMPDEST PUSH0 PUSH1 0x20 DUP3 ADD SWAP1 POP DUP2 DUP2 SUB PUSH0 DUP4 ADD MSTORE PUSH2 0x25C2 DUP2 PUSH2 0x2589 JUMP JUMPDEST SWAP1 POP SWAP2 SWAP1 POP JUMP JUMPDEST PUSH0 DUP2 SWAP1 POP DUP2 PUSH0 MSTORE PUSH1 0x20 PUSH0 KECCAK256 SWAP1 POP SWAP2 SWAP1 POP JUMP JUMPDEST PUSH0 PUSH1 0x20 PUSH1 0x1F DUP4 ADD DIV SWAP1 POP SWAP2 SWAP1 POP JUMP JUMPDEST PUSH0 DUP3 DUP3 SHL SWAP1 POP SWAP3 SWAP2 POP POP JUMP JUMPDEST PUSH0 PUSH1 0x8 DUP4 MUL PUSH2 0x2625 PUSH32 0xFFFFFFFFFFFFFFFFFFFFFFFFFFFFFFFFFFFFFFFFFFFFFFFFFFFFFFFFFFFFFFFF DUP3 PUSH2 0x25EA JUMP JUMPDEST PUSH2 0x262F DUP7 DUP4 PUSH2 0x25EA JUMP JUMPDEST SWAP6 POP DUP1 NOT DUP5 AND SWAP4 POP DUP1 DUP7 AND DUP5 OR SWAP3 POP POP POP SWAP4 SWAP3 POP POP POP JUMP JUMPDEST PUSH0 DUP2 SWAP1 POP SWAP2 SWAP1 POP JUMP JUMPDEST PUSH0 PUSH2 0x266A PUSH2 0x2665 PUSH2 0x2660 DUP5 PUSH2 0x1577 JUMP JUMPDEST PUSH2 0x2647 JUMP JUMPDEST PUSH2 0x1577 JUMP JUMPDEST SWAP1 POP SWAP2 SWAP1 POP JUMP JUMPDEST PUSH0 DUP2 SWAP1 POP SWAP2 SWAP1 POP JUMP JUMPDEST PUSH2 0x2683 DUP4 PUSH2 0x2650 JUMP JUMPDEST PUSH2 0x2697 PUSH2 0x268F DUP3 PUSH2 0x2671 JUMP JUMPDEST DUP5 DUP5 SLOAD PUSH2 0x25F6 JUMP JUMPDEST DUP3 SSTORE POP POP POP POP JUMP JUMPDEST PUSH0 PUSH0 SWAP1 POP SWAP1 JUMP JUMPDEST PUSH2 0x26AE PUSH2 0x269F JUMP JUMPDEST PUSH2 0x26B9 DUP2 DUP5 DUP5 PUSH2 0x267A JUMP JUMPDEST POP POP POP JUMP JUMPDEST JUMPDEST DUP2 DUP2 LT ISZERO PUSH2 0x26DC JUMPI PUSH2 0x26D1 PUSH0 DUP3 PUSH2 0x26A6 JUMP JUMPDEST PUSH1 0x1 DUP2 ADD SWAP1 POP PUSH2 0x26BF JUMP JUMPDEST POP POP JUMP JUMPDEST PUSH1 0x1F DUP3 GT ISZERO PUSH2 0x2721 JUMPI PUSH2 0x26F2 DUP2 PUSH2 0x25C9 JUMP JUMPDEST PUSH2 0x26FB DUP5 PUSH2 0x25DB JUMP JUMPDEST DUP2 ADD PUSH1 0x20 DUP6 LT ISZERO PUSH2 0x270A JUMPI DUP2 SWAP1 POP JUMPDEST PUSH2 0x271E PUSH2 0x2716 DUP6 PUSH2 0x25DB JUMP JUMPDEST DUP4 ADD DUP3 PUSH2 0x26BE JUMP JUMPDEST POP POP JUMPDEST POP POP POP JUMP JUMPDEST PUSH0 DUP3 DUP3 SHR SWAP1 POP SWAP3 SWAP2 POP POP JUMP JUMPDEST PUSH0 PUSH2 0x2741 PUSH0 NOT DUP5 PUSH1 0x8 MUL PUSH2 0x2726 JUMP JUMPDEST NOT DUP1 DUP4 AND SWAP2 POP POP SWAP3 SWAP2 POP POP JUMP JUMPDEST PUSH0 PUSH2 0x2759 DUP4 DUP4 PUSH2 0x2732 JUMP JUMPDEST SWAP2 POP DUP3 PUSH1 0x2 MUL DUP3 OR SWAP1 POP SWAP3 SWAP2 POP POP JUMP JUMPDEST PUSH2 0x2772 DUP3 PUSH2 0x173A JUMP JUMPDEST PUSH8 0xFFFFFFFFFFFFFFFF DUP2 GT ISZERO PUSH2 0x278B JUMPI PUSH2 0x278A PUSH2 0x1A0E JUMP JUMPDEST JUMPDEST PUSH2 0x2795 DUP3 SLOAD PUSH2 0x2232 JUMP JUMPDEST PUSH2 0x27A0 DUP3 DUP3 DUP6 PUSH2 0x26E0 JUMP JUMPDEST PUSH0 PUSH1 0x20 SWAP1 POP PUSH1 0x1F DUP4 GT PUSH1 0x1 DUP2 EQ PUSH2 0x27D1 JUMPI PUSH0 DUP5 ISZERO PUSH2 0x27BF JUMPI DUP3 DUP8 ADD MLOAD SWAP1 POP JUMPDEST PUSH2 0x27C9 DUP6 DUP3 PUSH2 0x274E JUMP JUMPDEST DUP7 SSTORE POP PUSH2 0x2830 JUMP JUMPDEST PUSH1 0x1F NOT DUP5 AND PUSH2 0x27DF DUP7 PUSH2 0x25C9 JUMP JUMPDEST PUSH0 JUMPDEST DUP3 DUP2 LT ISZERO PUSH2 0x2806 JUMPI DUP5 DUP10 ADD MLOAD DUP3 SSTORE PUSH1 0x1 DUP3 ADD SWAP2 POP PUSH1 0x20 DUP6 ADD SWAP5 POP PUSH1 0x20 DUP2 ADD SWAP1 POP PUSH2 0x27E1 JUMP JUMPDEST DUP7 DUP4 LT ISZERO PUSH2 0x2823 JUMPI DUP5 DUP10 ADD MLOAD PUSH2 0x281F PUSH1 0x1F DUP10 AND DUP3 PUSH2 0x2732 JUMP JUMPDEST DUP4 SSTORE POP JUMPDEST PUSH1 0x1 PUSH1 0x2 DUP9 MUL ADD DUP9 SSTORE POP POP POP JUMPDEST POP POP POP POP POP POP JUMP JUMPDEST PUSH32 0x41646D696E20494420616C726561647920657869737473000000000000000000 PUSH0 DUP3 ADD MSTORE POP JUMP JUMPDEST PUSH0 PUSH2 0x286C PUSH1 0x17 DUP4 PUSH2 0x18B5 JUMP JUMPDEST SWAP2 POP PUSH2 0x2877 DUP3 PUSH2 0x2838 JUMP JUMPDEST PUSH1 0x20 DUP3 ADD SWAP1 POP SWAP2 SWAP1 POP JUMP JUMPDEST PUSH0 PUSH1 0x20 DUP3 ADD SWAP1 POP DUP2 DUP2 SUB PUSH0 DUP4 ADD MSTORE PUSH2 0x2899 DUP2 PUSH2 0x2860 JUMP JUMPDEST SWAP1 POP SWAP2 SWAP1 POP JUMP JUMPDEST PUSH32 0x5061727469636970616E7420494420616C726561647920657869737473000000 PUSH0 DUP3 ADD MSTORE POP JUMP JUMPDEST PUSH0 PUSH2 0x28D4 PUSH1 0x1D DUP4 PUSH2 0x18B5 JUMP JUMPDEST SWAP2 POP PUSH2 0x28DF DUP3 PUSH2 0x28A0 JUMP JUMPDEST PUSH1 0x20 DUP3 ADD SWAP1 POP SWAP2 SWAP1 POP JUMP JUMPDEST PUSH0 PUSH1 0x20 DUP3 ADD SWAP1 POP DUP2 DUP2 SUB PUSH0 DUP4 ADD MSTORE PUSH2 0x2901 DUP2 PUSH2 0x28C8 JUMP JUMPDEST SWAP1 POP SWAP2 SWAP1 POP JUMP JUMPDEST PUSH32 0x3000000000000000000000000000000000000000000000000000000000000000 PUSH0 DUP3 ADD MSTORE POP JUMP JUMPDEST PUSH0 PUSH2 0x293C PUSH1 0x1 DUP4 PUSH2 0x20D9 JUMP JUMPDEST SWAP2 POP PUSH2 0x2947 DUP3 PUSH2 0x2908 JUMP JUMPDEST PUSH1 0x1 DUP3 ADD SWAP1 POP SWAP2 SWAP1 POP JUMP JUMPDEST PUSH0 PUSH32 0xFF00000000000000000000000000000000000000000000000000000000000000 DUP3 AND SWAP1 POP SWAP2 SWAP1 POP JUMP JUMPDEST PUSH0 DUP2 SWAP1 POP SWAP2 SWAP1 POP JUMP JUMPDEST PUSH2 0x2997 PUSH2 0x2992 DUP3 PUSH2 0x2952 JUMP JUMPDEST PUSH2 0x297D JUMP JUMPDEST DUP3 MSTORE POP POP JUMP JUMPDEST PUSH0 PUSH2 0x29A7 DUP3 PUSH2 0x2930 JUMP JUMPDEST SWAP2 POP PUSH2 0x29B3 DUP3 DUP5 PUSH2 0x2986 JUMP JUMPDEST PUSH1 0x1 DUP3 ADD SWAP2 POP DUP2 SWAP1 POP SWAP3 SWAP2 POP POP JUMP INVALID LOG2 PUSH5 0x6970667358 0x22 SLT KECCAK256 0x22 SHR 0xC6 MULMOD SWAP1 DUP12 0xD8 ADDMOD 0xCA 0xE2 DUP12 DUP13 DUP15 0x2B SWAP1 0xB8 0xD0 SWAP15 0xBB STOP PUSH24 0x6999D1770CDC73671E9F6D64736F6C634300081E00330000 "
				},
				"gasEstimates": {
					"creation": {
						"codeDepositCost": "2148800",
						"executionCost": "17323",
						"totalCost": "2166123"
					},
					"external": {
						"bookTrainingSlot(uint256,uint256,uint256)": "infinite",
						"registerAdmin(uint256,string,uint256)": "infinite",
						"registerParticipant(uint256,string,uint256,string,string,uint256,bool)": "infinite",
						"registerTrainer(uint256,string,uint256,string)": "infinite",
						"updateParticipantData(uint256,uint256,bool)": "infinite",
						"viewAdminBalance()": "infinite",
						"viewParticipantData(uint256)": "infinite",
						"viewTrainerSchedule(uint256)": "infinite"
					},
					"internal": {
						"_toString(uint256)": "infinite"
					}
				},
				"methodIdentifiers": {
					"bookTrainingSlot(uint256,uint256,uint256)": "6620f95f",
					"registerAdmin(uint256,string,uint256)": "710e2aba",
					"registerParticipant(uint256,string,uint256,string,string,uint256,bool)": "a30b027b",
					"registerTrainer(uint256,string,uint256,string)": "6c80cd33",
					"updateParticipantData(uint256,uint256,bool)": "3a7002e1",
					"viewAdminBalance()": "5a29dc29",
					"viewParticipantData(uint256)": "5ffc80f2",
					"viewTrainerSchedule(uint256)": "51eca4dd"
				}
			},
			"storageLayout": {
				"storage": [
					{
						"astId": 52,
						"contract": "contracts/DisasterRecoveryTraining.sol:DisasterRecoveryTraining",
						"label": "adminCount",
						"offset": 0,
						"slot": "0",
						"type": "t_uint256"
					},
					{
						"astId": 54,
						"contract": "contracts/DisasterRecoveryTraining.sol:DisasterRecoveryTraining",
						"label": "trainerCount",
						"offset": 0,
						"slot": "1",
						"type": "t_uint256"
					},
					{
						"astId": 56,
						"contract": "contracts/DisasterRecoveryTraining.sol:DisasterRecoveryTraining",
						"label": "participantCount",
						"offset": 0,
						"slot": "2",
						"type": "t_uint256"
					},
					{
						"astId": 70,
						"contract": "contracts/DisasterRecoveryTraining.sol:DisasterRecoveryTraining",
						"label": "admins",
						"offset": 0,
						"slot": "3",
						"type": "t_mapping(t_uint256,t_struct(Admin)14_storage)"
					},
					{
						"astId": 75,
						"contract": "contracts/DisasterRecoveryTraining.sol:DisasterRecoveryTraining",
						"label": "trainers",
						"offset": 0,
						"slot": "4",
						"type": "t_mapping(t_uint256,t_struct(Trainer)23_storage)"
					},
					{
						"astId": 80,
						"contract": "contracts/DisasterRecoveryTraining.sol:DisasterRecoveryTraining",
						"label": "participants",
						"offset": 0,
						"slot": "5",
						"type": "t_mapping(t_uint256,t_struct(Participant)41_storage)"
					},
					{
						"astId": 87,
						"contract": "contracts/DisasterRecoveryTraining.sol:DisasterRecoveryTraining",
						"label": "trainerSlots",
						"offset": 0,
						"slot": "6",
						"type": "t_mapping(t_uint256,t_mapping(t_uint256,t_struct(TrainingSlot)50_storage))"
					},
					{
						"astId": 90,
						"contract": "contracts/DisasterRecoveryTraining.sol:DisasterRecoveryTraining",
						"label": "adminIds",
						"offset": 0,
						"slot": "7",
						"type": "t_array(t_uint256)dyn_storage"
					}
				],
				"types": {
					"t_array(t_uint256)dyn_storage": {
						"base": "t_uint256",
						"encoding": "dynamic_array",
						"label": "uint256[]",
						"numberOfBytes": "32"
					},
					"t_bool": {
						"encoding": "inplace",
						"label": "bool",
						"numberOfBytes": "1"
					},
					"t_enum(TrainingType)5": {
						"encoding": "inplace",
						"label": "enum DisasterRecoveryTraining.TrainingType",
						"numberOfBytes": "1"
					},
					"t_mapping(t_uint256,t_mapping(t_uint256,t_struct(TrainingSlot)50_storage))": {
						"encoding": "mapping",
						"key": "t_uint256",
						"label": "mapping(uint256 => mapping(uint256 => struct DisasterRecoveryTraining.TrainingSlot))",
						"numberOfBytes": "32",
						"value": "t_mapping(t_uint256,t_struct(TrainingSlot)50_storage)"
					},
					"t_mapping(t_uint256,t_struct(Admin)14_storage)": {
						"encoding": "mapping",
						"key": "t_uint256",
						"label": "mapping(uint256 => struct DisasterRecoveryTraining.Admin)",
						"numberOfBytes": "32",
						"value": "t_struct(Admin)14_storage"
					},
					"t_mapping(t_uint256,t_struct(Participant)41_storage)": {
						"encoding": "mapping",
						"key": "t_uint256",
						"label": "mapping(uint256 => struct DisasterRecoveryTraining.Participant)",
						"numberOfBytes": "32",
						"value": "t_struct(Participant)41_storage"
					},
					"t_mapping(t_uint256,t_struct(Trainer)23_storage)": {
						"encoding": "mapping",
						"key": "t_uint256",
						"label": "mapping(uint256 => struct DisasterRecoveryTraining.Trainer)",
						"numberOfBytes": "32",
						"value": "t_struct(Trainer)23_storage"
					},
					"t_mapping(t_uint256,t_struct(TrainingSlot)50_storage)": {
						"encoding": "mapping",
						"key": "t_uint256",
						"label": "mapping(uint256 => struct DisasterRecoveryTraining.TrainingSlot)",
						"numberOfBytes": "32",
						"value": "t_struct(TrainingSlot)50_storage"
					},
					"t_string_storage": {
						"encoding": "bytes",
						"label": "string",
						"numberOfBytes": "32"
					},
					"t_struct(Admin)14_storage": {
						"encoding": "inplace",
						"label": "struct DisasterRecoveryTraining.Admin",
						"members": [
							{
								"astId": 7,
								"contract": "contracts/DisasterRecoveryTraining.sol:DisasterRecoveryTraining",
								"label": "id",
								"offset": 0,
								"slot": "0",
								"type": "t_uint256"
							},
							{
								"astId": 9,
								"contract": "contracts/DisasterRecoveryTraining.sol:DisasterRecoveryTraining",
								"label": "name",
								"offset": 0,
								"slot": "1",
								"type": "t_string_storage"
							},
							{
								"astId": 11,
								"contract": "contracts/DisasterRecoveryTraining.sol:DisasterRecoveryTraining",
								"label": "age",
								"offset": 0,
								"slot": "2",
								"type": "t_uint256"
							},
							{
								"astId": 13,
								"contract": "contracts/DisasterRecoveryTraining.sol:DisasterRecoveryTraining",
								"label": "balance",
								"offset": 0,
								"slot": "3",
								"type": "t_uint256"
							}
						],
						"numberOfBytes": "128"
					},
					"t_struct(Participant)41_storage": {
						"encoding": "inplace",
						"label": "struct DisasterRecoveryTraining.Participant",
						"members": [
							{
								"astId": 25,
								"contract": "contracts/DisasterRecoveryTraining.sol:DisasterRecoveryTraining",
								"label": "id",
								"offset": 0,
								"slot": "0",
								"type": "t_uint256"
							},
							{
								"astId": 27,
								"contract": "contracts/DisasterRecoveryTraining.sol:DisasterRecoveryTraining",
								"label": "name",
								"offset": 0,
								"slot": "1",
								"type": "t_string_storage"
							},
							{
								"astId": 29,
								"contract": "contracts/DisasterRecoveryTraining.sol:DisasterRecoveryTraining",
								"label": "age",
								"offset": 0,
								"slot": "2",
								"type": "t_uint256"
							},
							{
								"astId": 31,
								"contract": "contracts/DisasterRecoveryTraining.sol:DisasterRecoveryTraining",
								"label": "gender",
								"offset": 0,
								"slot": "3",
								"type": "t_string_storage"
							},
							{
								"astId": 33,
								"contract": "contracts/DisasterRecoveryTraining.sol:DisasterRecoveryTraining",
								"label": "district",
								"offset": 0,
								"slot": "4",
								"type": "t_string_storage"
							},
							{
								"astId": 36,
								"contract": "contracts/DisasterRecoveryTraining.sol:DisasterRecoveryTraining",
								"label": "training_interest",
								"offset": 0,
								"slot": "5",
								"type": "t_enum(TrainingType)5"
							},
							{
								"astId": 38,
								"contract": "contracts/DisasterRecoveryTraining.sol:DisasterRecoveryTraining",
								"label": "has_completed_training",
								"offset": 1,
								"slot": "5",
								"type": "t_bool"
							},
							{
								"astId": 40,
								"contract": "contracts/DisasterRecoveryTraining.sol:DisasterRecoveryTraining",
								"label": "balance",
								"offset": 0,
								"slot": "6",
								"type": "t_uint256"
							}
						],
						"numberOfBytes": "224"
					},
					"t_struct(Trainer)23_storage": {
						"encoding": "inplace",
						"label": "struct DisasterRecoveryTraining.Trainer",
						"members": [
							{
								"astId": 16,
								"contract": "contracts/DisasterRecoveryTraining.sol:DisasterRecoveryTraining",
								"label": "id",
								"offset": 0,
								"slot": "0",
								"type": "t_uint256"
							},
							{
								"astId": 18,
								"contract": "contracts/DisasterRecoveryTraining.sol:DisasterRecoveryTraining",
								"label": "name",
								"offset": 0,
								"slot": "1",
								"type": "t_string_storage"
							},
							{
								"astId": 20,
								"contract": "contracts/DisasterRecoveryTraining.sol:DisasterRecoveryTraining",
								"label": "age",
								"offset": 0,
								"slot": "2",
								"type": "t_uint256"
							},
							{
								"astId": 22,
								"contract": "contracts/DisasterRecoveryTraining.sol:DisasterRecoveryTraining",
								"label": "gender",
								"offset": 0,
								"slot": "3",
								"type": "t_string_storage"
							}
						],
						"numberOfBytes": "128"
					},
					"t_struct(TrainingSlot)50_storage": {
						"encoding": "inplace",
						"label": "struct DisasterRecoveryTraining.TrainingSlot",
						"members": [
							{
								"astId": 43,
								"contract": "contracts/DisasterRecoveryTraining.sol:DisasterRecoveryTraining",
								"label": "slotId",
								"offset": 0,
								"slot": "0",
								"type": "t_uint256"
							},
							{
								"astId": 45,
								"contract": "contracts/DisasterRecoveryTraining.sol:DisasterRecoveryTraining",
								"label": "trainerId",
								"offset": 0,
								"slot": "1",
								"type": "t_uint256"
							},
							{
								"astId": 47,
								"contract": "contracts/DisasterRecoveryTraining.sol:DisasterRecoveryTraining",
								"label": "participantId",
								"offset": 0,
								"slot": "2",
								"type": "t_uint256"
							},
							{
								"astId": 49,
								"contract": "contracts/DisasterRecoveryTraining.sol:DisasterRecoveryTraining",
								"label": "isBooked",
								"offset": 0,
								"slot": "3",
								"type": "t_bool"
							}
						],
						"numberOfBytes": "128"
					},
					"t_uint256": {
						"encoding": "inplace",
						"label": "uint256",
						"numberOfBytes": "32"
					}
				}
			},
			"userdoc": {
				"kind": "user",
				"methods": {},
				"version": 1
			}
		}
	}
}