{
	"data": {
		"bytecode": {
			"linkReferences": {},
			"object": "6080604052348015600e575f5ffd5b505f5f819055505f6001819055505f6002819055506129f8806100305f395ff3fe608060405234801561000f575f5ffd5b5060043610610086575f3560e01c80636620f95f116100595780636620f95f1461012d5780636c80cd331461015d578063710e2aba1461018d578063a30b027b146101bd57610086565b80633a7002e11461008a57806351eca4dd146100a65780635a29dc29146100d75780635ffc80f2146100f6575b5f5ffd5b6100a4600480360381019061009f91906115df565b6101ed565b005b6100c060048036038101906100bb919061162f565b610353565b6040516100ce92919061183c565b60405180910390f35b6100df6106d5565b6040516100ed929190611871565b60405180910390f35b610110600480360381019061010b919061162f565b61081f565b60405161012498979695949392919061190c565b60405180910390f35b6101476004803603810190610142919061199d565b610b15565b60405161015491906119ed565b60405180910390f35b61017760048036038101906101729190611b32565b610e6c565b6040516101849190611bce565b60405180910390f35b6101a760048036038101906101a29190611be7565b610fdb565b6040516101b49190611bce565b60405180910390f35b6101d760048036038101906101d29190611c53565b611162565b6040516101e49190611bce565b60405180910390f35b5f60055f8581526020019081526020015f205f015403610242576040517f08c379a000000000000000000000000000000000000000000000000000000000815260040161023990611d8e565b60405180910390fd5b6002821115610286576040517f08c379a000000000000000000000000000000000000000000000000000000000815260040161027d90611df6565b60405180910390fd5b5f60055f8581526020019081526020015f2090508060050160019054906101000a900460ff1615806102b55750815b6102f4576040517f08c379a00000000000000000000000000000000000000000000000000000000081526004016102eb90611e84565b60405180910390fd5b82600281111561030757610306611ea2565b5b816005015f6101000a81548160ff0219169083600281111561032c5761032b611ea2565b5b0217905550818160050160016101000a81548160ff02191690831515021790555050505050565b6060805f60045f8581526020019081526020015f205f0154036103ab576040517f08c379a00000000000000000000000000000000000000000000000000000000081526004016103a290611f19565b60405180910390fd5b5f5f90505f5f90505b603081101561040d5760065f8681526020019081526020015f205f8281526020019081526020015f206003015f9054906101000a900460ff166104005781806103fc90611f64565b9250505b80806001019150506103b4565b508067ffffffffffffffff81111561042857610427611a0e565b5b6040519080825280602002602001820160405280156104565781602001602082028036833780820191505090505b5092508067ffffffffffffffff81111561047357610472611a0e565b5b6040519080825280602002602001820160405280156104a657816020015b60608152602001906001900390816104915790505b5091505f5f90505f5f90505b60308110156106cd5760065f8781526020019081526020015f205f8281526020019081526020015f206003015f9054906101000a900460ff166106c0578085838151811061050357610502611fab565b5b6020026020010181815250505f60028261051d9190612005565b90505f601e60028461052f9190612035565b6105399190612065565b90505f8290505f601e8361054d91906120a6565b9050603c810361056957818061056290611f64565b9250505f90505b610572846113ce565b5f84146105b4576040518060400160405280600281526020017f33300000000000000000000000000000000000000000000000000000000000008152506105eb565b6040518060400160405280600281526020017f30300000000000000000000000000000000000000000000000000000000000008152505b6105f4846113ce565b5f8414610636576040518060400160405280600281526020017f333000000000000000000000000000000000000000000000000000000000000081525061066d565b6040518060400160405280600281526020017f30300000000000000000000000000000000000000000000000000000000000008152505b60405160200161068094939291906121a7565b6040516020818303038152906040528887815181106106a2576106a1611fab565b5b602002602001018190525085806106b890611f64565b965050505050505b80806001019150506104b2565b505050915091565b6060805f60078054905090508067ffffffffffffffff8111156106fb576106fa611a0e565b5b6040519080825280602002602001820160405280156107295781602001602082028036833780820191505090505b5092508067ffffffffffffffff81111561074657610745611a0e565b5b6040519080825280602002602001820160405280156107745781602001602082028036833780820191505090505b5091505f5f90505b81811015610819575f6007828154811061079957610798611fab565b5b905f5260205f2001549050808583815181106107b8576107b7611fab565b5b602002602001018181525050670de0b6b3a764000060035f8381526020019081526020015f20600301546107ec9190612005565b8483815181106107ff576107fe611fab565b5b60200260200101818152505050808060010191505061077c565b50509091565b5f60605f6060805f5f5f5f60055f8b81526020019081526020015f205f01540361087e576040517f08c379a000000000000000000000000000000000000000000000000000000000815260040161087590611d8e565b60405180910390fd5b5f60055f8b81526020019081526020015f20604051806101000160405290815f82015481526020016001820180546108b590612232565b80601f01602080910402602001604051908101604052809291908181526020018280546108e190612232565b801561092c5780601f106109035761010080835404028352916020019161092c565b820191905f5260205f20905b81548152906001019060200180831161090f57829003601f168201915b505050505081526020016002820154815260200160038201805461094f90612232565b80601f016020809104026020016040519081016040528092919081815260200182805461097b90612232565b80156109c65780601f1061099d576101008083540402835291602001916109c6565b820191905f5260205f20905b8154815290600101906020018083116109a957829003601f168201915b505050505081526020016004820180546109df90612232565b80601f0160208091040260200160405190810160405280929190818152602001828054610a0b90612232565b8015610a565780601f10610a2d57610100808354040283529160200191610a56565b820191905f5260205f20905b815481529060010190602001808311610a3957829003601f168201915b50505050508152602001600582015f9054906101000a900460ff166002811115610a8357610a82611ea2565b5b6002811115610a9557610a94611ea2565b5b81526020016005820160019054906101000a900460ff161515151581526020016006820154815250509050805f015181602001518260400151836060015184608001518560a001516002811115610aef57610aee611ea2565b5b8660c001518760e001519850985098509850985098509850985050919395975091939597565b5f5f60045f8681526020019081526020015f205f015403610b6b576040517f08c379a0000000000000000000000000000000000000000000000000000000008152600401610b6290611f19565b60405180910390fd5b5f60055f8581526020019081526020015f205f015403610bc0576040517f08c379a0000000000000000000000000000000000000000000000000000000008152600401610bb790611d8e565b60405180910390fd5b670de0b6b3a764000060055f8581526020019081526020015f20600601541015610c1f576040517f08c379a0000000000000000000000000000000000000000000000000000000008152600401610c16906122ac565b60405180910390fd5b5f60078054905011610c66576040517f08c379a0000000000000000000000000000000000000000000000000000000008152600401610c5d90612314565b60405180910390fd5b60308210610ca9576040517f08c379a0000000000000000000000000000000000000000000000000000000008152600401610ca09061237c565b60405180910390fd5b60065f8581526020019081526020015f205f8381526020019081526020015f206003015f9054906101000a900460ff1615610d19576040517f08c379a0000000000000000000000000000000000000000000000000000000008152600401610d10906123e4565b60405180910390fd5b60405180608001604052808381526020018581526020018481526020016001151581525060065f8681526020019081526020015f205f8481526020019081526020015f205f820151815f015560208201518160010155604082015181600201556060820151816003015f6101000a81548160ff0219169083151502179055509050505f600780549050424486604051602001610db793929190612422565b604051602081830303815290604052805190602001205f1c610dd99190612035565b90505f60078281548110610df057610def611fab565b5b905f5260205f2001549050670de0b6b3a764000060055f8781526020019081526020015f206006015f828254610e26919061245e565b92505081905550670de0b6b3a764000060035f8381526020019081526020015f206003015f828254610e5891906120a6565b925050819055506001925050509392505050565b5f5f8311610eaf576040517f08c379a0000000000000000000000000000000000000000000000000000000008152600401610ea6906124db565b60405180910390fd5b5f8511610ef1576040517f08c379a0000000000000000000000000000000000000000000000000000000008152600401610ee890612543565b60405180910390fd5b5f60045f8781526020019081526020015f205f015414610f46576040517f08c379a0000000000000000000000000000000000000000000000000000000008152600401610f3d906125ab565b60405180910390fd5b60405180608001604052808681526020018581526020018481526020018381525060045f8781526020019081526020015f205f820151815f01556020820151816001019081610f959190612769565b50604082015181600201556060820151816003019081610fb59190612769565b5090505060015f815480929190610fcb90611f64565b9190505550849050949350505050565b5f5f821161101e576040517f08c379a0000000000000000000000000000000000000000000000000000000008152600401611015906124db565b60405180910390fd5b5f8411611060576040517f08c379a000000000000000000000000000000000000000000000000000000000815260040161105790612543565b60405180910390fd5b5f60035f8681526020019081526020015f205f0154146110b5576040517f08c379a00000000000000000000000000000000000000000000000000000000081526004016110ac90612882565b60405180910390fd5b60405180608001604052808581526020018481526020018381526020015f81525060035f8681526020019081526020015f205f820151815f015560208201518160010190816111049190612769565b506040820151816002015560608201518160030155905050600784908060018154018082558091505060019003905f5260205f20015f90919091909150555f5f81548092919061115390611f64565b91905055508390509392505050565b5f5f86116111a5576040517f08c379a000000000000000000000000000000000000000000000000000000000815260040161119c906124db565b60405180910390fd5b5f88116111e7576040517f08c379a00000000000000000000000000000000000000000000000000000000081526004016111de90612543565b60405180910390fd5b5f60055f8a81526020019081526020015f205f01541461123c576040517f08c379a0000000000000000000000000000000000000000000000000000000008152600401611233906128ea565b60405180910390fd5b6002831115611280576040517f08c379a000000000000000000000000000000000000000000000000000000000815260040161127790611df6565b60405180910390fd5b6040518061010001604052808981526020018881526020018781526020018681526020018581526020018460028111156112bd576112bc611ea2565b5b60028111156112cf576112ce611ea2565b5b81526020018315158152602001678ac7230489e8000081525060055f8a81526020019081526020015f205f820151815f015560208201518160010190816113169190612769565b506040820151816002015560608201518160030190816113369190612769565b50608082015181600401908161134c9190612769565b5060a0820151816005015f6101000a81548160ff0219169083600281111561137757611376611ea2565b5b021790555060c08201518160050160016101000a81548160ff02191690831515021790555060e0820151816006015590505060025f8154809291906113bb90611f64565b9190505550879050979650505050505050565b60605f8203611414576040518060400160405280600181526020017f30000000000000000000000000000000000000000000000000000000000000008152509050611561565b600a8210156114535781603061142a91906120a6565b60f81b60405160200161143d919061299d565b6040516020818303038152906040529050611561565b5f8290505f5b5f821461148257808061146b90611f64565b915050600a8261147b9190612005565b9150611459565b5f8167ffffffffffffffff81111561149d5761149c611a0e565b5b6040519080825280601f01601f1916602001820160405280156114cf5781602001600182028036833780820191505090505b5090505b5f851461155a576001826114e7919061245e565b9150600a856114f69190612035565b603061150291906120a6565b60f81b81838151811061151857611517611fab565b5b60200101907effffffffffffffffffffffffffffffffffffffffffffffffffffffffffffff191690815f1a905350600a856115539190612005565b94506114d3565b8093505050505b919050565b5f604051905090565b5f5ffd5b5f5ffd5b5f819050919050565b61158981611577565b8114611593575f5ffd5b50565b5f813590506115a481611580565b92915050565b5f8115159050919050565b6115be816115aa565b81146115c8575f5ffd5b50565b5f813590506115d9816115b5565b92915050565b5f5f5f606084860312156115f6576115f561156f565b5b5f61160386828701611596565b935050602061161486828701611596565b9250506040611625868287016115cb565b9150509250925092565b5f602082840312156116445761164361156f565b5b5f61165184828501611596565b91505092915050565b5f81519050919050565b5f82825260208201905092915050565b5f819050602082019050919050565b61168c81611577565b82525050565b5f61169d8383611683565b60208301905092915050565b5f602082019050919050565b5f6116bf8261165a565b6116c98185611664565b93506116d483611674565b805f5b838110156117045781516116eb8882611692565b97506116f6836116a9565b9250506001810190506116d7565b5085935050505092915050565b5f81519050919050565b5f82825260208201905092915050565b5f819050602082019050919050565b5f81519050919050565b5f82825260208201905092915050565b8281835e5f83830152505050565b5f601f19601f8301169050919050565b5f61177c8261173a565b6117868185611744565b9350611796818560208601611754565b61179f81611762565b840191505092915050565b5f6117b58383611772565b905092915050565b5f602082019050919050565b5f6117d382611711565b6117dd818561171b565b9350836020820285016117ef8561172b565b805f5b8581101561182a578484038952815161180b85826117aa565b9450611816836117bd565b925060208a019950506001810190506117f2565b50829750879550505050505092915050565b5f6040820190508181035f83015261185481856116b5565b9050818103602083015261186881846117c9565b90509392505050565b5f6040820190508181035f83015261188981856116b5565b9050818103602083015261189d81846116b5565b90509392505050565b6118af81611577565b82525050565b5f82825260208201905092915050565b5f6118cf8261173a565b6118d981856118b5565b93506118e9818560208601611754565b6118f281611762565b840191505092915050565b611906816115aa565b82525050565b5f610100820190506119205f83018b6118a6565b8181036020830152611932818a6118c5565b905061194160408301896118a6565b818103606083015261195381886118c5565b9050818103608083015261196781876118c5565b905061197660a08301866118a6565b61198360c08301856118fd565b61199060e08301846118a6565b9998505050505050505050565b5f5f5f606084860312156119b4576119b361156f565b5b5f6119c186828701611596565b93505060206119d286828701611596565b92505060406119e386828701611596565b9150509250925092565b5f602082019050611a005f8301846118fd565b92915050565b5f5ffd5b5f5ffd5b7f4e487b71000000000000000000000000000000000000000000000000000000005f52604160045260245ffd5b611a4482611762565b810181811067ffffffffffffffff82111715611a6357611a62611a0e565b5b80604052505050565b5f611a75611566565b9050611a818282611a3b565b919050565b5f67ffffffffffffffff821115611aa057611a9f611a0e565b5b611aa982611762565b9050602081019050919050565b828183375f83830152505050565b5f611ad6611ad184611a86565b611a6c565b905082815260208101848484011115611af257611af1611a0a565b5b611afd848285611ab6565b509392505050565b5f82601f830112611b1957611b18611a06565b5b8135611b29848260208601611ac4565b91505092915050565b5f5f5f5f60808587031215611b4a57611b4961156f565b5b5f611b5787828801611596565b945050602085013567ffffffffffffffff811115611b7857611b77611573565b5b611b8487828801611b05565b9350506040611b9587828801611596565b925050606085013567ffffffffffffffff811115611bb657611bb5611573565b5b611bc287828801611b05565b91505092959194509250565b5f602082019050611be15f8301846118a6565b92915050565b5f5f5f60608486031215611bfe57611bfd61156f565b5b5f611c0b86828701611596565b935050602084013567ffffffffffffffff811115611c2c57611c2b611573565b5b611c3886828701611b05565b9250506040611c4986828701611596565b9150509250925092565b5f5f5f5f5f5f5f60e0888a031215611c6e57611c6d61156f565b5b5f611c7b8a828b01611596565b975050602088013567ffffffffffffffff811115611c9c57611c9b611573565b5b611ca88a828b01611b05565b9650506040611cb98a828b01611596565b955050606088013567ffffffffffffffff811115611cda57611cd9611573565b5b611ce68a828b01611b05565b945050608088013567ffffffffffffffff811115611d0757611d06611573565b5b611d138a828b01611b05565b93505060a0611d248a828b01611596565b92505060c0611d358a828b016115cb565b91505092959891949750929550565b7f5061727469636970616e74206e6f7420666f756e6400000000000000000000005f82015250565b5f611d786015836118b5565b9150611d8382611d44565b602082019050919050565b5f6020820190508181035f830152611da581611d6c565b9050919050565b7f496e76616c696420747261696e696e6720696e746572657374000000000000005f82015250565b5f611de06019836118b5565b9150611deb82611dac565b602082019050919050565b5f6020820190508181035f830152611e0d81611dd4565b9050919050565b7f43616e6e6f74206368616e676520636f6d706c657465642066726f6d207472755f8201527f6520746f2066616c736500000000000000000000000000000000000000000000602082015250565b5f611e6e602a836118b5565b9150611e7982611e14565b604082019050919050565b5f6020820190508181035f830152611e9b81611e62565b9050919050565b7f4e487b71000000000000000000000000000000000000000000000000000000005f52602160045260245ffd5b7f547261696e6572206e6f7420666f756e640000000000000000000000000000005f82015250565b5f611f036011836118b5565b9150611f0e82611ecf565b602082019050919050565b5f6020820190508181035f830152611f3081611ef7565b9050919050565b7f4e487b71000000000000000000000000000000000000000000000000000000005f52601160045260245ffd5b5f611f6e82611577565b91507fffffffffffffffffffffffffffffffffffffffffffffffffffffffffffffffff8203611fa057611f9f611f37565b5b600182019050919050565b7f4e487b71000000000000000000000000000000000000000000000000000000005f52603260045260245ffd5b7f4e487b71000000000000000000000000000000000000000000000000000000005f52601260045260245ffd5b5f61200f82611577565b915061201a83611577565b92508261202a57612029611fd8565b5b828204905092915050565b5f61203f82611577565b915061204a83611577565b92508261205a57612059611fd8565b5b828206905092915050565b5f61206f82611577565b915061207a83611577565b925082820261208881611577565b9150828204841483151761209f5761209e611f37565b5b5092915050565b5f6120b082611577565b91506120bb83611577565b92508282019050808211156120d3576120d2611f37565b5b92915050565b5f81905092915050565b5f6120ed8261173a565b6120f781856120d9565b9350612107818560208601611754565b80840191505092915050565b7f3a000000000000000000000000000000000000000000000000000000000000005f82015250565b5f6121476001836120d9565b915061215282612113565b600182019050919050565b7f2d000000000000000000000000000000000000000000000000000000000000005f82015250565b5f6121916001836120d9565b915061219c8261215d565b600182019050919050565b5f6121b282876120e3565b91506121bd8261213b565b91506121c982866120e3565b91506121d482612185565b91506121e082856120e3565b91506121eb8261213b565b91506121f782846120e3565b915081905095945050505050565b7f4e487b71000000000000000000000000000000000000000000000000000000005f52602260045260245ffd5b5f600282049050600182168061224957607f821691505b60208210810361225c5761225b612205565b5b50919050565b7f496e73756666696369656e74207061727469636970616e742062616c616e63655f82015250565b5f6122966020836118b5565b91506122a182612262565b602082019050919050565b5f6020820190508181035f8301526122c38161228a565b9050919050565b7f4e6f2061646d696e7320617661696c61626c65000000000000000000000000005f82015250565b5f6122fe6013836118b5565b9150612309826122ca565b602082019050919050565b5f6020820190508181035f83015261232b816122f2565b9050919050565b7f496e76616c696420736c6f7420494400000000000000000000000000000000005f82015250565b5f612366600f836118b5565b915061237182612332565b602082019050919050565b5f6020820190508181035f8301526123938161235a565b9050919050565b7f536c6f7420697320616c726561647920626f6f6b6564000000000000000000005f82015250565b5f6123ce6016836118b5565b91506123d98261239a565b602082019050919050565b5f6020820190508181035f8301526123fb816123c2565b9050919050565b5f819050919050565b61241c61241782611577565b612402565b82525050565b5f61242d828661240b565b60208201915061243d828561240b565b60208201915061244d828461240b565b602082019150819050949350505050565b5f61246882611577565b915061247383611577565b925082820390508181111561248b5761248a611f37565b5b92915050565b7f496e76616c6964206167650000000000000000000000000000000000000000005f82015250565b5f6124c5600b836118b5565b91506124d082612491565b602082019050919050565b5f6020820190508181035f8301526124f2816124b9565b9050919050565b7f496e76616c6964204944000000000000000000000000000000000000000000005f82015250565b5f61252d600a836118b5565b9150612538826124f9565b602082019050919050565b5f6020820190508181035f83015261255a81612521565b9050919050565b7f547261696e657220494420616c726561647920657869737473000000000000005f82015250565b5f6125956019836118b5565b91506125a082612561565b602082019050919050565b5f6020820190508181035f8301526125c281612589565b9050919050565b5f819050815f5260205f209050919050565b5f6020601f8301049050919050565b5f82821b905092915050565b5f600883026126257fffffffffffffffffffffffffffffffffffffffffffffffffffffffffffffffff826125ea565b61262f86836125ea565b95508019841693508086168417925050509392505050565b5f819050919050565b5f61266a61266561266084611577565b612647565b611577565b9050919050565b5f819050919050565b61268383612650565b61269761268f82612671565b8484546125f6565b825550505050565b5f5f905090565b6126ae61269f565b6126b981848461267a565b505050565b5b818110156126dc576126d15f826126a6565b6001810190506126bf565b5050565b601f821115612721576126f2816125c9565b6126fb846125db565b8101602085101561270a578190505b61271e612716856125db565b8301826126be565b50505b505050565b5f82821c905092915050565b5f6127415f1984600802612726565b1980831691505092915050565b5f6127598383612732565b9150826002028217905092915050565b6127728261173a565b67ffffffffffffffff81111561278b5761278a611a0e565b5b6127958254612232565b6127a08282856126e0565b5f60209050601f8311600181146127d1575f84156127bf578287015190505b6127c9858261274e565b865550612830565b601f1984166127df866125c9565b5f5b82811015612806578489015182556001820191506020850194506020810190506127e1565b86831015612823578489015161281f601f891682612732565b8355505b6001600288020188555050505b505050505050565b7f41646d696e20494420616c7265616479206578697374730000000000000000005f82015250565b5f61286c6017836118b5565b915061287782612838565b602082019050919050565b5f6020820190508181035f83015261289981612860565b9050919050565b7f5061727469636970616e7420494420616c7265616479206578697374730000005f82015250565b5f6128d4601d836118b5565b91506128df826128a0565b602082019050919050565b5f6020820190508181035f830152612901816128c8565b9050919050565b7f30000000000000000000000000000000000000000000000000000000000000005f82015250565b5f61293c6001836120d9565b915061294782612908565b600182019050919050565b5f7fff0000000000000000000000000000000000000000000000000000000000000082169050919050565b5f819050919050565b61299761299282612952565b61297d565b82525050565b5f6129a782612930565b91506129b38284612986565b6001820191508190509291505056fea2646970667358221220221cc609908bd808cae28b8c8e2b90b8d09ebb00776999d1770cdc73671e9f6d64736f6c634300081e0033",
			"opcodes": "PUSH1 0x80 PUSH1 0x40 MSTORE CALLVALUE DUP1 ISZERO PUSH1 0xE JUMPI PUSH0 PUSH0 REVERT JUMPDEST POP PUSH0 PUSH0 DUP2 SWAP1 SSTORE POP PUSH0 PUSH1 0x1 DUP2 SWAP1 SSTORE POP PUSH0 PUSH1 0x2 DUP2 SWAP1 SSTORE POP PUSH2 0x29F8 DUP1 PUSH2 0x30 PUSH0 CODECOPY PUSH0 RETURN INVALID PUSH1 0x80 PUSH1 0x40 MSTORE CALLVALUE DUP1 ISZERO PUSH2 0xF JUMPI PUSH0 PUSH0 REVERT JUMPDEST POP PUSH1 0x4 CALLDATASIZE LT PUSH2 0x86 JUMPI PUSH0 CALLDATALOAD PUSH1 0xE0 SHR DUP1 PUSH4 0x6620F95F GT PUSH2 0x59 JUMPI DUP1 PUSH4 0x6620F95F EQ PUSH2 0x12D JUMPI DUP1 PUSH4 0x6C80CD33 EQ PUSH2 0x15D JUMPI DUP1 PUSH4 0x710E2ABA EQ PUSH2 0x18D JUMPI DUP1 PUSH4 0xA30B027B EQ PUSH2 0x1BD JUMPI PUSH2 0x86 JUMP JUMPDEST DUP1 PUSH4 0x3A7002E1 EQ PUSH2 0x8A JUMPI DUP1 PUSH4 0x51ECA4DD EQ PUSH2 0xA6 JUMPI DUP1 PUSH4 0x5A29DC29 EQ PUSH2 0xD7 JUMPI DUP1 PUSH4 0x5FFC80F2 EQ PUSH2 0xF6 JUMPI JUMPDEST PUSH0 PUSH0 REVERT JUMPDEST PUSH2 0xA4 PUSH1 0x4 DUP1 CALLDATASIZE SUB DUP2 ADD SWAP1 PUSH2 0x9F SWAP2 SWAP1 PUSH2 0x15DF JUMP JUMPDEST PUSH2 0x1ED JUMP JUMPDEST STOP JUMPDEST PUSH2 0xC0 PUSH1 0x4 DUP1 CALLDATASIZE SUB DUP2 ADD SWAP1 PUSH2 0xBB SWAP2 SWAP1 PUSH2 0x162F JUMP JUMPDEST PUSH2 0x353 JUMP JUMPDEST PUSH1 0x40 MLOAD PUSH2 0xCE SWAP3 SWAP2 SWAP1 PUSH2 0x183C JUMP JUMPDEST PUSH1 0x40 MLOAD DUP1 SWAP2 SUB SWAP1 RETURN JUMPDEST PUSH2 0xDF PUSH2 0x6D5 JUMP JUMPDEST PUSH1 0x40 MLOAD PUSH2 0xED SWAP3 SWAP2 SWAP1 PUSH2 0x1871 JUMP JUMPDEST PUSH1 0x40 MLOAD DUP1 SWAP2 SUB SWAP1 RETURN JUMPDEST PUSH2 0x110 PUSH1 0x4 DUP1 CALLDATASIZE SUB DUP2 ADD SWAP1 PUSH2 0x10B SWAP2 SWAP1 PUSH2 0x162F JUMP JUMPDEST PUSH2 0x81F JUMP JUMPDEST PUSH1 0x40 MLOAD PUSH2 0x124 SWAP9 SWAP8 SWAP7 SWAP6 SWAP5 SWAP4 SWAP3 SWAP2 SWAP1 PUSH2 0x190C JUMP JUMPDEST PUSH1 0x40 MLOAD DUP1 SWAP2 SUB SWAP1 RETURN JUMPDEST PUSH2 0x147 PUSH1 0x4 DUP1 CALLDATASIZE SUB DUP2 ADD SWAP1 PUSH2 0x142 SWAP2 SWAP1 PUSH2 0x199D JUMP JUMPDEST PUSH2 0xB15 JUMP JUMPDEST PUSH1 0x40 MLOAD PUSH2 0x154 SWAP2 SWAP1 PUSH2 0x19ED JUMP JUMPDEST PUSH1 0x40 MLOAD DUP1 SWAP2 SUB SWAP1 RETURN JUMPDEST PUSH2 0x177 PUSH1 0x4 DUP1 CALLDATASIZE SUB DUP2 ADD SWAP1 PUSH2 0x172 SWAP2 SWAP1 PUSH2 0x1B32 JUMP JUMPDEST PUSH2 0xE6C JUMP JUMPDEST PUSH1 0x40 MLOAD PUSH2 0x184 SWAP2 SWAP1 PUSH2 0x1BCE JUMP JUMPDEST PUSH1 0x40 MLOAD DUP1 SWAP2 SUB SWAP1 RETURN JUMPDEST PUSH2 0x1A7 PUSH1 0x4 DUP1 CALLDATASIZE SUB DUP2 ADD SWAP1 PUSH2 0x1A2 SWAP2 SWAP1 PUSH2 0x1BE7 JUMP JUMPDEST PUSH2 0xFDB JUMP JUMPDEST PUSH1 0x40 MLOAD PUSH2 0x1B4 SWAP2 SWAP1 PUSH2 0x1BCE JUMP JUMPDEST PUSH1 0x40 MLOAD DUP1 SWAP2 SUB SWAP1 RETURN JUMPDEST PUSH2 0x1D7 PUSH1 0x4 DUP1 CALLDATASIZE SUB DUP2 ADD SWAP1 PUSH2 0x1D2 SWAP2 SWAP1 PUSH2 0x1C53 JUMP JUMPDEST PUSH2 0x1162 JUMP JUMPDEST PUSH1 0x40 MLOAD PUSH2 0x1E4 SWAP2 SWAP1 PUSH2 0x1BCE JUMP JUMPDEST PUSH1 0x40 MLOAD DUP1 SWAP2 SUB SWAP1 RETURN JUMPDEST PUSH0 PUSH1 0x5 PUSH0 DUP6 DUP2 MSTORE PUSH1 0x20 ADD SWAP1 DUP2 MSTORE PUSH1 0x20 ADD PUSH0 KECCAK256 PUSH0 ADD SLOAD SUB PUSH2 0x242 JUMPI PUSH1 0x40 MLOAD PUSH32 0x8C379A000000000000000000000000000000000000000000000000000000000 DUP2 MSTORE PUSH1 0x4 ADD PUSH2 0x239 SWAP1 PUSH2 0x1D8E JUMP JUMPDEST PUSH1 0x40 MLOAD DUP1 SWAP2 SUB SWAP1 REVERT JUMPDEST PUSH1 0x2 DUP3 GT ISZERO PUSH2 0x286 JUMPI PUSH1 0x40 MLOAD PUSH32 0x8C379A000000000000000000000000000000000000000000000000000000000 DUP2 MSTORE PUSH1 0x4 ADD PUSH2 0x27D SWAP1 PUSH2 0x1DF6 JUMP JUMPDEST PUSH1 0x40 MLOAD DUP1 SWAP2 SUB SWAP1 REVERT JUMPDEST PUSH0 PUSH1 0x5 PUSH0 DUP6 DUP2 MSTORE PUSH1 0x20 ADD SWAP1 DUP2 MSTORE PUSH1 0x20 ADD PUSH0 KECCAK256 SWAP1 POP DUP1 PUSH1 0x5 ADD PUSH1 0x1 SWAP1 SLOAD SWAP1 PUSH2 0x100 EXP SWAP1 DIV PUSH1 0xFF AND ISZERO DUP1 PUSH2 0x2B5 JUMPI POP DUP2 JUMPDEST PUSH2 0x2F4 JUMPI PUSH1 0x40 MLOAD PUSH32 0x8C379A000000000000000000000000000000000000000000000000000000000 DUP2 MSTORE PUSH1 0x4 ADD PUSH2 0x2EB SWAP1 PUSH2 0x1E84 JUMP JUMPDEST PUSH1 0x40 MLOAD DUP1 SWAP2 SUB SWAP1 REVERT JUMPDEST DUP3 PUSH1 0x2 DUP2 GT ISZERO PUSH2 0x307 JUMPI PUSH2 0x306 PUSH2 0x1EA2 JUMP JUMPDEST JUMPDEST DUP2 PUSH1 0x5 ADD PUSH0 PUSH2 0x100 EXP DUP2 SLOAD DUP2 PUSH1 0xFF MUL NOT AND SWAP1 DUP4 PUSH1 0x2 DUP2 GT ISZERO PUSH2 0x32C JUMPI PUSH2 0x32B PUSH2 0x1EA2 JUMP JUMPDEST JUMPDEST MUL OR SWAP1 SSTORE POP DUP2 DUP2 PUSH1 0x5 ADD PUSH1 0x1 PUSH2 0x100 EXP DUP2 SLOAD DUP2 PUSH1 0xFF MUL NOT AND SWAP1 DUP4 ISZERO ISZERO MUL OR SWAP1 SSTORE POP POP POP POP POP JUMP JUMPDEST PUSH1 0x60 DUP1 PUSH0 PUSH1 0x4 PUSH0 DUP6 DUP2 MSTORE PUSH1 0x20 ADD SWAP1 DUP2 MSTORE PUSH1 0x20 ADD PUSH0 KECCAK256 PUSH0 ADD SLOAD SUB PUSH2 0x3AB JUMPI PUSH1 0x40 MLOAD PUSH32 0x8C379A000000000000000000000000000000000000000000000000000000000 DUP2 MSTORE PUSH1 0x4 ADD PUSH2 0x3A2 SWAP1 PUSH2 0x1F19 JUMP JUMPDEST PUSH1 0x40 MLOAD DUP1 SWAP2 SUB SWAP1 REVERT JUMPDEST PUSH0 PUSH0 SWAP1 POP PUSH0 PUSH0 SWAP1 POP JUMPDEST PUSH1 0x30 DUP2 LT ISZERO PUSH2 0x40D JUMPI PUSH1 0x6 PUSH0 DUP7 DUP2 MSTORE PUSH1 0x20 ADD SWAP1 DUP2 MSTORE PUSH1 0x20 ADD PUSH0 KECCAK256 PUSH0 DUP3 DUP2 MSTORE PUSH1 0x20 ADD SWAP1 DUP2 MSTORE PUSH1 0x20 ADD PUSH0 KECCAK256 PUSH1 0x3 ADD PUSH0 SWAP1 SLOAD SWAP1 PUSH2 0x100 EXP SWAP1 DIV PUSH1 0xFF AND PUSH2 0x400 JUMPI DUP2 DUP1 PUSH2 0x3FC SWAP1 PUSH2 0x1F64 JUMP JUMPDEST SWAP3 POP POP JUMPDEST DUP1 DUP1 PUSH1 0x1 ADD SWAP2 POP POP PUSH2 0x3B4 JUMP JUMPDEST POP DUP1 PUSH8 0xFFFFFFFFFFFFFFFF DUP2 GT ISZERO PUSH2 0x428 JUMPI PUSH2 0x427 PUSH2 0x1A0E JUMP JUMPDEST JUMPDEST PUSH1 0x40 MLOAD SWAP1 DUP1 DUP3 MSTORE DUP1 PUSH1 0x20 MUL PUSH1 0x20 ADD DUP3 ADD PUSH1 0x40 MSTORE DUP1 ISZERO PUSH2 0x456 JUMPI DUP2 PUSH1 0x20 ADD PUSH1 0x20 DUP3 MUL DUP1 CALLDATASIZE DUP4 CALLDATACOPY DUP1 DUP3 ADD SWAP2 POP POP SWAP1 POP JUMPDEST POP SWAP3 POP DUP1 PUSH8 0xFFFFFFFFFFFFFFFF DUP2 GT ISZERO PUSH2 0x473 JUMPI PUSH2 0x472 PUSH2 0x1A0E JUMP JUMPDEST JUMPDEST PUSH1 0x40 MLOAD SWAP1 DUP1 DUP3 MSTORE DUP1 PUSH1 0x20 MUL PUSH1 0x20 ADD DUP3 ADD PUSH1 0x40 MSTORE DUP1 ISZERO PUSH2 0x4A6 JUMPI DUP2 PUSH1 0x20 ADD JUMPDEST PUSH1 0x60 DUP2 MSTORE PUSH1 0x20 ADD SWAP1 PUSH1 0x1 SWAP1 SUB SWAP1 DUP2 PUSH2 0x491 JUMPI SWAP1 POP JUMPDEST POP SWAP2 POP PUSH0 PUSH0 SWAP1 POP PUSH0 PUSH0 SWAP1 POP JUMPDEST PUSH1 0x30 DUP2 LT ISZERO PUSH2 0x6CD JUMPI PUSH1 0x6 PUSH0 DUP8 DUP2 MSTORE PUSH1 0x20 ADD SWAP1 DUP2 MSTORE PUSH1 0x20 ADD PUSH0 KECCAK256 PUSH0 DUP3 DUP2 MSTORE PUSH1 0x20 ADD SWAP1 DUP2 MSTORE PUSH1 0x20 ADD PUSH0 KECCAK256 PUSH1 0x3 ADD PUSH0 SWAP1 SLOAD SWAP1 PUSH2 0x100 EXP SWAP1 DIV PUSH1 0xFF AND PUSH2 0x6C0 JUMPI DUP1 DUP6 DUP4 DUP2 MLOAD DUP2 LT PUSH2 0x503 JUMPI PUSH2 0x502 PUSH2 0x1FAB JUMP JUMPDEST JUMPDEST PUSH1 0x20 MUL PUSH1 0x20 ADD ADD DUP2 DUP2 MSTORE POP POP PUSH0 PUSH1 0x2 DUP3 PUSH2 0x51D SWAP2 SWAP1 PUSH2 0x2005 JUMP JUMPDEST SWAP1 POP PUSH0 PUSH1 0x1E PUSH1 0x2 DUP5 PUSH2 0x52F SWAP2 SWAP1 PUSH2 0x2035 JUMP JUMPDEST PUSH2 0x539 SWAP2 SWAP1 PUSH2 0x2065 JUMP JUMPDEST SWAP1 POP PUSH0 DUP3 SWAP1 POP PUSH0 PUSH1 0x1E DUP4 PUSH2 0x54D SWAP2 SWAP1 PUSH2 0x20A6 JUMP JUMPDEST SWAP1 POP PUSH1 0x3C DUP2 SUB PUSH2 0x569 JUMPI DUP2 DUP1 PUSH2 0x562 SWAP1 PUSH2 0x1F64 JUMP JUMPDEST SWAP3 POP POP PUSH0 SWAP1 POP JUMPDEST PUSH2 0x572 DUP5 PUSH2 0x13CE JUMP JUMPDEST PUSH0 DUP5 EQ PUSH2 0x5B4 JUMPI PUSH1 0x40 MLOAD DUP1 PUSH1 0x40 ADD PUSH1 0x40 MSTORE DUP1 PUSH1 0x2 DUP2 MSTORE PUSH1 0x20 ADD PUSH32 0x3330000000000000000000000000000000000000000000000000000000000000 DUP2 MSTORE POP PUSH2 0x5EB JUMP JUMPDEST PUSH1 0x40 MLOAD DUP1 PUSH1 0x40 ADD PUSH1 0x40 MSTORE DUP1 PUSH1 0x2 DUP2 MSTORE PUSH1 0x20 ADD PUSH32 0x3030000000000000000000000000000000000000000000000000000000000000 DUP2 MSTORE POP JUMPDEST PUSH2 0x5F4 DUP5 PUSH2 0x13CE JUMP JUMPDEST PUSH0 DUP5 EQ PUSH2 0x636 JUMPI PUSH1 0x40 MLOAD DUP1 PUSH1 0x40 ADD PUSH1 0x40 MSTORE DUP1 PUSH1 0x2 DUP2 MSTORE PUSH1 0x20 ADD PUSH32 0x3330000000000000000000000000000000000000000000000000000000000000 DUP2 MSTORE POP PUSH2 0x66D JUMP JUMPDEST PUSH1 0x40 MLOAD DUP1 PUSH1 0x40 ADD PUSH1 0x40 MSTORE DUP1 PUSH1 0x2 DUP2 MSTORE PUSH1 0x20 ADD PUSH32 0x3030000000000000000000000000000000000000000000000000000000000000 DUP2 MSTORE POP JUMPDEST PUSH1 0x40 MLOAD PUSH1 0x20 ADD PUSH2 0x680 SWAP5 SWAP4 SWAP3 SWAP2 SWAP1 PUSH2 0x21A7 JUMP JUMPDEST PUSH1 0x40 MLOAD PUSH1 0x20 DUP2 DUP4 SUB SUB DUP2 MSTORE SWAP1 PUSH1 0x40 MSTORE DUP9 DUP8 DUP2 MLOAD DUP2 LT PUSH2 0x6A2 JUMPI PUSH2 0x6A1 PUSH2 0x1FAB JUMP JUMPDEST JUMPDEST PUSH1 0x20 MUL PUSH1 0x20 ADD ADD DUP2 SWAP1 MSTORE POP DUP6 DUP1 PUSH2 0x6B8 SWAP1 PUSH2 0x1F64 JUMP JUMPDEST SWAP7 POP POP POP POP POP POP JUMPDEST DUP1 DUP1 PUSH1 0x1 ADD SWAP2 POP POP PUSH2 0x4B2 JUMP JUMPDEST POP POP POP SWAP2 POP SWAP2 JUMP JUMPDEST PUSH1 0x60 DUP1 PUSH0 PUSH1 0x7 DUP1 SLOAD SWAP1 POP SWAP1 POP DUP1 PUSH8 0xFFFFFFFFFFFFFFFF DUP2 GT ISZERO PUSH2 0x6FB JUMPI PUSH2 0x6FA PUSH2 0x1A0E JUMP JUMPDEST JUMPDEST PUSH1 0x40 MLOAD SWAP1 DUP1 DUP3 MSTORE DUP1 PUSH1 0x20 MUL PUSH1 0x20 ADD DUP3 ADD PUSH1 0x40 MSTORE DUP1 ISZERO PUSH2 0x729 JUMPI DUP2 PUSH1 0x20 ADD PUSH1 0x20 DUP3 MUL DUP1 CALLDATASIZE DUP4 CALLDATACOPY DUP1 DUP3 ADD SWAP2 POP POP SWAP1 POP JUMPDEST POP SWAP3 POP DUP1 PUSH8 0xFFFFFFFFFFFFFFFF DUP2 GT ISZERO PUSH2 0x746 JUMPI PUSH2 0x745 PUSH2 0x1A0E JUMP JUMPDEST JUMPDEST PUSH1 0x40 MLOAD SWAP1 DUP1 DUP3 MSTORE DUP1 PUSH1 0x20 MUL PUSH1 0x20 ADD DUP3 ADD PUSH1 0x40 MSTORE DUP1 ISZERO PUSH2 0x774 JUMPI DUP2 PUSH1 0x20 ADD PUSH1 0x20 DUP3 MUL DUP1 CALLDATASIZE DUP4 CALLDATACOPY DUP1 DUP3 ADD SWAP2 POP POP SWAP1 POP JUMPDEST POP SWAP2 POP PUSH0 PUSH0 SWAP1 POP JUMPDEST DUP2 DUP2 LT ISZERO PUSH2 0x819 JUMPI PUSH0 PUSH1 0x7 DUP3 DUP2 SLOAD DUP2 LT PUSH2 0x799 JUMPI PUSH2 0x798 PUSH2 0x1FAB JUMP JUMPDEST JUMPDEST SWAP1 PUSH0 MSTORE PUSH1 0x20 PUSH0 KECCAK256 ADD SLOAD SWAP1 POP DUP1 DUP6 DUP4 DUP2 MLOAD DUP2 LT PUSH2 0x7B8 JUMPI PUSH2 0x7B7 PUSH2 0x1FAB JUMP JUMPDEST JUMPDEST PUSH1 0x20 MUL PUSH1 0x20 ADD ADD DUP2 DUP2 MSTORE POP POP PUSH8 0xDE0B6B3A7640000 PUSH1 0x3 PUSH0 DUP4 DUP2 MSTORE PUSH1 0x20 ADD SWAP1 DUP2 MSTORE PUSH1 0x20 ADD PUSH0 KECCAK256 PUSH1 0x3 ADD SLOAD PUSH2 0x7EC SWAP2 SWAP1 PUSH2 0x2005 JUMP JUMPDEST DUP5 DUP4 DUP2 MLOAD DUP2 LT PUSH2 0x7FF JUMPI PUSH2 0x7FE PUSH2 0x1FAB JUMP JUMPDEST JUMPDEST PUSH1 0x20 MUL PUSH1 0x20 ADD ADD DUP2 DUP2 MSTORE POP POP POP DUP1 DUP1 PUSH1 0x1 ADD SWAP2 POP POP PUSH2 0x77C JUMP JUMPDEST POP POP SWAP1 SWAP2 JUMP JUMPDEST PUSH0 PUSH1 0x60 PUSH0 PUSH1 0x60 DUP1 PUSH0 PUSH0 PUSH0 PUSH0 PUSH1 0x5 PUSH0 DUP12 DUP2 MSTORE PUSH1 0x20 ADD SWAP1 DUP2 MSTORE PUSH1 0x20 ADD PUSH0 KECCAK256 PUSH0 ADD SLOAD SUB PUSH2 0x87E JUMPI PUSH1 0x40 MLOAD PUSH32 0x8C379A000000000000000000000000000000000000000000000000000000000 DUP2 MSTORE PUSH1 0x4 ADD PUSH2 0x875 SWAP1 PUSH2 0x1D8E JUMP JUMPDEST PUSH1 0x40 MLOAD DUP1 SWAP2 SUB SWAP1 REVERT JUMPDEST PUSH0 PUSH1 0x5 PUSH0 DUP12 DUP2 MSTORE PUSH1 0x20 ADD SWAP1 DUP2 MSTORE PUSH1 0x20 ADD PUSH0 KECCAK256 PUSH1 0x40 MLOAD DUP1 PUSH2 0x100 ADD PUSH1 0x40 MSTORE SWAP1 DUP2 PUSH0 DUP3 ADD SLOAD DUP2 MSTORE PUSH1 0x20 ADD PUSH1 0x1 DUP3 ADD DUP1 SLOAD PUSH2 0x8B5 SWAP1 PUSH2 0x2232 JUMP JUMPDEST DUP1 PUSH1 0x1F ADD PUSH1 0x20 DUP1 SWAP2 DIV MUL PUSH1 0x20 ADD PUSH1 0x40 MLOAD SWAP1 DUP2 ADD PUSH1 0x40 MSTORE DUP1 SWAP3 SWAP2 SWAP1 DUP2 DUP2 MSTORE PUSH1 0x20 ADD DUP3 DUP1 SLOAD PUSH2 0x8E1 SWAP1 PUSH2 0x2232 JUMP JUMPDEST DUP1 ISZERO PUSH2 0x92C JUMPI DUP1 PUSH1 0x1F LT PUSH2 0x903 JUMPI PUSH2 0x100 DUP1 DUP4 SLOAD DIV MUL DUP4 MSTORE SWAP2 PUSH1 0x20 ADD SWAP2 PUSH2 0x92C JUMP JUMPDEST DUP3 ADD SWAP2 SWAP1 PUSH0 MSTORE PUSH1 0x20 PUSH0 KECCAK256 SWAP1 JUMPDEST DUP2 SLOAD DUP2 MSTORE SWAP1 PUSH1 0x1 ADD SWAP1 PUSH1 0x20 ADD DUP1 DUP4 GT PUSH2 0x90F JUMPI DUP3 SWAP1 SUB PUSH1 0x1F AND DUP3 ADD SWAP2 JUMPDEST POP POP POP POP POP DUP2 MSTORE PUSH1 0x20 ADD PUSH1 0x2 DUP3 ADD SLOAD DUP2 MSTORE PUSH1 0x20 ADD PUSH1 0x3 DUP3 ADD DUP1 SLOAD PUSH2 0x94F SWAP1 PUSH2 0x2232 JUMP JUMPDEST DUP1 PUSH1 0x1F ADD PUSH1 0x20 DUP1 SWAP2 DIV MUL PUSH1 0x20 ADD PUSH1 0x40 MLOAD SWAP1 DUP2 ADD PUSH1 0x40 MSTORE DUP1 SWAP3 SWAP2 SWAP1 DUP2 DUP2 MSTORE PUSH1 0x20 ADD DUP3 DUP1 SLOAD PUSH2 0x97B SWAP1 PUSH2 0x2232 JUMP JUMPDEST DUP1 ISZERO PUSH2 0x9C6 JUMPI DUP1 PUSH1 0x1F LT PUSH2 0x99D JUMPI PUSH2 0x100 DUP1 DUP4 SLOAD DIV MUL DUP4 MSTORE SWAP2 PUSH1 0x20 ADD SWAP2 PUSH2 0x9C6 JUMP JUMPDEST DUP3 ADD SWAP2 SWAP1 PUSH0 MSTORE PUSH1 0x20 PUSH0 KECCAK256 SWAP1 JUMPDEST DUP2 SLOAD DUP2 MSTORE SWAP1 PUSH1 0x1 ADD SWAP1 PUSH1 0x20 ADD DUP1 DUP4 GT PUSH2 0x9A9 JUMPI DUP3 SWAP1 SUB PUSH1 0x1F AND DUP3 ADD SWAP2 JUMPDEST POP POP POP POP POP DUP2 MSTORE PUSH1 0x20 ADD PUSH1 0x4 DUP3 ADD DUP1 SLOAD PUSH2 0x9DF SWAP1 PUSH2 0x2232 JUMP JUMPDEST DUP1 PUSH1 0x1F ADD PUSH1 0x20 DUP1 SWAP2 DIV MUL PUSH1 0x20 ADD PUSH1 0x40 MLOAD SWAP1 DUP2 ADD PUSH1 0x40 MSTORE DUP1 SWAP3 SWAP2 SWAP1 DUP2 DUP2 MSTORE PUSH1 0x20 ADD DUP3 DUP1 SLOAD PUSH2 0xA0B SWAP1 PUSH2 0x2232 JUMP JUMPDEST DUP1 ISZERO PUSH2 0xA56 JUMPI DUP1 PUSH1 0x1F LT PUSH2 0xA2D JUMPI PUSH2 0x100 DUP1 DUP4 SLOAD DIV MUL DUP4 MSTORE SWAP2 PUSH1 0x20 ADD SWAP2 PUSH2 0xA56 JUMP JUMPDEST DUP3 ADD SWAP2 SWAP1 PUSH0 MSTORE PUSH1 0x20 PUSH0 KECCAK256 SWAP1 JUMPDEST DUP2 SLOAD DUP2 MSTORE SWAP1 PUSH1 0x1 ADD SWAP1 PUSH1 0x20 ADD DUP1 DUP4 GT PUSH2 0xA39 JUMPI DUP3 SWAP1 SUB PUSH1 0x1F AND DUP3 ADD SWAP2 JUMPDEST POP POP POP POP POP DUP2 MSTORE PUSH1 0x20 ADD PUSH1 0x5 DUP3 ADD PUSH0 SWAP1 SLOAD SWAP1 PUSH2 0x100 EXP SWAP1 DIV PUSH1 0xFF AND PUSH1 0x2 DUP2 GT ISZERO PUSH2 0xA83 JUMPI PUSH2 0xA82 PUSH2 0x1EA2 JUMP JUMPDEST JUMPDEST PUSH1 0x2 DUP2 GT ISZERO PUSH2 0xA95 JUMPI PUSH2 0xA94 PUSH2 0x1EA2 JUMP JUMPDEST JUMPDEST DUP2 MSTORE PUSH1 0x20 ADD PUSH1 0x5 DUP3 ADD PUSH1 0x1 SWAP1 SLOAD SWAP1 PUSH2 0x100 EXP SWAP1 DIV PUSH1 0xFF AND ISZERO ISZERO ISZERO ISZERO DUP2 MSTORE PUSH1 0x20 ADD PUSH1 0x6 DUP3 ADD SLOAD DUP2 MSTORE POP POP SWAP1 POP DUP1 PUSH0 ADD MLOAD DUP2 PUSH1 0x20 ADD MLOAD DUP3 PUSH1 0x40 ADD MLOAD DUP4 PUSH1 0x60 ADD MLOAD DUP5 PUSH1 0x80 ADD MLOAD DUP6 PUSH1 0xA0 ADD MLOAD PUSH1 0x2 DUP2 GT ISZERO PUSH2 0xAEF JUMPI PUSH2 0xAEE PUSH2 0x1EA2 JUMP JUMPDEST JUMPDEST DUP7 PUSH1 0xC0 ADD MLOAD DUP8 PUSH1 0xE0 ADD MLOAD SWAP9 POP SWAP9 POP SWAP9 POP SWAP9 POP SWAP9 POP SWAP9 POP SWAP9 POP SWAP9 POP POP SWAP2 SWAP4 SWAP6 SWAP8 POP SWAP2 SWAP4 SWAP6 SWAP8 JUMP JUMPDEST PUSH0 PUSH0 PUSH1 0x4 PUSH0 DUP7 DUP2 MSTORE PUSH1 0x20 ADD SWAP1 DUP2 MSTORE PUSH1 0x20 ADD PUSH0 KECCAK256 PUSH0 ADD SLOAD SUB PUSH2 0xB6B JUMPI PUSH1 0x40 MLOAD PUSH32 0x8C379A000000000000000000000000000000000000000000000000000000000 DUP2 MSTORE PUSH1 0x4 ADD PUSH2 0xB62 SWAP1 PUSH2 0x1F19 JUMP JUMPDEST PUSH1 0x40 MLOAD DUP1 SWAP2 SUB SWAP1 REVERT JUMPDEST PUSH0 PUSH1 0x5 PUSH0 DUP6 DUP2 MSTORE PUSH1 0x20 ADD SWAP1 DUP2 MSTORE PUSH1 0x20 ADD PUSH0 KECCAK256 PUSH0 ADD SLOAD SUB PUSH2 0xBC0 JUMPI PUSH1 0x40 MLOAD PUSH32 0x8C379A000000000000000000000000000000000000000000000000000000000 DUP2 MSTORE PUSH1 0x4 ADD PUSH2 0xBB7 SWAP1 PUSH2 0x1D8E JUMP JUMPDEST PUSH1 0x40 MLOAD DUP1 SWAP2 SUB SWAP1 REVERT JUMPDEST PUSH8 0xDE0B6B3A7640000 PUSH1 0x5 PUSH0 DUP6 DUP2 MSTORE PUSH1 0x20 ADD SWAP1 DUP2 MSTORE PUSH1 0x20 ADD PUSH0 KECCAK256 PUSH1 0x6 ADD SLOAD LT ISZERO PUSH2 0xC1F JUMPI PUSH1 0x40 MLOAD PUSH32 0x8C379A000000000000000000000000000000000000000000000000000000000 DUP2 MSTORE PUSH1 0x4 ADD PUSH2 0xC16 SWAP1 PUSH2 0x22AC JUMP JUMPDEST PUSH1 0x40 MLOAD DUP1 SWAP2 SUB SWAP1 REVERT JUMPDEST PUSH0 PUSH1 0x7 DUP1 SLOAD SWAP1 POP GT PUSH2 0xC66 JUMPI PUSH1 0x40 MLOAD PUSH32 0x8C379A000000000000000000000000000000000000000000000000000000000 DUP2 MSTORE PUSH1 0x4 ADD PUSH2 0xC5D SWAP1 PUSH2 0x2314 JUMP JUMPDEST PUSH1 0x40 MLOAD DUP1 SWAP2 SUB SWAP1 REVERT JUMPDEST PUSH1 0x30 DUP3 LT PUSH2 0xCA9 JUMPI PUSH1 0x40 MLOAD PUSH32 0x8C379A000000000000000000000000000000000000000000000000000000000 DUP2 MSTORE PUSH1 0x4 ADD PUSH2 0xCA0 SWAP1 PUSH2 0x237C JUMP JUMPDEST PUSH1 0x40 MLOAD DUP1 SWAP2 SUB SWAP1 REVERT JUMPDEST PUSH1 0x6 PUSH0 DUP6 DUP2 MSTORE PUSH1 0x20 ADD SWAP1 DUP2 MSTORE PUSH1 0x20 ADD PUSH0 KECCAK256 PUSH0 DUP4 DUP2 MSTORE PUSH1 0x20 ADD SWAP1 DUP2 MSTORE PUSH1 0x20 ADD PUSH0 KECCAK256 PUSH1 0x3 ADD PUSH0 SWAP1 SLOAD SWAP1 PUSH2 0x100 EXP SWAP1 DIV PUSH1 0xFF AND ISZERO PUSH2 0xD19 JUMPI PUSH1 0x40 MLOAD PUSH32 0x8C379A000000000000000000000000000000000000000000000000000000000 DUP2 MSTORE PUSH1 0x4 ADD PUSH2 0xD10 SWAP1 PUSH2 0x23E4 JUMP JUMPDEST PUSH1 0x40 MLOAD DUP1 SWAP2 SUB SWAP1 REVERT JUMPDEST PUSH1 0x40 MLOAD DUP1 PUSH1 0x80 ADD PUSH1 0x40 MSTORE DUP1 DUP4 DUP2 MSTORE PUSH1 0x20 ADD DUP6 DUP2 MSTORE PUSH1 0x20 ADD DUP5 DUP2 MSTORE PUSH1 0x20 ADD PUSH1 0x1 ISZERO ISZERO DUP2 MSTORE POP PUSH1 0x6 PUSH0 DUP7 DUP2 MSTORE PUSH1 0x20 ADD SWAP1 DUP2 MSTORE PUSH1 0x20 ADD PUSH0 KECCAK256 PUSH0 DUP5 DUP2 MSTORE PUSH1 0x20 ADD SWAP1 DUP2 MSTORE PUSH1 0x20 ADD PUSH0 KECCAK256 PUSH0 DUP3 ADD MLOAD DUP2 PUSH0 ADD SSTORE PUSH1 0x20 DUP3 ADD MLOAD DUP2 PUSH1 0x1 ADD SSTORE PUSH1 0x40 DUP3 ADD MLOAD DUP2 PUSH1 0x2 ADD SSTORE PUSH1 0x60 DUP3 ADD MLOAD DUP2 PUSH1 0x3 ADD PUSH0 PUSH2 0x100 EXP DUP2 SLOAD DUP2 PUSH1 0xFF MUL NOT AND SWAP1 DUP4 ISZERO ISZERO MUL OR SWAP1 SSTORE POP SWAP1 POP POP PUSH0 PUSH1 0x7 DUP1 SLOAD SWAP1 POP TIMESTAMP PREVRANDAO DUP7 PUSH1 0x40 MLOAD PUSH1 0x20 ADD PUSH2 0xDB7 SWAP4 SWAP3 SWAP2 SWAP1 PUSH2 0x2422 JUMP JUMPDEST PUSH1 0x40 MLOAD PUSH1 0x20 DUP2 DUP4 SUB SUB DUP2 MSTORE SWAP1 PUSH1 0x40 MSTORE DUP1 MLOAD SWAP1 PUSH1 0x20 ADD KECCAK256 PUSH0 SHR PUSH2 0xDD9 SWAP2 SWAP1 PUSH2 0x2035 JUMP JUMPDEST SWAP1 POP PUSH0 PUSH1 0x7 DUP3 DUP2 SLOAD DUP2 LT PUSH2 0xDF0 JUMPI PUSH2 0xDEF PUSH2 0x1FAB JUMP JUMPDEST JUMPDEST SWAP1 PUSH0 MSTORE PUSH1 0x20 PUSH0 KECCAK256 ADD SLOAD SWAP1 POP PUSH8 0xDE0B6B3A7640000 PUSH1 0x5 PUSH0 DUP8 DUP2 MSTORE PUSH1 0x20 ADD SWAP1 DUP2 MSTORE PUSH1 0x20 ADD PUSH0 KECCAK256 PUSH1 0x6 ADD PUSH0 DUP3 DUP3 SLOAD PUSH2 0xE26 SWAP2 SWAP1 PUSH2 0x245E JUMP JUMPDEST SWAP3 POP POP DUP2 SWAP1 SSTORE POP PUSH8 0xDE0B6B3A7640000 PUSH1 0x3 PUSH0 DUP4 DUP2 MSTORE PUSH1 0x20 ADD SWAP1 DUP2 MSTORE PUSH1 0x20 ADD PUSH0 KECCAK256 PUSH1 0x3 ADD PUSH0 DUP3 DUP3 SLOAD PUSH2 0xE58 SWAP2 SWAP1 PUSH2 0x20A6 JUMP JUMPDEST SWAP3 POP POP DUP2 SWAP1 SSTORE POP PUSH1 0x1 SWAP3 POP POP POP SWAP4 SWAP3 POP POP POP JUMP JUMPDEST PUSH0 PUSH0 DUP4 GT PUSH2 0xEAF JUMPI PUSH1 0x40 MLOAD PUSH32 0x8C379A000000000000000000000000000000000000000000000000000000000 DUP2 MSTORE PUSH1 0x4 ADD PUSH2 0xEA6 SWAP1 PUSH2 0x24DB JUMP JUMPDEST PUSH1 0x40 MLOAD DUP1 SWAP2 SUB SWAP1 REVERT JUMPDEST PUSH0 DUP6 GT PUSH2 0xEF1 JUMPI PUSH1 0x40 MLOAD PUSH32 0x8C379A000000000000000000000000000000000000000000000000000000000 DUP2 MSTORE PUSH1 0x4 ADD PUSH2 0xEE8 SWAP1 PUSH2 0x2543 JUMP JUMPDEST PUSH1 0x40 MLOAD DUP1 SWAP2 SUB SWAP1 REVERT JUMPDEST PUSH0 PUSH1 0x4 PUSH0 DUP8 DUP2 MSTORE PUSH1 0x20 ADD SWAP1 DUP2 MSTORE PUSH1 0x20 ADD PUSH0 KECCAK256 PUSH0 ADD SLOAD EQ PUSH2 0xF46 JUMPI PUSH1 0x40 MLOAD PUSH32 0x8C379A000000000000000000000000000000000000000000000000000000000 DUP2 MSTORE PUSH1 0x4 ADD PUSH2 0xF3D SWAP1 PUSH2 0x25AB JUMP JUMPDEST PUSH1 0x40 MLOAD DUP1 SWAP2 SUB SWAP1 REVERT JUMPDEST PUSH1 0x40 MLOAD DUP1 PUSH1 0x80 ADD PUSH1 0x40 MSTORE DUP1 DUP7 DUP2 MSTORE PUSH1 0x20 ADD DUP6 DUP2 MSTORE PUSH1 0x20 ADD DUP5 DUP2 MSTORE PUSH1 0x20 ADD DUP4 DUP2 MSTORE POP PUSH1 0x4 PUSH0 DUP8 DUP2 MSTORE PUSH1 0x20 ADD SWAP1 DUP2 MSTORE PUSH1 0x20 ADD PUSH0 KECCAK256 PUSH0 DUP3 ADD MLOAD DUP2 PUSH0 ADD SSTORE PUSH1 0x20 DUP3 ADD MLOAD DUP2 PUSH1 0x1 ADD SWAP1 DUP2 PUSH2 0xF95 SWAP2 SWAP1 PUSH2 0x2769 JUMP JUMPDEST POP PUSH1 0x40 DUP3 ADD MLOAD DUP2 PUSH1 0x2 ADD SSTORE PUSH1 0x60 DUP3 ADD MLOAD DUP2 PUSH1 0x3 ADD SWAP1 DUP2 PUSH2 0xFB5 SWAP2 SWAP1 PUSH2 0x2769 JUMP JUMPDEST POP SWAP1 POP POP PUSH1 0x1 PUSH0 DUP2 SLOAD DUP1 SWAP3 SWAP2 SWAP1 PUSH2 0xFCB SWAP1 PUSH2 0x1F64 JUMP JUMPDEST SWAP2 SWAP1 POP SSTORE POP DUP5 SWAP1 POP SWAP5 SWAP4 POP POP POP POP JUMP JUMPDEST PUSH0 PUSH0 DUP3 GT PUSH2 0x101E JUMPI PUSH1 0x40 MLOAD PUSH32 0x8C379A000000000000000000000000000000000000000000000000000000000 DUP2 MSTORE PUSH1 0x4 ADD PUSH2 0x1015 SWAP1 PUSH2 0x24DB JUMP JUMPDEST PUSH1 0x40 MLOAD DUP1 SWAP2 SUB SWAP1 REVERT JUMPDEST PUSH0 DUP5 GT PUSH2 0x1060 JUMPI PUSH1 0x40 MLOAD PUSH32 0x8C379A000000000000000000000000000000000000000000000000000000000 DUP2 MSTORE PUSH1 0x4 ADD PUSH2 0x1057 SWAP1 PUSH2 0x2543 JUMP JUMPDEST PUSH1 0x40 MLOAD DUP1 SWAP2 SUB SWAP1 REVERT JUMPDEST PUSH0 PUSH1 0x3 PUSH0 DUP7 DUP2 MSTORE PUSH1 0x20 ADD SWAP1 DUP2 MSTORE PUSH1 0x20 ADD PUSH0 KECCAK256 PUSH0 ADD SLOAD EQ PUSH2 0x10B5 JUMPI PUSH1 0x40 MLOAD PUSH32 0x8C379A000000000000000000000000000000000000000000000000000000000 DUP2 MSTORE PUSH1 0x4 ADD PUSH2 0x10AC SWAP1 PUSH2 0x2882 JUMP JUMPDEST PUSH1 0x40 MLOAD DUP1 SWAP2 SUB SWAP1 REVERT JUMPDEST PUSH1 0x40 MLOAD DUP1 PUSH1 0x80 ADD PUSH1 0x40 MSTORE DUP1 DUP6 DUP2 MSTORE PUSH1 0x20 ADD DUP5 DUP2 MSTORE PUSH1 0x20 ADD DUP4 DUP2 MSTORE PUSH1 0x20 ADD PUSH0 DUP2 MSTORE POP PUSH1 0x3 PUSH0 DUP7 DUP2 MSTORE PUSH1 0x20 ADD SWAP1 DUP2 MSTORE PUSH1 0x20 ADD PUSH0 KECCAK256 PUSH0 DUP3 ADD MLOAD DUP2 PUSH0 ADD SSTORE PUSH1 0x20 DUP3 ADD MLOAD DUP2 PUSH1 0x1 ADD SWAP1 DUP2 PUSH2 0x1104 SWAP2 SWAP1 PUSH2 0x2769 JUMP JUMPDEST POP PUSH1 0x40 DUP3 ADD MLOAD DUP2 PUSH1 0x2 ADD SSTORE PUSH1 0x60 DUP3 ADD MLOAD DUP2 PUSH1 0x3 ADD SSTORE SWAP1 POP POP PUSH1 0x7 DUP5 SWAP1 DUP1 PUSH1 0x1 DUP2 SLOAD ADD DUP1 DUP3 SSTORE DUP1 SWAP2 POP POP PUSH1 0x1 SWAP1 SUB SWAP1 PUSH0 MSTORE PUSH1 0x20 PUSH0 KECCAK256 ADD PUSH0 SWAP1 SWAP2 SWAP1 SWAP2 SWAP1 SWAP2 POP SSTORE PUSH0 PUSH0 DUP2 SLOAD DUP1 SWAP3 SWAP2 SWAP1 PUSH2 0x1153 SWAP1 PUSH2 0x1F64 JUMP JUMPDEST SWAP2 SWAP1 POP SSTORE POP DUP4 SWAP1 POP SWAP4 SWAP3 POP POP POP JUMP JUMPDEST PUSH0 PUSH0 DUP7 GT PUSH2 0x11A5 JUMPI PUSH1 0x40 MLOAD PUSH32 0x8C379A000000000000000000000000000000000000000000000000000000000 DUP2 MSTORE PUSH1 0x4 ADD PUSH2 0x119C SWAP1 PUSH2 0x24DB JUMP JUMPDEST PUSH1 0x40 MLOAD DUP1 SWAP2 SUB SWAP1 REVERT JUMPDEST PUSH0 DUP9 GT PUSH2 0x11E7 JUMPI PUSH1 0x40 MLOAD PUSH32 0x8C379A000000000000000000000000000000000000000000000000000000000 DUP2 MSTORE PUSH1 0x4 ADD PUSH2 0x11DE SWAP1 PUSH2 0x2543 JUMP JUMPDEST PUSH1 0x40 MLOAD DUP1 SWAP2 SUB SWAP1 REVERT JUMPDEST PUSH0 PUSH1 0x5 PUSH0 DUP11 DUP2 MSTORE PUSH1 0x20 ADD SWAP1 DUP2 MSTORE PUSH1 0x20 ADD PUSH0 KECCAK256 PUSH0 ADD SLOAD EQ PUSH2 0x123C JUMPI PUSH1 0x40 MLOAD PUSH32 0x8C379A000000000000000000000000000000000000000000000000000000000 DUP2 MSTORE PUSH1 0x4 ADD PUSH2 0x1233 SWAP1 PUSH2 0x28EA JUMP JUMPDEST PUSH1 0x40 MLOAD DUP1 SWAP2 SUB SWAP1 REVERT JUMPDEST PUSH1 0x2 DUP4 GT ISZERO PUSH2 0x1280 JUMPI PUSH1 0x40 MLOAD PUSH32 0x8C379A000000000000000000000000000000000000000000000000000000000 DUP2 MSTORE PUSH1 0x4 ADD PUSH2 0x1277 SWAP1 PUSH2 0x1DF6 JUMP JUMPDEST PUSH1 0x40 MLOAD DUP1 SWAP2 SUB SWAP1 REVERT JUMPDEST PUSH1 0x40 MLOAD DUP1 PUSH2 0x100 ADD PUSH1 0x40 MSTORE DUP1 DUP10 DUP2 MSTORE PUSH1 0x20 ADD DUP9 DUP2 MSTORE PUSH1 0x20 ADD DUP8 DUP2 MSTORE PUSH1 0x20 ADD DUP7 DUP2 MSTORE PUSH1 0x20 ADD DUP6 DUP2 MSTORE PUSH1 0x20 ADD DUP5 PUSH1 0x2 DUP2 GT ISZERO PUSH2 0x12BD JUMPI PUSH2 0x12BC PUSH2 0x1EA2 JUMP JUMPDEST JUMPDEST PUSH1 0x2 DUP2 GT ISZERO PUSH2 0x12CF JUMPI PUSH2 0x12CE PUSH2 0x1EA2 JUMP JUMPDEST JUMPDEST DUP2 MSTORE PUSH1 0x20 ADD DUP4 ISZERO ISZERO DUP2 MSTORE PUSH1 0x20 ADD PUSH8 0x8AC7230489E80000 DUP2 MSTORE POP PUSH1 0x5 PUSH0 DUP11 DUP2 MSTORE PUSH1 0x20 ADD SWAP1 DUP2 MSTORE PUSH1 0x20 ADD PUSH0 KECCAK256 PUSH0 DUP3 ADD MLOAD DUP2 PUSH0 ADD SSTORE PUSH1 0x20 DUP3 ADD MLOAD DUP2 PUSH1 0x1 ADD SWAP1 DUP2 PUSH2 0x1316 SWAP2 SWAP1 PUSH2 0x2769 JUMP JUMPDEST POP PUSH1 0x40 DUP3 ADD MLOAD DUP2 PUSH1 0x2 ADD SSTORE PUSH1 0x60 DUP3 ADD MLOAD DUP2 PUSH1 0x3 ADD SWAP1 DUP2 PUSH2 0x1336 SWAP2 SWAP1 PUSH2 0x2769 JUMP JUMPDEST POP PUSH1 0x80 DUP3 ADD MLOAD DUP2 PUSH1 0x4 ADD SWAP1 DUP2 PUSH2 0x134C SWAP2 SWAP1 PUSH2 0x2769 JUMP JUMPDEST POP PUSH1 0xA0 DUP3 ADD MLOAD DUP2 PUSH1 0x5 ADD PUSH0 PUSH2 0x100 EXP DUP2 SLOAD DUP2 PUSH1 0xFF MUL NOT AND SWAP1 DUP4 PUSH1 0x2 DUP2 GT ISZERO PUSH2 0x1377 JUMPI PUSH2 0x1376 PUSH2 0x1EA2 JUMP JUMPDEST JUMPDEST MUL OR SWAP1 SSTORE POP PUSH1 0xC0 DUP3 ADD MLOAD DUP2 PUSH1 0x5 ADD PUSH1 0x1 PUSH2 0x100 EXP DUP2 SLOAD DUP2 PUSH1 0xFF MUL NOT AND SWAP1 DUP4 ISZERO ISZERO MUL OR SWAP1 SSTORE POP PUSH1 0xE0 DUP3 ADD MLOAD DUP2 PUSH1 0x6 ADD SSTORE SWAP1 POP POP PUSH1 0x2 PUSH0 DUP2 SLOAD DUP1 SWAP3 SWAP2 SWAP1 PUSH2 0x13BB SWAP1 PUSH2 0x1F64 JUMP JUMPDEST SWAP2 SWAP1 POP SSTORE POP DUP8 SWAP1 POP SWAP8 SWAP7 POP POP POP POP POP POP POP JUMP JUMPDEST PUSH1 0x60 PUSH0 DUP3 SUB PUSH2 0x1414 JUMPI PUSH1 0x40 MLOAD DUP1 PUSH1 0x40 ADD PUSH1 0x40 MSTORE DUP1 PUSH1 0x1 DUP2 MSTORE PUSH1 0x20 ADD PUSH32 0x3000000000000000000000000000000000000000000000000000000000000000 DUP2 MSTORE POP SWAP1 POP PUSH2 0x1561 JUMP JUMPDEST PUSH1 0xA DUP3 LT ISZERO PUSH2 0x1453 JUMPI DUP2 PUSH1 0x30 PUSH2 0x142A SWAP2 SWAP1 PUSH2 0x20A6 JUMP JUMPDEST PUSH1 0xF8 SHL PUSH1 0x40 MLOAD PUSH1 0x20 ADD PUSH2 0x143D SWAP2 SWAP1 PUSH2 0x299D JUMP JUMPDEST PUSH1 0x40 MLOAD PUSH1 0x20 DUP2 DUP4 SUB SUB DUP2 MSTORE SWAP1 PUSH1 0x40 MSTORE SWAP1 POP PUSH2 0x1561 JUMP JUMPDEST PUSH0 DUP3 SWAP1 POP PUSH0 JUMPDEST PUSH0 DUP3 EQ PUSH2 0x1482 JUMPI DUP1 DUP1 PUSH2 0x146B SWAP1 PUSH2 0x1F64 JUMP JUMPDEST SWAP2 POP POP PUSH1 0xA DUP3 PUSH2 0x147B SWAP2 SWAP1 PUSH2 0x2005 JUMP JUMPDEST SWAP2 POP PUSH2 0x1459 JUMP JUMPDEST PUSH0 DUP2 PUSH8 0xFFFFFFFFFFFFFFFF DUP2 GT ISZERO PUSH2 0x149D JUMPI PUSH2 0x149C PUSH2 0x1A0E JUMP JUMPDEST JUMPDEST PUSH1 0x40 MLOAD SWAP1 DUP1 DUP3 MSTORE DUP1 PUSH1 0x1F ADD PUSH1 0x1F NOT AND PUSH1 0x20 ADD DUP3 ADD PUSH1 0x40 MSTORE DUP1 ISZERO PUSH2 0x14CF JUMPI DUP2 PUSH1 0x20 ADD PUSH1 0x1 DUP3 MUL DUP1 CALLDATASIZE DUP4 CALLDATACOPY DUP1 DUP3 ADD SWAP2 POP POP SWAP1 POP JUMPDEST POP SWAP1 POP JUMPDEST PUSH0 DUP6 EQ PUSH2 0x155A JUMPI PUSH1 0x1 DUP3 PUSH2 0x14E7 SWAP2 SWAP1 PUSH2 0x245E JUMP JUMPDEST SWAP2 POP PUSH1 0xA DUP6 PUSH2 0x14F6 SWAP2 SWAP1 PUSH2 0x2035 JUMP JUMPDEST PUSH1 0x30 PUSH2 0x1502 SWAP2 SWAP1 PUSH2 0x20A6 JUMP JUMPDEST PUSH1 0xF8 SHL DUP2 DUP4 DUP2 MLOAD DUP2 LT PUSH2 0x1518 JUMPI PUSH2 0x1517 PUSH2 0x1FAB JUMP JUMPDEST JUMPDEST PUSH1 0x20 ADD ADD SWAP1 PUSH31 0xFFFFFFFFFFFFFFFFFFFFFFFFFFFFFFFFFFFFFFFFFFFFFFFFFFFFFFFFFFFFFF NOT AND SWAP1 DUP2 PUSH0 BYTE SWAP1 MSTORE8 POP PUSH1 0xA DUP6 PUSH2 0x1553 SWAP2 SWAP1 PUSH2 0x2005 JUMP JUMPDEST SWAP5 POP PUSH2 0x14D3 JUMP JUMPDEST DUP1 SWAP4 POP POP POP POP JUMPDEST SWAP2 SWAP1 POP JUMP JUMPDEST PUSH0 PUSH1 0x40 MLOAD SWAP1 POP SWAP1 JUMP JUMPDEST PUSH0 PUSH0 REVERT JUMPDEST PUSH0 PUSH0 REVERT JUMPDEST PUSH0 DUP2 SWAP1 POP SWAP2 SWAP1 POP JUMP JUMPDEST PUSH2 0x1589 DUP2 PUSH2 0x1577 JUMP JUMPDEST DUP2 EQ PUSH2 0x1593 JUMPI PUSH0 PUSH0 REVERT JUMPDEST POP JUMP JUMPDEST PUSH0 DUP2 CALLDATALOAD SWAP1 POP PUSH2 0x15A4 DUP2 PUSH2 0x1580 JUMP JUMPDEST SWAP3 SWAP2 POP POP JUMP JUMPDEST PUSH0 DUP2 ISZERO ISZERO SWAP1 POP SWAP2 SWAP1 POP JUMP JUMPDEST PUSH2 0x15BE DUP2 PUSH2 0x15AA JUMP JUMPDEST DUP2 EQ PUSH2 0x15C8 JUMPI PUSH0 PUSH0 REVERT JUMPDEST POP JUMP JUMPDEST PUSH0 DUP2 CALLDATALOAD SWAP1 POP PUSH2 0x15D9 DUP2 PUSH2 0x15B5 JUMP JUMPDEST SWAP3 SWAP2 POP POP JUMP JUMPDEST PUSH0 PUSH0 PUSH0 PUSH1 0x60 DUP5 DUP7 SUB SLT ISZERO PUSH2 0x15F6 JUMPI PUSH2 0x15F5 PUSH2 0x156F JUMP JUMPDEST JUMPDEST PUSH0 PUSH2 0x1603 DUP7 DUP3 DUP8 ADD PUSH2 0x1596 JUMP JUMPDEST SWAP4 POP POP PUSH1 0x20 PUSH2 0x1614 DUP7 DUP3 DUP8 ADD PUSH2 0x1596 JUMP JUMPDEST SWAP3 POP POP PUSH1 0x40 PUSH2 0x1625 DUP7 DUP3 DUP8 ADD PUSH2 0x15CB JUMP JUMPDEST SWAP2 POP POP SWAP3 POP SWAP3 POP SWAP3 JUMP JUMPDEST PUSH0 PUSH1 0x20 DUP3 DUP5 SUB SLT ISZERO PUSH2 0x1644 JUMPI PUSH2 0x1643 PUSH2 0x156F JUMP JUMPDEST JUMPDEST PUSH0 PUSH2 0x1651 DUP5 DUP3 DUP6 ADD PUSH2 0x1596 JUMP JUMPDEST SWAP2 POP POP SWAP3 SWAP2 POP POP JUMP JUMPDEST PUSH0 DUP2 MLOAD SWAP1 POP SWAP2 SWAP1 POP JUMP JUMPDEST PUSH0 DUP3 DUP3 MSTORE PUSH1 0x20 DUP3 ADD SWAP1 POP SWAP3 SWAP2 POP POP JUMP JUMPDEST PUSH0 DUP2 SWAP1 POP PUSH1 0x20 DUP3 ADD SWAP1 POP SWAP2 SWAP1 POP JUMP JUMPDEST PUSH2 0x168C DUP2 PUSH2 0x1577 JUMP JUMPDEST DUP3 MSTORE POP POP JUMP JUMPDEST PUSH0 PUSH2 0x169D DUP4 DUP4 PUSH2 0x1683 JUMP JUMPDEST PUSH1 0x20 DUP4 ADD SWAP1 POP SWAP3 SWAP2 POP POP JUMP JUMPDEST PUSH0 PUSH1 0x20 DUP3 ADD SWAP1 POP SWAP2 SWAP1 POP JUMP JUMPDEST PUSH0 PUSH2 0x16BF DUP3 PUSH2 0x165A JUMP JUMPDEST PUSH2 0x16C9 DUP2 DUP6 PUSH2 0x1664 JUMP JUMPDEST SWAP4 POP PUSH2 0x16D4 DUP4 PUSH2 0x1674 JUMP JUMPDEST DUP1 PUSH0 JUMPDEST DUP4 DUP2 LT ISZERO PUSH2 0x1704 JUMPI DUP2 MLOAD PUSH2 0x16EB DUP9 DUP3 PUSH2 0x1692 JUMP JUMPDEST SWAP8 POP PUSH2 0x16F6 DUP4 PUSH2 0x16A9 JUMP JUMPDEST SWAP3 POP POP PUSH1 0x1 DUP2 ADD SWAP1 POP PUSH2 0x16D7 JUMP JUMPDEST POP DUP6 SWAP4 POP POP POP POP SWAP3 SWAP2 POP POP JUMP JUMPDEST PUSH0 DUP2 MLOAD SWAP1 POP SWAP2 SWAP1 POP JUMP JUMPDEST PUSH0 DUP3 DUP3 MSTORE PUSH1 0x20 DUP3 ADD SWAP1 POP SWAP3 SWAP2 POP POP JUMP JUMPDEST PUSH0 DUP2 SWAP1 POP PUSH1 0x20 DUP3 ADD SWAP1 POP SWAP2 SWAP1 POP JUMP JUMPDEST PUSH0 DUP2 MLOAD SWAP1 POP SWAP2 SWAP1 POP JUMP JUMPDEST PUSH0 DUP3 DUP3 MSTORE PUSH1 0x20 DUP3 ADD SWAP1 POP SWAP3 SWAP2 POP POP JUMP JUMPDEST DUP3 DUP2 DUP4 MCOPY PUSH0 DUP4 DUP4 ADD MSTORE POP POP POP JUMP JUMPDEST PUSH0 PUSH1 0x1F NOT PUSH1 0x1F DUP4 ADD AND SWAP1 POP SWAP2 SWAP1 POP JUMP JUMPDEST PUSH0 PUSH2 0x177C DUP3 PUSH2 0x173A JUMP JUMPDEST PUSH2 0x1786 DUP2 DUP6 PUSH2 0x1744 JUMP JUMPDEST SWAP4 POP PUSH2 0x1796 DUP2 DUP6 PUSH1 0x20 DUP7 ADD PUSH2 0x1754 JUMP JUMPDEST PUSH2 0x179F DUP2 PUSH2 0x1762 JUMP JUMPDEST DUP5 ADD SWAP2 POP POP SWAP3 SWAP2 POP POP JUMP JUMPDEST PUSH0 PUSH2 0x17B5 DUP4 DUP4 PUSH2 0x1772 JUMP JUMPDEST SWAP1 POP SWAP3 SWAP2 POP POP JUMP JUMPDEST PUSH0 PUSH1 0x20 DUP3 ADD SWAP1 POP SWAP2 SWAP1 POP JUMP JUMPDEST PUSH0 PUSH2 0x17D3 DUP3 PUSH2 0x1711 JUMP JUMPDEST PUSH2 0x17DD DUP2 DUP6 PUSH2 0x171B JUMP JUMPDEST SWAP4 POP DUP4 PUSH1 0x20 DUP3 MUL DUP6 ADD PUSH2 0x17EF DUP6 PUSH2 0x172B JUMP JUMPDEST DUP1 PUSH0 JUMPDEST DUP6 DUP2 LT ISZERO PUSH2 0x182A JUMPI DUP5 DUP5 SUB DUP10 MSTORE DUP2 MLOAD PUSH2 0x180B DUP6 DUP3 PUSH2 0x17AA JUMP JUMPDEST SWAP5 POP PUSH2 0x1816 DUP4 PUSH2 0x17BD JUMP JUMPDEST SWAP3 POP PUSH1 0x20 DUP11 ADD SWAP10 POP POP PUSH1 0x1 DUP2 ADD SWAP1 POP PUSH2 0x17F2 JUMP JUMPDEST POP DUP3 SWAP8 POP DUP8 SWAP6 POP POP POP POP POP POP SWAP3 SWAP2 POP POP JUMP JUMPDEST PUSH0 PUSH1 0x40 DUP3 ADD SWAP1 POP DUP2 DUP2 SUB PUSH0 DUP4 ADD MSTORE PUSH2 0x1854 DUP2 DUP6 PUSH2 0x16B5 JUMP JUMPDEST SWAP1 POP DUP2 DUP2 SUB PUSH1 0x20 DUP4 ADD MSTORE PUSH2 0x1868 DUP2 DUP5 PUSH2 0x17C9 JUMP JUMPDEST SWAP1 POP SWAP4 SWAP3 POP POP POP JUMP JUMPDEST PUSH0 PUSH1 0x40 DUP3 ADD SWAP1 POP DUP2 DUP2 SUB PUSH0 DUP4 ADD MSTORE PUSH2 0x1889 DUP2 DUP6 PUSH2 0x16B5 JUMP JUMPDEST SWAP1 POP DUP2 DUP2 SUB PUSH1 0x20 DUP4 ADD MSTORE PUSH2 0x189D DUP2 DUP5 PUSH2 0x16B5 JUMP JUMPDEST SWAP1 POP SWAP4 SWAP3 POP POP POP JUMP JUMPDEST PUSH2 0x18AF DUP2 PUSH2 0x1577 JUMP JUMPDEST DUP3 MSTORE POP POP JUMP JUMPDEST PUSH0 DUP3 DUP3 MSTORE PUSH1 0x20 DUP3 ADD SWAP1 POP SWAP3 SWAP2 POP POP JUMP JUMPDEST PUSH0 PUSH2 0x18CF DUP3 PUSH2 0x173A JUMP JUMPDEST PUSH2 0x18D9 DUP2 DUP6 PUSH2 0x18B5 JUMP JUMPDEST SWAP4 POP PUSH2 0x18E9 DUP2 DUP6 PUSH1 0x20 DUP7 ADD PUSH2 0x1754 JUMP JUMPDEST PUSH2 0x18F2 DUP2 PUSH2 0x1762 JUMP JUMPDEST DUP5 ADD SWAP2 POP POP SWAP3 SWAP2 POP POP JUMP JUMPDEST PUSH2 0x1906 DUP2 PUSH2 0x15AA JUMP JUMPDEST DUP3 MSTORE POP POP JUMP JUMPDEST PUSH0 PUSH2 0x100 DUP3 ADD SWAP1 POP PUSH2 0x1920 PUSH0 DUP4 ADD DUP12 PUSH2 0x18A6 JUMP JUMPDEST DUP2 DUP2 SUB PUSH1 0x20 DUP4 ADD MSTORE PUSH2 0x1932 DUP2 DUP11 PUSH2 0x18C5 JUMP JUMPDEST SWAP1 POP PUSH2 0x1941 PUSH1 0x40 DUP4 ADD DUP10 PUSH2 0x18A6 JUMP JUMPDEST DUP2 DUP2 SUB PUSH1 0x60 DUP4 ADD MSTORE PUSH2 0x1953 DUP2 DUP9 PUSH2 0x18C5 JUMP JUMPDEST SWAP1 POP DUP2 DUP2 SUB PUSH1 0x80 DUP4 ADD MSTORE PUSH2 0x1967 DUP2 DUP8 PUSH2 0x18C5 JUMP JUMPDEST SWAP1 POP PUSH2 0x1976 PUSH1 0xA0 DUP4 ADD DUP7 PUSH2 0x18A6 JUMP JUMPDEST PUSH2 0x1983 PUSH1 0xC0 DUP4 ADD DUP6 PUSH2 0x18FD JUMP JUMPDEST PUSH2 0x1990 PUSH1 0xE0 DUP4 ADD DUP5 PUSH2 0x18A6 JUMP JUMPDEST SWAP10 SWAP9 POP POP POP POP POP POP POP POP POP JUMP JUMPDEST PUSH0 PUSH0 PUSH0 PUSH1 0x60 DUP5 DUP7 SUB SLT ISZERO PUSH2 0x19B4 JUMPI PUSH2 0x19B3 PUSH2 0x156F JUMP JUMPDEST JUMPDEST PUSH0 PUSH2 0x19C1 DUP7 DUP3 DUP8 ADD PUSH2 0x1596 JUMP JUMPDEST SWAP4 POP POP PUSH1 0x20 PUSH2 0x19D2 DUP7 DUP3 DUP8 ADD PUSH2 0x1596 JUMP JUMPDEST SWAP3 POP POP PUSH1 0x40 PUSH2 0x19E3 DUP7 DUP3 DUP8 ADD PUSH2 0x1596 JUMP JUMPDEST SWAP2 POP POP SWAP3 POP SWAP3 POP SWAP3 JUMP JUMPDEST PUSH0 PUSH1 0x20 DUP3 ADD SWAP1 POP PUSH2 0x1A00 PUSH0 DUP4 ADD DUP5 PUSH2 0x18FD JUMP JUMPDEST SWAP3 SWAP2 POP POP JUMP JUMPDEST PUSH0 PUSH0 REVERT JUMPDEST PUSH0 PUSH0 REVERT JUMPDEST PUSH32 0x4E487B7100000000000000000000000000000000000000000000000000000000 PUSH0 MSTORE PUSH1 0x41 PUSH1 0x4 MSTORE PUSH1 0x24 PUSH0 REVERT JUMPDEST PUSH2 0x1A44 DUP3 PUSH2 0x1762 JUMP JUMPDEST DUP2 ADD DUP2 DUP2 LT PUSH8 0xFFFFFFFFFFFFFFFF DUP3 GT OR ISZERO PUSH2 0x1A63 JUMPI PUSH2 0x1A62 PUSH2 0x1A0E JUMP JUMPDEST JUMPDEST DUP1 PUSH1 0x40 MSTORE POP POP POP JUMP JUMPDEST PUSH0 PUSH2 0x1A75 PUSH2 0x1566 JUMP JUMPDEST SWAP1 POP PUSH2 0x1A81 DUP3 DUP3 PUSH2 0x1A3B JUMP JUMPDEST SWAP2 SWAP1 POP JUMP JUMPDEST PUSH0 PUSH8 0xFFFFFFFFFFFFFFFF DUP3 GT ISZERO PUSH2 0x1AA0 JUMPI PUSH2 0x1A9F PUSH2 0x1A0E JUMP JUMPDEST JUMPDEST PUSH2 0x1AA9 DUP3 PUSH2 0x1762 JUMP JUMPDEST SWAP1 POP PUSH1 0x20 DUP2 ADD SWAP1 POP SWAP2 SWAP1 POP JUMP JUMPDEST DUP3 DUP2 DUP4 CALLDATACOPY PUSH0 DUP4 DUP4 ADD MSTORE POP POP POP JUMP JUMPDEST PUSH0 PUSH2 0x1AD6 PUSH2 0x1AD1 DUP5 PUSH2 0x1A86 JUMP JUMPDEST PUSH2 0x1A6C JUMP JUMPDEST SWAP1 POP DUP3 DUP2 MSTORE PUSH1 0x20 DUP2 ADD DUP5 DUP5 DUP5 ADD GT ISZERO PUSH2 0x1AF2 JUMPI PUSH2 0x1AF1 PUSH2 0x1A0A JUMP JUMPDEST JUMPDEST PUSH2 0x1AFD DUP5 DUP3 DUP6 PUSH2 0x1AB6 JUMP JUMPDEST POP SWAP4 SWAP3 POP POP POP JUMP JUMPDEST PUSH0 DUP3 PUSH1 0x1F DUP4 ADD SLT PUSH2 0x1B19 JUMPI PUSH2 0x1B18 PUSH2 0x1A06 JUMP JUMPDEST JUMPDEST DUP2 CALLDATALOAD PUSH2 0x1B29 DUP5 DUP3 PUSH1 0x20 DUP7 ADD PUSH2 0x1AC4 JUMP JUMPDEST SWAP2 POP POP SWAP3 SWAP2 POP POP JUMP JUMPDEST PUSH0 PUSH0 PUSH0 PUSH0 PUSH1 0x80 DUP6 DUP8 SUB SLT ISZERO PUSH2 0x1B4A JUMPI PUSH2 0x1B49 PUSH2 0x156F JUMP JUMPDEST JUMPDEST PUSH0 PUSH2 0x1B57 DUP8 DUP3 DUP9 ADD PUSH2 0x1596 JUMP JUMPDEST SWAP5 POP POP PUSH1 0x20 DUP6 ADD CALLDATALOAD PUSH8 0xFFFFFFFFFFFFFFFF DUP2 GT ISZERO PUSH2 0x1B78 JUMPI PUSH2 0x1B77 PUSH2 0x1573 JUMP JUMPDEST JUMPDEST PUSH2 0x1B84 DUP8 DUP3 DUP9 ADD PUSH2 0x1B05 JUMP JUMPDEST SWAP4 POP POP PUSH1 0x40 PUSH2 0x1B95 DUP8 DUP3 DUP9 ADD PUSH2 0x1596 JUMP JUMPDEST SWAP3 POP POP PUSH1 0x60 DUP6 ADD CALLDATALOAD PUSH8 0xFFFFFFFFFFFFFFFF DUP2 GT ISZERO PUSH2 0x1BB6 JUMPI PUSH2 0x1BB5 PUSH2 0x1573 JUMP JUMPDEST JUMPDEST PUSH2 0x1BC2 DUP8 DUP3 DUP9 ADD PUSH2 0x1B05 JUMP JUMPDEST SWAP2 POP POP SWAP3 SWAP6 SWAP2 SWAP5 POP SWAP3 POP JUMP JUMPDEST PUSH0 PUSH1 0x20 DUP3 ADD SWAP1 POP PUSH2 0x1BE1 PUSH0 DUP4 ADD DUP5 PUSH2 0x18A6 JUMP JUMPDEST SWAP3 SWAP2 POP POP JUMP JUMPDEST PUSH0 PUSH0 PUSH0 PUSH1 0x60 DUP5 DUP7 SUB SLT ISZERO PUSH2 0x1BFE JUMPI PUSH2 0x1BFD PUSH2 0x156F JUMP JUMPDEST JUMPDEST PUSH0 PUSH2 0x1C0B DUP7 DUP3 DUP8 ADD PUSH2 0x1596 JUMP JUMPDEST SWAP4 POP POP PUSH1 0x20 DUP5 ADD CALLDATALOAD PUSH8 0xFFFFFFFFFFFFFFFF DUP2 GT ISZERO PUSH2 0x1C2C JUMPI PUSH2 0x1C2B PUSH2 0x1573 JUMP JUMPDEST JUMPDEST PUSH2 0x1C38 DUP7 DUP3 DUP8 ADD PUSH2 0x1B05 JUMP JUMPDEST SWAP3 POP POP PUSH1 0x40 PUSH2 0x1C49 DUP7 DUP3 DUP8 ADD PUSH2 0x1596 JUMP JUMPDEST SWAP2 POP POP SWAP3 POP SWAP3 POP SWAP3 JUMP JUMPDEST PUSH0 PUSH0 PUSH0 PUSH0 PUSH0 PUSH0 PUSH0 PUSH1 0xE0 DUP9 DUP11 SUB SLT ISZERO PUSH2 0x1C6E JUMPI PUSH2 0x1C6D PUSH2 0x156F JUMP JUMPDEST JUMPDEST PUSH0 PUSH2 0x1C7B DUP11 DUP3 DUP12 ADD PUSH2 0x1596 JUMP JUMPDEST SWAP8 POP POP PUSH1 0x20 DUP9 ADD CALLDATALOAD PUSH8 0xFFFFFFFFFFFFFFFF DUP2 GT ISZERO PUSH2 0x1C9C JUMPI PUSH2 0x1C9B PUSH2 0x1573 JUMP JUMPDEST JUMPDEST PUSH2 0x1CA8 DUP11 DUP3 DUP12 ADD PUSH2 0x1B05 JUMP JUMPDEST SWAP7 POP POP PUSH1 0x40 PUSH2 0x1CB9 DUP11 DUP3 DUP12 ADD PUSH2 0x1596 JUMP JUMPDEST SWAP6 POP POP PUSH1 0x60 DUP9 ADD CALLDATALOAD PUSH8 0xFFFFFFFFFFFFFFFF DUP2 GT ISZERO PUSH2 0x1CDA JUMPI PUSH2 0x1CD9 PUSH2 0x1573 JUMP JUMPDEST JUMPDEST PUSH2 0x1CE6 DUP11 DUP3 DUP12 ADD PUSH2 0x1B05 JUMP JUMPDEST SWAP5 POP POP PUSH1 0x80 DUP9 ADD CALLDATALOAD PUSH8 0xFFFFFFFFFFFFFFFF DUP2 GT ISZERO PUSH2 0x1D07 JUMPI PUSH2 0x1D06 PUSH2 0x1573 JUMP JUMPDEST JUMPDEST PUSH2 0x1D13 DUP11 DUP3 DUP12 ADD PUSH2 0x1B05 JUMP JUMPDEST SWAP4 POP POP PUSH1 0xA0 PUSH2 0x1D24 DUP11 DUP3 DUP12 ADD PUSH2 0x1596 JUMP JUMPDEST SWAP3 POP POP PUSH1 0xC0 PUSH2 0x1D35 DUP11 DUP3 DUP12 ADD PUSH2 0x15CB JUMP JUMPDEST SWAP2 POP POP SWAP3 SWAP6 SWAP9 SWAP2 SWAP5 SWAP8 POP SWAP3 SWAP6 POP JUMP JUMPDEST PUSH32 0x5061727469636970616E74206E6F7420666F756E640000000000000000000000 PUSH0 DUP3 ADD MSTORE POP JUMP JUMPDEST PUSH0 PUSH2 0x1D78 PUSH1 0x15 DUP4 PUSH2 0x18B5 JUMP JUMPDEST SWAP2 POP PUSH2 0x1D83 DUP3 PUSH2 0x1D44 JUMP JUMPDEST PUSH1 0x20 DUP3 ADD SWAP1 POP SWAP2 SWAP1 POP JUMP JUMPDEST PUSH0 PUSH1 0x20 DUP3 ADD SWAP1 POP DUP2 DUP2 SUB PUSH0 DUP4 ADD MSTORE PUSH2 0x1DA5 DUP2 PUSH2 0x1D6C JUMP JUMPDEST SWAP1 POP SWAP2 SWAP1 POP JUMP JUMPDEST PUSH32 0x496E76616C696420747261696E696E6720696E74657265737400000000000000 PUSH0 DUP3 ADD MSTORE POP JUMP JUMPDEST PUSH0 PUSH2 0x1DE0 PUSH1 0x19 DUP4 PUSH2 0x18B5 JUMP JUMPDEST SWAP2 POP PUSH2 0x1DEB DUP3 PUSH2 0x1DAC JUMP JUMPDEST PUSH1 0x20 DUP3 ADD SWAP1 POP SWAP2 SWAP1 POP JUMP JUMPDEST PUSH0 PUSH1 0x20 DUP3 ADD SWAP1 POP DUP2 DUP2 SUB PUSH0 DUP4 ADD MSTORE PUSH2 0x1E0D DUP2 PUSH2 0x1DD4 JUMP JUMPDEST SWAP1 POP SWAP2 SWAP1 POP JUMP JUMPDEST PUSH32 0x43616E6E6F74206368616E676520636F6D706C657465642066726F6D20747275 PUSH0 DUP3 ADD MSTORE PUSH32 0x6520746F2066616C736500000000000000000000000000000000000000000000 PUSH1 0x20 DUP3 ADD MSTORE POP JUMP JUMPDEST PUSH0 PUSH2 0x1E6E PUSH1 0x2A DUP4 PUSH2 0x18B5 JUMP JUMPDEST SWAP2 POP PUSH2 0x1E79 DUP3 PUSH2 0x1E14 JUMP JUMPDEST PUSH1 0x40 DUP3 ADD SWAP1 POP SWAP2 SWAP1 POP JUMP JUMPDEST PUSH0 PUSH1 0x20 DUP3 ADD SWAP1 POP DUP2 DUP2 SUB PUSH0 DUP4 ADD MSTORE PUSH2 0x1E9B DUP2 PUSH2 0x1E62 JUMP JUMPDEST SWAP1 POP SWAP2 SWAP1 POP JUMP JUMPDEST PUSH32 0x4E487B7100000000000000000000000000000000000000000000000000000000 PUSH0 MSTORE PUSH1 0x21 PUSH1 0x4 MSTORE PUSH1 0x24 PUSH0 REVERT JUMPDEST PUSH32 0x547261696E6572206E6F7420666F756E64000000000000000000000000000000 PUSH0 DUP3 ADD MSTORE POP JUMP JUMPDEST PUSH0 PUSH2 0x1F03 PUSH1 0x11 DUP4 PUSH2 0x18B5 JUMP JUMPDEST SWAP2 POP PUSH2 0x1F0E DUP3 PUSH2 0x1ECF JUMP JUMPDEST PUSH1 0x20 DUP3 ADD SWAP1 POP SWAP2 SWAP1 POP JUMP JUMPDEST PUSH0 PUSH1 0x20 DUP3 ADD SWAP1 POP DUP2 DUP2 SUB PUSH0 DUP4 ADD MSTORE PUSH2 0x1F30 DUP2 PUSH2 0x1EF7 JUMP JUMPDEST SWAP1 POP SWAP2 SWAP1 POP JUMP JUMPDEST PUSH32 0x4E487B7100000000000000000000000000000000000000000000000000000000 PUSH0 MSTORE PUSH1 0x11 PUSH1 0x4 MSTORE PUSH1 0x24 PUSH0 REVERT JUMPDEST PUSH0 PUSH2 0x1F6E DUP3 PUSH2 0x1577 JUMP JUMPDEST SWAP2 POP PUSH32 0xFFFFFFFFFFFFFFFFFFFFFFFFFFFFFFFFFFFFFFFFFFFFFFFFFFFFFFFFFFFFFFFF DUP3 SUB PUSH2 0x1FA0 JUMPI PUSH2 0x1F9F PUSH2 0x1F37 JUMP JUMPDEST JUMPDEST PUSH1 0x1 DUP3 ADD SWAP1 POP SWAP2 SWAP1 POP JUMP JUMPDEST PUSH32 0x4E487B7100000000000000000000000000000000000000000000000000000000 PUSH0 MSTORE PUSH1 0x32 PUSH1 0x4 MSTORE PUSH1 0x24 PUSH0 REVERT JUMPDEST PUSH32 0x4E487B7100000000000000000000000000000000000000000000000000000000 PUSH0 MSTORE PUSH1 0x12 PUSH1 0x4 MSTORE PUSH1 0x24 PUSH0 REVERT JUMPDEST PUSH0 PUSH2 0x200F DUP3 PUSH2 0x1577 JUMP JUMPDEST SWAP2 POP PUSH2 0x201A DUP4 PUSH2 0x1577 JUMP JUMPDEST SWAP3 POP DUP3 PUSH2 0x202A JUMPI PUSH2 0x2029 PUSH2 0x1FD8 JUMP JUMPDEST JUMPDEST DUP3 DUP3 DIV SWAP1 POP SWAP3 SWAP2 POP POP JUMP JUMPDEST PUSH0 PUSH2 0x203F DUP3 PUSH2 0x1577 JUMP JUMPDEST SWAP2 POP PUSH2 0x204A DUP4 PUSH2 0x1577 JUMP JUMPDEST SWAP3 POP DUP3 PUSH2 0x205A JUMPI PUSH2 0x2059 PUSH2 0x1FD8 JUMP JUMPDEST JUMPDEST DUP3 DUP3 MOD SWAP1 POP SWAP3 SWAP2 POP POP JUMP JUMPDEST PUSH0 PUSH2 0x206F DUP3 PUSH2 0x1577 JUMP JUMPDEST SWAP2 POP PUSH2 0x207A DUP4 PUSH2 0x1577 JUMP JUMPDEST SWAP3 POP DUP3 DUP3 MUL PUSH2 0x2088 DUP2 PUSH2 0x1577 JUMP JUMPDEST SWAP2 POP DUP3 DUP3 DIV DUP5 EQ DUP4 ISZERO OR PUSH2 0x209F JUMPI PUSH2 0x209E PUSH2 0x1F37 JUMP JUMPDEST JUMPDEST POP SWAP3 SWAP2 POP POP JUMP JUMPDEST PUSH0 PUSH2 0x20B0 DUP3 PUSH2 0x1577 JUMP JUMPDEST SWAP2 POP PUSH2 0x20BB DUP4 PUSH2 0x1577 JUMP JUMPDEST SWAP3 POP DUP3 DUP3 ADD SWAP1 POP DUP1 DUP3 GT ISZERO PUSH2 0x20D3 JUMPI PUSH2 0x20D2 PUSH2 0x1F37 JUMP JUMPDEST JUMPDEST SWAP3 SWAP2 POP POP JUMP JUMPDEST PUSH0 DUP2 SWAP1 POP SWAP3 SWAP2 POP POP JUMP JUMPDEST PUSH0 PUSH2 0x20ED DUP3 PUSH2 0x173A JUMP JUMPDEST PUSH2 0x20F7 DUP2 DUP6 PUSH2 0x20D9 JUMP JUMPDEST SWAP4 POP PUSH2 0x2107 DUP2 DUP6 PUSH1 0x20 DUP7 ADD PUSH2 0x1754 JUMP JUMPDEST DUP1 DUP5 ADD SWAP2 POP POP SWAP3 SWAP2 POP POP JUMP JUMPDEST PUSH32 0x3A00000000000000000000000000000000000000000000000000000000000000 PUSH0 DUP3 ADD MSTORE POP JUMP JUMPDEST PUSH0 PUSH2 0x2147 PUSH1 0x1 DUP4 PUSH2 0x20D9 JUMP JUMPDEST SWAP2 POP PUSH2 0x2152 DUP3 PUSH2 0x2113 JUMP JUMPDEST PUSH1 0x1 DUP3 ADD SWAP1 POP SWAP2 SWAP1 POP JUMP JUMPDEST PUSH32 0x2D00000000000000000000000000000000000000000000000000000000000000 PUSH0 DUP3 ADD MSTORE POP JUMP JUMPDEST PUSH0 PUSH2 0x2191 PUSH1 0x1 DUP4 PUSH2 0x20D9 JUMP JUMPDEST SWAP2 POP PUSH2 0x219C DUP3 PUSH2 0x215D JUMP JUMPDEST PUSH1 0x1 DUP3 ADD SWAP1 POP SWAP2 SWAP1 POP JUMP JUMPDEST PUSH0 PUSH2 0x21B2 DUP3 DUP8 PUSH2 0x20E3 JUMP JUMPDEST SWAP2 POP PUSH2 0x21BD DUP3 PUSH2 0x213B JUMP JUMPDEST SWAP2 POP PUSH2 0x21C9 DUP3 DUP7 PUSH2 0x20E3 JUMP JUMPDEST SWAP2 POP PUSH2 0x21D4 DUP3 PUSH2 0x2185 JUMP JUMPDEST SWAP2 POP PUSH2 0x21E0 DUP3 DUP6 PUSH2 0x20E3 JUMP JUMPDEST SWAP2 POP PUSH2 0x21EB DUP3 PUSH2 0x213B JUMP JUMPDEST SWAP2 POP PUSH2 0x21F7 DUP3 DUP5 PUSH2 0x20E3 JUMP JUMPDEST SWAP2 POP DUP2 SWAP1 POP SWAP6 SWAP5 POP POP POP POP POP JUMP JUMPDEST PUSH32 0x4E487B7100000000000000000000000000000000000000000000000000000000 PUSH0 MSTORE PUSH1 0x22 PUSH1 0x4 MSTORE PUSH1 0x24 PUSH0 REVERT JUMPDEST PUSH0 PUSH1 0x2 DUP3 DIV SWAP1 POP PUSH1 0x1 DUP3 AND DUP1 PUSH2 0x2249 JUMPI PUSH1 0x7F DUP3 AND SWAP2 POP JUMPDEST PUSH1 0x20 DUP3 LT DUP2 SUB PUSH2 0x225C JUMPI PUSH2 0x225B PUSH2 0x2205 JUMP JUMPDEST JUMPDEST POP SWAP2 SWAP1 POP JUMP JUMPDEST PUSH32 0x496E73756666696369656E74207061727469636970616E742062616C616E6365 PUSH0 DUP3 ADD MSTORE POP JUMP JUMPDEST PUSH0 PUSH2 0x2296 PUSH1 0x20 DUP4 PUSH2 0x18B5 JUMP JUMPDEST SWAP2 POP PUSH2 0x22A1 DUP3 PUSH2 0x2262 JUMP JUMPDEST PUSH1 0x20 DUP3 ADD SWAP1 POP SWAP2 SWAP1 POP JUMP JUMPDEST PUSH0 PUSH1 0x20 DUP3 ADD SWAP1 POP DUP2 DUP2 SUB PUSH0 DUP4 ADD MSTORE PUSH2 0x22C3 DUP2 PUSH2 0x228A JUMP JUMPDEST SWAP1 POP SWAP2 SWAP1 POP JUMP JUMPDEST PUSH32 0x4E6F2061646D696E7320617661696C61626C6500000000000000000000000000 PUSH0 DUP3 ADD MSTORE POP JUMP JUMPDEST PUSH0 PUSH2 0x22FE PUSH1 0x13 DUP4 PUSH2 0x18B5 JUMP JUMPDEST SWAP2 POP PUSH2 0x2309 DUP3 PUSH2 0x22CA JUMP JUMPDEST PUSH1 0x20 DUP3 ADD SWAP1 POP SWAP2 SWAP1 POP JUMP JUMPDEST PUSH0 PUSH1 0x20 DUP3 ADD SWAP1 POP DUP2 DUP2 SUB PUSH0 DUP4 ADD MSTORE PUSH2 0x232B DUP2 PUSH2 0x22F2 JUMP JUMPDEST SWAP1 POP SWAP2 SWAP1 POP JUMP JUMPDEST PUSH32 0x496E76616C696420736C6F742049440000000000000000000000000000000000 PUSH0 DUP3 ADD MSTORE POP JUMP JUMPDEST PUSH0 PUSH2 0x2366 PUSH1 0xF DUP4 PUSH2 0x18B5 JUMP JUMPDEST SWAP2 POP PUSH2 0x2371 DUP3 PUSH2 0x2332 JUMP JUMPDEST PUSH1 0x20 DUP3 ADD SWAP1 POP SWAP2 SWAP1 POP JUMP JUMPDEST PUSH0 PUSH1 0x20 DUP3 ADD SWAP1 POP DUP2 DUP2 SUB PUSH0 DUP4 ADD MSTORE PUSH2 0x2393 DUP2 PUSH2 0x235A JUMP JUMPDEST SWAP1 POP SWAP2 SWAP1 POP JUMP JUMPDEST PUSH32 0x536C6F7420697320616C726561647920626F6F6B656400000000000000000000 PUSH0 DUP3 ADD MSTORE POP JUMP JUMPDEST PUSH0 PUSH2 0x23CE PUSH1 0x16 DUP4 PUSH2 0x18B5 JUMP JUMPDEST SWAP2 POP PUSH2 0x23D9 DUP3 PUSH2 0x239A JUMP JUMPDEST PUSH1 0x20 DUP3 ADD SWAP1 POP SWAP2 SWAP1 POP JUMP JUMPDEST PUSH0 PUSH1 0x20 DUP3 ADD SWAP1 POP DUP2 DUP2 SUB PUSH0 DUP4 ADD MSTORE PUSH2 0x23FB DUP2 PUSH2 0x23C2 JUMP JUMPDEST SWAP1 POP SWAP2 SWAP1 POP JUMP JUMPDEST PUSH0 DUP2 SWAP1 POP SWAP2 SWAP1 POP JUMP JUMPDEST PUSH2 0x241C PUSH2 0x2417 DUP3 PUSH2 0x1577 JUMP JUMPDEST PUSH2 0x2402 JUMP JUMPDEST DUP3 MSTORE POP POP JUMP JUMPDEST PUSH0 PUSH2 0x242D DUP3 DUP7 PUSH2 0x240B JUMP JUMPDEST PUSH1 0x20 DUP3 ADD SWAP2 POP PUSH2 0x243D DUP3 DUP6 PUSH2 0x240B JUMP JUMPDEST PUSH1 0x20 DUP3 ADD SWAP2 POP PUSH2 0x244D DUP3 DUP5 PUSH2 0x240B JUMP JUMPDEST PUSH1 0x20 DUP3 ADD SWAP2 POP DUP2 SWAP1 POP SWAP5 SWAP4 POP POP POP POP JUMP JUMPDEST PUSH0 PUSH2 0x2468 DUP3 PUSH2 0x1577 JUMP JUMPDEST SWAP2 POP PUSH2 0x2473 DUP4 PUSH2 0x1577 JUMP JUMPDEST SWAP3 POP DUP3 DUP3 SUB SWAP1 POP DUP2 DUP2 GT ISZERO PUSH2 0x248B JUMPI PUSH2 0x248A PUSH2 0x1F37 JUMP JUMPDEST JUMPDEST SWAP3 SWAP2 POP POP JUMP JUMPDEST PUSH32 0x496E76616C696420616765000000000000000000000000000000000000000000 PUSH0 DUP3 ADD MSTORE POP JUMP JUMPDEST PUSH0 PUSH2 0x24C5 PUSH1 0xB DUP4 PUSH2 0x18B5 JUMP JUMPDEST SWAP2 POP PUSH2 0x24D0 DUP3 PUSH2 0x2491 JUMP JUMPDEST PUSH1 0x20 DUP3 ADD SWAP1 POP SWAP2 SWAP1 POP JUMP JUMPDEST PUSH0 PUSH1 0x20 DUP3 ADD SWAP1 POP DUP2 DUP2 SUB PUSH0 DUP4 ADD MSTORE PUSH2 0x24F2 DUP2 PUSH2 0x24B9 JUMP JUMPDEST SWAP1 POP SWAP2 SWAP1 POP JUMP JUMPDEST PUSH32 0x496E76616C696420494400000000000000000000000000000000000000000000 PUSH0 DUP3 ADD MSTORE POP JUMP JUMPDEST PUSH0 PUSH2 0x252D PUSH1 0xA DUP4 PUSH2 0x18B5 JUMP JUMPDEST SWAP2 POP PUSH2 0x2538 DUP3 PUSH2 0x24F9 JUMP JUMPDEST PUSH1 0x20 DUP3 ADD SWAP1 POP SWAP2 SWAP1 POP JUMP JUMPDEST PUSH0 PUSH1 0x20 DUP3 ADD SWAP1 POP DUP2 DUP2 SUB PUSH0 DUP4 ADD MSTORE PUSH2 0x255A DUP2 PUSH2 0x2521 JUMP JUMPDEST SWAP1 POP SWAP2 SWAP1 POP JUMP JUMPDEST PUSH32 0x547261696E657220494420616C72656164792065786973747300000000000000 PUSH0 DUP3 ADD MSTORE POP JUMP JUMPDEST PUSH0 PUSH2 0x2595 PUSH1 0x19 DUP4 PUSH2 0x18B5 JUMP JUMPDEST SWAP2 POP PUSH2 0x25A0 DUP3 PUSH2 0x2561 JUMP JUMPDEST PUSH1 0x20 DUP3 ADD SWAP1 POP SWAP2 SWAP1 POP JUMP JUMPDEST PUSH0 PUSH1 0x20 DUP3 ADD SWAP1 POP DUP2 DUP2 SUB PUSH0 DUP4 ADD MSTORE PUSH2 0x25C2 DUP2 PUSH2 0x2589 JUMP JUMPDEST SWAP1 POP SWAP2 SWAP1 POP JUMP JUMPDEST PUSH0 DUP2 SWAP1 POP DUP2 PUSH0 MSTORE PUSH1 0x20 PUSH0 KECCAK256 SWAP1 POP SWAP2 SWAP1 POP JUMP JUMPDEST PUSH0 PUSH1 0x20 PUSH1 0x1F DUP4 ADD DIV SWAP1 POP SWAP2 SWAP1 POP JUMP JUMPDEST PUSH0 DUP3 DUP3 SHL SWAP1 POP SWAP3 SWAP2 POP POP JUMP JUMPDEST PUSH0 PUSH1 0x8 DUP4 MUL PUSH2 0x2625 PUSH32 0xFFFFFFFFFFFFFFFFFFFFFFFFFFFFFFFFFFFFFFFFFFFFFFFFFFFFFFFFFFFFFFFF DUP3 PUSH2 0x25EA JUMP JUMPDEST PUSH2 0x262F DUP7 DUP4 PUSH2 0x25EA JUMP JUMPDEST SWAP6 POP DUP1 NOT DUP5 AND SWAP4 POP DUP1 DUP7 AND DUP5 OR SWAP3 POP POP POP SWAP4 SWAP3 POP POP POP JUMP JUMPDEST PUSH0 DUP2 SWAP1 POP SWAP2 SWAP1 POP JUMP JUMPDEST PUSH0 PUSH2 0x266A PUSH2 0x2665 PUSH2 0x2660 DUP5 PUSH2 0x1577 JUMP JUMPDEST PUSH2 0x2647 JUMP JUMPDEST PUSH2 0x1577 JUMP JUMPDEST SWAP1 POP SWAP2 SWAP1 POP JUMP JUMPDEST PUSH0 DUP2 SWAP1 POP SWAP2 SWAP1 POP JUMP JUMPDEST PUSH2 0x2683 DUP4 PUSH2 0x2650 JUMP JUMPDEST PUSH2 0x2697 PUSH2 0x268F DUP3 PUSH2 0x2671 JUMP JUMPDEST DUP5 DUP5 SLOAD PUSH2 0x25F6 JUMP JUMPDEST DUP3 SSTORE POP POP POP POP JUMP JUMPDEST PUSH0 PUSH0 SWAP1 POP SWAP1 JUMP JUMPDEST PUSH2 0x26AE PUSH2 0x269F JUMP JUMPDEST PUSH2 0x26B9 DUP2 DUP5 DUP5 PUSH2 0x267A JUMP JUMPDEST POP POP POP JUMP JUMPDEST JUMPDEST DUP2 DUP2 LT ISZERO PUSH2 0x26DC JUMPI PUSH2 0x26D1 PUSH0 DUP3 PUSH2 0x26A6 JUMP JUMPDEST PUSH1 0x1 DUP2 ADD SWAP1 POP PUSH2 0x26BF JUMP JUMPDEST POP POP JUMP JUMPDEST PUSH1 0x1F DUP3 GT ISZERO PUSH2 0x2721 JUMPI PUSH2 0x26F2 DUP2 PUSH2 0x25C9 JUMP JUMPDEST PUSH2 0x26FB DUP5 PUSH2 0x25DB JUMP JUMPDEST DUP2 ADD PUSH1 0x20 DUP6 LT ISZERO PUSH2 0x270A JUMPI DUP2 SWAP1 POP JUMPDEST PUSH2 0x271E PUSH2 0x2716 DUP6 PUSH2 0x25DB JUMP JUMPDEST DUP4 ADD DUP3 PUSH2 0x26BE JUMP JUMPDEST POP POP JUMPDEST POP POP POP JUMP JUMPDEST PUSH0 DUP3 DUP3 SHR SWAP1 POP SWAP3 SWAP2 POP POP JUMP JUMPDEST PUSH0 PUSH2 0x2741 PUSH0 NOT DUP5 PUSH1 0x8 MUL PUSH2 0x2726 JUMP JUMPDEST NOT DUP1 DUP4 AND SWAP2 POP POP SWAP3 SWAP2 POP POP JUMP JUMPDEST PUSH0 PUSH2 0x2759 DUP4 DUP4 PUSH2 0x2732 JUMP JUMPDEST SWAP2 POP DUP3 PUSH1 0x2 MUL DUP3 OR SWAP1 POP SWAP3 SWAP2 POP POP JUMP JUMPDEST PUSH2 0x2772 DUP3 PUSH2 0x173A JUMP JUMPDEST PUSH8 0xFFFFFFFFFFFFFFFF DUP2 GT ISZERO PUSH2 0x278B JUMPI PUSH2 0x278A PUSH2 0x1A0E JUMP JUMPDEST JUMPDEST PUSH2 0x2795 DUP3 SLOAD PUSH2 0x2232 JUMP JUMPDEST PUSH2 0x27A0 DUP3 DUP3 DUP6 PUSH2 0x26E0 JUMP JUMPDEST PUSH0 PUSH1 0x20 SWAP1 POP PUSH1 0x1F DUP4 GT PUSH1 0x1 DUP2 EQ PUSH2 0x27D1 JUMPI PUSH0 DUP5 ISZERO PUSH2 0x27BF JUMPI DUP3 DUP8 ADD MLOAD SWAP1 POP JUMPDEST PUSH2 0x27C9 DUP6 DUP3 PUSH2 0x274E JUMP JUMPDEST DUP7 SSTORE POP PUSH2 0x2830 JUMP JUMPDEST PUSH1 0x1F NOT DUP5 AND PUSH2 0x27DF DUP7 PUSH2 0x25C9 JUMP JUMPDEST PUSH0 JUMPDEST DUP3 DUP2 LT ISZERO PUSH2 0x2806 JUMPI DUP5 DUP10 ADD MLOAD DUP3 SSTORE PUSH1 0x1 DUP3 ADD SWAP2 POP PUSH1 0x20 DUP6 ADD SWAP5 POP PUSH1 0x20 DUP2 ADD SWAP1 POP PUSH2 0x27E1 JUMP JUMPDEST DUP7 DUP4 LT ISZERO PUSH2 0x2823 JUMPI DUP5 DUP10 ADD MLOAD PUSH2 0x281F PUSH1 0x1F DUP10 AND DUP3 PUSH2 0x2732 JUMP JUMPDEST DUP4 SSTORE POP JUMPDEST PUSH1 0x1 PUSH1 0x2 DUP9 MUL ADD DUP9 SSTORE POP POP POP JUMPDEST POP POP POP POP POP POP JUMP JUMPDEST PUSH32 0x41646D696E20494420616C726561647920657869737473000000000000000000 PUSH0 DUP3 ADD MSTORE POP JUMP JUMPDEST PUSH0 PUSH2 0x286C PUSH1 0x17 DUP4 PUSH2 0x18B5 JUMP JUMPDEST SWAP2 POP PUSH2 0x2877 DUP3 PUSH2 0x2838 JUMP JUMPDEST PUSH1 0x20 DUP3 ADD SWAP1 POP SWAP2 SWAP1 POP JUMP JUMPDEST PUSH0 PUSH1 0x20 DUP3 ADD SWAP1 POP DUP2 DUP2 SUB PUSH0 DUP4 ADD MSTORE PUSH2 0x2899 DUP2 PUSH2 0x2860 JUMP JUMPDEST SWAP1 POP SWAP2 SWAP1 POP JUMP JUMPDEST PUSH32 0x5061727469636970616E7420494420616C726561647920657869737473000000 PUSH0 DUP3 ADD MSTORE POP JUMP JUMPDEST PUSH0 PUSH2 0x28D4 PUSH1 0x1D DUP4 PUSH2 0x18B5 JUMP JUMPDEST SWAP2 POP PUSH2 0x28DF DUP3 PUSH2 0x28A0 JUMP JUMPDEST PUSH1 0x20 DUP3 ADD SWAP1 POP SWAP2 SWAP1 POP JUMP JUMPDEST PUSH0 PUSH1 0x20 DUP3 ADD SWAP1 POP DUP2 DUP2 SUB PUSH0 DUP4 ADD MSTORE PUSH2 0x2901 DUP2 PUSH2 0x28C8 JUMP JUMPDEST SWAP1 POP SWAP2 SWAP1 POP JUMP JUMPDEST PUSH32 0x3000000000000000000000000000000000000000000000000000000000000000 PUSH0 DUP3 ADD MSTORE POP JUMP JUMPDEST PUSH0 PUSH2 0x293C PUSH1 0x1 DUP4 PUSH2 0x20D9 JUMP JUMPDEST SWAP2 POP PUSH2 0x2947 DUP3 PUSH2 0x2908 JUMP JUMPDEST PUSH1 0x1 DUP3 ADD SWAP1 POP SWAP2 SWAP1 POP JUMP JUMPDEST PUSH0 PUSH32 0xFF00000000000000000000000000000000000000000000000000000000000000 DUP3 AND SWAP1 POP SWAP2 SWAP1 POP JUMP JUMPDEST PUSH0 DUP2 SWAP1 POP SWAP2 SWAP1 POP JUMP JUMPDEST PUSH2 0x2997 PUSH2 0x2992 DUP3 PUSH2 0x2952 JUMP JUMPDEST PUSH2 0x297D JUMP JUMPDEST DUP3 MSTORE POP POP JUMP JUMPDEST PUSH0 PUSH2 0x29A7 DUP3 PUSH2 0x2930 JUMP JUMPDEST SWAP2 POP PUSH2 0x29B3 DUP3 DUP5 PUSH2 0x2986 JUMP JUMPDEST PUSH1 0x1 DUP3 ADD SWAP2 POP DUP2 SWAP1 POP SWAP3 SWAP2 POP POP JUMP INVALID LOG2 PUSH5 0x6970667358 0x22 SLT KECCAK256 0x22 SHR 0xC6 MULMOD SWAP1 DUP12 0xD8 ADDMOD 0xCA 0xE2 DUP12 DUP13 DUP15 0x2B SWAP1 0xB8 0xD0 SWAP15 0xBB STOP PUSH24 0x6999D1770CDC73671E9F6D64736F6C634300081E00330000 "
		},
		"gasEstimates": {
			"creation": {
				"codeDepositCost": "2148800",
				"executionCost": "17323",
				"totalCost": "2166123"
			},
			"external": {
				"bookTrainingSlot(uint256,uint256,uint256)": "infinite",
				"registerAdmin(uint256,string,uint256)": "infinite",
				"registerParticipant(uint256,string,uint256,string,string,uint256,bool)": "infinite",
				"registerTrainer(uint256,string,uint256,string)": "infinite",
				"updateParticipantData(uint256,uint256,bool)": "infinite",
				"viewAdminBalance()": "infinite",
				"viewParticipantData(uint256)": "infinite",
				"viewTrainerSchedule(uint256)": "infinite"
			},
			"internal": {
				"_toString(uint256)": "infinite"
			}
		},
		"methodIdentifiers": {
			"bookTrainingSlot(uint256,uint256,uint256)": "6620f95f",
			"registerAdmin(uint256,string,uint256)": "710e2aba",
			"registerParticipant(uint256,string,uint256,string,string,uint256,bool)": "a30b027b",
			"registerTrainer(uint256,string,uint256,string)": "6c80cd33",
			"updateParticipantData(uint256,uint256,bool)": "3a7002e1",
			"viewAdminBalance()": "5a29dc29",
			"viewParticipantData(uint256)": "5ffc80f2",
			"viewTrainerSchedule(uint256)": "51eca4dd"
		}
	},
	"abi": [
		{
			"inputs": [],
			"stateMutability": "nonpayable",
			"type": "constructor"
		},
		{
			"inputs": [
				{
					"internalType": "uint256",
					"name": "trainerId",
					"type": "uint256"
				},
				{
					"internalType": "uint256",
					"name": "participantId",
					"type": "uint256"
				},
				{
					"internalType": "uint256",
					"name": "slotId",
					"type": "uint256"
				}
			],
			"name": "bookTrainingSlot",
			"outputs": [
				{
					"internalType": "bool",
					"name": "",
					"type": "bool"
				}
			],
			"stateMutability": "nonpayable",
			"type": "function"
		},
		{
			"inputs": [
				{
					"internalType": "uint256",
					"name": "id",
					"type": "uint256"
				},
				{
					"internalType": "string",
					"name": "name",
					"type": "string"
				},
				{
					"internalType": "uint256",
					"name": "age",
					"type": "uint256"
				}
			],
			"name": "registerAdmin",
			"outputs": [
				{
					"internalType": "uint256",
					"name": "",
					"type": "uint256"
				}
			],
			"stateMutability": "nonpayable",
			"type": "function"
		},
		{
			"inputs": [
				{
					"internalType": "uint256",
					"name": "id",
					"type": "uint256"
				},
				{
					"internalType": "string",
					"name": "name",
					"type": "string"
				},
				{
					"internalType": "uint256",
					"name": "age",
					"type": "uint256"
				},
				{
					"internalType": "string",
					"name": "gender",
					"type": "string"
				},
				{
					"internalType": "string",
					"name": "district",
					"type": "string"
				},
				{
					"internalType": "uint256",
					"name": "training_interest",
					"type": "uint256"
				},
				{
					"internalType": "bool",
					"name": "has_completed_training",
					"type": "bool"
				}
			],
			"name": "registerParticipant",
			"outputs": [
				{
					"internalType": "uint256",
					"name": "",
					"type": "uint256"
				}
			],
			"stateMutability": "nonpayable",
			"type": "function"
		},
		{
			"inputs": [
				{
					"internalType": "uint256",
					"name": "id",
					"type": "uint256"
				},
				{
					"internalType": "string",
					"name": "name",
					"type": "string"
				},
				{
					"internalType": "uint256",
					"name": "age",
					"type": "uint256"
				},
				{
					"internalType": "string",
					"name": "gender",
					"type": "string"
				}
			],
			"name": "registerTrainer",
			"outputs": [
				{
					"internalType": "uint256",
					"name": "",
					"type": "uint256"
				}
			],
			"stateMutability": "nonpayable",
			"type": "function"
		},
		{
			"inputs": [
				{
					"internalType": "uint256",
					"name": "participantId",
					"type": "uint256"
				},
				{
					"internalType": "uint256",
					"name": "newTrainingInterest",
					"type": "uint256"
				},
				{
					"internalType": "bool",
					"name": "has_completed_training",
					"type": "bool"
				}
			],
			"name": "updateParticipantData",
			"outputs": [],
			"stateMutability": "nonpayable",
			"type": "function"
		},
		{
			"inputs": [],
			"name": "viewAdminBalance",
			"outputs": [
				{
					"internalType": "uint256[]",
					"name": "adminIdList",
					"type": "uint256[]"
				},
				{
					"internalType": "uint256[]",
					"name": "balanceList",
					"type": "uint256[]"
				}
			],
			"stateMutability": "view",
			"type": "function"
		},
		{
			"inputs": [
				{
					"internalType": "uint256",
					"name": "participantId",
					"type": "uint256"
				}
			],
			"name": "viewParticipantData",
			"outputs": [
				{
					"internalType": "uint256",
					"name": "id",
					"type": "uint256"
				},
				{
					"internalType": "string",
					"name": "name",
					"type": "string"
				},
				{
					"internalType": "uint256",
					"name": "age",
					"type": "uint256"
				},
				{
					"internalType": "string",
					"name": "gender",
					"type": "string"
				},
				{
					"internalType": "string",
					"name": "district",
					"type": "string"
				},
				{
					"internalType": "uint256",
					"name": "training_interest",
					"type": "uint256"
				},
				{
					"internalType": "bool",
					"name": "has_completed_training",
					"type": "bool"
				},
				{
					"internalType": "uint256",
					"name": "balance",
					"type": "uint256"
				}
			],
			"stateMutability": "view",
			"type": "function"
		},
		{
			"inputs": [
				{
					"internalType": "uint256",
					"name": "trainerId",
					"type": "uint256"
				}
			],
			"name": "viewTrainerSchedule",
			"outputs": [
				{
					"internalType": "uint256[]",
					"name": "availableSlots",
					"type": "uint256[]"
				},
				{
					"internalType": "string[]",
					"name": "timeRanges",
					"type": "string[]"
				}
			],
			"stateMutability": "view",
			"type": "function"
		}
	]
}